:020000041000EA
:1000000000B5324B212058609868022188439860DF
:10001000D860186158612E4B002199600221596106
:100020000121F02299502B49196001219960352056
:1000300000F044F80222904214D00621196600F024
:1000400034F8196E01211966002018661A6600F04E
:100050002CF8196E196E196E052000F02FF8012189
:100060000842F9D1002199601B49196000215960AB
:100070001A491B48016001219960EB211966A021F2
:10008000196600F012F800219960164914480160C1
:100090000121996001BC002800D000471248134993
:1000A000086003C880F30888084703B5996A0420EC
:1000B0000142FBD001200142F8D103BD02B5186610
:1000C0001866FFF7F2FF186E186E02BD00000240BE
:1000D000000000180000070000035F00212200005C
:1000E000F4000018222000A00001001008ED00E03C
:1000F00000000000000000000000000074B24E7A12
:1001000000200420F7010010CB010010CD010010E9
:10011000C9010010C9010010C9010010C901001077
:10012000C9010010C9010010C901001061A9011026
:10013000C9010010C901001095A9011009AB0110F7
:10014000C1010010C1010010C1010010C101001067
:10015000C1010010C1010010C1010010C101001057
:10016000C1010010C1010010C1010010C101001047
:10017000C1010010C1010010C1010010C101001037
:10018000C1010010C1010010C1010010C101001027
:10019000C1010010C1010010C1010010C101001017
:1001A000C1010010C1010010C1010010C101001007
:1001B000C1010010C1010010C1010010C1010010F7
:1001C000EFF30580103800BE00BE00BE00BE00BECA
:1001D00000BE00BEF2EB8871FCC4031020C5031002
:1001E0003802001090A31AE71E481F49086006C88D
:1001F00081F3088810471D480068002801D019487D
:10020000F3E70DA40ECC002902D000F012F8F9E7B4
:100210001749184A002000E001C19142FCD116495B
:100220008847164988471649884700BEFDE701C937
:1002300001C29A42FBD3704720C50310C0000020C2
:10024000083A002068FE031000000420000004208B
:1002500068FE0310001004200010042000000000BD
:10026000704700000000000008ED00E0000000D032
:10027000083A0020C0850220F9760110D50200104E
:10028000F1760110F8B5C04606480749091A8B10E7
:10029000C90FC91810B5491003D0044B002B00D06A
:1002A000984710BD083A0020083A002000000000DE
:1002B000054B10B5002B03D00449054800E000BFF2
:1002C000FFF7E2FF10BDC0460000000010740220DE
:1002D000D861021000B587B004F0D0FF134805AB19
:1002E00004AA03A914F03AF9002803D110480F49D1
:1002F00012F0A4FD059A0499039814F053F8002213
:100300000C4B11000093062013F0B8FEFA20800079
:1003100013F01EFC08F000F8074808F04DF81DF037
:1003200051FAF82040010BF095F8FEE7400D03006C
:100330001462021000C2EB0BD861021010B50D2040
:1003400012F0E2FD002201210D2012F0B5FDD024B3
:10035000802324069B01A3620C2012F0D5FD00220D
:1003600001210C2012F0A8FD80235B01A3620E2066
:1003700012F0CAFD002201210E2012F09DFD802303
:10038000DB01A3620DF03CFA002800D110BD002073
:100390000DF0C8FCFAE7C046D0231B06586880045D
:1003A000C00F7047D0231B065868C004C00F7047A9
:1003B000D0231B0658684004C00F704710B50DF0DD
:1003C0001FFA002800D110BD00200DF0ABFCFAE7A9
:1003D00070B504000D0007280FD80DF011FA0028A1
:1003E00007D00022290020000DF0D6FC002808D0FC
:1003F00070BD06480BF02EF8FAE705480BF02AF816
:10040000F6E704480BF026F8F2E7C0460254000075
:10041000015400000354000070B50D0000281AD0EC
:100420000378002B0ED10724073303700DF0E8F991
:10043000002810D00022290020000DF0ADFC00287B
:100440000DD070BD013BDCB20470072CEED906481C
:100450000BF000F8F5E705480AF0FCFFF1E7044867
:100460000AF0F8FFEDE7C046015400000254000016
:100470000354000070B50D0000281ED00478072C2E
:1004800008D00134E4B20470072C06D90D480AF0F4
:10049000E1FF0DE00023002403700DF0B1F9002806
:1004A00007D00022290020000DF076FC002804D09F
:1004B00070BD05480AF0CEFFFAE704480AF0CAFF0B
:1004C000F6E7C04601540000025400000354000047
:1004D00010B5072800D910BD0DF062FAFBE7C04641
:1004E00010B513F063FC002905D0FA220023920016
:1004F00014F00CFC10BDFA21890014F0C9FBF9E7D7
:10050000F0B54546DE4657464E460024E0B5454D1B
:100510008BB001222868524209A909941BF0E8FB1C
:100520000128F6D1099B00271A68DE6890461A79DF
:1005300091469A699246DA6993461A7D022A37D023
:1005400020229A5C059221229B5C002B1CD013F088
:100550002DFC80197941002902DA012032494042FC
:10056000059B02900391009352465B4649464046E4
:100570001AF0B2F9099B1861002298680021022341
:1005800000941EF0A7FCC4E713F010FC8019794119
:10059000002902DA012024494042059B0290039180
:1005A000009352465B46494640461AF071F9E1E72E
:1005B00013F0FCFB80197941002902DA01201A4965
:1005C00040420123029003915246009349465B4604
:1005D00040461AF05DF9099BDA698242CBD11A686C
:1005E00090461A7991461A6A92465A6ADB6893468F
:1005F00006930023079313F0D9FB069A079B8018F4
:100600005941002902DA0120074940420290039132
:100610005B4652464946404600941AF05DF9099BF4
:10062000A9E7C046F0790220FFFFFF7F10B5134C09
:1006300082B02368002B01D002B010BD002204213B
:1006400010201BF009F82060002811D00C4BC022AC
:10065000019302230B4900930B48002392001CF0E6
:10066000B3FD0128E8D0DB21084804F091FEE3E760
:10067000D821064804F08CFEE8E7C046F079022055
:1006800010790220986202100105001048620210E1
:10069000F0B54F464646D646C0B590B0984618AB22
:1006A0001F78274B06009A461B680D009146002BC9
:1006B0002DD006AC2422002107A815F025FB0696B4
:1006C00025711EF015FA4A460C924246199B0D926E
:1006D000202209930123A7540132A35423755346C2
:1006E0000890223A186805A9002305941BF06EF8BB
:1006F000012821D101220121002052421EF01AFBC3
:100700000A9810B0E0BCBA46B146A846F0BD13F056
:100710004DFB0023199A12184B41002B02DA0122DB
:10072000084B524202920393290043464A46300046
:1007300000971AF0D1F8E4E701204042E1E7C04613
:10074000F0790220FFFFFF7FF0B54F464646D646C0
:10075000C0B592B0884606A94B701A9B070089461F
:100760001E1E0A7000D12C4E2C4BB24603251E00D3
:1007700008AC3368002B31D02422002109A815F0E1
:10078000C3FA4346276023711EF0B2F94A46534626
:10079000A2610222E3600023A060E2613068033AB4
:1007A00007A92375238407941BF010F8012808D1AA
:1007B00001220121002052421EF0BCFA20690228C9
:1007C00027D00120013D1DF095F9002DD1D1002049
:1007D00012B0E0BCBA46B146A846F0BD13F0E6FA46
:1007E0005346049300230593049A059B80185941AE
:1007F000002902DA01200A494042002302900391B5
:1008000000934A464146380002331AF041F8022864
:10081000D7D10120DCE7C04650C30000F0790220A8
:10082000FFFFFF7FF0B55746DE464E464546E0B532
:1008300095B00F0002A99B468C46172363449A4645
:100840001A705B460600002B38D01E9B002B6DD023
:100850009846394BB946032537001E000AAC336869
:10086000002B33D04B46276023711EF041F94346DD
:10087000E3600023236102335A4623755346226204
:10088000A36101220123A060E36163623068002359
:10089000524209A909941AF099FF012808D10122AE
:1008A0000121002052421EF045FA206901283BD068
:1008B0000120013D1DF01EF9002DD0D1002015B002
:1008C000F0BCBB46B246A946A046F0BD43460493E1
:1008D0000023059313F06AFA049A059B8018594186
:1008E000002925DB01230290039152464946380036
:1008F000009319F0CDFF0128DAD113F057FA049ACA
:10090000059B80185941002902DA01200B49404219
:1009100000230290039100935A4649463800013360
:1009200019F0DAFF0128C3D10120C8E7044B8FE793
:10093000012002494042D5E7F0790220FFFFFF7F06
:1009400050C30000F0B5DE4657464E464546E0B57A
:1009500099B005900891002B00D1C9E0160AD7B2D2
:10096000239A002A00D17B4A22999346002950D12C
:1009700003239846784BB9469A464346B0461E0034
:100980000EAD02201FF0EEF8041E3AD0434603706D
:100990004B46437053461B68002B00D18DE0242248
:1009A00000210FA815F0B0F9059B2B60089B2B7157
:1009B0001EF09EF85B46EB60002302222B752B8411
:1009C0005346A860EA611868033A00230DA9AC6198
:1009D0000D951AF0FBFE012800D0B2E001220121A2
:1009E000002052421EF0A6F92F6920001FF0A4F942
:1009F000022F00D1A3E00120013E1DF07BF8002E64
:100A0000BFD1002019B0F0BCBB46B246A946A046F3
:100A1000F0BD02318A4603218B464F49584689462C
:100A20005146BB46B246984607000E000EAD0992ED
:100A300030001FF097F8041EE3D0534603705B4666
:100A400041464370229A023015F064F94B461B6808
:100A5000002B59D0242200210FA815F055F9059B31
:100A60002B60089B2B711EF043F8099B0122EB6061
:100A700000232B752B844B46A860524218680DA9A1
:100A80000023AC61EE610D951AF0A0FE01285CD147
:100A900001220121002052421EF04CF92B690693DD
:100AA00020001FF049F9069B9E4248D00120013FDB
:100AB0001DF020F8002FBBD1A3E713F077F95B46B8
:100AC000069300230793069A079B80185941002933
:100AD00002DA012021494042002302900391009351
:100AE000220008990598023319F0D2FE07007CE72E
:100AF000229B002B00D084E7239B160AD7B2002B41
:100B000000D1144B9B4633E713F050F9099B0A932D
:100B100000230B930A9A0B9B80185941002902DA93
:100B200001200E49404200230290039100932200CD
:100B300033000899059819F0ABFE0690B0E7012044
:100B400060E720001FF0F8F855E701235B420693A9
:100B5000A6E7C04650C30000F0790220FFFFFF7FE8
:100B6000F0B557464E464546DE46E0B58846060097
:100B70001F0093B0002B00D17EE006AB52BA9B461B
:100B80001A801D9B002B00D170E099463E4BBA465F
:100B9000032537001E0008AC3368002B34D04346D1
:100BA000276023711DF0A4FF4B46E36000235A46E3
:100BB000236102332375E3615346A261012223625C
:100BC0001C9BA060636230680023524207A907940F
:100BD0001AF0FCFD012854D10122012100205242CB
:100BE0001EF0A8F820691C9B83423DD00120013DE6
:100BF0001CF080FF002DCFD1002013B0F0BCBB460D
:100C0000B246A946A046F0BD4B4604930023059387
:100C100013F0CCF8049A059B80185941002927DB72
:100C200001230290039100935A4641463800013354
:100C300019F02EFE022824D113F0B8F8049A059B6F
:100C400080185941002902DA01201049404200234E
:100C500002900391009352461C9B4146380019F0C4
:100C60003BFE1C9B8342C1D10120C6E7084B8CE7A9
:100C7000012006494042D3E71C9B002B00D17CE7B2
:100C8000BAE701204042AEE7F0790220FFFFFF7F84
:100C900050C300000523F0B5C356040085B0002BF7
:100CA0000BDB0125D0269D4036060520B5611CF0E2
:100CB00021FF0A2075611CF01DFF0121354D4942BD
:100CC000A0681BF097F9217920230A22206800955B
:100CD000FFF73AFD217920230B2220680095FFF7CA
:100CE00033FD21790023002220680095FFF72CFDB9
:100CF00021790023012220680095FFF725FD217945
:100D000000230C2220680095FFF71EFD0E26217996
:100D100000230D2220680F270095FFF715FD002303
:100D20006E446F4433703B70217920683300142285
:100D30000095FFF777FD002800D13070154B217921
:100D40002068152200933B00FFF76CFD00281ED0A1
:100D50003B7832780F4DA271E371A3792179206835
:100D60001422DBB20095FFF7EFFCE37921792068CC
:100D70001522DBB20095FFF7E7FC01230022237365
:100D800000210023A0681AF021FD05B0F0BD00236A
:100D90003870DEE788130000F0B54F464646D64669
:100DA0000500C0B590460F00002861D00B00203B25
:100DB000072B5DD84A4B4B4C1E689946002E00D13C
:100DC0008AE02268904256D0012E22D022699542B4
:100DD00059D0022E1DD0226A954259D0032E18D028
:100DE000226B95425AD0042E13D0226C95425BD0D0
:100DF000052E0ED0226D95425CD0062E09D0226EB3
:100E000095425DD0072E04D0226F95425ED0082E09
:100E10002ED03601A3199A4610220021504614F014
:100E200073FF4346A551A419637100230120A371E8
:100E30002771E37123731AF04FFEA060002817D0CA
:100E40004346002B09DB404612F05EF84246012380
:100E50009340D0221206536253614B464A461B68A8
:100E6000013313605046E0BCBA46B146A846F0BD17
:100E700000239A46F6E722798A42A5D10023A246AA
:100E80001B019A44EEE7227DBA42A2D10123F6E784
:100E90002422A25CBA42A1D10223F0E73422A25C50
:100EA000BA42A0D10323EAE74422A25CBA429FD10E
:100EB0000423E4E75422A25CBA429ED10523DEE774
:100EC0006422A25CBA429DD10623D8E77422A25CB8
:100ED0000723BA429BD1D2E7A24600269CE7C04630
:100EE000604D0220644D022070B50400160082B0EF
:100EF000002828D0057B002D22D00F2923D80723D6
:100F000001250B409D408068EDB207291DD90121C4
:100F100049421BF06FF8002E2BD0E3792B43E3718D
:100F2000E379184A21792068DBB200921522FFF795
:100F30000BFC0500002300220021A0681AF046FCEB
:100F4000280002B070BD0025FAE7012149421BF0DC
:100F500051F8002E11D0A3792B43A371A379094A2C
:100F600021792068DBB200921422FFF7EDFB050027
:100F7000E0E7E379AB43E371D2E7A379AB43A37135
:100F8000ECE7C04688130000F0B5040085B00028E7
:100F900027D0037B002B24D00F2922D807252E0031
:100FA0008D42AD410E4001210F27494280681BF060
:100FB00021F800236F443B706D420B4B12352179B1
:100FC0002A00206800933B00FFF72CFC002300223E
:100FD0000021A0681AF0FAFB3B7801203341184049
:100FE00000E0002005B0F0BD88130000F0B504005B
:100FF00017001D0083B0002849D0067B002E13D0B7
:101000008068002913D101391AF0F4FF2B00A2796E
:1010100053403B405A40A379934226D100230022FB
:101020000021A0681AF0D2FB300003B0F0BD01210E
:1010300049421AF0DFFF2B00E27953403B405A400F
:10104000E3799342EAD0E271E379124A2179206888
:10105000DBB200921522FFF777FB00230600002287
:101060000021A0681AF0B2FBDEE7A271A379094A59
:1010700021792068DBB200921422FFF765FB002380
:10108000060000220021A0681AF0A0FBCCE7002691
:10109000CAE7C0468813000070B5D0248025240616
:1010A0006D04182011F030FF65620520A56112F073
:1010B0004FFD65610A2012F04BFD172220211948CF
:1010C000FFF76AFE184C194E1822212130602000CB
:1010D000FFF762FE0122164D2321286052422000B4
:1010E000FFF75AFE134C20603068002804D0037BC1
:1010F000002B01D1FFF7CEFD2868002804D0037B28
:10110000002B01D1FFF7C6FD2068002804D0037B27
:10111000002B01D1FFF7BEFD0A2101200CF0D4FE07
:1011200070BDC0462833002030330020EC4D022033
:10113000E84D0220F04D0220014B18687047C04670
:10114000EC4D0220014B18687047C046E84D022064
:10115000014B18687047C046F04D022010B50321BE
:10116000022011F08FFE0321032011F08BFE0022DC
:101170000121022011F0A0FE00220121032011F024
:101180009BFE0249024807F017F910BDA062021049
:10119000AC620210F0B557464E464546DE46E0B515
:1011A00005000F00160083B0002937D0002A2DD08B
:1011B0001C4B9B463F239A46402399461A4B984620
:1011C00009E0361B05206519B6B21CF093FCADB2E0
:1011D0003F19002E1AD053464A462B40D31A1C1CE6
:1011E0009BB2B34200D9341C4346A4B201932A00F7
:1011F0003B00502158460094FFF7A4FB0028E0D1A3
:101200000A480AF027F90120404200E0002003B01C
:10121000F0BCBB46B246A946A046F0BD04480AF061
:1012200019F9F0E72833002050C3000053440000B0
:101230005244000070B50C00150082B0002916D091
:101240000D4B0E4E019300920B0002005021300016
:10125000FFF786FC002801D002B070BD08480AF0F4
:10126000F9F82A00FF21200014F04EFDF4E70548AC
:101270000AF0F0F8F0E7C04650C300002833002021
:101280005544000054440000D02380221B069202E3
:101290009A617047D02380221B0692025A617047E0
:1012A000054B10B51868002804D000230022002147
:1012B0001AF08CFA10BDC04670850220044B10B5A0
:1012C0001868002803D0012149421AF093FE10BD8E
:1012D0007085022010B50F4B82B01B680400984740
:1012E0000D4B1B6898476946230C0B70230A4B7003
:1012F000FF238C7001ACCB702200FB3B074824F02D
:101300001FFF074B1B689847064B1B689847E07800
:1013100002B010BD184402202444022000C0034043
:10132000204402201C44022030B5124B83B01B68BD
:1013300004000D009847104B2D061B689847FF22AC
:1013400004231202224023432402210EDBB21B0499
:1013500011431943294304220191084801A924F0AB
:10136000E7FE074B1B689847064B1B68984703B07E
:1013700030BDC046184402202444022000C003406F
:10138000204402201C44022070B504000D00160009
:1013900082B000291DD0002A1BD00F4B1B68984734
:1013A0000E4B1B68984701A9230C0B700322230ADC
:1013B0000B484B708C7024F0BBFE33002A00FF21D9
:1013C000074824F07DFE074B1B689847064B1B68B7
:1013D000984702B070BDC046184402202444022041
:1013E00000C00340204402201C44022070B50400C9
:1013F0000D00160082B000291ED0002A1CD00F4B11
:101400001B6898470E4B1B689847042301A9220CC0
:1014100023430A700B480322240A8B704C7024F07B
:1014200087FE32002900074824F082FE064B1B6825
:101430009847064B1B68984702B070BD18440220BD
:101440002444022000C00340204402201C44022007
:1014500010B582B06B4649BA1980124B04001B6864
:101460009847114B1B6898478123DB009C46042357
:1014700000226001604401A90343000A0A70487019
:1014800003320A488B7024F053FE02226946074853
:1014900024F04EFE064B1B689847064B1B68984786
:1014A00002B010BD184402202444022000C00340B2
:1014B000204402201C44022010B582B06B4649BA79
:1014C0001980124B04001B689847114B1B68984702
:1014D000104B00229C4604236001604401A9034391
:1014E000000A0A70487003320B488B7024F020FE0B
:1014F00002226946084824F01BFE084B1B689847E7
:10150000074B1B68984702B010BDC0461844022024
:10151000244402200810000000C0034020440220A0
:101520001C440220F0B557464546DE464E46394B30
:10153000E0B59C464001604489B0C3B20193030A00
:101540000293002304AC0B27A4460393324B0A25D5
:101550009B46324B67449A46314B9946314B9846ED
:1015600006E0013DEDB2002D4BD0039BB34248D0C5
:101570005B461B68984753461B68984700232370B7
:10158000029B06AA6370019B2100A370FF232648DB
:10159000E3702371FA3B24F0D3FD4B461B68984758
:1015A00043461B6898477B783A781B0213435EBA20
:1015B000B6B2002BD5D05B461B68984753461B68D4
:1015C000984700232370029B06AA6370019B2100A9
:1015D000A370FF231448E3702371FA3B24F0B0FD9D
:1015E0004B461B68984743461B6898477B783A7878
:1015F0001B0213435BBA013D9BB2EDB20393002D76
:10160000B3D1300009B0F0BCBB46B246A946A046F3
:10161000F0BDC046082000001844022024440220E7
:10162000204402201C44022000C00340F0B557466D
:101630004546DE464E46394BE0B59C464001604487
:1016400089B0C3B20193030A0293002304AC0B27B1
:10165000A4460393324B0A259B46324B67449A4675
:10166000314B9946314B984606E0013DEDB2002DD5
:101670004BD0039BB34248D05B461B689847534608
:101680001B68984700232370029B06AA6370019B86
:101690002100A370FF232648E3702371FA3B24F056
:1016A0004FFD4B461B68984743461B6898477B781D
:1016B0003A781B0213435EBAB6B2002BD5D05B4614
:1016C0001B68984753461B68984700232370029B6A
:1016D00006AA6370019B2100A370FF231448E370E6
:1016E0002371FA3B24F02CFD4B461B689847434678
:1016F0001B6898477B783A781B0213435BBA013D1D
:101700009BB2EDB20393002DB3D1300009B0F0BC11
:10171000BB46B246A946A046F0BDC046082600001A
:101720001844022024440220204402201C440220A9
:1017300000C00340F0B5DE4657464E464546E0B58C
:101740008BB002910192002901D0002A06D10BB082
:10175000F0BCBB46B246A946A046F0BD8200F820C8
:101760007B4F561CF60040013B68351803929847A2
:10177000784808AC036883469847FF2000222B0A6C
:10178000A57009AD82462100227063702A000423EF
:10179000E070714824F0D4FC704803688146984793
:1017A0006F48036880469847902189018C46B4446D
:1017B0006146EB7804919B0298B23B68059098478C
:1017C00058460368984704990022080AA1705146B8
:1017D0000423227007902A006070E1705E482100A7
:1017E00024F0AEFC49460B68984741460B68984781
:1017F000942080018446E9783B68664406919847C6
:1018000058460368984750460022330A2100227048
:1018100063702A000423A670E0704F4824F090FC07
:10182000484603689847404603689847069EEB7809
:1018300032029B18059A9EB2531E3340D21A90B2C0
:10184000039A01990232D20006961E0203921643B1
:1018500082463A68814267D98C46059963445B1A8F
:101860009BB2059300281AD090475B461B689847A7
:101870000423320C3343360AAB7029002A703648F1
:1018800003226E7024F054FC52460299324824F030
:101890004FFC4B461B68984743461B689847059E7C
:1018A000002E1DD03B6898475B461B689847002375
:1018B000042203992B700A430B0AAA702900032201
:1018C00025486B7024F034FC3200029951442248C0
:1018D00024F02EFC4B461B68984743461B689847EC
:1018E000069A019B944663445BBA23803B68984701
:1018F0005B461B68984700232B70079B049A6B700C
:1019000004231A432900AA701348032224F010FC70
:1019100002222100104824F00BFC4B461B6898471C
:1019200043461B68984712E790475B461B689847F9
:101930000423320C3343360A29002A700648032256
:101940006E70AB7024F0F4FB019A0299BFE7C046B9
:10195000184402202444022000C0034020440220F6
:101960001C440220F0B5DE4657464E464546E0B5DB
:101970008BB002910192002901D0002A09D1804840
:1019800009F068FD0BB0F0BCBB46B246A946A046C4
:10199000F0BDF02183007B4F5E1CF60049010393EC
:1019A0003B6875189847784908AC0B688B46984790
:1019B0000023FF212370A5702B0A09AD8A462A0057
:1019C0006370E17004232100704824F0B9FB704972
:1019D0000B68894698476F490B6888469847A0214D
:1019E00089018C46B4446146EB7804919B029AB21B
:1019F0003B68059298475846036898470499002326
:101A0000080AA17051462A00237007906070E170A7
:101A1000043321005D4824F093FB49460B68984746
:101A200041460B689847A42080018446E9783B68CA
:101A300066440691984758460368984700235046E5
:101A40002370330A2A0021006370A6700423E0701B
:101A50004E4824F075FB48460368984740460368A3
:101A600098470699EB780A029B18059A99B2531E7B
:101A70000B40D21A069191B28A46039A0199033219
:101A8000D2001E02039216433A68514566D98C462D
:101A9000059963445B1A9BB205935346002B19D0FA
:101AA00090475B461B689847330C2B70330A032220
:101AB00029006B703548AE7024F03AFB5346FF2185
:101AC000029A324824F0FCFA4B461B68984743467A
:101AD0001B689847059E002E1CD03B6898475B46C4
:101AE0001B6898470023039A2B70130A6B70AA7027
:101AF00029000322254824F01BFB3300029A52449C
:101B0000FF21224824F0DCFA4B461B6898474346E5
:101B10001B689847069A019B944663445BBA2380EE
:101B20003B6898475B461B68984700232B70079BD0
:101B3000049A6B7004231A432900AA7013480322E5
:101B400024F0F6FA02222100104824F0F1FA4B4664
:101B50001B68984743461B68984713E790475B46C6
:101B60001B689847330C2B70330A03226B702900D3
:101B70000648AE7024F0DCFA019B029AC0E7C0462A
:101B8000B1240000184402202444022000C0034075
:101B9000204402201C440220F0B54546DE4657464C
:101BA0004E46E0B50D0087B0002900D173E03C4BF4
:101BB00040019C4606003B4B66449B461B68070061
:101BC0009847394B04AC9A461B6898470023FF217D
:101BD000320A0196A67005AE237002926270E1701F
:101BE000320021000433314824F0AAFA3048083783
:101BF0000368814698472F48036880469847A42188
:101C000089018C465946F0780B68674403909847E1
:101C100051460B6898470023FF2123703B0A32008E
:101C20006370E170042321002048A77024F088FA33
:101C300049460B68984741460B68984759460398B0
:101C4000F37802029B189BB2ED186DBA0B682580E1
:101C5000984751460B68984700233370029B019ABE
:101C6000737004231343B370032231000F4824F030
:101C70005FFA022221000D4824F05AFA4B461B68F5
:101C8000984743461B68984707B0F0BCBB46B2462E
:101C9000A946A046F0BD084809F0DCFBF4E7C046C1
:101CA00008280000184402202444022000C00340F9
:101CB000204402201C440220B224000070B51C4CB9
:101CC0002368002B28D0112011F01EF9D024802386
:101CD00080259B02240663626D036361142011F06A
:101CE00013F964206562A5611BF004FF642065613F
:101CF0001BF000FF0F4B104A10481A60104B114A9E
:101D000028211A60104B114A1A60114B114A1A60AF
:101D100006F052FB012070BD012019F0DDFE2060AD
:101D20000028D0D10C4809F095FB0020F3E7C0460D
:101D30007085022018440220BD120010CC620210EF
:101D40001C440220A1120010244402208912001019
:101D50002044022095120010B3240000F0B5DE46A6
:101D600057464E464546E0B585B00190002800D163
:101D700036E2F94B03AC99461B689847F74B1A2596
:101D800098461B689847F64B04222100F5480393B8
:101D900024F0CEF9F44F3B689847F44E33689847E7
:101DA0004B461B68984743461B689847F04B0422F4
:101DB0002100EC48039324F0BBF93B689847336853
:101DC00098474B461B68984743461B689847E94B22
:101DD00004222100E348039324F0AAF93B689847C2
:101DE000336898474B461B68984743461B6898479B
:101DF000E14B04222100DB48039324F099F93B686E
:101E00009847336898474B461B68984743461B687A
:101E10009847DA4B04222100D248039324F088F932
:101E20003B689847336898474B461B68984743463A
:101E30001B689847D24B04222100CA48039324F020
:101E400077F93B689847336898474B461B68984733
:101E500043461B689847CB4B04222100C14803939B
:101E600024F066F93B689847336898474B461B68EF
:101E7000984743461B689847C34B04222100B94842
:101E8000039324F055F93B689847336898474B46CD
:101E90001B68984743461B689847BC4B04222100A7
:101EA000B048039324F044F93B6898473368984757
:101EB0004B461B68984743461B689847B44B04221F
:101EC0002100A848039324F033F93B68984733680E
:101ED00098474B461B68984743461B689847AD4B4D
:101EE000042221009F48039324F022F93B6898477D
:101EF000336898474B461B68984743461B6898478A
:101F0000A54B042221009748039324F011F93B6864
:101F10009847336898474B461B68984743461B6869
:101F200098479E4B042221008E48039324F000F929
:101F30003B689847336898474B461B689847434629
:101F40001B689847964B042221008648039324F08F
:101F5000EFF83B689847336898474B461B689847AB
:101F600043461B6898478F4B042221007D4803930A
:101F700024F0DEF83B689847336898474B461B6867
:101F8000984743461B689847874B042221007548B1
:101F9000039324F0CDF83B689847336898474B4645
:101FA0001B68984743461B689847804B04222100D2
:101FB0006C48039324F0BCF83B6898473368984713
:101FC0000A201BF097FD7A4B9B463B004F469946F3
:101FD0003B68984743461B6898475B46220002A926
:101FE00002936048042324F0ABF84B461B689847E3
:101FF00033689847E3786420013D9A461BF07AFDE8
:10200000002D00D1E7E0012352461342E0D04B46B9
:10201000B94668481F0006F0CFF94B461B68984741
:1020200043461B689847902304251B010322210087
:1020300023804C48A57024F07BF8019B06221900F0
:1020400048489A4624F074F83B68984733689847A4
:102050004A4613689847424613689847F0231B0185
:102060000322210023803F48A57024F061F85346E5
:102070000422991D3B48019324F05AF83B68984785
:10208000336898474A46136898474246136898470A
:10209000A023DB002380032221003248A57024F016
:1020A00047F8019904220A312E4824F041F83B6890
:1020B0009847336898474A461368984742461368DA
:1020C000984780235B002380032221002548A570C8
:1020D00024F02EF8019904220E31224824F028F829
:1020E0003B689847336898474B461B689847434678
:1020F0001B689847304B042221001A48039324F0B0
:1021000017F83B689847336898474B461B689847D1
:1021100043461B689847294B04222100114803932A
:1021200024F006F83B689847336898474B461B688D
:10213000984743461B689847214B042221000948D1
:10214000039323F0F5FF3B689847336898471D4891
:1021500006F032F9012037E018440220244402201E
:10216000001E0C0800C00340204402201C44022032
:10217000001F0C08001E2C08001F2C08001E4C001D
:10218000001F4C00001E6C00001F6C00001E8C0025
:10219000001F8C00001EAC00001FAC00001ECC0015
:1021A000001FCC00001EEC00001FEC00002E04F805
:1021B000002E00FF0063021000190407001A04D06B
:1021C000001B04082463021005B0F0BCBB46B246F5
:1021D000A946A046F0BD054809F04EF90020F3E7F6
:1021E000034809F037F90020EEE7C046B0220000AE
:1021F000B4240000F0B5CE46474680B5040083B055
:10220000002800D16FE03A4F04253B689847394ECB
:102210003368984790236A461B019380957101A902
:102220000322354823F084FF06222100324823F0A0
:102230007FFF324B99461B689847314B98461B6885
:1022400098473B68984733689847F0236A461B01D4
:102250009380957101A90322274823F069FF042286
:10226000A11D254823F064FF4B461B689847434651
:102270001B6898473B68984733689847A0236A468D
:10228000DB009380957101A903221B4823F050FFC6
:10229000210004220A31184823F04AFF4B461B68EC
:1022A000984743461B6898473B6898473368984768
:1022B00080236A465B009380957101A903220E4832
:1022C00023F036FF210004220E310B4823F030FFAB
:1022D0004B461B68984743461B68984703B0C0BCF1
:1022E000B946B046F0BD074809F0B4F8F6E7C04675
:1022F000184402202444022000C00340204402204D
:102300001C440220B724000010B50D4B82B01B689E
:1023100098470C4B01AC1B6898470B4B2200694651
:1023200000930A48042323F00BFF094B1B689847CE
:10233000084B1B6898470120E378184002B010BD95
:102340001844022024440220002E00FF00C0034055
:10235000204402201C440220F0B5CE46474680B5FA
:102360001C4B83B098461B6898471B4F01AC3B68D9
:1023700098471A4B042221001948019323F0D8FEF4
:10238000184E33689847184D2B6898470A201BF061
:10239000B1FBFF231B06994602E001201BF0AAFBBC
:1023A00043461B6898473B6898474B46220069465E
:1023B00000930B48042323F0C3FE336898472B682F
:1023C00098470323E356002BE7DB03B0C0BCB946B4
:1023D000B046F0BD184402202444022000000480CE
:1023E00000C00340204402201C44022070B51C4B56
:1023F0001C4C82B020701A70002900D1A131002637
:10240000194B1A4D1E601A68194B29801A6003F087
:10241000F1FA207800F0C2FF002302212A882078F8
:1024200001F012F82378984205D0124809F012F80A
:10243000002002B070BDF020042269460001009621
:10244000FEF7A2FF694601A8019603F0D5FA0A48F3
:102450002B882278094905F0AFFF0120E9E7C04643
:102460008A1100208B110020788202208811002020
:1024700050820220E02400005063021044630210E6
:10248000F0B5DE4657464E4645460023E0B5A5B0BA
:102490000F931F90002801DC01231F931BF070FB9A
:1024A00000231793344B1E901693344B9B4614E035
:1024B0000223012410935B461B78A12B03D89F2B8A
:1024C00001D8302B64D02E4808F0C4FF179B1F9A08
:1024D000013317939A4200D18DE31BF051FB1E9BF1
:1024E000C01A312800D986E3169B1878FFF79EF8AA
:1024F000002800D17FE3002320AA53812393C02327
:10250000021C9B00984200D91A1C169B20A98C46DD
:1025100018780A2363440093594692B223AB01F022
:1025200075FB002800DC66E3C0225B4600049200D5
:10253000070CC1219F505846002389004350114881
:102540004350114981460B70139110490B7014913F
:10255000002113F0D9FB5B465A785B785BB2002B05
:10256000A6DA7F231340012B01D100F0D1FD5C1CC2
:10257000023310939FE7C0468B110020307C02206D
:10258000EE240000387F0220A4850220A3850220CB
:10259000109D59462A00484613F0BCFBC1235946FA
:1025A0009B00CD504946AC46C8585A466044C85076
:1025B0005B46023412571D1901211B5D002A01DA06
:1025C00000F0BBFC109A5C469446A25C6144013169
:1025D0000C00A12A01D900F0AAFC9F2A02D8302AB7
:1025E00000D05C185B46109A9B5C022B01D000F077
:1025F0009BFD5B465B5C002B01D000F095FD13005A
:102600005B44A21A1900484416001B9213F082FB87
:10261000C12359469B00CC504946B446CD58621C54
:102620006544CD505B46995C9E189A56002A01DAA3
:1026300000F0AEFC0A0001210B195946095D013377
:102640009846A12901D900F08AFC9F2903D8302996
:1026500001D0991888465946095D042901D000F037
:102660005FFDB5490978914201D000F059FD5B4406
:102670001800B2491FF042FB002801D000F06AFDAB
:102680004346210028001B1B1A00594448441C00E3
:102690001C9313F03FFBC123404659469B00C85092
:1026A0004946A446CA5801246244CA50A44B159214
:1026B0001A5C1B56002B02DA7E3414400134424669
:1026C0005B469B5C44441A00A03A661C0C930E9235
:1026D000012A03D9A32B01D000F040FD43465946FF
:1026E0001598F31A1A00414448441D001D9313F035
:1026F00011FBC12359469B00CE504946AC46CA58EF
:102700000234944461464A46D150A2234146535470
:102710005A465B461257181901211B5D002A01DA3F
:1027200000F0A3FC5A46925D74180134A12A01D925
:1027300000F040FC9F2A02D8302A00D0E4185B4603
:102740006046A51B2A009919484413F0E3FAC123F7
:102750005A469B00D4504A46D05859462818D05063
:102760005B46621C9D189B5C8A560121002A01DA97
:1027700000F067FC5A460919125D4D1C1A95A12AF2
:1027800001D900F031FC9F2A03D8302A01D01A9ACF
:10279000D51821002B1B1A00594448449A4613F0BF
:1027A000B9FAC1235A469B00D5504A46D0585946DB
:1027B0005044D0505B466A1C9C189B5C8A56012191
:1027C000002A01DA00F029FC5A464919525D01310C
:1027D00019911191A12A01D900F0F2FB9F2A05D885
:1027E000302A03D0199A94466344119311994844AE
:1027F0004C1B5D442200290013F08CFAC1235A4679
:1028000011999B00D1504A464846D258A218C2504E
:102810008B1B9A464A4B18925A5C5B560124002B3C
:1028200002DA7E3414400134119B5A469C46D35C34
:1028300064440134302B01D000F088FC119B189EB9
:10284000E21A4E445B44190030001D00129213F04E
:1028500061FAC12359469B00CC504946CA58129987
:102860008C4649466244CA50A74201DC00F03CFC59
:10287000002304930393324B5F460B93314B0D932C
:10288000314B0993434620935346CA4621930B9BF1
:1028900001251A5D1B57002B02DA7E3515400135E4
:1028A00065196B1C9B463B5D302B01D000F00BFC87
:1028B0005B46C1261A1B5346B6009B5939191800AE
:1028C000504490460592069313F024FA5B46BB51A0
:1028D000534652469B590235434493517A570793C6
:1028E0007E5D01237819002A00DAE2E15A465B4452
:1028F000BA5C01330293A12A00D9A1E19F2A03D82F
:10290000302A01D0F2180292621C08925A46BA5C30
:10291000062A00D09EE198460D9BB8441B68994654
:10292000002B00DCC6E2084B00251C000A933B008C
:102930004F4699460FE0C04630C3021034C3021020
:10294000317C02202CC30210901100200135583434
:10295000BD4200D157E123789E42F7D13200414673
:10296000601C1FF0CBF90028F0D14B46B9461F0080
:102970000C9BA02B00D14FE1A32B00D14CE10623EF
:1029800052460799013553544D4500DB9CE2C12363
:10299000029A9B00FA50079B5646581C991C5823D4
:1029A0006B430A9C5144E25C3254002A44D0A44652
:1029B00063445A780A70325C012A36D99A784A7090
:1029C000325C022A31D9DA788A70325C032A2CD937
:1029D0001A79CA70325C042A27D95A790A71325C92
:1029E000052A22D99B794B71335C062B1DD95823BC
:1029F0006B436344DA798A71325C072A15D91A7AF3
:102A0000CA71325C082A10D95A7A0A72325C092AD1
:102A10000BD99A7A4A72325C0A2A06D9DA7A8A7211
:102A2000325C0B2A01D91B7BCB72C12352469B001F
:102A3000D358079353445A78931C9C46079A0A9399
:102A400062449046C123414652469B00D150029BAE
:102A500001210133FC5CF818FB56002B00DA63E11E
:102A6000029B9C46FB5C614401318B46A12B00D943
:102A700000E19F2B03D8302B01D00B199B465B46FE
:102A8000029A9E1A6B1C00D1FDE00E9B012B00D810
:102A90005BE15823099A6B43944663445A7B029B3B
:102AA0007918FB5C934200D042E3062B06D000D994
:102AB00094E1022B00D195E1042B0DD158235D4305
:102AC000099B28009C4610306044220013F022F934
:102AD000099B9C466544AC734046029B3200F91842
:102AE000504413F017F9C123524651469B00D25867
:102AF0009219CA505A46FA500A9B9C46089B664453
:102B0000FA5CFB56002B00DAE4E0069B53445E704F
:102B1000059B9E1900D5F5E0049B9C46B444634692
:102B20000493C1239B00FC58039B01330393C023F0
:102B30009B00FB589C4200DAA9E6BB46209BD1468D
:102B40009846219B9A46129B63441293119B5B44C7
:102B50005A785B785BB2002B00DAA0E2189B049AEB
:102B60004B445A70129B002B00DACFE043465B4483
:102B700059785B78129A5BB25244002B00DA39E242
:102B8000159B4B445A70139B1B78002B07D049466A
:102B90001A980B54149B19981B7801330B541D9BE6
:102BA0009B1800D5B5E01C9AD31800D5B4E01B9A49
:102BB000DA4200D5B3E0C1234A469B00D258109BAD
:102BC000D41A5B4659785B785BB2002B00DACCE113
:102BD0004B465C70169B92B2187820AB5B894946D5
:102BE000009323AB00F056FF179B1F9A01331793F6
:102BF0009A4200D071E4179825B0F0BCBB46B246AB
:102C0000A946A046F0BD4B460125B9461F000C9BC6
:102C10006D42A02B00D0AFE65B465A46029C079857
:102C2000E31A1E00B91850441A000A9313F072F800
:102C3000C1235146B0469B00C858FC50804401E770
:102C4000A32A00D05EE6621C08925A46BA5C062AA5
:102C500000D160E6DD4808F0FDFB089BFA5CFB56FE
:102C6000002B00DA34E2FF22069B53445A70059E83
:102C7000013E51E7A32B00D0FFE65B46029A9E1A65
:102C80006B1C00D001E74046B9185044320013F0E5
:102C900041F8C123524651469B00D2589219CA505E
:102CA0005A46FA50149B039A1A700223139A13700F
:102CB00022E77F2333404678012B00D1E8E1821CD4
:102CC0000130C0181178360201320E439042F9D11A
:102CD00001330BE67F2003000699134002311042B6
:102CE00000D115E7581EC200C01A5144C00033007D
:102CF0001341083A0B7001318242F8D1059B9E19AD
:102D000000D409E7BB46B24808F0A4FBB14808F07C
:102D1000A1FBB14808F09EFBB04808F09BFBB0480F
:102D200008F098FBFFF7D2FB7F212140447801296E
:102D300000D1ABE1831C013040181A782402013322
:102D400014439842F9D101318AE643460233534491
:102D500002934D4500DBF5E158236B43099AD218E5
:102D6000517B0F91062900D1C9E05DD802296DD0B1
:102D700004295DD1099819008046126D10318844EC
:102D8000002A08D00E33C11840469047C123B346ED
:102D90009B00FB589B4440461FF072FC5823099A45
:102DA0006B439446C4B263449C732200414602982C
:102DB00012F0B0FFC12352469B00D358A61C984680
:102DC000424653460F999019995443445C70C1236D
:102DD00052469B00D0505A46FA508DE6413B022B9A
:102DE00000D979E600200022002C08DD00200A1915
:102DF0000B780002013118439142F9D102005823A7
:102E000009996B438C4663441A619C735B6D002B7C
:102E100000D161E69847C12352469B00D258FB5827
:102E200090469B46B34457E60B00413B022B0DD91D
:102E30006C4808F00FFBC1235246B3469B00D258A2
:102E4000FB589046002402269B44B9E7582068436B
:102E5000099A13181B6D002B0BD0010094460E31FC
:102E60001030614460449847C123B3469B00FB582F
:102E70009B445823099A6B43944663449C7B002CE3
:102E800038D023001100A61C58228C466A436244A5
:102E90001169013B029ADB000800D840083B107022
:102EA000180001320830F7D1C12352469B00D35895
:102EB000984685E70C9BA02B00D1EBE0A32B00D11B
:102EC000E8E0534607995A545B465A46029C0798D5
:102ED000E31A1D00B91850441A000A9312F01AFFA1
:102EE000C1235146A84601259B00C858FC50804488
:102EF0006D42A7E50424062604231100C4E70998BF
:102F000019008046126D10318844002A08D00E3313
:102F1000C11840469047C123B3469B00FB589B44D1
:102F20005823099A6B43944663449C7B3DE7A32A4C
:102F300001D0FFF756FBFFF755FB7F2119406B7857
:102F4000012900D1E1E0AA1C01356D1814781B029B
:102F5000013223439542F9D10131FFF733FBA32915
:102F600001D0FFF776FBFFF776FB7F2003000B40D5
:102F7000084200D12EE64946013BDB00881C2100B7
:102F80001941083B0170190001300831F7D121E6E1
:102F90007F2211407278012900D1B3E0B31C0136C1
:102FA000761818781202013302439E42F9D101319A
:102FB000FFF742FBA32A01D0FFF7C0FBFFF7BFFBDF
:102FC000A32A01D0FFF70EFCFFF710FCE32400005A
:102FD000E6240000E8240000EA240000ED240000BC
:102FE000EF240000E1240000A32A01D0FFF7CFFB6B
:102FF000FFF7CFFB7F2003000B40084200D1C2E562
:103000001599013BDB00494410001841083B8870CA
:10301000180001310830F7D1B5E57F2119406378F8
:1030200001296CD0A21C013464188C46210014784C
:103030001B02013223439142F9D161460131FFF76E
:10304000C3FB7F2119406B78012955D0AA1C01359B
:103050006D188C46290015781B0201322B439142D2
:10306000F9D161460131FFF785FB7F211940437893
:10307000012952D0821C0130401814781B02013201
:1030800023439042F9D10131FFF74CFB0221E7E4E1
:1030900002232BE401256D42BEE5002304937F212A
:1030A0000B001340114200D15CE5189A013B0498D3
:1030B000DB004A4401001941083B917019000132BC
:1030C0000831F7D14EE52748BB4608F0C3F91AE6A8
:1030D0007F200300069913400231104200D1C6E55B
:1030E0000126581E7642FEE50123EB566A78002B36
:1030F000D3DB0023737039E50221FFF73BFB02218C
:10310000FFF762FB0221FFF797FA0221FFF75AFA55
:10311000032302241093FFF7CEF90221FFF702FBED
:10312000114808F097F9F7E5104808F093F9F6E52B
:103130000323139A0E481370149B039A1A7008F015
:1031400089F968E60026F4B2023639E6094808F043
:1031500081F9DBE5084808F07DF9DDE5074808F06E
:1031600079F9D6E5E4240000E9240000EC2400000D
:10317000E2240000E5240000EB240000E724000026
:10318000024A1368013313607047C04678820220F8
:10319000044B054A1B6812689B1A036004230B70DA
:1031A0007047C04678820220508202200CB4F0B5ED
:1031B000DE4657464E464546E0B58BB01593754BF7
:1031C00030269846170004221E70812392464246FC
:1031D0005B0053800023994643464A4606903800D8
:1031E0000D001A711FF04CFA434604005246390094
:1031F0005A7198712200D81D12F08CFD08239C464C
:10320000A444634605934346A4221B19DA719E3AEF
:103210005A7215AA17780B349F724346181906ABD9
:103220009C463D213A00614412F074FD4246402321
:103230003F19D355D31952465A702A7802219A70F1
:103240006A782B98DA70AA781A71EA7899715A71AB
:10325000012259722C99DA719A725A734A46D972BC
:1032600043213D009A732D9A18721973DE732EABA9
:10327000103511370893002A00D188E09B460023BF
:10328000C1469A460393079520E0062B44D1AB7BB9
:1032900010351A00434662702370049C904620004B
:1032A000290012F037FD44444B460236DB19A41BBB
:1032B0005C70039B02349C46A44463460393012341
:1032C0009C462D9BE2443F19534532D0042294463C
:1032D0005B46E3445A461D6808924B463022DE198D
:1032E000DA55FF237370F93BB3702A78341D200040
:1032F000F270691C12F00EFD2B78E4186B7B984677
:10330000A31C04934346042BBFD1103528001FF0A3
:10331000B7F9C3B21A00BDE72370042363702B69A9
:10332000A01C1BBA042209A90993063412F0F2FC6E
:10333000BAE76B46C846079D1B7B42464046059947
:103340005355FBB2144C5A1A013A023B4254437093
:10335000207800F023F80023A2220221207800F038
:1033600073F8A22341462078BAB20093069B00F07E
:1033700091FB207800F012F800200BB0F0BCBB46A7
:10338000B246A946A046F0BC08BC02B018470023CC
:10339000D3E7C046848202208A110020F0B5C646D9
:1033A000070000B5072843D8082398464501A844DC
:1033B0000935FF3510212800FDF7B6FF1AF0E0FBB4
:1033C000060007E01AF0DCFB801B04282DD8012042
:1033D0001AF090FB2800FDF77DFF041EF2D180203B
:1033E0008000FF214044FDF79FFF0123BB401249AD
:1033F0000A889A430A8011490A889A43104B0A8026
:103400007A00D45200220F4BDA55C027BF00474440
:1034100002E001201AF06EFB3800FDF75BFF002888
:10342000F7D1013080BCB846F0BD0D204042F9E72D
:1034300001204042F6E7C0468485022086850220AE
:10344000BC840220B4840220F0B5C64600B5040056
:103450000E001700984682B0072800D9A4E0012981
:1034600066D08B1E022B00D97DE043465B0700D55A
:103470009DE04346002B02D0022900D176E02000D7
:10348000FFF78CFF0F23414665019943083528005B
:103490003143FDF749FF002F08D14A4A4A491788AE
:1034A0007B1C9BB28B4200D16BE0138039006F1CF8
:1034B0002000FF37FDF7CCFF01213800FDF734FF76
:1034C0001AF05EFB060007E01AF05AFB801B042886
:1034D00046D801201AF00EFB3800FDF7FBFE00284D
:1034E000F2D10123474619003B40A140A340374E8B
:1034F00032888A431343364A338013888B431380C0
:10350000344B6200D0520022334B1A55C0239B002B
:103510009C46654402E001201AF0ECFA2800FDF711
:10352000D9FE0028F7D060B202B080BCB846F0BD2A
:10353000F020042201A90001FDF726FF019B002BCA
:1035400039D043465B0732D44346002B97D0212322
:103550004246134200D092E7204807F07BFF20E06C
:103560000D204042E0E705204042DDE79B060CD5F8
:1035700043465BB2002B00DA81E7194807F06AFF87
:103580000FE0184B184F138090E74346DB0600D43A
:1035900075E743465BB2002B00DA70E7134807F08B
:1035A00059FF06204042BFE701204042BCE71048D7
:1035B00007F050FFF5E70F4807F04CFF03204042AB
:1035C000B2E7C0468C110020F0FF00008485022085
:1035D00086850220BC840220B4840220C32400001B
:1035E000C424000000C0FFFFEFFF0000C52400005E
:1035F000C2240000C1240000F8B50600072853D8F3
:10360000470108373800FDF765FE0F230340012B03
:1036100047D17D1CFF3508212800FDF785FE1AF0F3
:10362000AFFA040007E01AF0ABFA001B042830D808
:1036300001201AF05FFA2800FDF74CFE0028F2D1B5
:1036400001210800B0401A4B1A8882431A80194B96
:103650001B88334119421FD1C0239B00FD18013B39
:10366000FF3BFC18082707E02000FDF733FE074268
:1036700009D10A201AF03EFA2800FDF72BFE002897
:10368000F2D1013007E03000FFF788FE0A4807F06A
:10369000E1FE0D204042F8BD084807F0EDFE002095
:1036A000F9E705204042F6E701204042F3E7C04633
:1036B0008685022084850220C7240000C6220000DF
:1036C000F0B5C646060000B507285FD844010834A7
:1036D0002000FDF7FFFD0F230340012B50D1C02335
:1036E0009B00E7183800FDF7F5FD13284BD1013496
:1036F000FF3402212000FDF717FE1AF041FA050001
:1037000007E01AF03DFA401B042821D801201AF0E6
:10371000F1F92000FDF7DEFD0028F2D11AF030FAB1
:10372000012580461B4C3800FDF7D4FD1C281BD812
:103730002B00834023420ED1142815D1012080BCD8
:10374000B846F0BD3000FFF729FE134807F082FEAF
:103750000D204042F3E73000FFF720FE0F4807F04E
:1037600079FE04204042EAE71AF00AFA4346C01AFA
:10377000FA235B009842E5D801201AF0BBF9D2E7A2
:1037800005204042DBE703204042D8E701204042C9
:10379000D5E7C04601008810C9240000C8240000F5
:1037A000F0B54546DE4657464E46E0B583B00500C7
:1037B00014000091072800D9A9E00822924643018D
:1037C0009A445046FDF786FD0F230340012B00D09D
:1037D000A3E0002C00D19DE0C0239B0053441800BF
:1037E0009846FDF777FD172802D01C2800D097E0F7
:1037F0004F4B012701931B882B411F4249D1AF40FA
:10380000F82040015044FDF765FD8002061C80B29F
:10381000A04200D9261C1AF0B3F9464B81469B46BC
:10382000B6B22800FDF77EFE04004046FDF752FDCB
:10383000172801D01C2854D15B461B881F423AD060
:10384000A64230D828005546013532000099FF3590
:10385000FDF770FF20212800FDF766FD1AF090F9B2
:1038600004002800FDF736FD00280CD01AF088F976
:10387000001B042848D801201AF03CF92800FDF765
:1038800029FD0028F2D1019A300013883B431380B0
:103890000AE08026B60056443000FDF71BFDC30643
:1038A00015D400072AD4002003B0F0BCBB46B246B2
:1038B000A946A046F0BDA642C4D91AF061F94B460C
:1038C000C01A0928EFD801201AF014F9A9E7AF406F
:1038D00010213000FDF728FD019A1388BB431380A7
:1038E0008EE72800FFF75AFD01F014FF012802D0EF
:1038F000114807F0AFFD07204042D5E72800FFF749
:103900004DFD0E4807F0A6FD0D204042CCE70120FA
:103910004042C9E70E204042C6E705204042C3E7C7
:1039200001F0F8FE0128E6D0054807F093FDE2E734
:103930008685022084850220CC240000CB24000050
:10394000CA240000F0B5DE46454657464E46E0B56F
:1039500083B0050093460191072800D983E008222F
:10396000924643019A445046FDF7B4FC0F230340AE
:10397000012B00D07DE05B46002B00D176E0C02318
:103980009B00534418009846FDF7A4FC172802D06A
:103990001C2800D070E01AF0F3F801263A4B07001B
:1039A000AE4099460BE04B461B881E4242D11AF0AE
:1039B000E7F8C01B09283DD801201AF09BF8280021
:1039C000FDF734FE04004046FDF784FC172801D0C3
:1039D0001C283BD1002CE6D05F46A34534D8F0200C
:1039E00040015044FDF776FC8002061CBBB280B259
:1039F000984227D85446B6B20134320028000199C3
:103A0000FF34FDF7AFFF40212000FDF78DFC1AF0D9
:103A1000B7F8050007E01AF0B3F8401B04281FD8D8
:103A200001201AF067F82000FDF754FC0028F2D1BD
:103A3000300000E0002003B0F0BCBB46B246A9460F
:103A4000A046F0BD3E1CD5E7271CC8E701F062FE8A
:103A5000012802D00D4807F0FDFC07204042EAE7AC
:103A60000D204042E7E701204042E4E70E204042BB
:103A7000E1E705204042DEE701F04CFE0128ECD0F2
:103A8000034807F0E7FCE8E784850220D124000022
:103A9000CF240000F0B557464E464546DE46E0B519
:103AA00083B01F006B461B8E0600140098460191E0
:103AB000072800D994E0450108352800FDF70AFCE5
:103AC0000F230340022B00D090E0002C00D194E0A3
:103AD0003B78002B65D04346002B00D183E0C02308
:103AE0009B009B46AB445846FDF7F4FB222800D0D0
:103AF0007FE0C0231B01E81804223900FDF776FCA3
:103B000041463000FDF7D8FCF8235B01E818FDF7CB
:103B1000E1FB8002071C80B2A0424ED81AF030F8B8
:103B20000123B3409846364B81469A46BFB23000D7
:103B3000FDF7F8FC04005846FDF7CCFB222846D1DF
:103B4000534642461B881A421FD0A74237D8013538
:103B50003A0030000199FF35FDF7ECFD20212800E7
:103B6000FDF7E2FB1AF00CF8040007E01AF008F881
:103B7000001B042831D8012019F0BCFF2800FDF7F4
:103B8000A9FB0028F2D138001AE0A742DFD919F0CA
:103B9000F7FF4B46C01A092811D8012019F0AAFFD7
:103BA000C5E77B78002B96D1BB78002B93D1FB78AF
:103BB000002B90D10C20404202E0271CAEE70020F1
:103BC00003B0F0BCBB46B246A946A046F0BD0D48C6
:103BD00007F040FC07204042F2E70D204042EFE7AB
:103BE00001204042ECE70B204042E9E7052040423B
:103BF000E6E7054807F02EFCECE70E204042DFE741
:103C000084850220D5240000D4240000F0B5574656
:103C10004E464546DE46E0B585B0050089461700AC
:103C20000193072800D918E1002A00D112E14401CC
:103C300008342000FDF74EFB8D4B80469A466B0002
:103C40009B4653465A469B5A002B4AD007220240B5
:103C5000032A0ED0042A0CD00026022A09D03100F3
:103C60002800FDF799FF53465A4601349E52FF340F
:103C70000BE00134FF343E1C9F4200D91E1CB6B23B
:103C8000320049462800FDF76DFE40212000FDF777
:103C90004BFB19F075FF070007E019F071FFC01B1F
:103CA00004281BD8012019F025FF2000FDF712FB86
:103CB0000028F2D15A46534659469B5A52469B1BFE
:103CC0009BB253526B4A002B50D15055300005B077
:103CD000F0BCBB46B246A946A046F0BD0D2040420E
:103CE000F5E72800FDF7A2FC061E00D180E00723BF
:103CF00042461340022B3DD153465A469B5A01344B
:103D0000FF34002BB7D102AE082231002800FDF7A6
:103D100029FE40212000FDF707FB19F031FF804606
:103D200008E019F02DFF4346C01A0428D6D8012018
:103D300019F0E0FE2000FDF7CDFA0028F1D1019A3C
:103D40003378137073785370B3789370F378D370BB
:103D5000B3880E9A5BBA1380F2885146584652BA1D
:103D60000A52802193B2434A515584E70123505DA2
:103D70001843AAE7062241460A4200D16FE7032B07
:103D800038D0042B00D06AE753465A469B5A013478
:103D9000FF34002B00D06EE702AE02223100280073
:103DA000FDF7E0FD40212000FDF7BEFA19F0E8FE26
:103DB000804608E019F0E4FE4346C01A04288DD876
:103DC000012019F097FE2000FDF784FA0028F1D1B8
:103DD00072783378023A1B029B18594652469BB2BE
:103DE0005352254A93423BD88021224A515542E7FB
:103DF00000206CE753465A469B5A0134FF34002B8F
:103E000000D038E702AE062231002800FDF7AAFDF7
:103E100040212000FDF788FA19F0B2FE804609E043
:103E200019F0AEFE4346C01A042800D956E7012017
:103E300019F060FE2000FDF74DFA0028F0D1019A3C
:103E40003378137073785370B3789370F378D370BA
:103E5000B28882E70E20404239E70120404236E72F
:103E60002800FFF79BFA054807F0F4FA04482EE70C
:103E7000BC840220B4840220EA050000D72400009C
:103E800017FCFFFF70B51500072800D980E007294F
:103E900000D96DE0444B89005B589F4644010834CB
:103EA0002000FDF717FA0F230340012B00D072E02A
:103EB000BC239B012978E018FDF736FA012070BD7C
:103EC0003A4B40019C4611786044FDF72DFAF5E726
:103ED000374B11889C4640010400090A6044FDF7F5
:103EE00023FA982308345B012978E018FDF71CFABF
:103EF000E4E7304B40019C46042229006044FDF772
:103F000075FADBE71188FDF7D7FAD7E744010834E3
:103F10002000FDF7DFF90F230340012B3BD1BC2329
:103F20009B01E018FDF7D6F9002837D1651CFF3555
:103F300022212800FDF7F8F980239B009C460826E3
:103F4000644407E02000FDF7C5F9064216D10120C0
:103F500019F0D0FD2800FDF7BDF90028F2D1ADE73A
:103F6000154B40019C4611786044FDF7DDF9A5E74B
:103F7000124807F06FFA0A204042A0E7082120000B
:103F8000FDF7D2F90E4807F065FA0D20404296E79A
:103F90000120404293E70520404290E7094807F09E
:103FA00059FA022040428AE70CC3021008160000AA
:103FB00008120000080C000008150000DC240000B6
:103FC000DB240000DA240000F0B55746DE464E46FA
:103FD00045460123E0B587080340BF001F43022385
:103FE000082103408FB01F4308900A220F20394355
:103FF0000AF010F8002800D116E1012019F07AFD2E
:104000000A2239000F200AF005F8002800D1EDE05F
:10401000012019F06FFDCF4A10219369DB0606D409
:1040200093691942FCD1136893691942F8D03C2076
:1040300019F060FD0FF0BAFE00261025C54FC64CE2
:1040400006900791BB691D4200D0C0E00136BB69F4
:104050001D42FCD13B68A355BB691D4201D1802E96
:10406000F4D10FF0A3FE069A079B801A994100290C
:1040700000D0BFE0B94B984200D9BBE0012019F055
:1040800039FD802EDED1B64D2F00173FBF190F2608
:1040900006E0B343F02B06D00135BD4200D1ACE0C1
:1040A0002B78552BF5D16B785A2BF5D1AD4C1822C6
:1040B0002900200011F02EFE20000023A21C173042
:1040C000117801325B18DBB28242F9D1E27D9A426B
:1040D000E2D12378A44AE1781370A278090212048D
:1040E0000A432179667B0A4311000C929F4A1160B2
:1040F0006279A179120409020A43E1790A431100A5
:104100000D929B4A1160227A617A120409020A43D5
:10411000A17A0A4311000A92964A1160E27A217B41
:10412000120409020A431643934AE17B1660A27BFC
:10413000090212040A43217C0A43110009928F4AA2
:104140001160677CA27C3F0412021743E27C174394
:104150008B4A176002221A4006921B0768D40D9DF5
:10416000002D00D1B7E00C9811F00DFD041C2800C3
:1041700011F009FD011C201C11F09FFC814B994698
:10418000089BDD00EC184B46A40019594C4411F073
:10419000A8FCA16811F08BFC7B4B041C9A461860AC
:1041A000002E00D0A2E00022784B111C1A6090462D
:1041B00011F0DCFC002800D053E3534642461A605D
:1041C000069B002B00D161E3714B1A60F4E00FF005
:1041D000EDFD069A079B801A994100290AD15F4B91
:1041E000984207D8012019F085FC2BE7694807F0B1
:1041F00031F910E7172E00D945E700230024644A5F
:104200001360624A1360604A1360634B002200210E
:104210001868002317F0DAFA20000FB0F0BCBB4694
:10422000B246A946A046F0BD5C4807F013F9F2E695
:10423000554B9A46002352461360002E00D1B3E03E
:104240000A9811F0A0FC041C300011F09CFC011C29
:10425000201C11F032FC4B4B9946089BDD00EC18FA
:10426000A4004C44616811F03CFCE16811F01FFCB3
:10427000464B80469B4618605346002140461C68CA
:1042800011F074FC002806D04046454911F076FC38
:10429000002800D1ACE100239A465B465246201C20
:1042A0001A60514611F01DFC069B041C002B02D124
:1042B000002F00D0A6E1364D5146286011F056FC83
:1042C000002879D10023374C2B6063780993002BA9
:1042D00077D1012499E700242B4B9A461C60002ECD
:1042E00000D19DE2274B9946089BDD000A9811F00A
:1042F0004AFC8046300011F046FC011C404611F09B
:10430000DCFB089BEB189B004B449846596811F066
:10431000E8FB4346D96811F0CAFB1C4B8046186085
:104320000021201C9B4611F021FC002800D0B8E1A0
:104330000024534640461C60211C11F017FC002845
:10434000A2D15B461C60069B002B00D158E1104BAC
:104350001C6031E0004003408774022090D00300CD
:1043600088740220183C00208E1100205441022045
:104370005041022044410220404102204C41022091
:1043800048410220DC490220345202202C520220F3
:104390003052022002340000D48402200134000094
:1043A0000000C842C8790220E44A1360069A002A35
:1043B00000D17EE1E24A1360E24C63780993002B5E
:1043C00087D0257B089BAB4200D082E70C996269BD
:1043D0008C46944462460D99E37B8C46069262615A
:1043E000A269B346944462460C92A2610A9A267C62
:1043F0009446226AE76993445A46013322620136A1
:10440000A27BDBB26744F6B2E373E76126749342A2
:1044100000D25EE75210964200DA2DE2CA4B00212C
:1044200099464A46EB0008935B199B00D358181C29
:10443000984611F0A3FB002801D1C44B9846089B75
:1044400000215B199B004B445B68181C9A4611F0D5
:1044500095FB002802D1FE239B059A46300011F0FF
:1044600097FB061C069811F08EFB311C11F025FB02
:104470000A900C9811F087FB311C11F01EFB0C9078
:10448000380011F080FB311C11F017FB071C584657
:1044900011F079FB311C11F010FB2278061C012A67
:1044A00000D18AE1089B5B199B004B449968DB684B
:1044B00006919B46022A00D104E1032A00D0DBE1E9
:1044C000A3680021181C099311F048FB002800D0B4
:1044D000D2E10021381C11F041FB002800D0CBE1D3
:1044E0000021301C11F03AFB002800D0C4E1311C3F
:1044F000381C11F0E2FA002111F030FB002800D046
:10450000BAE10999584611F0D5FA391C8246301C97
:1045100011F0D3FA011C504611F0E3FA82465846D6
:1045200011F058FB04900591099811F053FB02908B
:104530000391504611F04EFB854E864F009001913D
:104540002A003100380003F037FF00230993089B4D
:1045500042465F194B46BF00DA51069B4F44BB6091
:1045600053467B605B464046FB60784911F0A5FAF4
:104570007949804611F0B5FA78493861404611F022
:10458000B0FA774B099ABB61CA2378613B77002A5E
:1045900000D17B7F089A28005119890049444B7744
:1045A0000AF028F8002800D1FCE0257B2522A35C36
:1045B0000133A3546A1C637BD2B2934200D9E3E077
:1045C0002378012B00D1DDE0022B00D1B3E0032BD7
:1045D00000D1AEE0634A25212423615CE35C62489C
:1045E0000091310003F0E8FE0023238001240CE653
:1045F000211C404611F075FA069B041C002B46D185
:10460000002F44D0099811F0BEFA8046380011F00E
:10461000BAFA011C404611F050FA089B9C464B46E2
:104620006544AD0059594D4411F05BFA696811F0C9
:1046300058FA434D00212860071C11F089FA002820
:1046400026D14A49381C11F099FA002820D148494E
:10465000201C11F093FA002800D10FE1211C381C16
:1046600011F025FA4000211C400811F026FAFC2127
:10467000890511F083FA002800D1FFE02C603B4946
:10468000201C11F07BFA002800D01BE694E62C4D8C
:1046900000212C60201C11F069FA002800D111E6DD
:1046A000EDE73449201C11F069FA002800D03FE6FC
:1046B000E2E5002F00D17DE6234B9946089BDD0003
:1046C00000249FE767680021381C11F057FA002882
:1046D00000D1D1E000210A9811F050FA002800D151
:1046E000CAE000210C9811F049FA002800D1C3E07B
:1046F0000698391C11F0DEF90A99061C0C9811F085
:10470000DCF9011C301C11F0ECF98046381C11F06A
:1047100061FA02900391404611F05CFA0C4E009051
:1047200001912A003100144803F046FE002309934A
:104730000DE7124A4FE7124A4DE7C0462C520220BD
:1047400030520220C8790220DC490220D7A3F03F72
:104750009C63021028640210007EE54900007A4440
:104760006F12833A8C630210D464021000401C471D
:10477000CDCCCC3D0000C843E86302109463021026
:1047800084630210454A26E700233100444822731F
:10479000E37323746361A361E361236203F00CFE9E
:1047A000012432E52A0031003E4803F005FE2422B0
:1047B000A35C0133A354257BFCE60C9B0021181C51
:1047C0009B4611F0DBF9002841D059460A9811F0B8
:1047D00074F9414611F085F9069011F0FBF90A9041
:1047E0000B910021301C11F0C9F900282AD0311C8E
:1047F000381C11F062F9514611F073F9834611F03B
:10480000E9F902000B00284E029203930A9A0B9BCF
:1048100031000092019325482A0003F0CDFD96E671
:10482000234B1C60201C002111F05BF9069B041C2B
:10483000002B00D08BE5002F10D01E4B9946089B13
:10484000DD00DFE60021002200238B46DBE70023AA
:1048500000220A920B9300230693C2E7164D2C60A8
:104860000DE71649201C11F089F90028DAD05346CB
:10487000424644461A60D5E70B4E97E60021381CA5
:1048800011F074F9002800D096E51BE5002F00D048
:1048900016E7094D44462A60F1E6C0467C630210E3
:1048A000AC640210746402109C630210A8630210CE
:1048B0002C520220DC490220305202200000C84362
:1048C000F0B5D6464F464646C0B50027924D86B055
:1048D00004AB2C78DE1D31002000DF7108F0A0FF52
:1048E00036788E4B1E55072C10D98D4B8D48A40061
:1048F000E75006F0AFFD07232A78013213402B70F2
:1049000006B0E0BCBA46B146A846F0BD0FF04EFA7C
:10491000854BA7009A46DB59009099460191002EDD
:1049200000D199E0814EE3009846F3181A685B685D
:104930001100194300D0A7E0009A019B4644326061
:1049400073604A46764B6421DA51794B186817F048
:1049500051FB012800D188E007232A780132134057
:104960002B70072CCCD1734D00212C68201C11F02A
:10497000FDF8002806D07049201C11F0E9F8002845
:1049800000D0B0E000246E680021301C11F0EEF879
:10499000002806D06849301C11F0DAF8002800D051
:1049A0009BE0AE680021301C11F0E0F8002806D032
:1049B0006149301C11F0CCF8002800D087E0EE6887
:1049C0000021301C11F0D2F8002805D05A49301CC3
:1049D00011F0BEF8002874D12E690021301C11F0AE
:1049E000C5F8002806D05449301C11F0B1F8002851
:1049F00000D084E06E690021301C11F0B7F8002867
:104A000005D04D49301C11F0A3F8002871D1AE69D2
:104A10000021301C11F0AAF8002805D04649301CAE
:104A200011F096F8002870D1ED690021281C11F0D2
:104A30009DF800280AD04049281C11F089F8002868
:104A400004D0201C291C11F035F8041C01223B4B1A
:104A50001C603B4B1A7053E73A4B344E1A685B6844
:104A600000920193E300984666E72000FFF7ACFA56
:104A7000002800D170E7344A344B1268DA51344AC6
:104A80002C4B1268DA5167E700980199801A994116
:104A900001225242D31712184B4102920393039BF7
:104AA000002B00D048E72B4B029A9A4200D943E7EB
:104AB0000023294A10F012F9814453464A46DA513C
:104AC0003AE7201C311C10F0F5FF041C84E7201C81
:104AD000311C10F0EFFF041C71E7201C311C10F09A
:104AE000E9FF041C5DE7201C002110F0E3FF041C1B
:104AF00049E7201C311C10F0DDFF041C87E7201C57
:104B0000311C10F0D7FF041C74E7201C311C10F07E
:104B1000D1FF041C88E7C0469585022090490220F9
:104B20009849022004340000FC4A0220583A002030
:104B3000D4840220704902200000C84280820220F2
:104B40009E850220104D031034520220B8490220E5
:104B50002C5202207E96980040420F0010B5072884
:104B60000ED8094B8000C4580021201C10F0FEFF15
:104B7000002805D00549201C10F0EAFF002800D1CC
:104B80000024201C10BDC046B84902200000C843C4
:104B900010B507280ED8094B8000C4580021201CEE
:104BA00010F0E4FF002805D00549201C10F0D0FFCC
:104BB000002800D10024201C10BDC04670490220EE
:104BC0000000C84270B5072824D8134B84001D5933
:104BD0000021281C10F0CAFF002805D00F49281C0E
:104BE00010F0B6FF002800D100250D4B00211C5904
:104BF000201C10F0BBFF00280AD00A49201C10F02E
:104C0000A7FF002804D0291C201C10F06AFF70BDEB
:104C10000024F8E70020FAE7B84902200000C84362
:104C2000704902200000C84203000020072B02D870
:104C3000014A9B00985870479849022003000020C1
:104C4000072B01D8014AD05C7047C046904902202A
:104C5000014B18687047C04680820220034A1378CF
:104C6000D8B2002B01D00023137070479E8502201C
:104C7000F0B5DE464E4645465746E0B5454B8BB04F
:104C800019004548994603F097FB444B0026984687
:104C9000FE239B059B46424D01AC54E00021206859
:104CA00010F06CFF002801D14346236000216068AA
:104CB00010F064FF002801D15B466360A3683949A6
:104CC000181C9A4610F05AFF002805D05046364965
:104CD00010F03EFF002801D10023A360E3683149B2
:104CE000181C9A4610F04AFF002805D050462E495D
:104CF00010F02EFF002801D10023E360002120697D
:104D000010F03CFF002801D1284B2361002160698D
:104D100010F034FF002801D1234B63610021A0690A
:104D200010F02CFF002801D1214BA3612B002200A1
:104D300083CA83C383CA83C30136F6B283CA83C3DB
:104D40002435082E1AD02100300009F06DFC00280F
:104D5000A4D043462B605B466B600023AB60EB60E6
:104D6000124B01362B61104BF6B26B61104BAB61ED
:104D700001235B42AB832435082EE4D149460D481C
:104D800003F01AFB0BB0F0BCBB46B246A946A046E6
:104D9000F0BDC0469C63021010650210D7A3F03F1F
:104DA000DC49022000007AC400007A44007EE54914
:104DB0006F12833A4065021070B52B4E2B483100BC
:104DC00003F0FAFA012016F087FE294B186000283C
:104DD00046D09621274849010FF084F8022101208E
:104DE0000EF050F8022100200EF04CF801230122B1
:104DF000082120480FF006F91F4B20221C685D682F
:104E000000211E4810F080FF1D4B082200211D4884
:104E10001C605D609C60DD601C615D619C61DD61AA
:104E20001C625D629C62DD621C635D639C63DD638A
:104E300010F06AFF20220021134810F065FF2022A5
:104E40000021124810F060FF00212022104810F0CD
:104E50005BFFFFF70DFF31000E4803F0ADFA70BDA8
:104E60000D4806F0F7FAFAE79C6302106865021035
:104E7000D484022000400340104D0310FC4A02205D
:104E8000583A002090490220B84902207049022077
:104E900098490220946502100234000010B5124BAC
:104EA0005A78002A19D10221FF3119800021596056
:104EB00099600E490E4CD96000210E4819742100EA
:104EC0009A845A619A61DA611A6203F075FA0A48A3
:104ED000210003F071FA012010BD0848044903F0D5
:104EE000D9FA0020F8E7C046C879022000080A0075
:104EF0009C630210F065021034660210B86502105F
:104F000070B50025291C041C10F028FE002825D1AE
:104F1000134B5A78002A1DD181214900198011496B
:104F20005C60D96000219A845A619A61DA611A62E0
:104F30009D601974201C10F04DFE0B4C02000B00FC
:104F40000A48210003F038FA0948210003F034FA36
:104F5000012070BD0449074803F09CFA0020F8E7DF
:104F6000C879022000080A009C63021064660210DF
:104F7000B0660210B8650210F0B5040083B00D1CD5
:104F8000072832D80026281C311C10F0E7FD002825
:104F90002BD1174B5A78002A23D10421FF311980D5
:104FA000611C59730A21D98100215E609A845A617B
:104FB0009A61DA611A629D601C731974281C10F0E2
:104FC00009FE0C4F0C4E0090019122003900300078
:104FD00003F0F2F909482200390003F0EDF901204D
:104FE00004E00449064803F055FA002003B0F0BD80
:104FF000C87902209C630210F06602103C67021020
:10500000B8650210F0B54646D6464F46C0B5804654
:1050100084B0072805D904B0E0BCBA46B146A8461A
:10502000F0BD42462E492F4803F0C6F92E4B9A4652
:105030004346DB001C00994653464444A4001859DB
:1050400010F0C8FD5444060060680F0010F0C2FD67
:10505000264D32003B0000900191280003F0ACF98E
:10506000A06810F0B7FD0600E0680F0010F0B2FD78
:105070001F4D32003B0000900191280003F09CF985
:10508000206910F0A7FD0600A0690F0010F0A2FD36
:1050900002900391606910F09DFD164D3B00009059
:1050A00001913200280003F087F9237FCA2B0CD02E
:1050B0004B4643449B0053445B7F0F49CA2B0CD0A3
:1050C0000D4A0E4803F078F9A5E74B4643449B0090
:1050D00053445B7F0A49CA2BF2D1094AF1E7C04623
:1050E0009C63021080670210DC490220986702105E
:1050F000AC670210C46702107C670210E4670210FC
:105100007867021070B5040088B00B00144A2021A3
:10511000684612F085FA200069461DF03BF9041E2E
:1051200014D068461DF0ACFA2618262130001CF079
:105130008DFE00280FD0851B7F2D0AD8094C2A0030
:105140003100200010F0E6FD00236355200008B078
:1051500070BD7F25F2E730001DF092FA3018EAE7C3
:1051600004680210F0840220F0B50378002B0CD004
:105170000200110001322B2B2DD0252B08D001303D
:105180000B700378002BF4D1100000230370F0BDE6
:1051900044782500303DEEB2092E1FD92500413D4F
:1051A000052D24D92500613D052DE8D8573C85788B
:1051B0002E00303EF7B2092F17D92E00413E052EA2
:1051C00017D92E00613E052ED9D8573D24012C4316
:1051D000E3B20330D4E701300B3BD1E72C008578F4
:1051E0002E00303EF7B2092FE7D83500EEE7373C06
:1051F000DDE7373DEAE7C04630B5040087B0002858
:1052000035D06D46811D0422A81D10F083FD2100BC
:105210000E2004220E31684410F07CFD21000A208B
:1052200004220A31684410F075FD21001220042286
:105230001231684410F06EFD06222100684610F01D
:1052400069FDA37D6846013B5A425341AB75FCF7AB
:10525000D1FF6846FCF782FD041E01D1002403E063
:105260000A21012008F080FE200007B030BD02486E
:1052700006F0F0F80024F7E70174000070B5154C53
:10528000154B22689A4202D1A388012B1FD0134DDF
:105290002A222800002110F037FD0F4B063D2B601D
:1052A0000123AB80A3600E4B9A68E260DA6822614A
:1052B0001A6962615A69A2619A69E261DA692262D5
:1052C0001A6A62625A6AA2629B6AE36270BDA3684C
:1052D0000133E7E7C085022050414E53C6850220C6
:1052E000008005400848094B026810B59A4202D177
:1052F0008388012B00D010BD00232022C360002131
:10530000103010F001FDF6E7C085022050414E53E9
:10531000044A10B513680133136018F031FC024BD6
:10532000186010BD044E0220084E0220014B186880
:105330007047C046044E022010B5064B064CE36091
:1053400073462361606119F0B5FBA061034808F062
:105350006BF9FEE7F200EFBE00800540086802101E
:1053600010B5084B084CE3607346236119F0C0FB8D
:105370006061002019F09EFBA061044808F054F918
:10538000FEE7C046F300EFBE00800540086802104B
:10539000054B064A10B5DA60724605481A61596134
:1053A00008F042F9FEE7C04600800540F400EFBE79
:1053B0000868021070B5214D00212C0028009422AD
:1053C00010F0A2FC1E4B083C23601E4B01206360C2
:1053D00001231D4994355B42227801345A40530819
:1053E000024052420A4053405A0803405B420B407D
:1053F0005A405308024052420A4053405A08034060
:105400005B420B405A405308024052420A4053400C
:105410005A0803405B420B405A4053080240524234
:105420000A4053405A0803405B420B405340AC4291
:10543000D2D1DB43054A936070BDC046F885022097
:10544000474C524302009C002083B8EDF0850220B7
:10545000F8B54F4C4F4B226805009A4202D1A38801
:10546000022B54D0FFF7A6FFE16B002902D0A9421E
:105470004BD8691AE56380250F22635D134018003D
:1054800001331A4062558122103080002150A35C04
:105490000F2B01D80133A35400232500012620003F
:1054A00001213D4AA3609C35764203780130734068
:1054B0005E080B405B42134073405E080B405B424A
:1054C00013405E4073080E407642164073405E08FB
:1054D0000B405B4213405E4073080E40764216401C
:1054E00073405E080B405B4213405E4073080E4001
:1054F0007642164073405E080B405B4213405E40AC
:10550000A842D2D1F643A660F8BD0021B2E7E388F5
:105510009C2BA7D1A36827009C46002326000120CE
:105520001D49A3609C37013B327801365A4053082D
:10553000024052420A4053405A0803405B420B402B
:105540005A405308024052420A4053405A0803400E
:105550005B420B405A405308024052420A405340BB
:105560005A0803405B420B405A40530802405242E3
:105570000A4053405A0803405B420B405340B74235
:10558000D2D16246DB43A2609C4500D16CE769E75B
:10559000F0850220474C52432083B8EDF8B54B4CC0
:1055A0004B4B226805009A4202D1A388022B4CD0B3
:1055B000FFF700FF002D47D02A780023002A08D0EB
:1055C000444901E0172B04D0CA540133EA5C002A95
:1055D000F8D100222500012620000121E3188433A0
:1055E0001A70A2603C4A9C357642037801307340C1
:1055F0005E080B405B42134073405E080B405B4209
:1056000013405E4073080E407642164073405E08B9
:105610000B405B4213405E4073080E4076421640DA
:1056200073405E080B405B4213405E4073080E40BF
:105630007642164073405E080B405B4213405E406A
:10564000A842D2D1F643A660F8BDE3889C2BAFD127
:10565000A36827009C460023260001201E49A36062
:105660009C37013B327801365A405308024052427F
:105670000A4053405A0803405B420B405A405308CB
:10568000024052420A4053405A0803405B420B40DA
:105690005A405308024052420A4053405A080340BD
:1056A0005B420B405A405308024052420A4053406A
:1056B0005A0803405B420B405340B742D2D1624686
:1056C000DB43A2609C4500D174E771E7F0850220BE
:1056D000474C5243748602202083B8ED002210B557
:1056E000084B094C1A7022702378002B05D10A212F
:1056F000012008F0E9FB012323700449044802F06B
:105700005BFE10BDB2850220B58502201468021030
:1057100020680210014B1878C0B27047B285022091
:1057200070B5184D2B78012B27D0174C1748210046
:1057300002F042FE08F08AF9322008F0F3FA322132
:10574000002008F071FB3221002008F00DFC32210E
:10575000012008F0B9FBD023802201261B0652034A
:105760002E709A610EF022FB094B210009481E7031
:1057700002F022FE02F0ACFE70BD074805F07CFE90
:10578000FAE7C046B285022014680210546802107D
:10579000B5850220786802101062000070B51C4CBC
:1057A0002378002B2FD002F09FFE1A4D1A482900B3
:1057B00002F002FED02380221B06184E52035A61CB
:1057C0003378002B18D00A21002008F0CDFB0AF016
:1057D0008DFC002329001248237002F0EDFD882281
:1057E000104B11499950083ADA67104B1A68012397
:1057F00093430F4A136070BD0A21012008F064FB37
:1058000001233370DFE70B4805F036FEF3E7C046AF
:10581000B28502201468021098680210B585022033
:10582000BC68021000000540FFFF00007800054042
:10583000781005401162000070B50EF0B7FA00292B
:1058400048D0FA22002392000FF060FA0400414B86
:105850001B78DDB2012B10D000223F4B1A603F4B6A
:1058600001321A703E4B1B78002B05D03D4B3E4A4F
:105870001B681B041B0C136070BD374A1368002B98
:105880002ED1364B394E1D7033781460002B55D015
:10589000334D2B78002B38D0354B186800284AD070
:1058A000FA21201AC9000FF0F3F90800FA210304C5
:1058B0008900884248D3C01A2E4B9C4660440FF0A2
:1058C000E7F90300274A126853401B04264A1B0CC1
:1058D0001360D1E7FA2189000FF0DAF90400B6E786
:1058E000FA21E31A89008B42D2D3146001221B4BA8
:1058F0001E4E1D7855401D7033789D42C8D00A2138
:10590000280008F0E1FA3570C2E704211C200DF0F0
:10591000B9FA8822184B19499950083ADA67184B96
:105920001A68012319009143164A11602B70104B1D
:105930001C60002C00D11C600023C3E70A21012059
:1059400008F0C2FA3570A3E7181A0FF0A1F90300A6
:10595000B8E7C046B2850220CC7A02208F11002021
:10596000B48502208400054084100540B5850220DE
:10597000C079022030F8CF0700000540FFFF00008B
:10598000780005407810054010B504220C0003494A
:1059900010F0C0F90423237010BDC046F468021053
:1059A00010B519220C00034910F0B4F91923237023
:1059B00010BDC046FC68021010B518220C00034947
:1059C00010F0A8F91823237010BDC0461869021002
:1059D000F8B50E0007000AF07FFD05001CF050FE30
:1059E000FF22040029000240380010F093F93470BF
:1059F000F8BDC0467047C04670B5AEB004000D009B
:105A000058220B4918A810F085F90023094E179366
:105A1000169319A9013354226846159310F07AF9A8
:105A2000320029002000189BFDF7C0FB2EB070BD8E
:105A30003CC3021034C3021070B590B00AAC06002B
:105A400020000D0005F0BEFD00280ED0617AA3797C
:105A50000291217A30000191E179084A00911021E8
:105A600011F0DEFD287010B070BD04A809F070FDC3
:105A70001722200004A910F04DF9E7E7346902105D
:105A800070B590B00AAC060020000D0005F09AFD3C
:105A900000280ED0617BA37A0291217B3000019116
:105AA000E17A084A0091102111F0BAFD287010B077
:105AB00070BD04A809F04CFD1722200004A910F0C5
:105AC00029F9E7E73469021070B590B00AAC060016
:105AD00020000D0005F076FD00280ED0617CA37B30
