:020000041000EA
:1000000000B5324B212058609868022188439860DF
:10001000D860186158612E4B002199600221596106
:100020000121F02299502B49196001219960352056
:1000300000F044F80222904214D00621196600F024
:1000400034F8196E01211966002018661A6600F04E
:100050002CF8196E196E196E052000F02FF8012189
:100060000842F9D1002199601B49196000215960AB
:100070001A491B48016001219960EB211966A021F2
:10008000196600F012F800219960164914480160C1
:100090000121996001BC002800D000471248134993
:1000A000086003C880F30888084703B5996A0420EC
:1000B0000142FBD001200142F8D103BD02B5186610
:1000C0001866FFF7F2FF186E186E02BD00000240BE
:1000D000000000180000070000035F00212200005C
:1000E000F4000018222000A00001001008ED00E03C
:1000F00000000000000000000000000074B24E7A12
:1001000000200420F7010010CB010010CD010010E9
:10011000C9010010C9010010C9010010C901001077
:10012000C9010010C9010010C901001001B401107B
:10013000C9010010C901001035B40110A9B50110A2
:10014000C1010010C1010010C1010010C101001067
:10015000C1010010C1010010C1010010C101001057
:10016000C1010010C1010010C1010010C101001047
:10017000C1010010C1010010C1010010C101001037
:10018000C1010010C1010010C1010010C101001027
:10019000C1010010C1010010C1010010C101001017
:1001A000C1010010C1010010C1010010C101001007
:1001B000C1010010C1010010C1010010C1010010F7
:1001C000EFF30580103800BE00BE00BE00BE00BECA
:1001D00000BE00BEF2EB88718CDC0310B0DC0310B3
:1001E0003802001090A31AE71E481F49086006C88D
:1001F00081F3088810471D480068002801D019487D
:10020000F3E70DA40ECC002902D000F012F8F9E7B4
:100210001749184A002000E001C19142FCD116495B
:100220008847164988471649884700BEFDE701C937
:1002300001C29A42FBD37047B0DC0310C00000201B
:10024000083A0020F81504100000042000000420E3
:10025000F815041000100420001004200000000015
:10026000704700000000000008ED00E0000000D032
:10027000083A0020C0850220A1810110D50200109B
:1002800099810110F8B5C04606480749091A8B1034
:10029000C90FC91810B5491003D0044B002B00D06A
:1002A000984710BD083A0020083A002000000000DE
:1002B000054B10B5002B03D00449054800E000BFF2
:1002C000FFF7E2FF10BDC0460000000010740220DE
:1002D000786C021000B587B005F0AAF9134805AB99
:1002E00004AA03A914F08EFE002803D110480F4978
:1002F00013F0F8FA059A0499039814F0A7FD002268
:100300000C4B11000093062014F00CFCFA20800026
:1003100014F072F908F01AFA074808F067FA1DF0AD
:10032000A1FFF82040010BF003FDFEE7400D0300A4
:10033000B46C021000C2EB0B786C021010B50D20EB
:1003400013F036FB002201210D2013F009FBD0240D
:10035000802324069B01A3620C2013F029FB0022BA
:1003600001210C2013F0FCFA80235B01A3620E2014
:1003700013F01EFB002201210E2013F0F1FA80235E
:10038000DB01A3620DF02CFF002800D110BD00207E
:100390000EF0B8F9FAE7C046D0231B06586880046F
:1003A000C00F7047D0231B065868C004C00F7047A9
:1003B000D0231B0658684004C00F704710B50DF0DD
:1003C0000FFF002800D110BD00200EF09BF9FAE7C6
:1003D00070B504000D0007280FD80DF001FF0028AC
:1003E00007D00022290020000EF0C6F9002809D00D
:1003F00070BD06480BF09CFCFAE7A820C0010BF08A
:1004000097FCF5E702480BF093FCF1E7015400007C
:100410000254000070B50D0000281FD00378002B97
:100420000ED10724073303700DF0DAFE002811D037
:100430000022290020000EF09FF9002812D070BD84
:10044000013BDCB20470072CEED9A820C0010BF0F0
:100450006FFCF4E705480BF06BFCF0E704480BF089
:1004600067FCECE703480BF063FCE8E7015400008D
:10047000035400000254000070B50D0000281FD086
:100480000478072C09D00134E4B20470072C07D992
:10049000A820C0010BF04CFC0DE0002300240370E9
:1004A0000DF09EFE002807D00022290020000EF04B
:1004B00063F9002808D070BD05480BF039FCFAE755
:1004C00004480BF035FCF6E703480BF031FCF2E78B
:1004D00001540000045400000254000010B5072825
:1004E00000D910BD0DF04CFFFBE7C04610B514F06D
:1004F000B1F9002905D0FA220023920015F05AF92B
:1005000010BDFA21890015F017F9F9E7F0B5454655
:10051000DE4657464E460024E0B5454D8BB00122DD
:100520002868524209A909941CF032F90128F6D131
:10053000099B00271A68DE6890461A7991469A69E5
:100540009246DA6993461A7D022A37D020229A5CB5
:10055000059221229B5C002B1CD014F07BF98019A2
:100560007941002902DA012032494042059B02907C
:100570000391009352465B46494640461AF000FFFD
:10058000099B1861002298680021022300941FF043
:10059000F1F9C4E714F05EF980197941002902DA13
:1005A000012024494042059B02900391009352464A
:1005B0005B46494640461AF0BFFEE1E714F04AF9AF
:1005C00080197941002902DA01201A4940420123A9
:1005D000029003915246009349465B4640461AF00A
:1005E000ABFE099BDA698242CBD11A6890461A7930
:1005F00091461A6A92465A6ADB689346069300232C
:10060000079314F027F9069A079B8018594100298F
:1006100002DA012007494042029003915B465246AC
:100620004946404600941AF0ABFE099BA9E7C04634
:10063000F0790220FFFFFF7F10B5134C82B02368D2
:10064000002B01D002B010BD0022042110201BF0AD
:1006500053FD2060002811D00C4BC02201930223CF
:100660000B4900930B48002392001DF0FDFA01286E
:10067000E8D0DA21084805F0A3F8E3E7D7210648D7
:1006800005F09EF8E8E7C046F079022010790220D4
:10069000386D02100D050010E86C0210F0B54F46E1
:1006A0004646D646C0B590B0984618AB1F78274B43
:1006B00006009A461B680D009146002B2DD006AC13
:1006C0002422002107A816F073F8069625711EF063
:1006D0005FFF4A460C924246199B0D9220220993D5
:1006E0000123A7540132A354237553460890223A9C
:1006F000186805A9002305941BF0B8FD012821D135
:1007000001220121002052421FF064F80A9810B023
:10071000E0BCBA46B146A846F0BD14F09BF80023F1
:10072000199A12184B41002B02DA0122084B52424F
:1007300002920393290043464A46300000971AF07C
:100740001FFEE4E701204042E1E7C046F0790220C5
:10075000FFFFFF7FF0B54F464646D646C0B592B084
:10076000884606A94B701A9B070089461E1E0A7010
:1007700000D12C4E2C4BB24603251E0008AC33682A
:10078000002B31D02422002109A816F011F843468D
:10079000276023711EF0FCFE4A465346A2610222E6
:1007A000E3600023A060E2613068033A07A9237583
:1007B000238407941BF05AFD012808D1012201214E
:1007C000002052421FF006F82069022827D001209D
:1007D000013D1DF0DFFE002DD1D1002012B0E0BCA4
:1007E000BA46B146A846F0BD14F034F85346049317
:1007F00000230593049A059B80185941002902DAC9
:1008000001200A49404200230290039100934A4686
:100810004146380002331AF08FFD0228D7D101205B
:10082000DCE7C04650C30000F0790220FFFFFF7FE5
:10083000F0B55746DE464E464546E0B595B00F004A
:1008400002A99B468C46172363449A461A705B465E
:100850000600002B38D01E9B002B6DD09846394BDC
:10086000B946032537001E000AAC3368002B33D08D
:100870004B46276023711EF08BFE4346E360002346
:10088000236102335A46237553462262A361012233
:100890000123A060E361636230680023524209A92A
:1008A00009941BF0E3FC012808D10122012100205A
:1008B00052421EF08FFF206901283BD00120013DEC
:1008C0001DF068FE002DD0D1002015B0F0BCBB4655
:1008D000B246A946A046F0BD4346049300230593C3
:1008E00013F0B8FF049A059B80185941002925DBB5
:1008F00001230290039152464946380000931AF0B2
:100900001BFD0128DAD113F0A5FF049A059B80187E
:100910005941002902DA01200B494042002302908C
:10092000039100935A464946380001331AF028FDD6
:100930000128C3D10120C8E7044B8FE701200249F9
:100940004042D5E7F0790220FFFFFF7F50C300004F
:10095000F0B5DE4657464E464546E0B599B005909F
:100960000891002B00D1C9E0160AD7B2239A002AB9
:1009700000D17B4A22999346002950D103239846FF
:10098000784BB9469A464346B0461E000EAD02204B
:100990001FF038FE041E3AD0434603704B464370A6
:1009A00053461B68002B00D18DE0242200210FA8A4
:1009B00015F0FEFE059B2B60089B2B711EF0E8FDD9
:1009C0005B46EB60002302222B752B845346A86004
:1009D000EA611868033A00230DA9AC610D951BF07C
:1009E00045FC012800D0B2E0012201210020524242
:1009F0001EF0F0FE2F6920001FF0EEFE022F00D146
:100A0000A3E00120013E1DF0C5FD002EBFD1002056
:100A100019B0F0BCBB46B246A946A046F0BD0231B3
:100A20008A4603218B464F49584689465146BB4664
:100A3000B246984607000E000EAD099230001FF036
:100A4000E1FD041EE3D0534603705B46414643700C
:100A5000229A023015F0B2FE4B461B68002B59D08B
:100A6000242200210FA815F0A3FE059B2B60089BF4
:100A70002B711EF08DFD099B0122EB6000232B756D
:100A80002B844B46A860524218680DA90023AC6124
:100A9000EE610D951BF0EAFB01285CD101220121DA
:100AA000002052421EF096FE2B69069320001FF094
:100AB00093FE069B9E4248D00120013F1DF06AFD37
:100AC000002FBBD1A3E713F0C5FE5B4606930023BE
:100AD0000793069A079B80185941002902DA0120E2
:100AE000214940420023029003910093220008997B
:100AF000059802331AF020FC07007CE7229B002BAC
:100B000000D084E7239B160AD7B2002B00D1144BE8
:100B10009B4633E713F09EFE099B0A9300230B9339
:100B20000A9A0B9B80185941002902DA01200E49CC
:100B30004042002302900391009322003300089961
:100B400005981AF0F9FB0690B0E7012060E7200055
:100B50001FF042FE55E701235B420693A6E7C0461D
:100B600050C30000F0790220FFFFFF7FF0B5574629
:100B70004E464546DE46E0B5884606001F0093B067
:100B8000002B00D17EE006AB52BA9B461A801D9B1B
:100B9000002B00D170E099463E4BBA460325370042
:100BA0001E0008AC3368002B34D043462760237105
:100BB0001EF0EEFC4B46E36000235A4623610233ED
:100BC0002375E3615346A261012223621C9BA0604E
:100BD000636230680023524207A907941BF046FB6A
:100BE000012854D101220121002052421EF0F2FDC1
:100BF00020691C9B83423DD00120013D1DF0CAFCB1
:100C0000002DCFD1002013B0F0BCBB46B246A946A0
:100C1000A046F0BD4B4604930023059313F01AFE43
:100C2000049A059B80185941002927DB0123029073
:100C3000039100935A464146380001331AF07CFB79
:100C4000022824D113F006FE049A059B801859410E
:100C5000002902DA0120104940420023029003914A
:100C6000009352461C9B414638001AF089FB1C9B9E
:100C70008342C1D10120C6E7084B8CE70120064919
:100C80004042D3E71C9B002B00D17CE7BAE7012050
:100C90004042AEE7F0790220FFFFFF7F50C3000023
:100CA0000523F0B5C356040085B0002B0BDB0125EE
:100CB000D0269D4036060520B5611DF06BFC0A204C
:100CC00075611DF067FC0121354D4942A0681BF09C
:100CD000E1FE217920230A2220680095FFF73AFDE2
:100CE000217920230B2220680095FFF733FD21791D
:100CF0000023002220680095FFF72CFD21790023B6
:100D0000012220680095FFF725FD217900230C22A0
:100D100020680095FFF71EFD0E26217900230D2285
:100D200020680F270095FFF715FD00236E446F44E0
:100D300033703B7021792068330014220095FFF74F
:100D400077FD002800D13070154B217920681522DD
:100D500000933B00FFF76CFD00281ED03B783278F3
:100D60000F4DA271E371A379217920681422DBB2BF
:100D70000095FFF7EFFCE379217920681522DBB2BB
:100D80000095FFF7E7FC01230022237300210023D5
:100D9000A0681BF06BFA05B0F0BD00233870DEE7E9
:100DA00088130000F0B54F464646D646C0B505004C
:100DB0000F00904682B0002862D00B00203B072B2A
:100DC0005ED8534B534C1E689946A246002E2AD03B
:100DD000226890425ED0012E22D02269954261D0D5
:100DE000022E1DD0226A954261D0032E18D0226BAC
:100DF000954262D0042E13D0226C954263D0052E0A
:100E00000ED0226D954264D0062E09D0226E9542F6
:100E100065D0072E04D0226F954266D0082E6AD086
:100E20003601A3199A4610220021504615F0C0FC45
:100E30004346A551A419637100230120A3712771B2
:100E4000E37123731BF098FBA060002859D0434640
:100E5000002B09DB404612F0ABFD424601239340D4
:100E6000D0221206536253614B464A461B68013337
:100E70001360504602B0E0BCBA46B146A846F0BD89
:100E80002B00254A25482649009707F0AFFC002390
:100E90009A46EEE722798A429DD10023A2461B01A1
:100EA0009A44E6E7227DBA429AD10123F6E724224A
:100EB000A25CBA4299D10223F0E73422A25CBA4282
:100EC00098D10323EAE74422A25CBA4297D10423D3
:100ED000E4E75422A25CBA4296D10523DEE76422FD
:100EE000A25CBA4295D10623D8E77422A25C0723FC
:100EF000BA4293D1D2E7084A0A480B4907F076FC78
:100F0000C5E73B00044A0948094907F06FFCBEE702
:100F1000604D0220644D0220406D0210486D0210A9
:100F200010540000886D021011540000B46D0210BE
:100F30001254000070B50400160082B0002828D0BA
:100F4000057B002D22D00F2923D8072301250B4034
:100F50009D408068EDB207291DD9012149421BF04F
:100F600099FD002E2BD0E3792B43E371E379184AE6
:100F700021792068DBB200921522FFF7EBFB050018
:100F8000002300220021A0681BF070F9280002B0A5
:100F900070BD0025FAE7012149421BF07BFD002EC0
:100FA00011D0A3792B43A371A379094A2179206831
:100FB000DBB200921422FFF7CDFB0500E0E7E379F6
:100FC000AB43E371D2E7A379AB43A371ECE7C0462F
:100FD00088130000F0B5040085B0002827D0037BFB
:100FE000002B24D00F2922D807252E008D42AD4199
:100FF0000E4001210F27494280681BF04BFD002362
:101000006F443B706D420B4B123521792A002068EA
:1010100000933B00FFF70CFC002300220021A06896
:101020001BF024F93B7801203341184000E00020F8
:1010300005B0F0BD88130000F0B5040017001D00D6
:1010400083B0002849D0067B002E13D08068002989
:1010500013D101391BF01EFD2B00A27953403B40F8
:101060005A40A379934226D1002300220021A06890
:101070001BF0FCF8300003B0F0BD012149421BF029
:1010800009FD2B00E27953403B405A40E3799342FB
:10109000EAD0E271E379124A21792068DBB200924A
:1010A0001522FFF757FB0023060000220021A0684D
:1010B0001BF0DCF8DEE7A271A379094A21792068E8
:1010C000DBB200921422FFF745FB0023060000224A
:1010D0000021A0681BF0CAF8CCE70026CAE7C0468A
:1010E0008813000070B5D024802524066D041820D4
:1010F00012F05EFC65620520A56113F07DFA656162
:101100000A2013F079FA172220211948FFF74AFE26
:10111000184C194E1822212130602000FFF742FEA2
:101120000122164D2321286052422000FFF73AFE8B
:10113000134C20603068002804D0037B002B01D1C1
:10114000FFF7AEFD2868002804D0037B002B01D1F7
:10115000FFF7A6FD2068002804D0037B002B01D1F7
:10116000FFF79EFD0A2101200DF09EFB70BDC046D9
:101170002833002030330020EC4D0220E84D0220BF
:10118000F04D0220014B18687047C046EC4D02201C
:10119000014B18687047C046E84D0220014B1868A3
:1011A0007047C046F04D022010B50321022012F016
:1011B000BDFB0321032012F0B9FB00220121022014
:1011C00012F0CEFB00220121032012F0C9FB0249DC
:1011D000024807F00BFB10BDEC6D0210F86D021019
:1011E000F0B557464E464546DE46E0B505000F00D1
:1011F000160083B0002937D0002A2DD01C4B9B4607
:101200003F239A46402399461A4B984609E0361BDD
:1012100005206519B6B21DF0BDF9ADB23F19002E1B
:101220001AD053464A462B40D31A1C1C9BB2B342D9
:1012300000D9341C4346A4B201932A003B0050213C
:1012400058460094FFF784FB0028E0D10A480AF0D2
:101250006FFD0120404200E0002003B0F0BCBB461F
:10126000B246A946A046F0BD04480AF061FDF0E789
:101270002833002050C300005344000052440000B3
:1012800070B50C00150082B0002916D00D4B0E4E23
:10129000019300920B00020050213000FFF766FC22
:1012A000002801D002B070BD08480AF041FD2A00B4
:1012B000FF21200015F07CFAF4E705480AF038FD1C
:1012C000F0E7C04650C3000028330020554400001A
:1012D00054440000D02380221B0692029A6170477A
:1012E000D02380221B0692025A617047054B10B52D
:1012F0001868002804D00023002200211AF0B6FF4D
:1013000010BDC04670850220044B10B51868002837
:1013100003D0012149421BF0BDFB10BD70850220A6
:1013200010B50F4B82B01B68040098470D4B1B682B
:1013300098476946230C0B70230A4B70FF238C706F
:1013400001ACCB702200FB3B074825F051FC074B5A
:101350001B689847064B1B689847E07802B010BDA1
:10136000184402202444022000C0034020440220EC
:101370001C44022030B5124B83B01B6804000D00E2
:101380009847104B2D061B689847FF220423120232
:10139000224023432402210EDBB21B0411431943D4
:1013A000294304220191084801A925F019FC074BA3
:1013B0001B689847064B1B68984703B030BDC04672
:1013C000184402202444022000C00340204402208C
:1013D0001C44022070B504000D00160082B00029E4
:1013E0001DD0002A1BD00F4B1B6898470E4B1B6863
:1013F000984701A9230C0B700322230A0B484B705A
:101400008C7025F0EDFB33002A00FF21074825F002
:10141000AFFB074B1B689847064B1B68984702B009
:1014200070BDC046184402202444022000C003407E
:10143000204402201C44022070B504000D00160058
:1014400082B000291ED0002A1CD00F4B1B68984781
:101450000E4B1B689847042301A9220C23430A70F2
:101460000B480322240A8B704C7025F0B9FB320024
:101470002900074825F0B4FB064B1B689847064B2C
:101480001B68984702B070BD184402202444022013
:1014900000C00340204402201C44022010B582B04A
:1014A0006B4649BA1980124B04001B689847114BD0
:1014B0001B6898478123DB009C46042300226001BF
:1014C000604401A90343000A0A70487003320A48C5
:1014D0008B7025F085FB02226946074825F080FBCA
:1014E000064B1B689847064B1B68984702B010BD17
:1014F000184402202444022000C00340204402205B
:101500001C44022010B582B06B4649BA1980124BB8
:1015100004001B689847114B1B689847104B00222A
:101520009C4604236001604401A90343000A0A7039
:10153000487003320B488B7025F052FB022269463B
:10154000084825F04DFB084B1B689847074B1B6864
:10155000984702B010BDC04618440220244402201F
:101560000810000000C00340204402201C44022058
:10157000F0B557464546DE464E46394BE0B59C46EB
:101580004001604489B0C3B20193030A029300236F
:1015900004AC0B27A4460393324B0A259B46324BDF
:1015A00067449A46314B9946314B984606E0013DD7
:1015B000EDB2002D4BD0039BB34248D05B461B6875
:1015C000984753461B68984700232370029B06AA3E
:1015D0006370019B2100A370FF232648E3702371F1
:1015E000FA3B25F005FB4B461B68984743461B68B2
:1015F00098477B783A781B0213435EBAB6B2002B49
:10160000D5D05B461B68984753461B689847002314
:101610002370029B06AA6370019B2100A370FF2325
:101620001448E3702371FA3B25F0E2FA4B461B683D
:10163000984743461B6898477B783A781B021343C8
:101640005BBA013D9BB2EDB20393002DB3D13000E4
:1016500009B0F0BCBB46B246A946A046F0BDC046A4
:1016600008200000184402202444022020440220C4
:101670001C44022000C00340F0B557464546DE46F4
:101680004E46394BE0B59C464001604489B0C3B238
:101690000193030A0293002304AC0B27A44603938F
:1016A000324B0A259B46324B67449A46314B99464A
:1016B000314B984606E0013DEDB2002D4BD0039B27
:1016C000B34248D05B461B68984753461B6898470F
:1016D00000232370029B06AA6370019B2100A37064
:1016E000FF232648E3702371FA3B25F081FA4B462D
:1016F0001B68984743461B6898477B783A781B02DB
:1017000013435EBAB6B2002BD5D05B461B68984730
:1017100053461B68984700232370029B06AA6370F8
:10172000019B2100A370FF231448E3702371FA3B4F
:1017300025F05EFA4B461B68984743461B6898475E
:101740007B783A781B0213435BBA013D9BB2EDB242
:101750000393002DB3D1300009B0F0BCBB46B246B4
:10176000A946A046F0BDC046082600001844022045
:1017700024440220204402201C44022000C00340D4
:10178000F0B5DE4657464E464546E0B58BB0029171
:101790000192002901D0002A06D10BB0F0BCBB4653
:1017A000B246A946A046F0BD8200F8207B4F561CE9
:1017B000F60040013B68351803929847784808AC1A
:1017C000036883469847FF2000222B0AA57009ADC5
:1017D00082462100227063702A000423E070714861
:1017E00025F006FA70480368814698476F480368F9
:1017F00080469847902189018C46B4446146EB7835
:1018000004919B0298B23B6805909847584603683C
:10181000984704990022080AA170514604232270B7
:1018200007902A006070E1705E48210025F0E0F921
:1018300049460B68984741460B68984794208001B9
:101840008446E9783B6866440691984758460368A1
:10185000984750460022330A2100227063702A0004
:101860000423A670E0704F4825F0C2F9484603688B
:101870009847404603689847069EEB7832029B18CB
:10188000059A9EB2531E3340D21A90B2039A019920
:101890000232D20006961E020392164382463A682E
:1018A000814267D98C46059963445B1A9BB20593C4
:1018B00000281AD090475B461B6898470423320CD7
:1018C0003343360AAB7029002A70364803226E7003
:1018D00025F086F952460299324825F081F94B46A7
:1018E0001B68984743461B689847059E002E1DD0ED
:1018F0003B6898475B461B6898470023042203997E
:101900002B700A430B0AAA702900032225486B702A
:1019100025F066F9320002995144224825F060F919
:101920004B461B68984743461B689847069A019B9D
:10193000944663445BBA23803B6898475B461B68C8
:10194000984700232B70079B049A6B7004231A435B
:101950002900AA701348032225F042F9022221002F
:10196000104825F03DF94B461B68984743461B68D5
:10197000984712E790475B461B6898470423320C50
:101980003343360A29002A70064803226E70AB7072
:1019900025F026F9019A0299BFE7C04618440220B3
:1019A0002444022000C00340204402201C440220A2
:1019B000F0B5DE4657464E464546E0B58BB002913F
:1019C0000192002901D0002A09D180480AF0B0F91B
:1019D0000BB0F0BCBB46B246A946A046F0BDF02114
:1019E00083007B4F5E1CF600490103933B6875182A
:1019F0009847784908AC0B688B4698470023FF212D
:101A00002370A5702B0A09AD8A462A006370E17025
:101A100004232100704825F0EBF870490B688946D3
:101A200098476F490B6888469847A02189018C46E2
:101A3000B4446146EB7804919B029AB23B680592EC
:101A4000984758460368984704990023080AA170EC
:101A500051462A00237007906070E1700433210022
:101A60005D4825F0C5F849460B68984741460B6824
:101A70009847A42080018446E9783B686644069133
:101A80009847584603689847002350462370330A06
:101A90002A0021006370A6700423E0704E4825F0F0
:101AA000A7F8484603689847404603689847069950
:101AB000EB780A029B18059A99B2531E0B40D21A72
:101AC000069191B28A46039A01990332D2001E020E
:101AD000039216433A68514566D98C46059963448A
:101AE0005B1A9BB205935346002B19D090475B4677
:101AF0001B689847330C2B70330A032229006B7044
:101B00003548AE7025F06CF85346FF21029A3248F2
:101B100025F02EF84B461B68984743461B689847AC
:101B2000059E002E1CD03B6898475B461B68984773
:101B30000023039A2B70130A6B70AA7029000322EA
:101B4000254825F04DF83300029A5244FF212248DF
:101B500025F00EF84B461B68984743461B6898478C
:101B6000069A019B944663445BBA23803B6898477E
:101B70005B461B68984700232B70079B049A6B7089
:101B800004231A432900AA701348032225F028F8D9
:101B900002222100104825F023F84B461B68984785
:101BA00043461B68984713E790475B461B68984776
:101BB000330C2B70330A03226B7029000648AE7079
:101BC00025F00EF8019B029AC0E7C046B024000041
:101BD000184402202444022000C003402044022074
:101BE0001C440220F0B54546DE4657464E46E0B559
:101BF0000D0087B0002900D173E03C4B40019C46AA
:101C000006003B4B66449B461B6807009847394BD0
:101C100004AC9A461B6898470023FF21320A0196BC
:101C2000A67005AE237002926270E170320021004E
:101C30000433314824F0DCFF30480837036881461C
:101C400098472F48036880469847A42189018C460D
:101C50005946F0780B6867440390984751460B68E3
:101C600098470023FF2123703B0A32006370E17024
:101C7000042321002048A77024F0BAFF49460B68CE
:101C8000984741460B68984759460398F3780202F3
:101C90009B189BB2ED186DBA0B682580984751468A
:101CA0000B68984700233370029B019A73700423DA
:101CB0001343B370032231000F4824F091FF022236
:101CC00021000D4824F08CFF4B461B689847434683
:101CD0001B68984707B0F0BCBB46B246A946A04671
:101CE000F0BD08480AF024F8F4E7C04608280000D0
:101CF000184402202444022000C003402044022053
:101D00001C440220B124000070B51C4C2368002B39
:101D100028D0112011F04CFED024802380259B0276
:101D2000240663626D036361142011F041FE642098
:101D30006562A5611CF02EFC642065611CF02AFC24
:101D40000F4B104A10481A60104B114A28211A6094
:101D5000104B114A1A60114B114A1A6006F046FDE9
:101D6000012070BD01201AF007FC20600028D0D1AE
:101D70000C4809F0DDFF0020F3E7C0467085022023
:101D80001844022009130010186E02101C4402208F
:101D9000ED12001024440220D5120010204402202D
:101DA000E1120010B2240000F0B5DE4657464E4660
:101DB0004546E0B585B00190002800D136E2F94BE8
:101DC00003AC99461B689847F74B1A2598461B6841
:101DD0009847F64B04222100F548039324F000FFB6
:101DE000F44F3B689847F44E336898474B461B685E
:101DF000984743461B689847F04B04222100EC4863
:101E0000039324F0EDFE3B689847336898474B46B0
:101E10001B68984743461B689847E94B04222100FA
:101E2000E348039324F0DCFE3B6898473368984707
:101E30004B461B68984743461B689847E14B042272
:101E40002100DB48039324F0CBFE3B6898473368BE
:101E500098474B461B68984743461B689847DA4BA0
:101E600004222100D248039324F0BAFE3B6898472D
:101E7000336898474B461B68984743461B6898470A
:101E8000D24B04222100CA48039324F0A9FE3B68E8
:101E90009847336898474B461B68984743461B68EA
:101EA0009847CB4B04222100C148039324F098FEAD
:101EB0003B689847336898474B461B6898474346AA
:101EC0001B689847C34B04222100B948039324F0B0
:101ED00087FE3B689847336898474B461B6898478E
:101EE00043461B689847BC4B04222100B04803932B
:101EF00024F076FE3B689847336898474B461B684A
:101F0000984743461B689847B44B04222100A848D1
:101F1000039324F065FE3B689847336898474B4627
:101F20001B68984743461B689847AD4B0422210025
:101F30009F48039324F054FE3B68984733689847C2
:101F40004B461B68984743461B689847A54B04229D
:101F500021009748039324F043FE3B689847336879
:101F600098474B461B68984743461B6898479E4BCB
:101F7000042221008E48039324F032FE3B689847E8
:101F8000336898474B461B68984743461B689847F9
:101F9000964B042221008648039324F021FE3B68DF
:101FA0009847336898474B461B68984743461B68D9
:101FB00098478F4B042221007D48039324F010FEA4
:101FC0003B689847336898474B461B689847434699
:101FD0001B689847874B042221007548039324F01F
:101FE000FFFD3B689847336898474B461B68984706
:101FF00043461B689847804B042221006C4803939A
:1020000024F0EEFD3B689847336898470A201CF09F
:10201000C1FA7A4B9B463B004F4699463B6898472E
:1020200043461B6898475B46220002A9029360481A
:10203000042324F0DDFD4B461B689847336898471E
:10204000E3786420013D9A461CF0A4FA002D00D1EB
:10205000E7E0012352461342E0D04B46B9466848B8
:102060001F0006F0C3FB4B461B68984743461B689E
:102070009847902304251B010322210023804C480C
:10208000A57024F0ADFD019B0622190048489A4630
:1020900024F0A6FD3B689847336898474A46136882
:1020A0009847424613689847F0231B0103222100FA
:1020B00023803F48A57024F093FD53460422991DC8
:1020C0003B48019324F08CFD3B6898473368984760
:1020D0004A4613689847424613689847A023DB0096
:1020E0002380032221003248A57024F079FD019954
:1020F00004220A312E4824F073FD3B689847336868
:1021000098474A4613689847424613689847802381
:102110005B002380032221002548A57024F060FD88
:10212000019904220E31224824F05AFD3B68984759
:10213000336898474B461B68984743461B68984747
:10214000304B042221001A48039324F049FD3B68D8
:102150009847336898474B461B68984743461B6827
:102160009847294B042221001148039324F038FD9D
:102170003B689847336898474B461B6898474346E7
:102180001B689847214B042221000948039324F03F
:1021900027FD3B689847336898471D4806F026FBA3
:1021A000012037E01844022024440220001E0C08BD
:1021B00000C00340204402201C440220001F0C08E1
:1021C000001E2C08001F2C08001E4C00001F4C0095
:1021D000001E6C00001F6C00001E8C00001F8C0095
:1021E000001EAC00001FAC00001ECC00001FCC0085
:1021F000001EEC00001FEC00002E04F8002E00FF73
:102200004C6E021000190407001A04D0001B0408C9
:10221000706E021005B0F0BCBB46B246A946A0469F
:10222000F0BD054809F096FD0020F3E7034809F0EA
:102230007FFD0020EEE7C046B4240000B324000078
:10224000F0B5CE46474680B5040083B0002800D1E3
:102250006FE03A4F04253B689847394E33689847FA
:1022600090236A461B019380957101A9032235488A
:1022700024F0B6FC06222100324824F0B1FC324B97
:1022800099461B689847314B98461B6898473B68AE
:10229000984733689847F0236A461B0193809571ED
:1022A00001A90322274824F09BFC0422A11D2548F4
:1022B00024F096FC4B461B68984743461B6898479A
:1022C0003B68984733689847A0236A46DB009380B1
:1022D000957101A903221B4824F082FC21000422ED
:1022E0000A31184824F07CFC4B461B68984743464B
:1022F0001B6898473B6898473368984780236A462D
:102300005B009380957101A903220E4824F068FCBC
:10231000210004220E310B4824F062FC4B461B685E
:10232000984743461B68984703B0C0BCB946B046BF
:10233000F0BD074809F0FCFCF6E7C046184402204F
:102340002444022000C00340204402201C440220F8
:10235000B624000010B50D4B82B01B6898470C4B9B
:1023600001AC1B6898470B4B2200694600930A4852
:10237000042324F03DFC094B1B689847084B1B685D
:1023800098470120E378184002B010BD184402209D
:1023900024440220002E00FF00C0034020440220FD
:1023A0001C440220F0B5CE46474680B51C4B83B096
:1023B00098461B6898471B4F01AC3B6898471A4BDF
:1023C000042221001948019324F00AFC184E3368B6
:1023D0009847184D2B6898470A201CF0DBF8FF231C
:1023E0001B06994602E001201CF0D4F843461B6806
:1023F00098473B6898474B462200694600930B4834
:10240000042324F0F5FB336898472B68984703238F
:10241000E356002BE7DB03B0C0BCB946B046F0BDC5
:1024200018440220244402200000048000C003401D
:10243000204402201C440220F0B557464E46454633
:10244000DE46E0B54A4D0E0085B0010028001700B9
:1024500006F0CCF9002F00DC86E0464B0024009308
:10246000454BBB4602930F239846444B039501937B
:1024700008E0315D009806F0B9F90F2D5AD001340B
:102480005C450FD04546434625402342F1D121000B
:10249000019806F0ABF9315D0098013406F0A6F919
:1024A0005C45EFD15F46039D0F243C4233D0FB17C0
:1024B0001B0FFA181440E31A9846102342469B1A41
:1024C0005A00914699442E4BAA4600244D46B146E7
:1024D0001E00300006F08AF9230001349D42F8DA2C
:1024E00043464E465546FC1AA74211DD254B34198A
:1024F00098466826B944244F434621785B5CB34331
:1025000000D12E213800013406F070F9A145F3D135
:10251000029806F06BF9029C2800210006F066F98B
:10252000200006F063F905B0F0BCBB46B246A946F0
:10253000A046F0BD154806F059F9124B2500994602
:10254000114B68279A460F3D4B46715D5B5CBB4360
:1025500000D12E215046013506F048F9A542F3DDA1
:10256000029806F043F98AE7034B02939CE7C046C2
:10257000906E0210A06E021018D30210946E02101A
:102580009C6E0210D16A0310AC6E0210A86E02108D
:1025900070B51C4B1C4C82B020701A70002900D101
:1025A000A1310026194B1A4D1E601A68194B29805B
:1025B0001A6003F037FC207800F0D4FF00230221DA
:1025C0002A88207801F024F82378984205D0124810
:1025D00009F0AEFB002002B070BDF0200422694675
:1025E00000010096FEF7F6FE694601A8019603F089
:1025F0001BFC0A482B882278094906F0F7F80120CD
:10260000E9E7C0468A1100208B1100207882022061
:102610008811002050820220E0240000BC6E0210CD
:10262000B06E0210F0B5DE4657464E4645460023D2
:10263000E0B5A5B00F931D90002801DC01231D9388
:102640001BF0EEFF0023394F1793394BBB461E900A
:10265000169314E00223012410935B461B78A12BF0
:1026600003D89F2B01D8302B6ED0324809F060FB85
:10267000179B1D9A013317939A4200D1A2E31BF0D6
:10268000CFFF1E9BC01A312800D99BE3169B1878F8
:10269000FEF7F2FF002800D194E3002320AA538123
:1026A0002393C023021C9B00984200D91A1C169B3E
:1026B00020A98C4618780A2363440093594692B2A5
:1026C00023AB01F087FB002800DC7BE3C022C124A0
:1026D00000265B460004A400050C92009D501E518C
:1026E000154B002199461E51144B48461E701393FA
:1026F000134B14931E7014F05BF82A0059461148CE
:10270000FFF79AFE5B461E514B461E515B465A78B8
:102710005B785BB2002B9DDA7F231340012B01D144
:1027200000F0D9FD5C1C0233109396E7307C022048
:102730008B110020EE240000387F0220A4850220A7
:10274000A3850220E86E0210109D59462A004846D3
:1027500014F034F8C12359469B00CD504946AC468D
:10276000C8585A466044C8505B46023412571D1977
:1027700001211B5D002A01DA00F0D6FC109A5C46AC
:102780009446A25C614401310C00A12A01D900F0F9
:10279000B5FC9F2A02D8302A00D05C185B46109AFC
:1027A0009B5C022B01D000F0A2FD5B465B5C002B22
:1027B00001D000F09CFD13005B44A21A19004844AC
:1027C00016001A9213F0FAFFC12359469B00CC5011
:1027D0004946B446CD58621C6544CD505B46995C71
:1027E0009E189A56002A01DA00F0C9FC0A0001215D
:1027F0000B195946095D01339846A12901D900F00A
:10280000A5FC9F2903D8302901D09918884659463C
:10281000095D042901D000F066FDB64909789142AE
:1028200001D000F060FD5B441800B3491FF0B6FF13
:10283000002801D000F071FD4346210028001B1B39
:102840001A00594448441C001B9313F0B7FFC123DE
:10285000404659469B00C8504946A446CA580124E0
:102860006244CA50A54B15921A5C1B56002B02DA23
:102870007E341440013442465B469B5C44441A005B
:10288000A03A661C0C930E92012A03D9A32B01D007
:1028900000F047FD434659461598F31A1A00414483
:1028A00048441D001C9313F089FFC12359469B0027
:1028B000CE504946CA580234AF18CF504A46A223D8
:1028C000414653545A465B461257181901211B5D65
:1028D000002A01DA00F0ACFC5A46925D741801340B
:1028E000A12A01D900F05DFC9F2A02D8302A00D02D
:1028F000E4185B463800A51B2A009919484413F0D8
:102900005DFFC1235A469B00D4504A46D0585946D1
:102910002818D0505B46621C9D189B5C8A5601218A
:10292000002A01DA00F073FC5A460919125D4D1CA9
:102930001995A12A01D900F040FC9F2A03D8302A1A
:1029400001D0199AD51821002F1B3A005944484448
:1029500013F034FFC1235A469B00D5504A46D05845
:1029600059463818D0505B466A1C9C189B5C8A56A6
:102970000121002A01DA00F039FC5A464919525D5A
:10298000013118911291A12A01D900F010FC9F2A5F
:1029900005D8302A03D0189A94466344129329002C
:1029A000129F59447C1B2200484413F007FFC123A7
:1029B0005A469B00D7504A46A246D2580124924418
:1029C00051464A46D1503B004C4A4C49D25CCB560A
:1029D000BF1B002B02DA7E3414400134129B5A468E
:1029E0009C46D35C64440134302B01D000F091FC50
:1029F0004E46129B5644E21A5B44190030001D00FB
:102A0000119213F0DBFEC12359469B00CC5049467E
:102A1000CA5811998C4649466244CA505A46043BEA
:102A2000D3589C4201DB00F042FC00230493039343
:102A3000324B21970B93324B5F460D93314B0993E9
:102A400043461F935346CA4620930B9B01251A5DAC
:102A50001B57002B02DA7E351540013565196B1CBA
:102A60009B463B5D302B01D000F010FC5B46C1263D
:102A70001A1B5346B6009B5939191800504490460A
:102A80000592069313F09AFE5B46BB51534652469D
:102A90009B590235434493517A5707937E5D012336
:102AA0007819002A00DAEBE15A465B44BA5C01333C
:102AB0000293A12A00D9AAE19F2A03D8302A01D083
:102AC000F2180292621C08925A46BA5C062A00D09A
:102AD000A7E198460D9BB8441B689946002B00DC83
:102AE000CFE2084B00251C000A933B004F46994655
:102AF0000FE0C046C0DA0210C4DA0210317C0220B6
:102B0000BCDA02109011002001355834BD4200D1CA
:102B100060E123789E42F7D132004146601C1FF0ED
:102B20003DFE0028F0D14B46B9461F000C9BA02B60
:102B300000D158E1A32B00D155E106235246079955
:102B4000013553544D4500DBA5E2C123029A9B0099
:102B5000FA50079B5646581C991C58236B430A9CF5
:102B60005144E25C3254002A44D0A44663445A786B
:102B70000A70325C012A36D99A784A70325C022A8D
:102B800031D9DA788A70325C032A2CD91A79CA7062
:102B9000325C042A27D95A790A71325C052A22D973
:102BA0009B794B71335C062B1DD958236B436344CF
:102BB000DA798A71325C072A15D91A7ACA71325CBD
:102BC000082A10D95A7A0A72325C092A0BD99A7AE1
:102BD0004A72325C0A2A06D9DA7A8A72325C0B2A85
:102BE00001D91B7BCB72C12352469B00D35807935C
:102BF00053445A78931C9C46079A0A936244904621
:102C0000C123414652469B00D150029B0121013312
:102C1000FC5CF818FB56002B00DA6CE1029B9C462A
:102C2000FB5C614401318B46A12B00D909E19F2B4C
:102C300003D8302B01D00B199B465B46029A9E1A93
:102C40006B1C00D106E10E9B012B00D864E15823D8
:102C5000099A6B43944663445A7B029B7918FB5C48
:102C6000934200D047E3062B06D000D99DE1022B0A
:102C700000D19EE1042B0DD158235D43099B280010
:102C80009C4610306044220013F098FD099B9C463E
:102C90006544AC734046029B3200F918504413F06F
:102CA0008DFDC123524651469B00D2589219CA50FD
:102CB0005A46FA500A9B9C46089B6644FA5CFB56AF
:102CC000002B00DAEDE0069B53445E70059B9E19D5
:102CD00000D5FEE0049B9C46B44463460493C123A4
:102CE0009B00FC58039B01330393C0239B00FB58BC
:102CF0009C4200DAA9E6BB461F9BD1469846209B22
:102D0000219F9A46119B63441193129B5B445A780E
:102D10005B785BB2002B00DAA4E25346049A4B4482
:102D20005A70119B002B00DAD7E0119BFA1843462A
:102D30005B4459785B785BB2002B00DA43E2159B69
:102D40004B445A70139B1B78002B07D049461998A7
:102D50000B54149B18981B7801330B541C9B9B1825
:102D600000D5BDE01B9AD31800D5BCE01A9ADA4210
:102D700000D5BBE0C1234A469B00D258109BD41A11
:102D80005B4659785B785BB2002B00DAE4E14B4696
:102D90005C70169B4946187820AB5B8992B2009311
:102DA00023AB00F05BFFC1234A469B00D258494643
:102DB000D548FFF741FB179B1D9A013317939A42A1
:102DC00000D05CE4179825B0F0BCBB46B246A946DB
:102DD000A046F0BD4B460125B9461F000C9B6D4235
:102DE000A02B00D0A6E65B465A46029C0798E31A41
:102DF0001E00B91850441A000A9313F0DFFCC123D7
:102E00005146B0469B00C858FC508044F8E6A32ABF
:102E100000D055E6621C08925A46BA5C062A00D1D8
:102E200057E6BA4808F084FF089BFA5CFB56002B73
:102E300000DA30E2FF22069B53445A70059E013EA1
:102E400048E7A32B00D0F6E65B46029A9E1A6B1C5D
:102E500000D0F8E64046B9185044320013F0AEFCFA
:102E6000C123524651469B00D2589219CA505A4625
:102E7000FA50149B039A1A700223139A137019E7DD
:102E80007F2333404678012B00D1E4E1821C0130DE
:102E9000C0181178360201320E439042F9D1013345
:102EA00002E67F200300069913400231104200D150
:102EB0000CE7581EC200C01A5144C0003300134131
:102EC000083A0B7001318242F8D1059B9E1900D45B
:102ED00000E7BB468E4808F02BFF8E4808F028FF1D
:102EE0008D4808F025FF8D4808F022FF8C4808F037
:102EF0001FFFFFF7BDFB7F2121404478012900D14E
:102F0000A7E1831C013040181A78240201331443CE
:102F10009842F9D1013181E643460233534402938A
:102F20004D4500DBF1E158236B43099AD218517BE0
:102F30000F91062900D1C9E05DD802296DD004297E
:102F40005DD1099819008046126D10318844002A1D
:102F500008D00E33C11840469047C123B3469B00AA
:102F6000FB589B44404620F0DBF85823099A6B43FA
:102F70009446C4B263449C7322004146029813F005
:102F80001DFCC12352469B00D358A61C98464246BE
:102F900053460F999019995443445C70C12352468B
:102FA0009B00D0505A46FA5084E6413B022B00D990
:102FB00070E600200022002C08DD00200A190B78A2
:102FC0000002013118439142F9D1020058230999B6
:102FD0006B438C4663441A619C735B6D002B00D17C
:102FE00058E69847C12352469B00D258FB5890465A
:102FF0009B46B3444EE60B00413B022B0DD949489A
:1030000008F096FEC1235246B3469B00D258FB58A7
:103010009046002402269B44B9E758206843099A49
:1030200013181B6D002B0BD0010094460E3110308D
:10303000614460449847C123B3469B00FB589B44BE
:103040005823099A6B43944663449C7B002C38D0E8
:1030500023001100A61C58228C466A436244116961
:10306000013B029ADB000800D840083B10701800B2
:1030700001320830F7D1C12352469B00D3589846FD
:1030800085E70C9BA02B00D1E7E0A32B00D1E4E067
:10309000534607995A545B465A46029C0798E31ACE
:1030A0001D00B91850441A000A9313F087FBC1237E
:1030B0005146A84601259B00C858FC5080446D42EB
:1030C0009EE50424062604231100C4E7099819008C
:1030D0008046126D10318844002A08D00E33C11882
:1030E00040469047C123B3469B00FB589B4458235E
:1030F000099A6B43944663449C7B3DE7A32A01D025
:10310000FFF74BFBFFF74AFBF86E0210E3240000C9
:10311000E6240000E8240000EA240000ED2400007A
:10312000EF240000E12400007F2119406B78012981
:1031300000D1CDE0AA1C01356D1814781B020132B4
:1031400023439542F9D10131FFF718FBA32901D0A0
:10315000FFF75BFBFFF75BFB7F2003000B400842A0
:1031600000D116E64946013BDB00881C21001941CD
:10317000083B0170190001300831F7D109E67F22C0
:1031800011407278012900D19FE0B31C01367618F6
:1031900018781202013302439E42F9D10131FFF740
:1031A00027FBA32A01D0FFF7A3FBFFF7A2FBA32A6B
:1031B00001D0FFF7F0FBFFF7F2FBA32A01D0FFF7E6
:1031C000C0FBFFF7C0FB7F2003000B40084200D18B
:1031D000B8E51599013BDB00494410001841083B54
:1031E0008870180001310830F7D1ABE57F21194014
:1031F0006378012966D0A21C0134641817781B0279
:1032000001323B439442F9D10131FFF7B6FB7F21F4
:1032100019406B78012952D0AA1C01356D18177816
:103220001B0201323B439542F9D10131FFF77CFB90
:103230007F2119404378012952D0821C0130401867
:1032400014781B02013223439042F9D10131FFF778
:1032500043FB0221E2E4022326E401256D42C2E59C
:10326000002304937F210B001340114200D158E545
:103270005246013B0498DB004A4401001941083BD7
:103280009170190001320831F7D14AE52748BB4651
:1032900008F04EFD1EE67F20030006991340023120
:1032A000104200D1CAE50126581E764202E60123EB
:1032B000EB566A78002BD3DB0023737035E50221CF
:1032C000FFF732FB0221FFF758FB0221FFF790FACC
:1032D0000221FFF753FA032302241093FFF7BDF9ED
:1032E0000221FFF7F9FA124808F022FDFBE5114828
:1032F00008F01EFDFAE50323139A0F481370149B80
:10330000039A1A7008F014FD6CE60026F4B2023637
:103310003DE60A4808F00CFDDFE5094808F008FD25
:10332000E1E5084808F004FDDAE5C046E4240000C1
:10333000E9240000EC240000E2240000E524000061
:10334000EB240000E7240000024A136801331360F5
:103350007047C04678820220044B054A1B681268F9
:103360009B1A036004230B707047C04678820220CA
:10337000508202200CB4F0B5DE4657464E46454614
:10338000E0B58BB01593754B302698461700042294
:103390001E708123924642465B005380002399466B
:1033A00043464A46069038000D001A711FF0B8FED9
:1033B00043460400524639005A7198712200D81DC4
:1033C00013F0FCF908239C46A44463460593434646
:1033D000A4221B19DA719E3A5A7215AA17780B3477
:1033E0009F724346181906AB9C463D213A00614442
:1033F00013F0E4F9424640233F19D355D3195246FE
:103400005A702A7802219A706A782B98DA70AA7812
:103410001A71EA7899715A71012259722C99DA71EC
:103420009A725A734A46D97243213D009A732D9A73
:1034300018721973DE732EAB103511370893002AFA
:1034400000D188E09B460023C1469A460393079526
:1034500020E0062B44D1AB7B10351A004346627046
:103460002370049C90462000290013F0A7F94444DF
:103470004B460236DB19A41B5C70039B02349C464E
:10348000A4446346039301239C462D9BE2443F19C9
:10349000534532D0042294465B46E3445A461D68A5
:1034A00008924B463022DE19DA55FF237370F93B40
:1034B000B3702A78341D2000F270691C13F07EF975
:1034C0002B78E4186B7B9846A31C04934346042B8B
:1034D000BFD1103528001FF023FEC3B21A00BDE78C
:1034E0002370042363702B69A01C1BBA042209A952
:1034F0000993063413F062F9BAE76B46C846079D94
:103500001B7B4246404605995355FBB2144C5A1A50
:10351000013A023B42544370207800F023F8002324
:10352000A2220221207800F073F8A22341462078DD
:10353000BAB20093069B00F091FB207800F012F8DD
:1035400000200BB0F0BCBB46B246A946A046F0BC7A
:1035500008BC02B018470023D3E7C046848202208B
:103560008A110020F0B5C646070000B5072843D8E9
:10357000082398464501A8440935FF351021280045
:10358000FDF7F8FE1BF04CF8060007E01BF048F8CA
:10359000801B04282DD801201AF0FCFF2800FDF71D
:1035A000BFFE041EF2D180208000FF214044FDF7C1
:1035B000E1FE0123BB4012490A889A430A8011495F
:1035C0000A889A43104B0A807A00D45200220F4B8B
:1035D000DA55C027BF00474402E001201AF0DAFFA5
:1035E0003800FDF79DFE0028F7D1013080BCB846B9
:1035F000F0BD0D204042F9E701204042F6E7C04609
:103600008485022086850220BC840220B4840220A6
:10361000F0B5C64600B504000E001700984682B00B
:10362000072800D9A4E0012966D08B1E022B00D9FF
:103630007DE043465B0700D59DE04346002B02D06A
:10364000022900D176E02000FFF78CFF0F234146CE
:1036500065019943083528003143FDF78BFE002FA3
:1036600008D14A4A4A4917887B1C9BB28B4200D139
:103670006BE0138039006F1C2000FF37FDF70EFF51
:1036800001213800FDF776FE1AF0CAFF060007E0B8
:103690001AF0C6FF801B042846D801201AF07AFFD2
:1036A0003800FDF73DFE0028F2D1012347461900FE
:1036B0003B40A140A340374E32888A431343364AE9
:1036C000338013888B431380344B6200D052002226
:1036D000334B1A55C0239B009C46654402E00120F1
:1036E0001AF058FF2800FDF71BFE0028F7D060B243
:1036F00002B080BCB846F0BDF020042201A9000150
:10370000FDF768FE019B002B39D043465B0732D49E
:103710004346002B97D021234246134200D092E724
:10372000204808F005FB20E00D204042E0E705209E
:103730004042DDE79B060CD543465BB2002B00DA26
:1037400081E7194808F0F4FA0FE0184B184F13807E
:1037500090E74346DB0600D475E743465BB2002B97
:1037600000DA70E7134808F0E3FA06204042BFE7AA
:1037700001204042BCE7104808F0DAFAF5E70F48AC
:1037800008F0D6FA03204042B2E7C0468C11002070
:10379000F0FF00008485022086850220BC84022080
:1037A000B4840220C3240000C424000000C0FFFF32
:1037B000EFFF0000C5240000C2240000C124000067
:1037C000F8B50600072853D8470108373800FDF739
:1037D000A7FD0F230340012B47D17D1CFF35082196
:1037E0002800FDF7C7FD1AF01BFF040007E01AF0E0
:1037F00017FF001B042830D801201AF0CBFE280048
:10380000FDF78EFD0028F2D101210800B0401A4BCF
:103810001A8882431A80194B1B88334119421FD1E1
:10382000C0239B00FD18013BFF3BFC18082707E065
:103830002000FDF775FD074209D10A201AF0AAFE03
:103840002800FDF76DFD0028F2D1013007E03000BF
:10385000FFF788FE0A4808F06BFA0D204042F8BDD9
:10386000084808F077FA0020F9E705204042F6E71B
:1038700001204042F3E7C04686850220848502206D
:10388000C7240000C6220000F0B5C646060000B5F9
:1038900007285FD8440108342000FDF741FD0F23BD
:1038A0000340012B50D1C0239B00E7183800FDF7DF
:1038B00037FD13284BD10134FF3402212000FDF7DE
:1038C00059FD1AF0ADFE050007E01AF0A9FE401BF5
:1038D000042821D801201AF05DFE2000FDF720FD0C
:1038E0000028F2D11AF09CFE012580461B4C3800BE
:1038F000FDF716FD1C281BD82B00834023420ED158
:10390000142815D1012080BCB846F0BD3000FFF767
:1039100029FE134808F00CFA0D204042F3E730006E
:10392000FFF720FE0F4808F003FA04204042EAE7C0
:103930001AF076FE4346C01AFA235B009842E5D897
:1039400001201AF027FED2E705204042DBE70320E2
:103950004042D8E701204042D5E7C0460100881028
:10396000C9240000C8240000F0B54546DE4657468D
:103970004E46E0B583B0050014000091072800D939
:10398000A9E00822924643019A445046FDF7C8FC3C
:103990000F230340012B00D0A3E0002C00D19DE0B9
:1039A000C0239B00534418009846FDF7B9FC172824
:1039B00002D01C2800D097E04F4B012701931B88B1
:1039C0002B411F4249D1AF40F82040015044FDF740
:1039D000A7FC8002061C80B2A04200D9261C1AF067
:1039E0001FFE464B81469B46B6B22800FDF7C0FD40
:1039F00004004046FDF794FC172801D01C2854D140
:103A00005B461B881F423AD0A64230D82800554654
:103A1000013532000099FF35FDF7B2FE2021280064
:103A2000FDF7A8FC1AF0FCFD04002800FDF778FC67
:103A300000280CD01AF0F4FD001B042848D80120FF
:103A40001AF0A8FD2800FDF76BFC0028F2D1019ABE
:103A5000300013883B4313800AE08026B6005644AA
:103A60003000FDF75DFCC30615D400072AD4002002
:103A700003B0F0BCBB46B246A946A046F0BDA64284
:103A8000C4D91AF0CDFD4B46C01A0928EFD8012041
:103A90001AF080FDA9E7AF4010213000FDF76AFC65
:103AA000019A1388BB4313808EE72800FFF75AFD65
:103AB00002F048F8012802D0114808F039F907202F
:103AC0004042D5E72800FFF74DFD0E4808F030F9D9
:103AD0000D204042CCE701204042C9E70E20404281
:103AE000C6E705204042C3E702F02CF80128E6D0E3
:103AF000054808F01DF9E2E786850220848502204A
:103B0000CC240000CB240000CA240000F0B5DE461F
:103B1000454657464E46E0B583B0050093460191B1
:103B2000072800D983E00822924643019A44504670
:103B3000FDF7F6FB0F230340012B00D07DE05B4631
:103B4000002B00D176E0C0239B0053441800984618
:103B5000FDF7E6FB172802D01C2800D070E01AF011
:103B60005FFD01263A4B0700AE4099460BE04B46FD
:103B70001B881E4242D11AF053FDC01B09283DD8B4
:103B800001201AF007FD2800FDF776FD04004046ED
:103B9000FDF7C6FB172801D01C283BD1002CE6D02E
:103BA0005F46A34534D8F02040015044FDF7B8FBF0
:103BB0008002061CBBB280B2984227D85446B6B2E7
:103BC0000134320028000199FF34FDF7F1FE402155
:103BD0002000FDF7CFFB1AF023FD050007E01AF0E7
:103BE0001FFD401B04281FD801201AF0D3FC200021
:103BF000FDF796FB0028F2D1300000E0002003B072
:103C0000F0BCBB46B246A946A046F0BD3E1CD5E777
:103C1000271CC8E701F096FF012802D00D4808F0E4
:103C200087F807204042EAE70D204042E7E70120FD
:103C30004042E4E70E204042E1E705204042DEE753
:103C400001F080FF0128ECD0034808F071F8E8E7A4
:103C500084850220D0240000CF240000F0B5574610
:103C60004E464546DE46E0B583B01F006B461B8ED0
:103C70000600140098460191072800D994E04501F8
:103C800008352800FDF74CFB0F230340022B00D022
:103C900090E0002C00D194E03B78002B65D04346A7
:103CA000002B00D183E0C0239B009B46AB445846C9
:103CB000FDF736FB222800D07FE0C0231B01E81867
:103CC00004223900FDF7B8FB41463000FDF71AFC2D
:103CD000F8235B01E818FDF723FB8002071C80B284
:103CE000A0424ED81AF09CFC0123B3409846364BB4
:103CF00081469A46BFB23000FDF73AFC04005846B0
:103D0000FDF70EFB222846D1534642461B881A4235
:103D10001FD0A74237D801353A0030000199FF354E
:103D2000FDF72EFD20212800FDF724FB1AF078FC7A
:103D3000040007E01AF074FC001B042831D80120AD
:103D40001AF028FC2800FDF7EBFA0028F2D1380021
:103D50001AE0A742DFD91AF063FC4B46C01A0928C3
:103D600011D801201AF016FCC5E77B78002B96D1FC
:103D7000BB78002B93D1FB78002B90D10C204042D4
:103D800002E0271CAEE7002003B0F0BCBB46B24601
:103D9000A946A046F0BD0D4807F0CAFF07204042E3
:103DA000F2E70D204042EFE701204042ECE70B2014
:103DB0004042E9E705204042E6E7054807F0B8FF42
:103DC000ECE70E204042DFE784850220D224000089
:103DD000D1240000F0B557464E464546DE46E0B5D4
:103DE00085B00500894617000193072800D918E11E
:103DF000002A00D112E1440108342000FDF790FAB6
:103E00008D4B80469A466B009B4653465A469B5ABA
:103E1000002B4AD007220240032A0ED0042A0CD0DD
:103E20000026022A09D031002800FDF7DBFE5346A8
:103E30005A4601349E52FF340BE00134FF343E1CDD
:103E40009F4200D91E1CB6B2320049462800FDF739
:103E5000AFFD40212000FDF78DFA1AF0E1FB0700CD
:103E600007E01AF0DDFBC01B04281BD801201AF064
:103E700091FB2000FDF754FA0028F2D15A46534630
:103E800059469B5A52469B1B9BB253526B4A002B7E
:103E900050D15055300005B0F0BCBB46B246A946E3
:103EA000A046F0BD0D204042F5E72800FDF7E4FBF9
:103EB000061E00D180E0072342461340022B3DD16D
:103EC00053465A469B5A0134FF34002BB7D102AEF9
:103ED000082231002800FDF76BFD40212000FDF78E
:103EE00049FA1AF09DFB804608E01AF099FB434618
:103EF000C01A0428D6D801201AF04CFB2000FDF788
:103F00000FFA0028F1D1019A337813707378537047
:103F1000B3789370F378D370B3880E9A5BBA13803A
:103F2000F2885146584652BA0A52802193B2434A07
:103F3000515584E70123505D1843AAE70622414604
:103F40000A4200D16FE7032B38D0042B00D06AE778
:103F500053465A469B5A0134FF34002B00D06EE77B
:103F600002AE022231002800FDF722FD4021200090
:103F7000FDF700FA1AF054FB804608E01AF050FBF7
:103F80004346C01A04288DD801201AF003FB2000F4
:103F9000FDF7C6F90028F1D172783378023A1B0296
:103FA0009B18594652469BB25352254A93423BD8DE
:103FB0008021224A515542E700206CE753465A4679
:103FC0009B5A0134FF34002B00D038E702AE0622A2
:103FD00031002800FDF7ECFC40212000FDF7CAF974
:103FE0001AF01EFB804609E01AF01AFB4346C01A7D
:103FF000042800D956E701201AF0CCFA2000FDF77A
:104000008FF90028F0D1019A3378137073785370C8
:10401000B3789370F378D370B28882E70E20404271
:1040200039E70120404236E72800FFF79BFA0548B0
:1040300007F07EFE04482EE7BC840220B4840220F0
:10404000EA050000D424000017FCFFFF70B515003E
:10405000072800D980E0072900D96DE0444B89008A
:104060005B589F46440108342000FDF759F90F239F
:104070000340012B00D072E0BC239B012978E0189B
:10408000FDF778F9012070BD3A4B40019C4611784C
:104090006044FDF76FF9F5E7374B11889C46400106
:1040A0000400090A6044FDF765F9982308345B01B0
:1040B0002978E018FDF75EF9E4E7304B40019C46B3
:1040C000042229006044FDF7B7F9DBE71188FDF70A
:1040D00019FAD7E7440108342000FDF721F90F232E
:1040E0000340012B3BD1BC239B01E018FDF718F9DD
:1040F000002837D1651CFF3522212800FDF73AF949
:1041000080239B009C460826644407E02000FDF7BE
:1041100007F9064216D101201AF03CFA2800FDF7F3
:10412000FFF80028F2D1ADE7154B40019C4611780D
:104130006044FDF71FF9A5E7124807F0F9FD0A20D2
:104140004042A0E708212000FDF714F90E4807F0CF
:10415000EFFD0D20404296E70120404293E7052005
:10416000404290E7094807F0E3FD022040428AE719
:104170009CDA02100816000008120000080C00006B
:1041800008150000D9240000D8240000D72400001E
:10419000F0B55746DE464E4645460123E0B5870852
:1041A0000340BF001F430223082103408FB01F4379
:1041B00008900A220F2039430AF01CFC002800D185
:1041C00016E101201AF0E6F90A2239000F200AF060
:1041D00011FC002800D1EDE001201AF0DBF9D04AF3
:1041E00010219369DB0606D493691942FCD1136848
:1041F00093691942F8D03C201AF0CCF910F02AFB50
:1042000000261025C64FC74C06900791BB691D427A
:1042100000D0C0E00136BB691D42FCD13B68A3550C
:10422000BB691D4201D1802EF4D110F013FB069A18
:10423000079B801A9941002900D0BFE0BA4B9842F1
:1042400000D9BBE001201AF0A5F9802EDED1B74DD0
:104250002F00173FBF190F2606E0B343F02B06D0FF
:104260000135BD4200D1ACE02B78552BF5D16B78F0
:104270005A2BF5D1AE4C18222900200012F09EFADC
:1042800020000023A21C1730117801325B18DBB22A
:104290008242F9D1E27D9A42E2D12378A54AE178BF
:1042A0001370A278090212040A432179667B0A433B
:1042B00011000C92A04A11606279A17912040902DE
:1042C0000A43E1790A4311000D929C4A1160227A57
:1042D000617A120409020A43A17A0A4311000A9280
:1042E000974A1160E27A217B120409020A431643BD
:1042F000944AE17B1660A27B090212040A43217CE6
:104300000A4311000992904A1160677CA27C3F0425
:1043100012021743E27C17438C4A176002221A40AC
:1043200006921B0769D40D9D002D00D1B8E00C98B2
:1043300012F07DF9041C280012F079F9011C201CF0
:1043400012F00FF9824B9946089BDD00EC184B46A2
:10435000A40019594C4412F018F9A16812F0FBF8A6
:104360007C4B041C9A461860002E00D0A3E000226B
:10437000794B111C1A60904612F04CF9002800D0BD
:104380004FE3534642461A60069B002B00D161E37F
:10439000724B1A60F4E010F05DFA069A079B801ADF
:1043A000994100290AD1604B984207D801201AF0A0
:1043B000F1F82BE76A4807F0BBFC10E7172E00D98D
:1043C00045E700230024654A1360634A1360614A8D
:1043D0001360644B002200211868002317F046FF89
:1043E00020000FB0F0BCBB46B246A946A046F0BDC7
:1043F000D020800107F09CFCF1E6564B9A46002342
:1044000052461360002E00D1B2E00A9812F00FF964
:10441000041C300012F00BF9011C201C12F0A1F852
:104420004B4B9946089BDD00EC18A4004C44616896
:1044300012F0ABF8E16812F08EF8474B80469B46CD
:1044400018605346002140461C6812F0E3F800282B
:1044500006D04046444912F0E5F8002800D1B2E108
:1044600000239A465B465246201C1A60514612F0C1
:104470008CF8069B041C002B02D1002F00D0ACE16D
:10448000364D5146286012F0C5F8002878D1002337
:10449000364C2B6063780993002B76D1012498E782
:1044A00000242C4B9A461C60002E00D198E2284B29
:1044B0009946089BDD000A9812F0B9F88046300052
:1044C00012F0B5F8011C404612F04BF8089BEB18AF
:1044D0009B004B449846596812F057F84346D968F8
:1044E00012F039F81C4B804618600021201C9B46B6
:1044F00012F090F8002800D0BEE100245346404658
:104500001C60211C12F086F80028A2D15B461C60BA
:10451000069B002B00D15EE1104B1C6030E0C046D2
:10452000004003408774022090D00300887402206A
:10453000183C00208E1100205441022050410220DE
:1045400044410220404102204C41022048410220C7
:10455000DC490220345202202C5202203052022028
:1045600001340000D48402200000C842C87902202F
:10457000CA4A1360069A002A00D185E1C84A13602E
:10458000C84C63780993002B88D0257B089BAB42ED
:1045900084D10C9962698C46944462460D99E37B00
:1045A0008C4606926261A269B346944462460C92BC
:1045B000A2610A9A267C9446226AE76993445A4685
:1045C000013322620136A27BDBB26744F6B2E373A9
:1045D000E7612674934200D260E75210964200DAF7
:1045E0002AE2B14B002199464A46EB0008935B1939
:1045F0009B00D358181C984612F014F8002801D1DB
:10460000AA4B9846089B00215B199B004B445B68B2
:10461000181C9A4612F006F8002802D1FE239B05CA
:104620009A46300012F008F8061C069811F0FFFFB9
:10463000311C11F096FF0A900C9811F0F8FF311C14
:1046400011F08FFF0C90380011F0F1FF311C11F0C8
:1046500088FF071C584611F0EAFF311C11F081FF5A
:104660002278061C012A00D187E1089B5B199B0078
:104670004B449968DB6806919B46022A00D12DE1E4
:10468000033A012A00D9D7E1A3680021181C9A46F1
:1046900011F0B8FF002800D0CEE10021381C11F045
:1046A000B1FF002800D0C7E10021301C11F0AAFFA3
:1046B000002800D0C0E1311C381C11F052FF00214D
:1046C00011F0A0FF002800D0B6E153465846191C4F
:1046D000099311F043FF391C8246301C11F041FF51
:1046E000011C504611F051FF8246584611F0C6FF9A
:1046F00004900591099811F0C1FF02900391504672
:1047000011F0BCFF6A4E6B4F009001912A003100FE
:10471000380004F06BF800230993089B42465F19A8
:104720004B46BF00DA51069B4F44BB6053467B604B
:104730005B464046FB605D4911F013FF5E498046D1
:1047400011F023FF5D493861404611F01EFF5C4BBC
:10475000099ABB61CA2378613B77002A00D17B7F2D
:10476000089A28005119890049444B7707F0DEFC6C
:104770002A003100534804F039F82422A35C0133A5
:10478000A354257B6A1C637BD2B2934200D9E6E036
:104790002378012B00D1E0E0022B00D1DBE0042BD9
:1047A00000D1D6E0032B00D1D1E0474A25212423B4
:1047B000615CE35C45480091310004F017F8002388
:1047C0002380012405E6211C404611F0DEFE069BF5
:1047D000041C002B46D1002F44D0099811F027FF6C
:1047E0008046380011F023FF011C404611F0B9FE4D
:1047F000089B9C464B466544AD0059594D4411F009
:10480000C4FE696811F0C1FE254D00212860071C17
:1048100011F0F2FE002826D12D49381C11F002FFBC
:10482000002820D12B49201C11F0FCFE002800D1CB
:1048300008E1211C381C11F08EFE4000211C4008AC
:1048400011F08FFEFC21890511F0ECFE002800D14B
:10485000F8E02C601E49201C11F0E4FE002800D076
:1048600015E68DE60E4D00212C60201C11F0D2FEC5
:10487000002800D10BE6EDE71749201C11F0D2FE0D
:10488000002800D039E6DCE5002F00D176E6064BA3
:104890009946089BDD0000249FE7C0462C52022069
:1048A00030520220C8790220DC490220D7A3F03F11
:1048B000406F0210CC6F0210007EE54900007A4480
:1048C0006F12833A18700210286F02106C70021079
:1048D00000401C47CDCCCC3D0000C8436768002198
:1048E000381C11F09FFE002800D1A5E000210A9895
:1048F00011F098FE002800D19EE00C9B0021181CAE
:10490000984611F08FFE002800D195E00698391CDA
:1049100011F024FE0A99061C404611F022FE011CEB
:10492000301C11F032FE8046381C11F0A7FE0290B8
:104930000391404611F0A2FE4A4E009001912A00D8
:104940003100494803F052FF00230993E5E6474A46
:104950002CE7474A2AE7474A28E7474A26E7002341
:10496000310046482273E37323746361A361E361FA
:10497000236203F03BFF01242BE50C9B0021181C54
:104980009B4611F04FFE002841D059460A9811F07D
:10499000E8FD414611F0F9FD069011F06FFE0A9016
:1049A0000B910021301C11F03DFE00282AD0311C53
:1049B000381C11F0D6FD514611F0E7FD834611F089
:1049C0005DFE02000B00274E029203930A9A0B9B96
:1049D0003100009201932A482A0003F007FF9CE669
:1049E000284B1C60201C002111F0CFFD069B041CED
:1049F000002B00D090E5002F10D0234B9946089B48
:104A0000DD00EAE60021002200238B46DBE70023DD
:104A100000220A920B9300230693C2E71B4D2C60E1
:104A200018E71B49201C11F0FDFD0028DAD0534681
:104A3000424644461A60D5E72522A35C094E01335D
:104A4000A3549FE60021381C11F0E4FD002800D09B
:104A500096E51CE5002F00D01DE70C4D44462A606A
:104A6000F8E6C046406F02108C6F0210306F0210E3
:104A7000186F0210106F0210086F021044700210BD
:104A80004C6F02102C520220DC49022030520220CE
:104A90000000C843F0B54546DE4657464E46E0B5F1
:104AA000A94B87B05D78002D00D0D1E0A74E04ABB4
:104AB0003478DF1D39002000DD7109F0A1FB3F785B
:104AC000A34B1F55072C00D9B0E00FF0C3FEA14B3C
:104AD00000909A46A3009846534642469B5801913F
:104AE0009946002F00D1CEE09B4FE3009B46FB1878
:104AF0001A685B681100194300D0DDE0009A019B41
:104B00005F4449463A607B604246944B9950944BCF
:104B10006421186817F0BEFF012800D1BCE0230013
:104B2000002D03D107233278013213403370072C54
:104B300000D086E08B4D00212C68201C11F06AFD0E
:104B4000002806D08849201C11F056FD002800D00E
:104B5000E2E000246E680021301C11F05BFD0028AB
:104B600006D08149301C11F047FD002800D0CDE06F
:104B7000AE680021301C11F04DFD002806D07A49A6
:104B8000301C11F039FD002800D0B9E0EE6800219A
:104B9000301C11F03FFD002806D07349301C11F085
:104BA0002BFD002800D0A5E02E690021301C11F05B
:104BB00031FD002806D06C49301C11F01DFD002885
:104BC00000D0B5E06E690021301C11F023FD0028F3
:104BD00006D06549301C11F00FFD002800D0A1E07F
:104BE000AE690021301C11F015FD002806D05E4989
:104BF000301C11F001FD002800D09FE0ED6900217C
:104C0000281C11F007FD00280AD05749281C11F074
:104C1000F3FC002804D0201C291C11F09FFC041C6C
:104C20000122524B1C60524B1A700AE04B4B514808
:104C3000A400E55007F07CF80723327801321340D6
:104C4000337007B0F0BCBB46B246A946A046F0BDE3
:104C50001C7B04ABDF1D00233C4E390020003B7061
:104C60009846347009F0CCFA3F78394B1F55072C21
:104C700000D82AE74146394BA2003E48D15007F000
:104C800057F83470DDE73C4B334F1A685B6800928D
:104C90000193E3009B4631E72000FFF779FA0028F3
:104CA00000D13CE74146354A354B12685A50354AE7
:104CB0002C4B12685A5032E700980199801A99419A
:104CC00001225242D31712184B4102920393039BC5
:104CD000002B00D012E72C4B029A9A4200D90DE724
:104CE00000232A4A10F04EFD81445346424649466D
:104CF000995003E7201C311C11F030FC041C53E7D1
:104D0000201C311C11F02AFC041C3FE7201C311C24
:104D100011F024FC041C2BE7201C002111F01EFCC8
:104D2000041C17E7201C311C11F018FC041C57E769
:104D3000201C311C11F012FC041C43E7201C311C08
:104D400011F00CFC041C59E7C8790220958502205B
:104D500090490220FC4A0220583A0020984902203B
:104D6000D4840220704902200000C84280820220C0
:104D70009E85022002340000A064031034520220F9
:104D8000B84902202C5202207E96980040420F0023
:104D900010B507280ED8094B8000C4580021201CEC
:104DA00011F038FC002805D00549201C11F024FC26
:104DB000002800D10024201C10BDC046B8490220A4
:104DC0000000C84310B507280ED8094B8000C4580E
:104DD0000021201C11F01EFC002805D00549201CD4
:104DE00011F00AFC002800D10024201C10BDC04690
:104DF000704902200000C84270B5072824D8134B20
:104E000084001D590021281C11F004FC002805D045
:104E10000F49281C11F0F0FB002800D100250D4B94
:104E200000211C59201C11F0F5FB00280AD00A496A
:104E3000201C11F0E1FB002804D0291C201C11F0DB
:104E4000A4FB70BD0024F8E70020FAE7B84902206F
:104E50000000C843704902200000C842030000203F
:104E6000072B02D8014A9B009858704798490220A6
:104E700003000020072B01D8014AD05C7047C046D0
:104E800090490220014B18687047C046808202207A
:104E9000034A1378D8B2002B01D000231370704757
:104EA0009E850220F0B5DE464E4645465746E0B5A3
:104EB000454B8BB019004548994603F097FC444B8D
:104EC00000269846FE239B059B46424D01AC54E0CC
:104ED0000021206811F0A6FB002801D14346236081
:104EE0000021606811F09EFB002801D15B466360E1
:104EF000A3683949181C9A4611F094FB002805D084
:104F00005046364911F078FB002801D10023A360F8
:104F1000E3683149181C9A4611F084FB002805D03B
:104F200050462E4911F068FB002801D10023E360B0
:104F30000021206911F076FB002801D1284B236164
:104F40000021606911F06EFB002801D1234B6361E1
:104F50000021A06911F066FB002801D1214BA3615B
:104F60002B00220083CA83C383CA83C30136F6B2EF
:104F700083CA83C32435082E1AD0210030000AF0DA
:104F800043F80028A4D043462B605B466B600023A7
:104F9000AB60EB60124B01362B61104BF6B26B61CC
:104FA000104BAB6101235B42AB832435082EE4D167
:104FB00049460D4803F01AFC0BB0F0BCBB46B246A4
:104FC000A946A046F0BDC046406F0210A87002106E
:104FD000D7A3F03FDC49022000007AC400007A44E5
:104FE000007EE5496F12833AD870021070B52B4EDF
:104FF0002B48310003F0FAFB012017F0BDFA294BD2
:105000001860002846D09621274849010FF0BEFCC1
:10501000022101200EF08AFC022100200EF086FC05
:1050200001230122082120480FF040FD1F4B2022C0
:105030001C685D6800211E4811F0BAFB1D4B082258
:1050400000211D481C605D609C60DD601C615D612D
:105050009C61DD611C625D629C62DD621C635D635C
:105060009C63DD6311F0A4FB20220021134811F0A2
:105070009FFB20220021124811F09AFB00212022E0
:10508000104811F095FBFFF70DFF31000E4803F0BB
:10509000ADFB70BD0D4806F04BFEFAE7406F021005
:1050A00000710210D484022000400340A064031069
:1050B000FC4A0220583A002090490220B8490220B8
:1050C00070490220984902202C710210033400001C
:1050D00010B5124B5A78002A19D10221FF311980DC
:1050E0000021596099600E490E4CD96000210E488C
:1050F000197421009A845A619A61DA611A6203F084
:1051000075FB0A48210003F071FB012010BD08481F
:10511000044903F0D9FB0020F8E7C046C879022013
:1051200000080A00406F021088710210CC71021052
:105130005071021070B50400072826D8144B5A7815
:10514000002A1ED10221FF31198000215960996087
:10515000411C59730A21D98100210E4D18739A847C
:1051600019745A619A61DA611A62290022000A48A8
:1051700003F03CFB09482200290003F037FB012023
:1051800070BD0449064803F09FFB0020F8E7C046C5
:10519000C8790220406F0210FC71021038720210B0
:1051A0005071021070B50025291C041C11F02AFA58
:1051B000002825D1134B5A78002A1DD1812149009E
:1051C000198011495C60D96000219A845A619A6102
:1051D000DA611A629D601974201C11F04FFA0B4CB1
:1051E00002000B000A48210003F000FB09482100DF
:1051F00003F0FCFA012070BD0449074803F064FB8A
:105200000020F8E7C879022000080A00406F021069
:105210006C720210B872021050710210F0B50400E6
:1052200083B00D1C072832D80026281C311C11F031
:10523000E9F900282BD1174B5A78002A23D1812174
:1052400049001980611C59730A21D98100219E608F
:105250009A845A619A61DA611A625D601C731974EA
:10526000281C11F00BFA0C4F0C4E009001912200FB
:105270003900300003F0BAFA09482200390003F07F
:10528000B5FA012004E00449064803F01DFB0020A4
:1052900003B0F0BDC8790220406F0210F87202100E
:1052A0003C73021050710210F0B5040083B00D1C65
:1052B000072832D80026281C311C11F0A3F9002839
:1052C0002BD1174B5A78002A23D10421FF311980A2
:1052D000611C59730A21D98100215E609A845A6148
:1052E0009A61DA611A629D601C731974281C11F0AE
:1052F000C5F90C4F0C4E009001912200390030008E
:1053000003F074FA09482200390003F06FFA012013
:1053100004E00449064803F0D7FA002003B0F0BDCA
:10532000C8790220406F021074730210C07302101B
:105330005071021070B50025291C041C11F062F98F
:10534000002825D1134B5A78002A1DD1822149000B
:10535000198011499C60D96000219A845A619A6130
:10536000DA611A625D601974201C11F087F90B4C28
:1053700002000B000A48210003F038FA0948210016
:1053800003F034FA012070BD0449074803F09CFA89
:105390000020F8E7C879022000080A00406F0210D8
:1053A000FC7302104874021050710210014B5878BF
:1053B0007047C046C8790220F0B54646D6464F46EB
:1053C000C0B5804684B0072805D904B0E0BCBA4611
:1053D000B146A846F0BD42462E492F4803F006FAD2
:1053E0002E4B9A464346DB001C00994653464444E4
:1053F000A400185911F042F95444060060680F00E7
:1054000011F03CF9264D32003B000090019128003C
:1054100003F0ECF9A06811F031F90600E0680F0024
:1054200011F02CF91F4D32003B0000900191280033
:1054300003F0DCF9206911F021F90600A0690F00E2
:1054400011F01CF902900391606911F017F9164DE3
:105450003B00009001913200280003F0C7F9237F40
:10546000CA2B0CD04B4643449B0053445B7F0F49EF
:10547000CA2B0CD00D4A0E4803F0B8F9A5E74B46ED
:1054800043449B0053445B7F0A49CA2BF2D1094A2B
:10549000F1E7C046406F021098740210DC49022008
:1054A000B0740210C4740210DC7402109474021000
:1054B000FC7402109074021070B5040088B00B00E8
:1054C000144A2021684612F0FFFD200069461DF0B5
:1054D000B1FC041E14D068461DF022FE26182621B9
:1054E00030001DF003FA00280FD0851B7F2D0AD84D
:1054F000094C2A003100200011F060F900236355A7
:10550000200008B070BD7F25F2E730001DF008FED6
:105510003018EAE71C750210F0840220F0B5037819
:10552000002B0CD00200110001322B2B2DD0252B8B
:1055300008D001300B700378002BF4D11000002349
:105540000370F0BD44782500303DEEB2092E1FD91E
:105550002500413D052D24D92500613D052DE8D8C4
:10556000573C85782E00303EF7B2092F17D92E0010
:10557000413E052E17D92E00613E052ED9D8573D44
:1055800024012C43E3B20330D4E701300B3BD1E7D5
:105590002C0085782E00303EF7B2092FE7D8350071
:1055A000EEE7373CDDE7373DEAE7C04630B50400BB
:1055B00087B0002835D06D46811D0422A81D11F04A
:1055C000FDF821000E2004220E31684411F0F6F897
:1055D00021000A2004220A31684411F0EFF821006A
:1055E000122004221231684411F0E8F8062221004A
:1055F000684611F0E3F8A37D6846013B5A425341E7
:10560000AB75FCF71DFE6846FCF7CEFB041E01D10E
:10561000002403E00A21012009F096F9200007B0D8
:1056200030BD024806F084FB0024F7E70174000057
:1056300070B5154C154B22689A4202D1A388012BF4
:105640001FD0134D2A222800002111F0B1F80F4B72
:10565000063D2B600123AB80A3600E4B9A68E2608D
:10566000DA6822611A6962615A69A2619A69E26123
:10567000DA6922621A6A62625A6AA2629B6AE36209
:1056800070BDA3680133E7E7C085022050414E5347
:10569000C68502200080054070B5204C204B226852
:1056A00082B09A4202D1A388012B0BD01D4C20005E
:1056B00003F09CF81C4803F099F8200003F096F8DA
:1056C00002B070BD174D280003F090F8174803F0A2
:1056D0008DF8E268A168164803F088F8154803F0D1
:1056E00085F8E669A369626921691348009603F0A9
:1056F0007DF8E66AA36A626A216A1048009603F0A0
:1057000075F8280003F072F8200000232022002101
:105710001030E36011F04CF8D2E7C046C08502209B
:1057200050414E53207502105C75021090750210A6
:10573000C4750210F0750210187602105876021027
:10574000044A10B513680133136018F069FF024B67
:10575000186010BD044E0220084E0220014B18684C
:105760007047C046044E022010B5064B064CE3605D
:1057700073462361606119F0EDFEA061034808F0F3
:1057800043FCFEE7F200EFBE008005409876021071
:1057900010B5084B084CE3607346236119F0F8FE1E
:1057A0006061002019F0D6FEA061044808F02CFCCE
:1057B000FEE7C046F300EFBE008005409876021079
:1057C000054B064A10B5DA60724605481A61596100
:1057D00008F01AFCFEE7C04600800540F400EFBE6A
:1057E0009876021070B5214D00212C0028009422DB
:1057F00010F0DEFF1E4B083C23601E4B012063604F
:1058000001231D4994355B42227801345A405308E4
:10581000024052420A4053405A0803405B420B4048
:105820005A405308024052420A4053405A0803402B
:105830005B420B405A405308024052420A405340D8
:105840005A0803405B420B405A4053080240524200
:105850000A4053405A0803405B420B405340AC425D
:10586000D2D1DB43054A936070BDC046F885022063
:10587000474C524302009C002083B8EDF085022083
:10588000F8B54F4C4F4B226805009A4202D1A388CD
:10589000022B54D0FFF7A6FFE16B002902D0A942EA
:1058A0004BD8691AE56380250F22635D1340180009
:1058B00001331A4062558122103080002150A35CD0
:1058C0000F2B01D80133A35400232500012620000B
:1058D00001213D4AA3609C35764203780130734034
:1058E0005E080B405B42134073405E080B405B4216
:1058F00013405E4073080E407642164073405E08C7
:105900000B405B4213405E4073080E4076421640E7
:1059100073405E080B405B4213405E4073080E40CC
:105920007642164073405E080B405B4213405E4077
:10593000A842D2D1F643A660F8BD0021B2E7E388C1
:105940009C2BA7D1A36827009C460023260001209A
:105950001D49A3609C37013B327801365A405308F9
:10596000024052420A4053405A0803405B420B40F7
:105970005A405308024052420A4053405A080340DA
:105980005B420B405A405308024052420A40534087
:105990005A0803405B420B405A40530802405242AF
:1059A0000A4053405A0803405B420B405340B74201
:1059B000D2D16246DB43A2609C4500D16CE769E727
:1059C000F0850220474C52432083B8EDF8B54B4C8C
:1059D0004B4B226805009A4202D1A388022B4CD07F
:1059E000FFF700FF002D47D02A780023002A08D0B7
:1059F000444901E0172B04D0CA540133EA5C002A61
:105A0000F8D100222500012620000121E31884336B
:105A10001A70A2603C4A9C3576420378013073408C
:105A20005E080B405B42134073405E080B405B42D4
:105A300013405E4073080E407642164073405E0885
:105A40000B405B4213405E4073080E4076421640A6
:105A500073405E080B405B4213405E4073080E408B
:105A60007642164073405E080B405B4213405E4036
:105A7000A842D2D1F643A660F8BDE3889C2BAFD1F3
:105A8000A36827009C460023260001201E49A3602E
:105A90009C37013B327801365A405308024052424B
:105AA0000A4053405A0803405B420B405A40530897
:105AB000024052420A4053405A0803405B420B40A6
:105AC0005A405308024052420A4053405A08034089
:105AD0005B420B405A405308024052420A40534036
