:020000041000EA
:1000000000B5324B212058609868022188439860DF
:10001000D860186158612E4B002199600221596106
:100020000121F02299502B49196001219960352056
:1000300000F044F80222904214D00621196600F024
:1000400034F8196E01211966002018661A6600F04E
:100050002CF8196E196E196E052000F02FF8012189
:100060000842F9D1002199601B49196000215960AB
:100070001A491B48016001219960EB211966A021F2
:10008000196600F012F800219960164914480160C1
:100090000121996001BC002800D000471248134993
:1000A000086003C880F30888084703B5996A0420EC
:1000B0000142FBD001200142F8D103BD02B5186610
:1000C0001866FFF7F2FF186E186E02BD00000240BE
:1000D000000000180000070000035F00212200005C
:1000E000F4000018222000A00001001008ED00E03C
:1000F00000000000000000000000000074B24E7A12
:1001000000200420F7010010CB010010CD010010E9
:10011000C9010010C9010010C9010010C901001077
:10012000C9010010C9010010C90100102186011089
:10013000C9010010C9010010558601100F88011077
:10014000C1010010C1010010C1010010C101001067
:10015000C1010010C1010010C1010010C101001057
:10016000C1010010C1010010C1010010C101001047
:10017000C1010010C1010010C1010010C101001037
:10018000C1010010C1010010C1010010C101001027
:10019000C1010010C1010010C1010010C101001017
:1001A000C1010010C1010010C1010010C101001007
:1001B000C1010010C1010010C1010010C1010010F7
:1001C000EFF30580103800BE00BE00BE00BE00BECA
:1001D00000BE00BEF2EB8871C4B50310E8B5031091
:1001E0003802001090A31AE71E481F49086006C88D
:1001F00081F3088810471D480068002801D019487D
:10020000F3E70DA40ECC002902D000F012F8F9E7B4
:100210001749184A002000E001C19142FCD116495B
:100220008847164988471649884700BEFDE701C937
:1002300001C29A42FBD37047E8B50310D0000020FA
:100240003835002050EA031000000420000004208C
:1002500050EA0310001004200010042000000000E9
:10026000704700000000000008ED00E0000000D032
:1002700038350020C07F0220714F0110110300109B
:10028000694F0110F8B5C04606480749091A8B1096
:10029000C90FC91810B5491003D0044B002B00D06A
:1002A000984710BD38350020383500200000000088
:1002B000054B10B5002B03D00449054800E000BFF2
:1002C000FFF7E2FF10BDC04600000000646D022091
:1002D000102A021070B584B006000C0001AB02AA0F
:1002E00003A912F053F9051E04D1002C09D12000F6
:1002F00004B070BD019A0299039812F013F92C0012
:10030000F5E70248310010F09DFEC046102A0210A9
:1003100010B582B004F0C6FB01211248FFF7DAFFE6
:10032000114B009300220021062012F095F8FA20CC
:10033000800011F0FBFD07F0D5FB0C4807F0EEFB49
:100340001AF020FA002101200DF0C8F8084AF8241C
:1003500064010848210007F04BFC20000AF0B4FCBF
:10036000FEE7C046400D030000C2EB0B442A02101A
:10037000802A0210882A021010B50CF0E3FE002833
:1003800000D110BD00200DF043F8FAE7D0231B0682
:1003900058688004C00F7047D0231B065868C004FB
:1003A000C00F7047D0231B0658684004C00F704729
:1003B00010B5FFF7E1FF10BD70B504000D00072870
:1003C0000BD80CF0BFFE002816D000222900200018
:1003D0000DF04AF800281DD070BD002101200DF05D
:1003E0007DF8134A134D14482300290007F000FC40
:1003F00028000AF069FCEFE7002101300DF06EF8EB
:100400000B4A0E4C0E48210007F0F2FB20000AF0C8
:100410005BFCE1E7002101300DF060F8044A094C73
:100420000948210007F0E4FB20000AF04DFCD3E767
:10043000C82A021001540000D42A021002540000FD
:100440000C2B0210035400004C2B021010B5021E9E
:1004500008D00378002B13D0013BD8B21070FFF7FF
:10046000ABFF10BD002101200DF038F8054A064C05
:100470000648210007F0BCFB20000AF025FCF0E74D
:100480000720EBE7C82A021002540000882B021054
:1004900010B5021E08D00378072B13D00133D8B251
:1004A0001070FFF789FF10BD002101200DF016F834
:1004B000054A064C0648210007F09AFB20000AF086
:1004C00003FCF0E70020EBE7C82A02100354000009
:1004D000C82B021010B5072800D910BD07231840FB
:1004E0000CF0EAFEF9E710B511F030FE002905D056
:1004F000FA229200002312F053FB10BDFA2189006A
:1005000012F010FBF9E70000F0B5D6464F4646461C
:10051000C0B584B081460F00924698460CAB1E7859
:100520000D9C002511F012FE0019694100290EDB17
:10053000029003910096434652463900484618F00F
:1005400034F804B0E0BCBA46B146A846F0BD01207C
:1005500040420149ECE7C046FFFFFF7FF0B5D646B9
:100560004F464646C0B584B081460F009246984635
:100570000CAB1E780D9C002511F0E8FD00196941B7
:1005800000290EDB02900391009643465246390043
:10059000484617F0EBFF04B0E0BCBA46B146A846A7
:1005A000F0BD012040420149ECE7C046FFFFFF7F5C
:1005B00030B585B013E0A2686569E36821792068E9
:1005C0000195247C0094FFF7C9FF039B1862D8694A
:1005D000002300930233002200211BF035F9002391
:1005E000039301220B4B1868524203A919F0B6F885
:1005F0000128F4D1039C237E002BDCD06569E368DD
:10060000A268217920680195247C0094FFF77CFF83
:10061000DBE7C046AC72022070B58CB010AC267817
:1006200012AC25781B4C2468002C21D003AC03901D
:100630002171059206932674119B089325761AF072
:10064000E1FE0A9000230B9302940122114B1868DB
:100650000023524202A918F0F3FE012816D101220C
:100660005242012100201BF019F80B980CB070BD0C
:10067000002D05D0119C01940096FFF745FFF5E78A
:10068000119C01940096FFF769FFEFE701204042BB
:10069000ECE7C046AC72022000B583B0124B1B6879
:1006A000002B01D003B000BD00220421102018F05F
:1006B00041FE0D4B1860002811D0C0220B490C4898
:1006C0000C4B0193022300930023920019F0C6FD06
:1006D0000128E7D008488B2104F0B4FAE2E7064885
:1006E000882104F0AFFAE8E7AC7202205C2C02101B
:1006F000B1050010647202200C2C021030B585B0D8
:1007000008AC247800250295099D01950094FFF717
:1007100083FF05B030BD30B585B008AC2478012525
:100720000295099D01950094FFF776FF05B030BD55
:10073000F0B585B006000D000A9F03A90A704B7042
:1007400000240FE00D4B019300230093023303AA12
:1007500029003000FFF7D2FF02280CD001201AF048
:1007600053FA0134022C03DC002FEBD03B00EAE704
:10077000002005B0F0BD0120FBE7C04650C30000DB
:10078000F0B5C64600B584B005000E0098460F23AC
:100790006B441A704346002B2AD000240FE0154FFB
:1007A0000197012300930F226A4431002800FFF7CC
:1007B000A5FF01280AD001201AF026FA0134022CE4
:1007C00011DC0A9B002BEAD01F00E9E70197002308
:1007D00000930133424631002800FFF79CFF0128B7
:1007E000E9D1012000E0002004B080BCB846F0BD93
:1007F0000020F9E750C30000F0B5D6464F4680B55B
:100800008DB006000F009946149C002B0DD0110AE4
:100810000BAB1970D2B25A701E2C54D803AB19709E
:100820005A70002C05D1002519E0002CEFD00020D3
:100830004CE0220049460E20684413F025FAF2E706
:100840000193002300934B4603AA39003000FFF7C1
:1008500055FF81450ED001201AF0D6F90135022D41
:1008600006DCA31C9946159B002BE9D11A4BE7E740
:1008700000202BE0012029E0174B9A4653460193B4
:100880000123009301330BAA39003000FFF736FF34
:1008900002280AD001201AF0B7F90135022D14DC24
:1008A000159B002BE8D09A46E8E7534601930023B6
:1008B000009323004A4639003000FFF71FFF8442AF
:1008C000E8D1012002E00025E8E700200DB0C0BC1F
:1008D000BA46B146F0BDC04650C30000F0B5C646AA
:1008E00000B584B005000E009846002B05D0110A13
:1008F00003AB19705A70002414E00A9B002BF6D049
:10090000002025E0144F019701210091022303AA42
:1009100031002800FFF7F2FE02280AD001201AF069
:1009200073F90134022C12DC0B9B002BEAD01F0060
:10093000E9E70197002300930A9B42463100280013
:10094000FFF7E9FE0A9B8342E8D1012000E0002086
:1009500004B080BCB846F0BD50C3000010B5002301
:1009600000E00133094A12689A420CD9084A1C0176
:10097000A2588242F5D1064A121912798A42F0D160
:100980000348201800E0002010BDC0469846022011
:100990009C46022070B5002800DA70BD0124844016
:1009A000D0252D06AC6105201AF02EF96C610A20C5
:1009B0001AF02AF9F1E70000F0B5CE46474680B5B7
:1009C00083B006000C00170000280DD01F290BD99A
:1009D000272909D8FFF7C2FF051E0ED0280003B053
:1009E000C0BCB946B046F0BD224A2348009433004B
:1009F000224907F093F80025F0E7214B1B68072BED
:100A000020D81B0198461F4B994645464D4410225D
:100A10000021280013F032F94B464246D6502C7183
:100A20006F710023AB71EB712B73012018F0BCFDCB
:100A3000061EA8600CD0002F12DA114A1368013389
:100A40001360CBE70B4A1048104907F067F8C5E779
:100A5000084A0F4823000F4907F060F83500BDE74A
:100A6000380010F065FB0123BB40D0221206536210
:100A70005361E2E7642C02106C2C02101354000046
:100A8000984602209C460220AC2C02101454000010
:100A9000D82C02101554000030B585B0041E00D1CA
:100AA0007CE0037B002B77D105202056002800DB5B
:100AB0007AE00121A068494218F0ECFE2179206813
:100AC0003B4D009520230A22FFF732FE2179206852
:100AD000009520230B22FFF72BFE2179206800953B
:100AE00000230022FFF724FE2179206800950023CF
:100AF0000122FFF71DFE21792068009500230C22BA
:100B0000FFF716FE21792068009500230D22FFF7DC
:100B10000FFE0F236B4400221A700E2169440A70E5
:100B20002179206800951432FFF72AFE002803D1AE
:100B30000F236B4400221A70217920681C4B00930C
:100B40000E236B441522FFF71BFE002803D10E2352
:100B50006B4400221A700F236B441B78A3710E2381
:100B60006B441B78E371A379DBB221792068104DC7
:100B700000951422FFF7DCFDE379DBB221792068D0
:100B800000951522FFF7D4FD01232373A0680023ED
:100B90000022002118F054FC05B030BD054A06487B
:100BA000064906F0BBFFF7E7FFF7F4FE81E7C04612
:100BB00088130000642C0210102D0210165400003F
:100BC000F0B5C64600B582B004000D00170000283D
:100BD00050D0067B002E26D00F294DD807260E4078
:100BE000072925D8142398460121A068494218F006
:100BF00051FE072D25D8002F1DD0A2790123B34027
:100C0000DBB21343A371A379DBB2217920681B4ABD
:100C100000924246FFF78CFD0600A06800230022E8
:100C2000002118F00DFC300002B080BCB846F0BDC9
:100C300015239846D8E7A3790122B2409343A371C4
:100C4000E1E7002F10D0E2790123B340DBB2134378
:100C5000E371E379DBB221792068084A00924246C9
:100C6000FFF766FD0600D8E7E3790122B24093431F
:100C7000E371EEE70026D6E70026D4E788130000EC
:100C8000F0B585B0041E28D0037B002B27D00F2998
:100C900027D807250D4007291DD812270121A06854
:100CA000494218F0F7FD0F266E4400233370217976
:100CB00020680D4B009333003A00FFF761FDA068F8
:100CC00000230022002118F0BBFB33782B410120C8
:100CD000184005B0F0BD1327E0E70020F9E7002039
:100CE000F7E70020F5E7C04688130000F0B5CE46D0
:100CF00000B584B004000D0003921F00002845D009
:100D0000067B002E19D000291CD1142399460121FD
:100D1000A068494218F0BEFD002D22D1A1793B0008
:100D20004B40039A13405940A3798B420DD1A068E0
:100D300000230022002118F083FB300004B080BCA7
:100D4000B946F0BD15239946E1E7A171A379DBB25D
:100D5000217920680E4A00924A46FFF7E9FC060016
:100D6000E5E7E1793B004B40039A13405940E379B2
:100D70008B42DCD0E171E379DBB221792068044A4F
:100D800000924A46FFF7D4FC0600D0E70026D4E7DD
:100D90008813000070B5182010F0CAF9D02424067A
:100DA00080256D046562A561052011F0BFF86561BD
:100DB0000A2011F0BBF8164817222021FFF7FCFD8E
:100DC000144D2860144C182221212000FFF7F4FD57
:100DD000124B18600122524223212000FFF7ECFD44
:100DE0000F4B18602868002801D0FFF755FE0B4B09
:100DF0001868002801D0FFF74FFE094B186800283B
:100E000001D0FFF749FE0A2101200CF0A5FB70BDBF
:100E1000582E002024470220602E00202047022068
:100E200028470220014B18687047C046244702201B
:100E3000014B18687047C04620470220014B1868D4
:100E40007047C0462847022010B50321022010F049
:100E500025F90321032010F021F9002201210220AD
:100E600010F036F900220121032010F031F9024977
:100E7000024806F053FE10BD382D0210442D02101A
:100E8000F0B583B005000F001600002923D1002122
:100E900001200CF023FB204A204C2148210006F0C1
:100EA000A7FE200009F010FF0120404232E0A4B26A
:100EB0001C481D4B019300943B002A005021FFF772
:100EC0009BFC002813D0052019F09EFE2D19ADB211
:100ED0003F19361BB6B2002E1BD07F222A4080233A
:100EE0009B1A9BB2341C9E42E1D91C1CDFE70021F7
:100EF00001300CF0F3FA084A0C4E0D4800942B0018
:100F0000310006F075FE300009F0DEFE012040429F
:100F100000E0002003B0F0BD382D02105244000064
:100F2000642D0210582E002050C3000053440000CE
:100F3000982D0210F0B583B006000C0015000029B2
:100F40000CD01848184B019300920B00320050212E
:100F5000FFF7C4FC00280FD003B0F0BD0021012032
:100F60000CF0BCFA114A124C1248210006F040FE67
:100F7000200009F0A9FEEFE7002101300CF0AEFAE5
:100F80000A4A0D4F0D4800953300390006F030FE37
:100F9000380009F099FE2A00FF21200012F06EFEB1
:100FA000DAE7C046582E002050C30000382D02104A
:100FB00054440000DC2D021055440000102E021095
:100FC000D0231B06802292029A617047D0231B0611
:100FD000802292025A61704710B584B00400104B11
:100FE0001B6898470F4B1B689847230C02A90B708E
:100FF000230A4B708C70FF23CB700B716C46FA3B4D
:101000006A46094821F0B8FC084B1B689847084B12
:101010001B689847E37820791B02184304B010BD81
:10102000103D02201C3D022000C00340183D02205C
:10103000143D022000B583B06B46D91D0870012213
:10104000024821F089FC03B000BDC04600C0034047
:1010500010B582B06B46DC1D0023237001332200E3
:10106000FF21034821F040FC207802B010BDC046AB
:1010700000C0034010B5054B1868002804D00023B9
:101080000022002118F0DCF910BDC046707F02205C
:1010900010B5044B1868002803D00121494218F00C
:1010A000F9FB10BD707F022010B582B004000E4B1A
:1010B0001B6898470D4B1B689847230C01A90B70C0
:1010C000230A4B708C70FF23CB706C46FB3B6A4647
:1010D000074821F051FC074B1B689847064B1B68DB
:1010E0009847E07802B010BD103D02201C3D022060
:1010F00000C00340183D0220143D022030B583B0EB
:1011000004000D000D4B1B6898470D4B1B6898475A
:1011100004232343220C01A90A70240A4C708B700B
:10112000CD700422074821F017FC074B1B68984735
:10113000064B1B68984703B030BDC046103D0220E7
:101140001C3D022000C00340183D0220143D022037
:1011500070B582B004000D00160000291ED0002AD0
:101160001CD00F4B1B6898470E4B1B689847230CED
:1011700001A90B70230A4B708C700B4C03222000CA
:1011800021F0EAFB33002A00FF21200021F0ACFB14
:10119000064B1B689847064B1B68984702B070BD0A
:1011A000103D02201C3D022000C00340183D0220DB
:1011B000143D022070B582B004000E001500002915
:1011C0001FD0002A1DD0104B1B6898470F4B1B687F
:1011D000984704232343220C01A90A70240A4C7067
:1011E0008B700B4C0322200021F0B6FB2A0031004B
:1011F000200021F0B1FB074B1B689847064B1B688A
:10120000984702B070BDC046103D02201C3D022030
:1012100000C00340183D0220143D022000B583B0F9
:101220000B000A0A01A90A704B7080000130C0004F
:1012300090239B019C4660440222FFF7BBFF03B052
:1012400000BD00B583B00B000A0A01A90A704B70FB
:1012500080000130C000A0239B019C466044022214
:10126000FFF7A8FF03B000BD00B583B00B000A0A6A
:1012700001A90A704B7080000130C0008023DB00A0
:101280009C4660440222FFF795FF03B000BD00B505
:1012900083B00B000A0A01A90A704B70800001306C
:1012A000C00080235B019C4660440222FFF782FF5E
:1012B00003B000BDF0B5C64600B580460025002746
:1012C00005E00135EDB2092D14D8B74211D04346DF
:1012D0009C000134E40080239B019C466444200070
:1012E000FFF77AFE061EECD02000FFF775FE070020
:1012F000E7E73E00300080BCB846F0BDF0B5C6461A
:1013000000B580460025002705E00135EDB2092D26
:1013100014D8B74211D043469C000134E40098230E
:101320009B019C4664442000FFF756FE061EECD04D
:101330002000FFF751FE0700E7E73E00300080BCC9
:10134000B846F0BDF8B5DE4657464E464546E0B5D0
:1013500007000D001400002901D0002A05D1F0BCBF
:10136000BB46B246A946A046F8BD83009846581C25
:10137000C3009B46F82040015844FFF795FE8602C3
:10138000B6B2731E9BB29A46902080015844FFF774
:101390008BFE000283B29946942080015844FFF7E7
:1013A00083FE03004B449AB2914652461340F21A10
:1013B00092B2924694420FD8180243460233DB00A1
:1013C000184322002900FFF7F5FE2100494489B2A5
:1013D0003800FFF723FFC2E79E1BA619B6B218021A
:1013E00043460233DB00984618432900FFF7E2FE2C
:1013F0002900514432004046FFF7DCFEE5E70000DB
:10140000F8B5DE4657464E464546E0B507000D00A6
:101410001400002901D0002A12D1002101200CF073
:101420005DF82C4A2C4C2D48210006F0E1FB2000F1
:1014300009F04AFCF0BCBB46B246A946A046F8BD3E
:1014400083009846581CC3009B46F0204001584436
:10145000FFF72AFE8602B6B2731E9BB29A46A02000
:1014600080015844FFF720FE000283B29946A42071
:1014700080015844FFF718FE03004B449AB291468E
:1014800052461340F21A92B2924694420FD8180272
:1014900043460333DB00184322002900FFF758FEC0
:1014A0002100494489B23800FFF7CBFEC2E79E1BFA
:1014B000A619B6B2180243460333DB009846184318
:1014C0002900FFF745FE2900514432004046FFF74E
:1014D0003FFEE5E74C2E0210B1240000542E02100E
:1014E000F8B507000C1E16D086000136F600A023C2
:1014F0009B01F018FFF7D8FD0502ADB2A4239B01B4
:10150000F018FFF7D1FD2D18ADB2611989B238007E
:10151000FFF797FEF8BD002101200BF0DFFF054A21
:10152000054C0648210006F063FB200009F0CCFBC7
:10153000F0E7C0464C2E0210B2240000982E021094
:1015400070B5244B1B68002B2ED011200FF0F0FD3E
:10155000D024240680239B026362636114200FF071
:10156000E7FD80256D036562A561642019F04CFBE1
:101570006561642019F048FB174B184A1A60184B34
:10158000184A1A60184B194A1A60194B194A1A60FE
:10159000194B1A4A1A601A4B1A4A1A601A4828211B
:1015A00006F0BCFA012070BD012017F0FDFF094BC9
:1015B00018600028C9D1002101300BF08FFF134AB9
:1015C000134C1448210006F013FB200009F07CFBAB
:1015D0000020E8E7707F0220103D022091100010EB
:1015E000143D0220751000101C3D0220C10F001098
:1015F000183D0220CD0F0010743D02205110001044
:10160000783D022035100010042F02104C2E0210DD
:10161000B3240000D42E021010B5041E1AD090205E
:10162000062221000001FFF7C5FDA11DF0200422C4
:101630000001FFF7BFFD21000A31A0200422C000F5
:10164000FFF7B8FD21000E31802004224000FFF793
:10165000B1FD10BD002101200BF040FF044A054CF4
:101660000548210006F0C4FA200009F02DFBF0E740
:101670004C2E0210B7240000382F021070B5061E41
:1016800000D16FE008214448FFF738FD08214348A6
:10169000FFF734FD08214248FFF730FD082141489B
:1016A000FFF72CFD00214048FFF728FD00213F48AF
:1016B000FFF724FD00213E48FFF720FD00213D48B3
:1016C000FFF71CFD00213C48FFF718FD00213B48B7
:1016D000FFF714FD00213A48FFF710FD00213948BB
:1016E000FFF70CFD00213848FFF708FD00213748BF
:1016F000FFF704FD00213648FFF700FD00213548C3
:10170000FFF7FCFCB820F8218001FFF7F7FC0A2066
:1017100019F07AFA0025B8208001FFF7C5FC040013
:10172000642019F071FA0135192D2AD8E407F2D591
:10173000294806F0F3F93000FFF76EFFC8200721B3
:101740004001FFF7DBFCD020D0214001FFF7D6FCA1
:10175000D82008214001FFF7D1FC204806F0DEF92F
:10176000012070BD002101200BF0B8FE1C4A1D4C69
:101770001D48210006F03CFA200009F0A5FA0020DF
:10178000EFE7174A194C1A48210006F031FA2000F9
:1017900009F0ACFA0020E4E7081E0000081F000072
:1017A000281E0000281F0000481E0000481F0000DF
:1017B000681E0000681F0000881E0000881F0000CF
:1017C000A81E0000A81F0000C81E0000C81F0000BF
:1017D000E81E0000E81F0000CC2F0210F02F0210BE
:1017E0004C2E0210B42400007C2F0210B022000006
:1017F000A42F021010B5B8208001FFF755FC01237B
:10180000184010BD10B580210020FFF777FC0A209A
:1018100019F0FAF902E0012019F0F6F90020FFF7BB
:1018200043FC40B20028F6DB10BD000030B50028B4
:1018300018DB0F4B1B68834217DD0E4B58244443C3
:10184000E35C137000241378A34209D9094B58258F
:1018500045435B191B195B780B550134E4B2F2E781
:10186000002030BD04204042FBE704204042F8E75E
:10187000CCCA0210C80C002010B5040000230020C0
:1018800003E00002E25C104301338B42F9DB10BD40
:1018900030B5020000780023D356002B02DB08602D
:1018A000012030BD7F230340013B507808600220B7
:1018B00006E00B681B02155C2B430B602300013014
:1018C0005C1E002BF5D1ECE770B506000C0015008E
:1018D000110010C1601C3018FFF7DAFF2318013324
:1018E000AB60325DA12A07D8A02A07D2302A05D0E2
:1018F0006A689B18EB6002E0A32AF9D1EB60002034
:1019000070BD000070B501300C4B1D5C1B56002BE8
:1019100003DB01310A4B5A5470BD7F242C40023145
:10192000002008E0631E1B1ADB0016001E4143184E
:10193000034DEE540130A042F4DBEDE73074022099
:1019400038770220F8B5CE46474680B5894615005F
:101950001E00354B0100180006F0E0F800240CE0F2
:10196000295D324806F0DAF8E3171B0FE2180F2062
:101970001040C01A0F2809D00134B4421EDA2307E0
:10198000EED12B48210006F0C9F8E9E7294806F016
:10199000C5F827000F3F03E0274806F0BFF80137DE
:1019A000BC4207DBE95D254B5B5C68229343F3D1C6
:1019B0002E21F1E7224806F0B1F8DDE7330727D002
:1019C000F3171B0FF2180F241440E31A9846102443
:1019D000E41A002763001B190133BB4204DB1948DA
:1019E00006F09CF80137F5E74346F41A03E0124885
:1019F00006F094F80134B44207DA295D0F4B5B5CC2
:101A000068229343F3D12E21F1E70D4806F086F8C2
:101A10000548494606F082F8094806F07FF8C0BC40
:101A2000B946B046F8BDC0460CA402101C300210E6
:101A30001030021024300210283002100944031024
:101A40003CB8021018300210F0B583B006000D004B
:101A50001700294C58224243A418647B9C4209D1A8
:101A6000062C34D01FD8022C21D0042C2FD00520D6
:101A7000404239E0214B03221A70214B089A1A7018
:101A8000002101200BF02AFD1E4A1F4C1F48089B15
:101A900000933300210006F0ABF8200009F014F9A0
:101AA0000520404220E0413CE4B2022C1ED839001F
:101AB0002800FFF7E1FE104B582272439B18186173
:101AC0009F735B6D002B14D0984700200CE05823C7
:101AD0005E4330001030084C00193A00290012F023
:101AE000D3F8A419A773002003B0F0BD052040422D
:101AF000FAE70020F8E7C046C80C0020A67F0220C5
:101B0000A57F02202C300210E224000038300210A1
:101B100070B506000D00002400E001340B4B1B687B
:101B2000A3420FDD0A4B58226243D35CAB42F4D18F
:101B3000074BD01801302A0031001CF04DFC002862
:101B4000EBD101E001246442200070BDCCCA021038
:101B5000C80C0020F0B5C64600B582B004000F00E6
:101B600016001D00002800DA84E0454B1B68834204
:101B700000DC82E0434B582242439B185B7B0B7096
:101B8000062B3BD015D8022B17D0042B36D00021C2
:101B900001200BF0A3FC3B783B4A3C4D3C480094B1
:101BA000290006F025F8280009F08EF805204042AB
:101BB00044E0413BDBB2022BE9D8324B582262436E
:101BC0009B181A6D002A09D058236343180010305F
:101BD0002C4940180833591806319047294B582290
:101BE00062439B189B7B002B00D104332B60254B59
:101BF000582262439B181A69002036E0214B582274
:101C000062439B181A6D002A09D0582363431800B9
:101C100010301C49401808335918063190473B785A
:101C2000042B0FD0174B582161435A18927B2A601E
:101C30001031C918300012F027F8002002B080BC23
:101C4000B846F0BD543363439846180010300D4F2A
:101C5000C0191DF083F84744B873E3E7091A013946
:101C6000C9001300CB403354013029688142F5DCB0
:101C70000020E3E704204042E0E704204042DDE7A3
:101C8000CCCA0210C80C00202C300210E124000045
:101C900080300210F0B5DE4657464E464546E0B568
:101CA0008FB004000391894DC1239B00E9580AAA13
:101CB0002800FFF709FE0A9FEE5D062E0ED10C9854
:101CC000824A80180B99FFF723FF0500A02C16D03D
:101CD000A32C14D0A12C66D000262EE000210120D8
:101CE0000BF0FCFB7A4A7B4C7B48039B210005F000
:101CF0007FFF200008F0E8FF012040424CE00D9EED
:101D0000F61B764B9A46C1239B00994653464A469A
:101D1000985850446D4B9B4639005944320011F09D
:101D2000B3FF5B464A469B589B195A464946535057
:101D300053465B589B19524653506448C1239B003D
:101D4000C15806AAFFF7C0FD6B1C00D193E0A03C70
:101D5000012C6CD908995D4B98464144069B42463C
:101D6000D35C079A039800902800FFF76DFE099C4A
:101D70000699641A594FC125AD007859C0194144DC
:101D8000220011F081FF7B591B197B5143465B599F
:101D90001B1942465351A0190FB0F0BCBB46B246C6
:101DA000A946A046F0BD4D4BC122920099585E5401
:101DB00001354B4B1B68AB4217DC0D9EF61B474DA4
:101DC0004819424B994639004944320011F05CFFF2
:101DD000C1239B004A46D25892194946CA50EA5834
:101DE0009219EA5001256D42A7E73848C1239B00AC
:101DF0009946C3580D9AD21B9B184A4683504A1CD9
:101E0000364B9846002340468354023142444144B5
:101E10002800FFF70BFD43464A469B585A1C414693
:101E20008E5C02369B1942464946535085E72B4F3C
:101E3000C1239B009846FA580232D2190B2402ABF8
:101E40009C46644405AB21002800FFF783FE43460F
:101E5000FB582278FA54059C5A1CBC5402341B19B6
:101E60004246BB5019498B58099A0698121A9B187A
:101E700042468B508FE7099C0699641A174B984687
:101E8000C125AD0058594044104B994649442200A1
:101E900011F0FAFE43465B591B19424653514B461B
:101EA0005B591B194A4653510E4B039D1D700E4B37
:101EB00002221A70002101200BF010FB044A0B488B
:101EC0002B000B4905F094FE65E7C04630740220F4
:101ED0002C300210E3240000C430021038770220B6
:101EE000CCCA0210A57F0220A67F02200831021072
:101EF000E0210000F0B5D6464F464646C0B584B056
:101F000080468A46214CC1239B00E1586A46200046
:101F1000FFF7DAFC0099635C302B25D1029C641A30
:101F20001B4EC125AD007759B819184B9946494445
:101F3000220011F0A9FE4B465B591B194A4653512A
:101F400073591B19735151464046FFF7A3FE050014
:101F500000982A003900FFF7D5FC601904B0E0BCF6
:101F6000BA46B146A846F0BD002101200BF0B6FAF2
:101F7000084A094C09485346210005F039FE200063
:101F800008F0A2FE01204042E8E7C046307402207B
:101F9000387702202C300210E42400005031021067
:101FA000F0B5D6464F464646C0B584B00600334C21
:101FB000C1239B00E1586A462000FFF785FC009989
:101FC000635C302B2BD1029F7B1A9A462C4DC12487
:101FD000A4002B5998465819284B99464944524613
:101FE00011F052FE4B461B5953444A4613512B598C
:101FF00053442B5100240025204BC12292009A58B3
:10200000C02189005B589A422ADA671C21003000FF
:10201000FFF770FF002812DB2D183C00ECE70021D1
:1020200001200BF05BFA174A174C1848210005F005
:10203000DFFD200008F048FE0120404217E00021AB
:1020400001200BF04BFA0F4A114D124823002900D2
:1020500005F0CEFD280008F037FE0120404206E0E2
:1020600000982A004146FFF74DFC2800504404B078
:10207000E0BCBA46B146A846F0BDC0463074022066
:10208000387702202C300210E52400009C31021029
:10209000E6240000E8310210F0B5D6464F46464629
:1020A000C0B590B0554CC1239B00E1580CAA20004C
:1020B000FFF70AFC0C9B9846E35C9A46A03B012B79
:1020C00003D95346A32B00D076E00E9F4346FF1A58
:1020D0004B4DC124A4002B5999465819474E4346ED
:1020E00099193A0011F0D0FD3159C91931512B59C4
:1020F000DB192B51A2234246AB5408AF3A00300003
:10210000FFF7E2FB0B9B08995B1A98462859401988
:1021100089191A0011F0B8FD3159414431512B5938
:1021200043442B5104AF3A003000FFF7CDFB079F2B
:1021300004997F1A2859401989193A0011F0A4FD11
:102140003159C91931512B59DB192B51B8446A4601
:102150003000FFF7B9FB039F00997F1A28594019F7
:1021600089193A0011F090FD3359DB1933512B597D
:10217000DB192B5147445046FFF712FF00282CDB98
:102180003C180C9822004946FFF7BCFB1D4B1B78FE
:10219000002B07D006991A4A535402991A4B1B7800
:1021A000013353540E980C9BC01A001910B0E0BCB8
:1021B000BA46B146A846F0BD002101200BF08EF9C9
:1021C000124A134C13485346210005F011FD20001C
:1021D00008F07AFD01204042E8E7002101200BF0E1
:1021E0007DF90A4A0C4C0D48210005F001FD200044
:1021F00008F06AFD01204042D8E7C0463074022052
:1022000038770220A67F0220A57F02202C30021002
:10221000E724000038320210E82400007432021073
:10222000F0B5C64600B584B0344CC1239B00E158DC
:102230006A462000FFF748FB009D635D042B2BD10D
:10224000019B2F4A1278934226D102982B4BC0183B
:102250002C491CF0C1F800283FD1039C641B2A4F75
:10226000C126B600B859C019244B984629004144EC
:10227000220011F009FD43469B591B194246935118
:10228000BB591B19BB51FFF707FF002815DB2018AE
:1022900004B080BCB846F0BD002101200BF01EF94F
:1022A000019B1A4A1A4C1B48210005F0A1FC200092
:1022B00008F00AFD01204042EAE7002101200BF06E
:1022C0000DF9124A144C1548210005F091FC20002C
:1022D00008F0FAFC01204042DAE7002101200BF06F
:1022E000FDF80A4A0E4C0F48210005F081FC200041
:1022F00008F0EAFC01204042CAE7C04630740220E0
:10230000D0CA0210D4CA0210387702202C30021032
:10231000E9240000B4320210EA240000FC3202106A
:10232000EB24000040330210F0B585B0264CC123E9
:102330009B00E1586A462000FFF7C6FA0099635CEB
:10234000022B1DD1029B204AD35C002B18D1039C89
:10235000641A1E4EC125AD00705980191A4FC91953
:10236000220011F091FC7B591B197B5173591B19E9
:102370007351FFF755FF002815DB201805B0F0BD9D
:10238000002101200BF0AAF8029B0F4AD35C104AEF
:10239000104C1148210005F02BFC200008F094FCA3
:1023A00001204042EAE7002101200BF097F8084A9B
:1023B0000A4C0B48210005F01BFC200008F084FCAF
:1023C00001204042DAE7C04630740220387702200C
:1023D0002C300210EC24000084330210ED240000A5
:1023E000C4330210F0B5C64600B584B02B4CC123EF
:1023F0009B000022E2502A49CA506A460021200070
:10240000FFF762FA0099635C302B27D1029D6D1AA9
:10241000234EC124A4003759B819204B9846414493
:102420002A0011F031FC43461B595B1942461351F7
:1024300033595B193351FFF777FF00281EDB184B28
:10244000C12292009A58029BD21A00983900FFF7D5
:1024500059FA002004B080BCB846F0BD002101202C
:102460000BF03CF80F4A104C1048210005F0C0FB5F
:10247000200008F029FC01204042EBE70021012068
:102480000BF02CF8074A0A4C0A48210005F0B0FB73
:10249000200008F019FC01204042DBE730740220E4
:1024A000387702202C300210EE240000083402108D
:1024B000EF2400004C340210F0B5CE46474680B5FC
:1024C00085B0061E04DD18F0ADF98146002519E03F
:1024D0000126F8E7304B1878304CC1239B00984612
:1024E0000A236B441B884246A25A009303AB210087
:1024F00000F004FE4346E35829492A482200FFF72A
:1025000021FA0135AE4241DD18F08CF94B46C01A74
:1025100031283BD8204B1878FEF7F0FE002835D044
:10252000002303930A226A441380021CC0239B00E9
:10253000984200D91A1C92B21B49174B18780A23EB
:102540006B44009303AB00F0B3FE00281EDD0004D3
:10255000040C154BC02292001F009C50C121890021
:1025600000237B500D48435010490B7010490B70ED
:10257000002111F083FB0A490E4823003A00FFF7BF
:10258000E1F9FFF72FFF0130BBD0A3E7280005B02A
:10259000C0BCB946B046F0BDC30C0020387702205D
:1025A0003CB80210A034021030740220A67F022032
:1025B000A57F022090340210024A13680133136091
:1025C0007047C046787A0220014B18687047C046B1
:1025D000787A022030B585B0254B1870254B1A70DB
:1025E000002900D1A131244D2980244B00221A60FA
:1025F000FFF7EAFF224B186002F0CFFD1C4C207859
:1026000000F062F92A8820780023022100F0ACF95A
:102610002378984214D0002101200AF05FFF144B68
:102620001B78184A184C1948134909880091210051
:1026300005F0DEFA200008F047FB002005B030BDB1
:1026400003AC00250395F020042221000001FEF7D1
:102650007FFD0295210002A802F0A0FD064B1B8819
:10266000034A127807490A4805F058FA0120E5E7BD
:10267000C30C0020C20C0020C00C0020787A02207D
:10268000507A02202C300210E0240000B0340210F6
:10269000E434021070B505000C00FFF795FF034B02
:1026A0001B68C01A28600423237070BD507A022072
:1026B0000CB4F0B5DE4657464E464546E0B589B007
:1026C00003900F00160013932B9B9B467C4C3023EA
:1026D000237002218946A17001398846E1700021EA
:1026E000217110001CF03AFB050004206071A571F7
:1026F000E01D2A00310011F0C7FAEB1D0826B24692
:10270000AA44A422E2542A00093203330621A15428
:102710000B3513AA1678E654281932003D2304A974
:102720008C466344190011F0AFFA7619731C4022ED
:10273000A255B21C0420E054F31C3978A154321D78
:102740007978E154731DB978A154B21DF978E15438
:10275000F31D4846A05402324046E0540233299803
:10276000A05402324846E05402334046A05402329C
:102770002A98E05402334321A15402324046E054E7
:1027800002330021A154370010373022E2541136B1
:102790002CAB0793002300220292524604929A46E1
:1027A000059721E0AB7B99464346042B52D0434624
:1027B0002370A31C98464B466370290010314A468B
:1027C000404611F061FA44464C440237E41B731C46
:1027D0003B4AD454A31CF618029B9C466444A31C99
:1027E000029301239C46E244DA453AD2079B1A1D24
:1027F00007921D68324BF71830229A55FF237B70E1
:10280000F93BBB703C1D2A78FA70691C200011F05E
:102810003BFA2B78E4186B7B9846042BC2D0062B2E
:10282000C0D02370A01C0423637029690B0E0D0A0D
:10283000FF22120215402B430A02FF252D042A40D5
:102840001A430B0613430693042206A911F01CFA3F
:102850000634BAE7280010301CF080FAC3B299465B
:10286000A5E7049B9A46059F154C029BE355F2B2DF
:102870005346D31ADBB2013B51466354023A6270AD
:10288000104D287800F020F828780023A222022199
:1028900000F06AF82878B2B2A2230093039B2100CB
:1028A00000F02CFC287800F00FF8002009B0F0BCF4
:1028B000BB46B246A946A046F0BC08BC02B01847C9
:1028C000847A0220C20C0020F8B5070007283DD802
:1028D00086000136F600751CFF3510212800FEF732
:1028E0000DFC17F09FFF04002800FEF7DDFB002819
:1028F00008D017F097FF001B04282AD8012018F0F1
:1029000083F9F1E780239B00F018FF21FEF7F6FB27
:102910000123BB4010490A889A430A800F490A885C
:102920009A430A800E4B7A000021D1520D4B0022AF
:10293000DA5502E0012018F067F9C0239B00F01877
:10294000FEF7B2FB0028F5D10130F8BD012040426E
:10295000FBE70D204042F8E7867F0220887F0220B7
:10296000BC7E0220B47E0220F0B5C64600B582B01F
:1029700004000D0016001F00072800D9DEE0012921
:1029800047D0002900D1DCE08B1EDBB2022B00D93E
:10299000DAE07B0756D4002F03D0012D63D0022D3F
:1029A00075D02000FFF790FFA300013398460F2356
:1029B0003900994329434346D800FEF79FFB002E78
:1029C00008D1644A1688731C9BB21380624A9342F2
:1029D00000D189E031002000FEF746FC4346DE00CE
:1029E000731CFF33984601211800FEF787FB17F090
:1029F00019FF05004046FEF757FB002878D017F076
:102A000011FF401B042800D9A1E0012018F0FCF8B8
:102A1000F0E7F020042201A90001FEF799FB019BD9
:102A2000002BB6D1002101200AF058FD4B4A4C4C36
:102A30004C48210005F0DCF8200008F045F903209F
:102A4000404277E0002101200AF048FD434A464C0D
:102A500046483B00210005F0CBF8200008F034F98F
:102A60000620404266E021233B429AD1002101200A
:102A70000AF034FD394A3E4C3E483B00210005F047
:102A8000B7F8200008F020F90620404252E0BB06CB
:102A900002D57BB2002B16DAFB0682D57BB2002B67
:102AA00000DA7EE7002101200AF018FD2B4A324CA3
:102AB00032483B00210005F09BF8200008F004F9A3
:102AC0000620404236E0002101200AF007FD234A9B
:102AD0002B4C2C483B00210005F08AF8200008F020
:102AE000F3F80620404225E01A4B274A1A8071E786
:102AF0000121A140254803888B43038001223A40ED
:102B0000A24013430380224A13888B431380214B36
:102B100062000021D152204B00221A5502E0012010
:102B200018F072F8C0239B00F018FEF7BDFA0028D9
:102B3000F5D060B202B080BCB846F0BD0120404282
:102B4000F8E705204042F5E705204042F2E70D2076
:102B50004042EFE7C40C0020F0FF000010350210E7
:102B6000C12400001C350210C2240000543502109C
:102B7000C324000094350210C5240000343602102E
:102B8000C4240000E035021000C0FFFF867F022051
:102B9000887F0220BC7E0220B47E0220F8B50700A8
:102BA000072860D884000134E000FEF77DFA0F2387
:102BB0000340012B5AD1E400661CFF360821300087
:102BC000FEF79CFA17F02EFE05003000FEF76CFAB7
:102BD000002808D017F026FE401B042849D8012001
:102BE00018F012F8F1E701221300BB40DB431BB2DF
:102BF0002149088803400B80204B1B883B411A4227
:102C000011D1C0239B00E018FEF74EFA002828D00F
:102C100080239B00E018FEF747FA00070ED40A2035
:102C200017F0F2FFEDE7164A164C1748210004F0A2
:102C3000DFFF200008F05AF800201CE03800FFF702
:102C400043FE002101200AF049FC0D4A0F4C1048B8
:102C5000210004F0CDFF200008F036F80D2040429E
:102C600009E0013007E00120404204E00520404235
:102C700001E00D204042F8BD887F0220867F0220BF
:102C800010350210C6220000A0360210C724000032
:102C9000E8360210F8B5050007286CD88400013426
:102CA000E000FEF701FA0F230340012B66D1E40098
:102CB000C0239B00E7183800FEF7F6F9132860D10F
:102CC0000134FF3402212000FEF718FA17F0AAFDA4
:102CD00006002000FEF7E8F9002808D017F0A2FD52
:102CE000801B042850D8012017F08EFFF1E717F061
:102CF00099FD06003800FEF7D7F904001C281CD8FF
:102D000001238340224A134203D1DB0215D501205F
:102D10003CE02800FFF7D8FD002101200AF0DEFB8F
:102D20001C4A1D4D1D482300290004F061FF2800A6
:102D300007F0CAFF0420404228E017F073FD801B13
:102D4000FA235B00984203D8012017F05DFFD1E71A
:102D50002800FFF7B9FD002101200AF0BFFB0D4A52
:102D60000F4C1048210004F043FF200007F0ACFF97
:102D70000D2040420AE00120404207E00520404289
:102D800004E00320404201E00D204042F8BDC0466F
:102D90000100881010350210C824000010370210FE
:102DA000C924000058370210F0B5D6464F4680B50A
:102DB00085B0060003911500072800D9C9E08400FA
:102DC0000134E000FEF770F90F230340012B00D01F
:102DD000C2E0002D00D1C2E0E3009946C0239B0071
:102DE0004B449A461800FEF75FF90400172801D0FB
:102DF0001C2814D15E4B1B883341DB072DD5802462
:102E0000A4004C442000FEF74FF9C30619D4000774
:102E100031D4002005B0C0BCBA46B146F0BD002197
:102E200001200AF05BFB534A534D54480094330091
:102E3000290004F0DDFE280007F046FF072040428D
:102E4000E8E710212000FEF759F90123B340DB43E6
:102E50001BB2474A11880B401380F82040014844B8
:102E6000FEF722F9800287B2BD4200D82F0017F08A
:102E7000D9FC050033E03000FFF726FD00210120DA
:102E80000AF02CFB3B4A3E4C3E483300210004F044
:102E9000AFFE200007F018FF0D204042BAE73000D7
:102EA000FFF712FD002101200AF018FB314A364CD1
:102EB0003248029B00933300210004F099FE200069
:102EC00007F002FF07204042A4E7A7421CD917F0F1
:102ED000A9FC401B092845D8012017F095FE3000B9
:102EE000FEF7E8F904005046FEF7DEF802901728D6
:102EF00001D01C28D3D1254B1B883341DB07E4D5F7
:102F0000A742E2D9002085E73A0003993000FEF796
:102F100019FA4C460134FF3420212000FEF7EEF868
:102F200017F080FC05002000FEF7BEF8002808D04E
:102F300017F078FC401B042816D8012017F064FE17
:102F4000F1E70122B2400A490B8813430B80380095
:102F500060E7012040425DE7052040425AE70E202D
:102F6000404257E7002055E70D20404252E7C04657
:102F7000887F022010350210CA2400007C3702101E
:102F8000CB240000B8370210CC240000867F02203A
:102F9000F0B5D6464F464646C0B584B0050003910D
:102FA0009146072800D98BE084000134E000FEF749
:102FB0007BF80F230340012B00D084E04B46002B0D
:102FC00000D183E0E3009846C027BF0047443800A3
:102FD000FEF76AF80400172801D01C2803D117F067
:102FE00021FC824624E0002101200AF077FA3E4AC3
:102FF0003E4E3F4800942B00310004F0F9FD3000B4
:1030000007F062FE0724644264E0002E2ED1394BA3
:103010001B882B41012214001C401A4259D117F081
:1030200001FC5346C01A092854D8012017F0ECFDC2
:103030002800FEF763F906003800FEF735F80400B3
:103040001728E2D01C28E0D0002101200AF046FA1F
:10305000254A294E264800942B00310004F0C8FD73
:10306000300007F031FE0724644233E0B14500D858
:103070004E46F02040014044FEF716F88402A4B208
:10308000A64200D83400220003992800FEF7B8F9C0
:1030900045460135FF3540212800FEF72FF817F08F
:1030A000C1FB06002800FDF7FFFF002812D017F033
:1030B000B9FB801B042814D8012017F0A5FDF1E707
:1030C0000124644206E00524644203E00E246442C5
:1030D00000E00024200004B0E0BCBA46B146A84697
:1030E000F0BD0D246442F5E710350210CF24000036
:1030F0007C370210867F0220D1240000F0B5DE4626
:1031000057464E464546E0B585B00500039116008A
:103110001C000EAB1B889B46072800D9ACE087003B
:103120000137F800FDF7C0FF0F230340022B00D04A
:10313000A5E0002E00D1A5E02378002B09D163780B
:10314000002B06D1A378002B03D1E378002B00D10C
:103150009BE05B46002B00D19AE0FB009946C02320
:103160009B004B449A461800FDF79EFF070022285B
:1031700018D104222100C02000014844FEF71AF8AB
:1031800059462800FEF783F8F82040014844FDF72F
:103190008BFF8702BFB2BE4200D8370017F042FB58
:1031A000804634E0002101200AF098F93B4A3C4C6B
:1031B0003C4800972B00210004F01AFD200007F086
:1031C00083FD0720404210E0002101200AF086F92B
:1031D000324A354C334800962B00210004F008FD9C
:1031E000200007F071FD0720404205B0F0BCBB464F
:1031F000B246A946A046F0BDA7421BD917F012FB64
:103200004346C01A092846D8012017F0FDFC2800C3
:10321000FEF750F804005046FDF746FF060022284E
:10322000D2D1224B1B882B41DB07E5D5A742E3D93E
:103230000020DAE73A0003992800FEF783F84C46AD
:103240000134FF3420212000FDF758FF17F0EAFA7F
:10325000050002E0012017F0D7FC2000FDF724FF55
:10326000002807D017F0DEFA401B0428F2D90D2001
:103270004042BAE73800B8E701204042B5E70520F0
:103280004042B2E70E204042AFE70C204042ACE79C
:103290000B204042A9E70020A7E7C04610350210E6
:1032A000D4240000E4370210D5240000867F0220D9
:1032B000F0B5D646474680B587B0050002911400A8
:1032C0000393072800D94AE1002A00D14AE1870088
:1032D0000137F800FDF7E8FE8246A54B6A00D35A95
:1032E000002B1CD0002607205346184003285CD032
:1032F000042800D1A1E0022800D0FAE09C4B6A002B
:10330000D35A002B12D09A4B6A00D65AA64200D943
:103310002600320002992800FEF772F8F0E028003B
:10332000FDF7ECFF061EDED100200FE1082204A904
:103330002800FEF765F8FE000136FF364021300018
:10334000FDF7DCFE17F06EFA824602E0012017F06E
:103350005BFC3000FDF7A8FE002808D017F062FAE9
:103360005346C01A0428F1D90D204042EEE004ABC8
:103370001A7803990A705A784A709A788A70DA78BB
:10338000CA701A790E990A801202597952180E9948
:103390000A809A797649680042521202DB79D21883
:1033A0000A52744B80225A55ADE7714B6A00D35ACA
:1033B000002B0BD06E4B6A00D65AA64200D92600CD
:1033C000320002992800FEF71BF899E0062204A9B2
:1033D0002800FEF715F8FE000136FF3640213000C8
:1033E000FDF78CFE17F01EFA824602E0012017F06E
:1033F0000BFC3000FDF758FE002808D017F012FA39
:103400005346C01A0428F1D90D2040429EE004AA78
:10341000137803990B7053784B7093788B70D37833
:10342000CB7013795249680043521B0252799B18A2
:103430000B52504B80225A55BCE74D4B6A00D35A71
:10344000002B0BD04A4B6A00D65AA64200D9260060
:10345000320002992800FDF7D3FF51E0022204A9AF
:103460002800FDF7CDFFFB000133FF3398464021D4
:103470001800FDF743FE17F0D5F9060002E0012021
:1034800017F0C2FB4046FDF70FFE002807D017F0EB
:10349000C9F9801B0428F2D90D20404256E004A847
:1034A0000378334A69008B521B0240781B189BB289
:1034B000023B9BB28B52304A934203D82D4B802261
:1034C0005A55BFE72800FFF7FFF9002101200AF055
:1034D00005F8274B6A00D35A284A294C29480093FB
:1034E0002B00210004F084FB200007F0EDFB2648B0
:1034F0002CE031002800FDF7F3FF1D4B6A00D65287
:10350000FC000134FF3440212000FDF7F7FD17F0E7
:1035100089F907002000FDF7C7FD002808D017F043
:1035200081F9C01B042820D8012017F06DFBF1E7BA
:103530000F4A69008B5A9B1B9BB28B52002B0AD0FF
:103540000C4A535D01210B435355300007B0C0BCFA
:10355000BA46B046F0BD074B00225A55F5E70120A8
:103560004042F3E70E204042F0E70D204042EDE7F5
:10357000BC7E0220B47E0220EA0500001035021055
:10358000D72400002438021017FCFFFFF8B5040010
:103590000D001600072800D9B4E0072900D9A0E0E3
:1035A0008B005D4AD3589F4680000130C000B02395
:1035B0005B019C4660443178FDF7A0FD0120F8BD19
:1035C00080000130C000A8235B019C466044317834
:1035D000FDF794FD0120F2E784000134E40090231C
:1035E0005B01E0183188090AFDF788FD98235B012B
:1035F000E0183178FDF782FD0120E0E7800001301E
:10360000C000C0231B019C46604404223100FDF72A
:10361000D1FD0120D3E73188FDF739FE0120CEE747
:1036200086000136F000FDF73FFD0F230340012B1C
:103630006BD1F600BC239B01F018FDF735FD002887
:1036400016D1771CFF3722213800FDF757FD3800CF
:10365000FDF72AFD002830D080239B00F5182800B4
:10366000FDF722FD000713D4012017F0CDFAEEE795
:103670000021012009F032FF284A294C2948210065
:1036800004F0B6FA200007F01FFB0220404296E744
:1036900008212800FDF732FD0021012009F01EFF5E
:1036A0001E4A214D21482300290004F0A1FA2800D8
:1036B00007F00AFB0D20404281E701307FE78400DC
:1036C0000134E000FDF7F0FC0F230340012B1FD174
:1036D000E400BC239B01E0183178FDF70FFD0120C9
:1036E0006DE70021012009F0F9FE0C4A104C114849
:1036F0002B00210004F07CFA200007F0E5FA0A20F4
:1037000040425CE70120404259E70520404256E72D
:103710000520404253E7C046ACCA021010350210E3
:10372000DA24000068380210DB240000C4380210DC
:10373000DC2400000C39021082B000226B46D91D37
:1037400006E08369DB06FCD403680B7001320131AB
:10375000002AF6D06B46D87902B0704702230022C7
:1037600003E0C15C8A18D2B20133162BF9DDC07DAB
:10377000801A43425841C0B27047552805D00F23E4
:103780009843F02803D0002070470120FCE7012077
:10379000FAE7000002781F4B1A7083781B04C27886
:1037A00012021343027913431B4A136043791B042B
:1037B000827912021343C2791343184A1360037AC1
:1037C0001B04427A12021343827A1343144A136091
:1037D000C37A1B04027B12021343427B1343114A38
:1037E0001360837B1B04C27B12021343027C1343CE
:1037F0000D4A1360437C1B04827C12021343C27C7B
:1038000013430A4A1360427D837D12021343084A20
:1038100013807047C60C00204C3A0220483A022020
:103820003C3A0220383A0220443A0220403A022030
:10383000747F0220F8B50400072855D86E4B1B781A
:1038400002261E401B0703D46C4B1D68002D53D16C
:103850006B4B00221A606B4B1D68002D68D16A4BC0
:1038600000221A60664B1D680021281C10F0E8F841
:10387000002805D06549281C10F0EAF8002802D07D
:103880005F4B00221A60604B1D680021281C10F05D
:10389000D7F8002805D05E49281C10F0D9F8002878
:1038A00002D0594B00221A60002E03D1594B1D68DB
:1038B000002D57D1524B544A1168186810F079F80E
:1038C000554B1860544B1C680021201C10F0B8F8B0
:1038D000002805D05149201C10F0BAF8002802D069
:1038E0004D4B00221A60F8BD4B4A00231360464A34
:1038F0001360434A1360F6E7494B186810F0ADF8BF
:10390000071C280010F0A9F8011C381C10F03BF827
:10391000444DE7003B199B00595910F04AF83F19F4
:10392000BF00ED19A96810F024F8354B186092E734
:103930003D4B186810F091F8071C280010F08DF826
:10394000011C381C10F01FF8364DE3001B199B00BA
:10395000ED18696810F02DF8E96810F00AF82A4BA4
:1039600018607FE7314B186810F077F8061C2800C4
:1039700010F073F8011C301C10F005F8294DE6001A
:1039800033199B00595910F014F83619B600AD19C7
:10399000696810F00EF8041C1F4B1860184B18686B
:1039A000194B196810F005F8051C0021201C10F0B7
:1039B00039F800281CD11949201C10F049F80028BA
:1039C00016D11B49281C10F043F8002800D179E7D4
:1039D000291C201C0FF0CDFF40004008291C0FF0CF
:1039E000D2FFFC21890510F033F8002800D169E7E7
:1039F000094B1D6066E7C046C60C0020483A02200D
:103A00008C4B0220383A0220644B02200000C8434D
:103A10000000C842403A0220884B022000401C4768
:103A20004C3A0220FC4202203C3A0220443A022056
:103A3000CDCCCC3D70B50024002601E00134E4B2C9
:103A4000072C14D80B4BA200D5580021281C0FF0CE
:103A5000F7FF0028F2D00849281C0FF0E3FF0028E8
:103A6000ECD0291C301C0FF089FF061CE6E7301C47
:103A700070BDC046704202200000C842044B0022C4
:103A8000DA731A745A619A61DA611A627047C04631
:103A90008472022070B507220240012108405308B9
:103AA0000B4092080D001540114204D001225040F5
:103AB000C0B25340DBB25C000443E4B2AD002C431F
:103AC00008212143C9B20A220F2009F0C7FD0028AE
:103AD0000FD0012017F098F80823210099430A22FB
:103AE0000F2009F0BBFD002811D0012017F08CF841
:103AF00070BD0021013009F0F1FC0C4A0C4C0D485E
:103B0000210004F075F8200007F0DEF8F0E700214E
:103B1000013009F0E3FC054A074C0848210004F095
:103B200067F8200007F0D0F8E2E7C04648390210F5
:103B3000013400005439021002340000943902109C
:103B4000F8B50EF003FB06000F00002409E00EF0AC
:103B5000FDFA801BB941002916D112D0012017F0BF
:103B600053F87F2C10D81A4B9B69DB06EFD47F2CBF
:103B7000EDD8651C1648FFF7DFFD164B18552C00D5
:103B8000F1E7154B9842E9D9172C1FD9002500E021
:103B900035002300183BAB4216D30E4B585D6E1C0C
:103BA0009F5DFFF7EAFD0028F2D05A2FF0D10949B6
:103BB00069180A4D1822280010F066F82800FFF74F
:103BC000CDFD0028E4D000E00020F8BD0020FCE797
:103BD00000400340DC6D022090D00300F04402203E
:103BE000F0B5DE4657464E464546E0B589B0DD4B5A
:103BF0001C7B997B1D7C072C00D99CE04B08AB42B9
:103C000000DDA4E0D84AE3001B199B009F58002167
:103C1000381C0FF01DFF002800D1A2E0D24BE200BB
:103C2000121992009B189A6892465B689846002188
:103C3000181C0FF00DFF002800D194E0CA4BE200E1
:103C4000121992009B18DB689946C64E70690FF0F6
:103C500004FF834628000FF005FF051C011C584691
:103C60000FF091FE0790B0690FF0F7FE291C0FF0DE
:103C70008AFE8346F0690FF0F0FE291C0FF083FEE8
:103C80000690306A0FF0E9FE291C0FF07CFE051C3F
:103C90003378012B6BD0022B00D1F1E0032B00D045
:103CA00045E1B04B9E680021301C0FF0C1FE00289A
:103CB00000D025E1002106980FF0BAFE002800D0C0
:103CC0001EE10021281C0FF0B3FE002800D017E1F0
:103CD000291C06980FF057FE00210FF0A9FE0028BE
:103CE00000D01CE1311C48460FF048FE8046069982
:103CF000281C0FF048FE011C40460FF05AFE80467B
:103D00009A4D48460FF0D0FE04900591301C0FF0FC
:103D1000CBFE0290039140460FF0C6FE0090019149
:103D200022002900924803F0F9FE012306930026A1
:103D300000239B464FE00021012009F0CFFB8B4A76
:103D40008C4823008C4903F053FF00208BE0874A06
:103D50008A48019100952300894903F049FF00201A
:103D600081E0884F5AE7FE239B05984666E70021CD
:103D700058460FF06DFE002800D17BE059460798A9
:103D80000FF001FE391C0FF014FE82460021281CA2
:103D90000FF05EFE002800D16FE0291C06980FF09E
:103DA000F2FD41460FF005FE8146704D764E4846C5
:103DB0000FF07AFE0290039150460FF075FE0090CE
:103DC000019122002900300003F0A8FE0023069391
:103DD000002601339B46644DE3001A1992005751A7
:103DE000AD185346AB6043466B604B46EB6065498C
:103DF000381C0FF0C8FD071C64490FF0DAFD28617C
:103E00006349381C0FF0D5FD6861624BAB615B46BE
:103E10001E4300D096E0069B002B00D092E0297F45
:103E2000514BE200121992009B1819775B46002B48
:103E300000D089E04C4BE200121992009B18597F88
:103E40004948E3001A1992008218517711002000A6
:103E500009F0ACFF002800D078E044494E48220029
:103E600003F05CFE012009B0F0BCBB46B246A94697
:103E7000A046F0BD00239A4688E70023994694E7C0
:103E8000384B5D680021281C0FF0E2FD00282FD080
:103E90000021079F381C0FF0DBFD002828D00021EF
:103EA00058460FF0D5FD002822D0291C50460FF0AF
:103EB00065FD061C391C58460FF065FD011C301CC1
:103EC0000FF077FD071C294E281C0FF0EDFD029026
:103ED0000391381C0FF0E8FD0090019122003100A1
:103EE0002E4803F01BFE0023069301269B4672E733
:103EF0001E4A2B4823002B4903F07AFE0020B2E72C
:103F00001A4F294D301C0FF0CFFD00900191230076
:103F10003A002649280003F06BFE0020A3E7134A6D
:103F200023482300234903F063FE00209BE7002180
:103F3000012009F0D3FA0D4A1F48204903F058FE2A
:103F4000002090E7CA216BE7CA2179E70021012010
:103F500009F0C4FA054A1A4823001A4903F048FE3A
:103F6000002080E784720220FC42022048390210BF
:103F70009C3B0210D439021005340000083A0210AC
:103F800006320000D7A3F03F503A0210007EE54908
:103F900000007A446F12833A583C0210903A0210A3
:103FA000D03A021007320000103B02100932000024
:103FB0005C3B02100A320000E83B02100B340000A8
:103FC000183C02100834000030B583B0324B5B78E7
:103FD000002B22D0304B1B7B83421ED12E4BDA7B31
:103FE0000132D2B2DA7358692C490968091859614B
:103FF00098692B49096809189961D869294909689C
:104000000918D961186A2849096809181962197CC0
:10401000013119749B7B9A4201D203B030BDFFF786
:10402000DFFD002815D01C4B24215A5C01325A5464
:10403000194A137B0133DBB2527B93420FD3164BE9
:104040001B78012B15D0022B22D0032B22D0174A2C
:1040500010E0114B25215A5C01325A54E8E70E4C0E
:104060002373FFF70BFD227B1149124803F056FD25
:10407000D3E7114A084C2423E35C2521655C0C49F5
:104080000E48009503F04AFD002323706370C4E7D7
:104090000B4AEFE70B4AEDE7847202204C3A02200C
:1040A000483A02203C3A0220383A0220A03C021052
:1040B00048390210B03C0210903C0210D83C02106B
:1040C000983C0210A83C021070B5040007280DD8D7
:1040D000254B1868642115F0DDFB012817D0234A11
:1040E0002348244903F084FD00250EE0002101202F
:1040F00009F0F4F91D4A204D20482300290003F05F
:1041000077FD280006F0E0FD0025280070BD2000A6
:10411000FFF7C0FC02E01A48FFF70EFB184A92694D
:10412000D206F8D53C2016F06FFDFFF709FD051EFD
:104130000ED1144A00231360134A1360134A13600C
:10414000094B186800230022002115F079F9DCE7FB
:104150000F48FFF71FFB2000FFF76CFB0D4B1C7097
:104160002000FFF731FFEBE7D47E02204839021030
:104170003C3D02100432000004340000143D0210E3
:1041800000400340884B0220644B02208C4B0220ED
:10419000F0440220937F0220072803D8024B8000BE
:1041A000C05870470020FCE71C440220F0B5DE46F2
:1041B0004F4680B583B007000E00072804D903B02E
:1041C000C0BCBB46B146F0BD0DF0C0FF04000D0001
:1041D000002E2DD01B4BFA009B181A685B6811004B
:1041E00019431FD020002900801A99410122524210
:1041F000D31712184B41002B14D100920193019B4D
:10420000002B03D1104B009A9A420BD80F4EBB00E3
:104210009B469B5999460E4A00230EF0A9FC484440
:104220005B469851074BFF00DB191C605D60C6E7D9
:10423000044AFB00D218074B186859681060516097
:10424000BDE7C046383500207E9698001C44022009
:1042500040420F00E03A031030B583B01C4B1C788D
:104260006B46DD1D00232B702900200008F07CFF29
:104270002978184B19552000FFF798FF2000FFF709
:104280008BFF154BA20098502000FFF71DFF002860
:104290000CD0124AA300124909689950114A1249D8
:1042A00009689950114A124909689950084A1378C7
:1042B000013307210B401370072C01D003B030BD30
:1042C000FFF7B8FB0B4B18600B4B01221A70F5E798
:1042D000987F0220B0420220B8420220D842022039
:1042E0008C4B022070420220644B0220904202203C
:1042F000884B0220807A0220A07F022010B5072878
:1043000010D80B4B8000C4580021201C0FF098FBE4
:1043100000280AD00749201C0FF084FB002802D196
:10432000002400E00024201C10BD0024FBE7C04650
:10433000D84202200000C84310B5072810D80B4B04
:104340008000C4580021201C0FF07AFB00280AD0FE
:104350000749201C0FF066FB002802D1002400E072
:104360000024201C10BD0024FBE7C0467042022040
:104370000000C84270B50400072817D8FFF7BEFF39
:10438000051C2000FFF7D8FF011C281C0FF011FBB3
:10439000041C00210FF054FB00280AD00649201C01
:1043A0000FF040FB002802D1002400E00024201C74
:1043B00070BD0024FBE7C04600401C47072803D817
:1043C000024B8000C05870470020FCE7B842022032
:1043D000072802D8024B185C70470020FCE7C04653
:1043E000B0420220014B18687047C046807A022014
:1043F000044B1B78D8B2002B00D17047014B002230
:104400001A70FAE7A07F022030B58BB043494448C8
:1044100003F084FB002428E0424B019333E0FE23A9
:104420009B05029335E000230493059800210FF0CB
:104430000FFB00284AD0069800210FF009FB002846
:1044400047D0079800210FF003FB002844D0364BDB
:10445000E1000919890001AA5B1823CA23C323CAF2
:1044600023C323CA23C30134E4B2072C50D801A9C3
:10447000200009F0C5FC002831D1019800210FF07F
:10448000E7FA0028C8D0029800210FF0E1FA0028CE
:10449000C5D0039D2549281C0FF0DAFA002805D065
:1044A0002349281C0FF0BEFA002801D100230393F2
:1044B000049D1E49281C0FF0CBFA0028B3D01C49DC
:1044C000281C0FF0AFFA0028AFD1ACE7194B0593C9
:1044D000B1E7174B0693B4E7174B0793B7E7124AB8
:1044E000E1000B199B000F4898500B199B00D31843
:1044F000FE208005586000209860D8600D48186143
:104500000B4858610C489861FF2018775877AAE744
:1045100002490A4803F002FB0BB030BD48390210D3
:10452000703D0210D7A3F03FFC42022000007AC485
:1045300000007A44007EE5496F12833AA03D0210E4
:1045400070B52849284803F0E9FA012015F02CF845
:10455000264B1860002815D09621254C49012000D3
:104560000DF0E6FE022101200CF098FD0221002052
:104570000CF094FD01230122082120000DF0AEFE75
:10458000002326E00021013008F0A8FF154A194C4D
:104590001948210003F02CFB200006F095FB20E0D9
:1045A000164A980000268650154AD9005218154917
:1045B0000C684D6814605560134AD65413490022A4
:1045C00042501349425013494250134A8650013316
:1045D000DBB2072BE4D9FFF717FF02490F4803F0BE
:1045E0009DFA70BD48390210C83D0210D47E0220E9
:1045F0000040034002340000FC3D02101C44022035
:1046000038350020E03A0310B0420220D8420220A0
:104610007042022090420220B84202202C3E02103A
:1046200010B5144B5B78002B1DD1124B01221A7070
:104630005A7000225A609A6000221A730821597336
:10464000023199731A315A5401315A54FFF716FA4C
:10465000094C0A48210003F061FA0948210003F0DF
:104660005DFA012010BD0449064803F0C1FA00209C
:10467000F8E7C0468472022048390210883E0210D2
:10468000CC3E0210503E021070B582B0041C0021D6
:104690000FF0CEF9002828D1204B5B78002B36D1C3
:1046A0001E4B02221A70013A5A705C6000229A6016
:1046B00000221A7308215973023199731A315A541E
:1046C00001315A54FFF7DAF9201C0FF0EDF902001E
:1046D0000B00134C1348210003F020FA124821006C
:1046E00003F01CFA012002B070BD0021012008F087
:1046F000F5FE0B4E0D4D201C0FF0D6F900900191E8
:1047000032000B49280003F073FA0020EBE704495C
:10471000084803F06DFA0020E5E7C04684720220E5
:1047200048390210303F02107C3F0210FC3E02105C
:104730000A340000503E0210F0B583B004000D1C96
:10474000072831D80021281C0FF072F9002837D132
:10475000274B5B78002B45D1254B03221A70023A78
:104760005A7000225A609D601C73621C5A730A22A0
:104770009A73002224215A5401315A54FFF77EF9CA
:104780001C4F1D4E281C0FF08FF900900191220044
:104790003900300003F0C2F918482200390003F054
:1047A000BDF9012003B0F0BD0021012008F096FE04
:1047B000104A13482300134903F01AFA0020F1E7C6
:1047C0000021012008F08AFE0A4E0F4C281C0FF031
:1047D0006BF90090019132000C49200003F008FAB7
:1047E0000020DFE703490A4803F002FA0020D9E776
:1047F0008472022048390210304002107C400210BE
:10480000BC3F02100C340000FC3F02100D340000CD
:10481000503E0210F0B5D6464F4680B585B0040034
:10482000072804D905B0C0BCBA46B146F0BD2C4932
:104830002C48220003F072F92B4AE3001919890071
:10484000885855186B6899460FF02EF906000F002E
:1048500048460FF029F90090019132003B002348AF
:1048600003F05CF9A868EB6899460FF01DF90600A3
:104870000F0048460FF018F90090019132003B00FC
:104880001B4803F04BF928696B699946AB699A4656
:104890000FF00AF906000F0050460FF005F90290DC
:1048A000039148460FF000F90090019132003B005F
:1048B000104803F033F92B7FCA2B0DD00E490A4B59
:1048C000E200121992009B185B7FCA2B06D00A4A9D
:1048D0000A4803F023F9A5E70949F0E7084AF7E792
:1048E00048390210C0400210FC420220D840021099
:1048F000EC40021004410210BC400210244102109E
:10490000B84002100300303BDBB2092B0BD9030087
:10491000413BDBB2052B08D90300613BDBB2052B21
:1049200005D8573870473038FCE73738FAE70120A8
:104930004042F7E7084BDA6802601A6942605A6938
:1049400082609A69C260DA6902611A6A42615A6ACF
:1049500082619B6AC36170470080054070B588B072
:1049600004000B00144A2021684610F0ABFA694697
:1049700020001AF07DF8041E15D068461AF0EEF9F2
:1049800026182621300019F0CFFD00280ED0851BF7
:104990007F2D00D97F25094C2A00310020000FF01F
:1049A00073F900236355200008B070BD30001AF081
:1049B000D5F93018EBE7C04644410210F07E0220E2
:1049C000F8B50500060007E020232B7001360135FD
:1049D00002E001362C7001353478002C13D02B2CDA
:1049E000F2D0252CF5D17078FFF78CFF071EF0DB95
:1049F000B078FFF787FF0028EBDB3F0107432F70FC
:104A000003360135E8E700232B70F8BD10B586B0FA
:104A1000041E14D01722002168460FF02FF900223F
:104A2000032A1BDCA11888796B469B189871887B38
:104A30009873887A9872897C99740132F0E7002122
:104A4000012008F04BFD144A144C1548210003F0D6
:104A5000CFF8200006F038F9002415E0002303E029
:104A6000E15C6A46D1540133052BF9DDA37D013B9E
:104A70005A4253416C46A3756846FCF7CDFD684623
:104A8000FCF7FCFD041E02D1200006B010BD0A2177
:104A9000012008F09FFDF7E7484102100174000073
:104AA0005441021010B50F4B1A680F4B9A4203D1B4
:104AB0000C4B9B88012B09D00A4C3022002120008E
:104AC0000FF0DCF8084B23600123A38005488368BE
:104AD00001338360054B9B68C3601030FFF72AFFEA
:104AE00010BDC046C07F022050414E53008005409B
:104AF00070B582B0214B1A68214B9A4203D11F4BEB
:104B00009B88012B0BD01F4C200003F007F81E4898
:104B100003F004F8200003F001F802B070BD194D55
:104B2000280002F0FBFF194802F0F8FF134CA168BF
:104B3000E268174802F0F2FF164802F0EFFF216921
:104B40006269A369E6691448009602F0E7FF216AEA
:104B5000626AA36AE66A1148009602F0DFFF280045
:104B600002F0DCFF0023E36005E0044A191D890020
:104B7000002088500133072BF7D9CEE7C07F0220F1
:104B800050414E5384410210C0410210F4410210C2
:104B900028420210544202107C420210BC42021011
:104BA00010B50A4A13680133136015F03BFEFA2270
:104BB0009200002300210EF0BFFEFA229200002393
:104BC0000DF0EEFF024B186010BDC0463C470220BE
:104BD00040470220014B18687047C0463C470220FE
:104BE000014B18687047C0464047022010B5064C7C
:104BF000064BE36073462361606116F0EDFBA06134
:104C0000034808F0E7F9FEE700800540F200EFBE38
:104C1000FC42021010B5084C084BE3607346236158
:104C200016F0F0FB6061002016F0D6FBA06104488E
:104C300008F0D0F9FEE7C04600800540F300EFBE63
:104C4000FC42021010B5054B054ADA6072461A6143
:104C50005961044808F0BEF9FEE7C04600800540EF
:104C6000F400EFBEFC42021070B5060000250120E2
:104C700040420AE0012303405B424008074C2340C6
:104C800058400132072AF5DD01358D4203D2735DAC
:104C900058400022F6E7C04370BDC0462083B8EDFF
:104CA00070B5104B1A68104B9A4215D10D4B9B886A
:104CB000022B13D10B4BDB889C2B11D1094DAC6817
:104CC0000023AB609C212800FFF7CEFFAC60201AC8
:104CD00043425841C0B200E0002070BD0020FCE714
:104CE0000020FAE7F07F0220474C524310B5044CF5
:104CF0000023A3609C212000FFF7B6FFA06010BD39
:104D0000F07F022010B5002304E00F4A9A1800211A
:104D1000117001339B2BF8D90B4B0C4A1A600222FD
:104D20009A809A32DA8000221A731A6334215A5414
:104D30009A63DA634C315A5401315A5403315A544C
:104D4000FFF7D4FF10BDC046F07F0220474C52430E
:104D500070B50400FFF7A4FF00281DD0114BD86BDD
:104D6000002802D0A0421AD8201A0E4AD463802507
:104D7000535D0F210B401C001034A400A0500133E0
:104D8000194051558123D35C0F2B02D80133812167
:104D90005354FFF7ABFF70BDFFF7B4FFDEE7002011
:104DA000E3E7C046F07F022010B50400FFF778FF6C
:104DB000002803D0002C15D0002207E0FFF7A2FF47
:104DC000F8E7094B9B18843319700132A15C002964
:104DD00001D0162AF5D9044B9B18843300221A708F
:104DE000FFF784FF10BDC046F07F022083001B1830
:104DF0009B00094884466344100000290AD010042F
:104E0000064A196848401040802252019446634483
:104E100018607047024AF4E70C0005400000FFFFED
:104E2000FFFF0000D0231B06802252039A617047C7
:104E3000D0231B06802252035A61704710B504002C
:104E4000054B1B78834200D110BD0A21012008F0D8
:104E500083FB014B1C70F7E7B67F022010B508F00A
:104E600087FA10BD10B5322008F0D2FA10BD10B587
:104E70003221002008F032FB3221002008F0AAFB8A
:104E80003221012008F068FB10BD000010B5084A6F
:104E900000231370074A1370074A1360137153718C
:104EA0000120FFF7CBFF0549054802F037FE10BD92
:104EB000B37F0220B67F0220C8720220084302108E
:104EC00014430210014B1878C0B27047B37F022020
:104ED00010B51C4B1B78012B25D01B491B4802F039
:104EE0001DFEFFF7BBFFFFF7BDFFFFF7C0FFFFF79A
:104EF00099FF0DF02BF900291FD0FA229200002310
:104F00000DF04EFE124B186000221A715A71114BAF
:104F100001321A700B4B1A700B490F4802F0FEFD5C
:104F200002F0CCFE10BD084A0C4C0D48210002F0E6
:104F30005FFE200005F0DAFEF4E7FA2189000DF0AB
:104F4000F1FDDFE7B37F0220084302107443021033
:104F5000C8720220B67F022098430210106200003F
:104F60004843021010B51A4B1B78002B26D002F0D4
:104F7000B1FE184C1848210002F0D0FDFFF758FF91
:104F80000120FFF75BFF0A21002008F023FB104BF4
:104F900000221A701148210002F0C0FD104B0622B9
:104FA0001A60104B823210499950083ADA670F4B59
:104FB0001A68012393430E4A136010BD054A0D4C35
:104FC0000D48210002F014FE200005F08FFEF4E7EA
:104FD000B37F022008430210E44302100844021089
:104FE0001C74022000000540FFFF0000780005400F
:104FF0007810054011620000B843021010B50DF0A2
:10500000A5F8002919D0FA22920000230DF0C8FD5E
:1050100004003C4B1B78012B15D03B4B00221A603F
:105020003A4B01321A703A4B1B78002B33D00022D6
:1050300000210620FFF7DAFE2DE0FA2189000DF0AD
:1050400071FD0400E5E7304B1B68002B24D0E31A08
:10505000FA229200934228D22D4B1B78002B2FD09E
:105060002C4B1B68002B01D12A4B1C60294B186864
:10507000201AFA21C9000DF055FDFA239B00994230
:1050800037D20804401A19000DF04CFD82B20021FD
:105090000620FFF7ABFE10BD1B4B1C601B4B012213
:1050A0001A700120FFF7CAFED6E7174B1C60174B9A
:1050B000187801225040C0B21870FFF7BFFECBE74E
:1050C00004211C200BF0EAFF134B06221A60134B3D
:1050D000823213499950083ADA67124B1A68012351
:1050E00019009143104A1160094A1370094B1C6062
:1050F000B6E70B04C91A0D4BC818FA2189000DF048
:1051000011FDC3E7B37F0220B8720220C70C002054
:10511000B57F02207C720220187402200000054036
:10512000FFFF0000780005407810054030F8CF07F9
:1051300010B50C00034904220EF0A6FD04232370D1
:1051400010BDC0464044021010B50C00034919229E
:105150000EF09AFD1923237010BDC046484402107A
:1051600010B50C00034918220EF08EFD1823237091
:1051700010BDC04664440210F8B506000D0009F0E9
:10518000C3FE040019F0EAFDC7B2FF22024021006D
:1051900030000EF079FD2F70F8BD704770B5AEB0DD
:1051A00004000D000B49582218A80EF06DFD0A4EA0
:1051B00000231793169301331593542219A96846B7
:1051C0000EF062FD189B320029002000FDF770FAF6
:1051D0002EB070BDDCCA0210D4CA021030B587B040
:1051E000041E05D005F05CFE00280FD007B030BDCE
:1051F0000021012008F072F9094A0A4C0A482100EE
:1052000002F0F6FC200005F05FFDEFE7684609F0CC
:1052100023FB1722694620000EF036FDE6E7C04664
:1052200080440210712400008C44021030B585B017
:105230000B784C788D78C978044A029101950094D6
:1052400010210FF03FFEC0B205B030BDC0440210C7
:10525000F0B587B00B784C788D78CE780F79497996
:10526000054A0491039702960195009412210FF0CC
:1052700029FE112007B0F0BDCC44021030B587B034
:1052800005000C006846FFF7A9FF6B46991D280032
:10529000FFF7CCFF207007B030BD30B587B00500F8
:1052A0000C006846FFF79AFF0A2169442800FFF7BF
:1052B000BDFF207007B030BD30B587B005000C00D1
:1052C0006846FFF78BFF0E2169442800FFF7AEFF09
:1052D000207007B030BD30B587B005000C006846BF
:1052E000FFF77CFF122169442800FFF79FFF207021
:1052F00007B030BD70B586B005000C006846FFF7FA
:105300006DFF69462800FFF7A3FF207006B070BD4F
:1053100030B583B00D001400002301930138C0B2F2
:1053200007280AD9042201A928000EF0ADFC002CA0
:1053300001D00423237003B030BD6B46D91C002379
:105340000B7008F049F80028ECD06B4603331B784B
:105350000193E7E770B505000E004B1E9941C9B2F5
:105360000138C0B2072805D8002208F03CF8002810
:1053700006D070BD07482A00074902F0CFFBF8E7C6
:10538000002E00D00126054833002A00044902F00F
:10539000C5FBEEE7EC440210812400002445021016
:1053A0008224000010B50A0001000120FFF7B0FFC1
:1053B00010BD10B50A0001000220FFF7A9FF10BDC3
:1053C00010B50A0001000320FFF7A2FF10BD10B5C1
:1053D0000A0001000420FFF79BFF10BD10B50A0072
:1053E00001000520FFF794FF10BD10B50A00010071
:1053F0000620FFF78DFF10BD10B50A000100072041
:10540000FFF786FF10BD10B50A0001000820FFF766
:105410007FFF10BD00B583B0110000230193002A67
:1054200008D0002806DD0200042800D9042201A8C3
:105430000EF02AFC019B002B01D00123019301995E
:105440000120FFF787FF03B000BD00B583B0110056
:1054500000230193002A08D0002806DD020004285A
:1054600000D9042201A80EF00FFC019B002B01D0F3
:105470000123019301990220FFF76CFF03B000BDE7
:1054800000B583B0110000230193002A08D0002842
:1054900006DD0200042800D9042201A80EF0F4FB66
:1054A000019B002B01D00123019301990320FFF7F9
:1054B00051FF03B000BD00B583B01100002301937C
:1054C000002A08D0002806DD0200042800D90422A2
:1054D00001A80EF0D9FB019B002B01D00123019301
:1054E00001990420FFF736FF03B000BD00B583B07B
:1054F000110000230193002A08D0002806DD0200D5
:10550000042800D9042201A80EF0BEFB019B002B49
:1055100001D00123019301990520FFF71BFF03B080
:1055200000BD00B583B0110000230193002A08D00C
:10553000002806DD0200042800D9042201A80EF08C
:10554000A3FB019B002B01D00123019301990620AD
:10555000FFF700FF03B000BD00B583B011000023CA
:105560000193002A08D0002806DD0200042800D993
:10557000042201A80EF088FB019B002B01D001231F
:10558000019301990720FFF7E5FE03B000BD00B5C8
:1055900083B0110000230193002A08D0002806DD03
:1055A0000200042800D9042201A80EF06DFB019B23
:1055B000002B01D00123019301990820FFF7CAFEB7
:1055C00003B000BD10B582B00C000023019304228B
:1055D00001A90EF059FB0423237002B010BD000096
:1055E00000B583B0110000230193002A08D00028E1
:1055F00006DD0200042800D9042201A80EF044FBB5
:10560000019B002B01D103B000BDFA20400007F040
:10561000F1FE0028F7D18A210248890102F0E8FA58
:10562000F1E7C0467045021010B582B00C000023AF
:105630000193042201A90EF027FB0423237002B07A
:1056400010BD000000B583B0110000230193002AB3
:1056500008D0002806DD0200042800D9042201A891
:105660000EF012FB019B002B01D103B000BDFA200C
:10567000400007F0C6FE0028F7D10248024902F0B8
:10568000B7FAF2E7984502108122000070B58AB09F
:105690000E0015001C00694606F094FB002814D08B
:1056A0006A462423D35C002B0FD0019A3260029A01
:1056B0002A60039A2260049A0E990A60069A0F994A
:1056C0000A60059B109A13600AE000203060286091
:1056D00020600E9B18600F9B18600023109A1360C7
:1056E0000AB070BD70B58AB005000C0000230993A4
:1056F00008930793069305930023049304AB029346
:1057000005AB019306AB009307AB08AA09A90020DB
:10571000FFF7BCFF0998064E0EF0C6F90090019104
:105720003200102128000FF0CDFB20700AB070BDB0
:10573000C045021070B58AB005000C000023099323
:1057400008930793069305930023049304AB0293F5
:1057500005AB019306AB009307AB08AA09A900208B
:10576000FFF794FF0898064E0EF09EF90090019105
:105770003200102128000FF0A5FB20700AB070BD88
:10578000C845021070B58AB005000C0000230993CB
:1057900008930793069305930023049304AB0293A5
:1057A00005AB019306AB009307AB08AA09A900203B
:1057B000FFF76CFF0798064E0EF076F90090019106
:1057C0003200102128000FF07DFB20700AB070BD60
:1057D000D045021070B58AB005000C000023099373
:1057E00008930793069305930023049304AB029355
:1057F00005AB019306AB009307AB08AA09A90020EB
:10580000FFF744FF0698064E0EF04EF90090019106
:105810003200102128000FF055FB20700AB070BD37
:10582000C845021070B58AB005000C00002309932A
:1058300008930793069305930023049304AB029304
:1058400005AB019306AB009307AB08AA09A900209A
:10585000FFF71CFF0598064E0EF026F90090019107
:105860003200102128000FF02DFB20700AB070BD0F
:10587000C845021030B58BB005000C000023099319
:1058800008930793069305930023049304AB0293B4
:1058900005AB019306AB009307AB08AA09A900204A
:1058A000FFF7F4FE049B044A102128000FF00AFBC6
:1058B00020700BB030BDC046D845021070B58AB01C
:1058C00005000C00002309930893079306930593A2
:1058D0000023049304AB029305AB019306AB009342
:1058E00007AB08AA09A90120FFF7D0FE0998064EC8
:1058F0000EF0DAF8009001913200102128000FF02C
:10590000E1FA20700AB070BDC045021070B58AB0CF
:1059100005000C0000230993089307930693059351
:105920000023049304AB029305AB019306AB0093F1
:1059300007AB08AA09A90120FFF7A8FE0898064EA0
:105940000EF0B2F8009001913200102128000FF003
:10595000B9FA20700AB070BDC845021070B58AB09F
:1059600005000C0000230993089307930693059301
:105970000023049304AB029305AB019306AB0093A1
:1059800007AB08AA09A90120FFF780FE0798064E79
:105990000EF08AF8009001913200102128000FF0DB
:1059A00091FA20700AB070BDD045021070B58AB06F
:1059B00005000C00002309930893079306930593B1
:1059C0000023049304AB029305AB019306AB009351
:1059D00007AB08AA09A90120FFF758FE0698064E52
:1059E0000EF062F8009001913200102128000FF0B3
:1059F00069FA20700AB070BDC845021070B58AB04F
:105A000005000C0000230993089307930693059360
:105A10000023049304AB029305AB019306AB009300
:105A200007AB08AA09A90120FFF730FE0598064E2A
:105A30000EF03AF8009001913200102128000FF08A
:105A400041FA20700AB070BDC845021030B58BB065
:105A500005000C0000230993089307930693059310
:105A60000023049304AB029305AB019306AB0093B0
:105A700007AB08AA09A90120FFF708FE049B044A06
:105A8000102128000FF01EFA20700BB030BDC04668
:105A9000D845021070B58AB005000C0000230993A8
:105AA00008930793069305930023049304AB029392
:105AB00005AB019306AB009307AB08AA09A9022026
:105AC000FFF7E4FD0998064E0DF0EEFF00900191FE
:105AD0003200102128000FF0F5F920700AB070BDD7
