:020000041000EA
:1000000000B5324B212058609868022188439860DF
:10001000D860186158612E4B002199600221596106
:100020000121F02299502B49196001219960352056
:1000300000F044F80222904214D00621196600F024
:1000400034F8196E01211966002018661A6600F04E
:100050002CF8196E196E196E052000F02FF8012189
:100060000842F9D1002199601B49196000215960AB
:100070001A491B48016001219960EB211966A021F2
:10008000196600F012F800219960164914480160C1
:100090000121996001BC002800D000471248134993
:1000A000086003C880F30888084703B5996A0420EC
:1000B0000142FBD001200142F8D103BD02B5186610
:1000C0001866FFF7F2FF186E186E02BD00000240BE
:1000D000000000180000070000035F00212200005C
:1000E000F4000018222000A00001001008ED00E03C
:1000F00000000000000000000000000074B24E7A12
:1001000000200420F7010010CB010010CD010010E9
:10011000C9010010C9010010C9010010C901001077
:10012000C9010010C9010010C9010010D1C8011097
:10013000C9010010C901001005C9011079CA0110D8
:10014000C1010010C1010010C1010010C101001067
:10015000C1010010C1010010C1010010C101001057
:10016000C1010010C1010010C1010010C101001047
:10017000C1010010C1010010C1010010C101001037
:10018000C1010010C1010010C1010010C101001027
:10019000C1010010C1010010C1010010C101001017
:1001A000C1010010C1010010C1010010C101001007
:1001B000C1010010C1010010C1010010C1010010F7
:1001C000EFF30580103800BE00BE00BE00BE00BECA
:1001D00000BE00BEF2EB8871B4250410D8250410CF
:1001E0003802001090A31AE71E481F49086006C88D
:1001F00081F3088810471D480068002801D019487D
:10020000F3E70DA40ECC002902D000F012F8F9E7B4
:100210001749184A002000E001C19142FCD116495B
:100220008847164988471649884700BEFDE701C937
:1002300001C29A42FBD37047D8250410C0000020A9
:10024000083A0020205F0410000004200000042071
:10025000205F0410001004200010042000000000A3
:10026000704700000000000008ED00E0000000D032
:10027000083A0020C085022069960110D5020010BE
:1002800061960110F8B5C04606480749091A8B1057
:10029000C90FC91810B5491003D0044B002B00D06A
:1002A000984710BD083A0020083A002000000000DE
:1002B000054B10B5002B03D00449054800E000BFF2
:1002C000FFF7E2FF10BDC0460000000010740220DE
:1002D0004881021000B587B005F0A2FC184805ABB4
:1002E00004AA03A916F0F2F8002803D1154814490E
:1002F00014F028FD059A0499039816F00BF80022D3
:10030000114B11000093062015F070FEFA208000BA
:1003100015F0D6FB08F08CFE0C4808F0A5FE1FF087
:1003200009FA002101200FF0B9F8F8210848094A1C
:10033000490108F007FFF82040010CF025F9FEE71D
:10034000400D0300CC81021000C2EB0B488102106B
:100350008C8102108481021010B50D2014F08CFDE8
:10036000002201210D2014F05FFDD02480232406FB
:100370009B01A3620C2014F07FFD002201210C20C0
:1003800014F052FD80235B01A3620E2014F074FD73
:10039000002201210E2014F047FD8023DB01A3621F
:1003A0000EF068FD002800D110BD00200EF0F4FF13
:1003B000FAE7C046D0231B0658688004C00F704778
:1003C000D0231B065868C004C00F7047D0231B06FB
:1003D00058684004C00F704710B50EF04BFD002860
:1003E00000D110BD00200EF0D7FFFAE770B5040071
:1003F0000D00072818D80EF03DFD002807D0002278
:10040000290020000FF002F800281BD070BD002149
:1004100001300FF043F8124A1248134908F092FED7
:1004200011480CF0B1F8F1E7002101200FF036F887
:1004300023000B4A0D480E4908F084FE0C480CF0CE
:10044000A3F8E3E7002101300FF028F8044A094837
:10045000094908F077FE08480CF096F8D6E7C04640
:100460000082021044820210025400000C8202102A
:1004700001540000848202100354000070B50D0086
:10048000002831D00478002C0ED1072307340370E4
:100490000EF0F0FC00281AD00022290020000EF0F7
:1004A000B5FF00282DD070BD013CE4B20470072CCC
:1004B000EED9002101200EF0F1FF2300174A184861
:1004C000184908F03FFE17480CF05EF8EBE70021F2
:1004D00001300EF0E3FF114A1348144908F032FED0
:1004E00012480CF051F8DEE7002101300EF0D6FF83
:1004F0000A4A0F480D4908F025FE0C480CF044F854
:10050000D1E7002101300EF0C9FF044A09480A4929
:1005100008F018FE08480CF037F8C4E70082021013
:100520000C820210015400004482021002540000A8
:10053000C0820210848202100354000070B50D00C6
:10054000002831D00478072C12D00134E4B20470B2
:10055000072C10D9002101200EF0A0FF23001F4A14
:100560001F48204908F0EEFD1E480CF00DF80DE084
:100570000023002403700EF07DFC002807D0002229
:10058000290020000EF042FF00281AD070BD002183
:1005900001300EF083FF114A1348144908F0D2FDD0
:1005A00012480BF0F1FFF1E7002101300EF076FF69
:1005B0000A4A0F480F4908F0C5FD0E480BF0E4FF4A
:1005C000E4E7002101300EF069FF044A0A480949B6
:1005D00008F0B8FD07480BF0D7FFD7E700820210FC
:1005E0000C820210015400004482021002540000E8
:1005F00000830210035400008482021010B5072803
:1006000000D910BD0EF006FDFBE7C04610B515F091
:1006100085FB002905D0FA220023920016F02EFB5C
:1006200010BDFA21890016F0EBFAF9E7F0B545465E
:10063000DE4657464E460024E0B5454D8BB00122BC
:100640002868524209A909941DF00AFB0128F6D135
:10065000099B00271A68DE6890461A7991469A69C4
:100660009246DA6993461A7D022A37D020229A5C94
:10067000059221229B5C002B1CD015F04FFB8019AA
:100680007941002902DA012032494042059B02905B
:100690000391009352465B46494640461CF0D4F80D
:1006A000099B18610022986800210223009420F021
:1006B000C9FBC4E715F032FB80197941002902DA41
:1006C000012024494042059B029003910093524629
:1006D0005B46494640461CF093F8E1E715F01EFBE7
:1006E00080197941002902DA01201A494042012388
:1006F000029003915246009349465B4640461CF0E7
:100700007FF8099BDA698242CBD11A6890461A7940
:1007100091461A6A92465A6ADB689346069300230A
:10072000079315F0FBFA069A079B80185941002998
:1007300002DA012007494042029003915B4652468B
:100740004946404600941CF07FF8099BA9E7C04643
:10075000F0790220FFFFFF7F10B5134C82B02368B1
:10076000002B01D002B010BD0022042110201CF08B
:100770002BFF2060002811D00C4BC02201930223D4
:100780000B4900930B48002392001EF0D5FC012872
:10079000E8D0DB21084805F011FBE3E7D821064843
:1007A00005F00CFBE8E7C046F07902201079022042
:1007B000948302102D06001044830210F0B54F46BA
:1007C0004646D646C0B590B0984618AB1F78274B22
:1007D00006009A461B680D009146002B2DD006ACF2
:1007E0002422002107A817F047FA0696257120F069
:1007F00037F94A460C924246199B0D9220220993E2
:100800000123A7540132A354237553460890223A7A
:10081000186805A9002305941CF090FF012821D138
:10082000012201210020524220F03CFA0A9810B027
:10083000E0BCBA46B146A846F0BD15F06FFA0023F9
:10084000199A12184B41002B02DA0122084B52422E
:1008500002920393290043464A46300000971BF05A
:10086000F3FFE4E701204042E1E7C046F0790220CF
:10087000FFFFFF7FF0B54F464646D646C0B592B063
:10088000884606A94B701A9B070089461E1E0A70EF
:1008900000D12C4E2C4BB24603251E0008AC336809
:1008A000002B31D02422002109A817F0E5F9434696
:1008B0002760237120F0D4F84A465346A2610222F1
:1008C000E3600023A060E2613068033A07A9237562
:1008D000238407941CF032FF012808D10122012152
:1008E0000020524220F0DEF92069022827D00120A2
:1008F000013D1FF0B7F8002DD1D1002012B0E0BCAF
:10090000BA46B146A846F0BD15F008FA534604931E
:1009100000230593049A059B80185941002902DAA7
:1009200001200A49404200230290039100934A4665
:100930004146380002331BF063FF0228D7D1012063
:10094000DCE7C04650C30000F0790220FFFFFF7FC4
:10095000F0B55746DE464E464546E0B595B00F0029
:1009600002A99B468C46172363449A461A705B463D
:100970000600002B38D01E9B002B6DD09846394BBB
:10098000B946032537001E000AAC3368002B33D06C
:100990004B462760237120F063F84346E360002351
:1009A000236102335A46237553462262A361012212
:1009B0000123A060E361636230680023524209A909
:1009C00009941CF0BBFE012808D10122012100205E
:1009D000524220F067F9206901283BD00120013DF7
:1009E0001FF040F8002DD0D1002015B0F0BCBB4660
:1009F000B246A946A046F0BD4346049300230593A2
:100A000015F08CF9049A059B80185941002925DBC3
:100A100001230290039152464946380000931BF08F
:100A2000EFFE0128DAD115F079F9049A059B8018B8
:100A30005941002902DA01200B494042002302906B
:100A4000039100935A464946380001331BF0FCFEDF
:100A50000128C3D10120C8E7044B8FE701200249D8
:100A60004042D5E7F0790220FFFFFF7F50C300002E
:100A7000F0B5DE4657464E464546E0B599B005907E
:100A80000891002B00D1C9E0160AD7B2239A002A98
:100A900000D17B4A22999346002950D103239846DE
:100AA000784BB9469A464346B0461E000EAD02202A
:100AB00021F010F8041E3AD0434603704B464370B1
:100AC00053461B68002B00D18DE0242200210FA883
:100AD00017F0D2F8059B2B60089B2B711FF0C0FF0D
:100AE0005B46EB60002302222B752B845346A860E3
:100AF000EA611868033A00230DA9AC610D951CF05A
:100B00001DFE012800D0B2E0012201210020524246
:100B100020F0C8F82F69200021F0C6F8022F00D17C
:100B2000A3E00120013E1EF09DFF002EBFD100205A
:100B300019B0F0BCBB46B246A946A046F0BD023192
:100B40008A4603218B464F49584689465146BB4643
:100B5000B246984607000E000EAD0992300020F014
:100B6000B9FF041EE3D0534603705B464146437011
:100B7000229A023017F086F84B461B68002B59D09A
:100B8000242200210FA817F077F8059B2B60089B03
:100B90002B711FF065FF099B0122EB6000232B7571
:100BA0002B844B46A860524218680DA90023AC6103
:100BB000EE610D951CF0C2FD01285CD101220121DE
:100BC0000020524220F06EF82B690693200021F09D
:100BD0006BF8069B9E4248D00120013F1EF042FF69
:100BE000002FBBD1A3E715F099F85B4606930023CD
:100BF0000793069A079B80185941002902DA0120C1
:100C00002149404200230290039100932200089959
:100C1000059802331BF0F4FD07007CE7229B002BB4
:100C200000D084E7239B160AD7B2002B00D1144BC7
:100C30009B4633E715F072F8099B0A9300230B9348
:100C40000A9A0B9B80185941002902DA01200E49AB
:100C50004042002302900391009322003300089940
:100C600005981BF0CDFD0690B0E7012060E720005D
:100C700021F01AF855E701235B420693A6E7C04628
:100C800050C30000F0790220FFFFFF7FF0B5574608
:100C90004E464546DE46E0B5884606001F0093B046
:100CA000002B00D17EE006AB52BA9B461A801D9BFA
:100CB000002B00D170E099463E4BBA460325370021
:100CC0001E0008AC3368002B34D0434627602371E4
:100CD0001FF0C6FE4B46E36000235A4623610233F1
:100CE0002375E3615346A261012223621C9BA0602D
:100CF000636230680023524207A907941CF01EFD6E
:100D0000012854D101220121002052421FF0CAFFC4
:100D100020691C9B83423DD00120013D1EF0A2FEB4
:100D2000002DCFD1002013B0F0BCBB46B246A9467F
:100D3000A046F0BD4B4604930023059314F0EEFF4C
:100D4000049A059B80185941002927DB0123029052
:100D5000039100935A464146380001331BF050FD81
:100D6000022824D114F0DAFF049A059B8018594117
:100D7000002902DA01201049404200230290039129
:100D8000009352461C9B414638001BF05DFD1C9BA6
:100D90008342C1D10120C6E7084B8CE701200649F8
:100DA0004042D3E71C9B002B00D17CE7BAE701202F
:100DB0004042AEE7F0790220FFFFFF7F50C3000002
:100DC0000523F0B5C356040085B0002B0BDB0125CD
:100DD000D0269D4036060520B5611EF043FE0A2050
:100DE00075611EF03FFE0121354D4942A0681DF09E
:100DF000B9F8217920230A2220680095FFF73AFDEF
:100E0000217920230B2220680095FFF733FD2179FB
:100E10000023002220680095FFF72CFD2179002394
:100E2000012220680095FFF725FD217900230C227F
:100E300020680095FFF71EFD0E26217900230D2264
:100E400020680F270095FFF715FD00236E446F44BF
:100E500033703B7021792068330014220095FFF72E
:100E600077FD002800D13070154B217920681522BC
:100E700000933B00FFF76CFD00281ED03B783278D2
:100E80000F4DA271E371A379217920681422DBB29E
:100E90000095FFF7EFFCE379217920681522DBB29A
:100EA0000095FFF7E7FC01230022237300210023B4
:100EB000A0681CF043FC05B0F0BD00233870DEE7ED
:100EC00088130000F0B54F464646D646C0B505002B
:100ED0000F00904682B0002862D00B00203B072B09
:100EE0005ED8534B534C1E689946A246002E2AD01A
:100EF000226890425ED0012E22D02269954261D0B4
:100F0000022E1DD0226A954261D0032E18D0226B8A
:100F1000954262D0042E13D0226C954263D0052EE8
:100F20000ED0226D954264D0062E09D0226E9542D5
:100F300065D0072E04D0226F954266D0082E6AD065
:100F40003601A3199A4610220021504616F094FE4D
:100F50004346A551A419637100230120A371277191
:100F6000E37123731CF070FDA060002859D0434644
:100F7000002B09DB404613F07FFF424601239340DC
:100F8000D0221206536253614B464A461B68013316
:100F90001360504602B0E0BCBA46B146A846F0BD68
:100FA0002B00254A25482649009708F05DF80023C4
:100FB0009A46EEE722798A429DD10023A2461B0180
:100FC0009A44E6E7227DBA429AD10123F6E7242229
:100FD000A25CBA4299D10223F0E73422A25CBA4261
:100FE00098D10323EAE74422A25CBA4297D10423B2
:100FF000E4E75422A25CBA4296D10523DEE76422DC
:10100000A25CBA4295D10623D8E77422A25C0723DA
:10101000BA4293D1D2E7084A0A480B4908F024F8AB
:10102000C5E73B00044A0948094908F01DF8BEE736
:10103000604D0220644D02209C830210A4830210A4
:1010400013540000E48302101454000010840210B2
:101050001554000070B50400160082B0002828D096
:10106000057B002D22D00F2923D8072301250B4013
:101070009D408068EDB207291DD9012149421CF02D
:1010800071FF002E2BD0E3792B43E371E379184AEB
:1010900021792068DBB200921522FFF7EBFB0500F7
:1010A000002300220021A0681CF048FB280002B0A9
:1010B00070BD0025FAE7012149421CF053FF002EC4
:1010C00011D0A3792B43A371A379094A2179206810
:1010D000DBB200921422FFF7CDFB0500E0E7E379D5
:1010E000AB43E371D2E7A379AB43A371ECE7C0460E
:1010F00088130000F0B5040085B0002827D0037BDA
:10110000002B24D00F2922D807252E008D42AD4177
:101110000E4001210F27494280681CF023FF002365
:101120006F443B706D420B4B123521792A002068C9
:1011300000933B00FFF70CFC002300220021A06875
:101140001CF0FCFA3B7801203341184000E00020FD
:1011500005B0F0BD88130000F0B5040017001D00B5
:1011600083B0002849D0067B002E13D08068002968
:1011700013D101391CF0F6FE2B00A27953403B40FD
:101180005A40A379934226D1002300220021A0686F
:101190001CF0D4FA300003B0F0BD012149421CF02C
:1011A000E1FE2B00E27953403B405A40E379934201
:1011B000EAD0E271E379124A21792068DBB2009229
:1011C0001522FFF757FB0023060000220021A0682C
:1011D0001CF0B4FADEE7A271A379094A21792068EC
:1011E000DBB200921422FFF745FB00230600002229
:1011F0000021A0681CF0A2FACCE70026CAE7C0468E
:101200008813000070B5D024802524066D041820B2
:1012100013F032FE65620520A56114F051FC656192
:101220000A2014F04DFC172220211948FFF74AFE2E
:10123000184C194E1822212130602000FFF742FE81
:101240000122164D2321286052422000FFF73AFE6A
:10125000134C20603068002804D0037B002B01D1A0
:10126000FFF7AEFD2868002804D0037B002B01D1D6
:10127000FFF7A6FD2068002804D0037B002B01D1D6
:10128000FFF79EFD0A2101200EF058F970BDC046FF
:101290002833002030330020EC4D0220E84D02209E
:1012A000F04D0220014B18687047C046EC4D0220FB
:1012B000014B18687047C046E84D0220014B186882
:1012C0007047C046F04D022010B50321022013F0F4
:1012D00091FD0321032013F08DFD00220121022046
:1012E00013F0A2FD00220121032013F09DFD02490D
:1012F000024807F0B9FE10BD488402105484021061
:10130000F0B557464E464546DE46E0B505000F00AF
:10131000160083B0002942D0002A38D0264B9B46C5
:101320003F239A4640239946244B984609E0361BB2
:1013300005206519B6B21EF095FBADB23F19002E1F
:1013400025D053464A462B40D31A1C1C9BB2B342AD
:1013500000D9341C4346A4B201932A003B0050211B
:1013600058460094FFF784FB0028E0D100210130AB
:101370000EF094F812482B00124A1349009407F01B
:10138000E1FE11480BF000F90120404200E000208E
:1013900003B0F0BCBB46B246A946A046F0BD002152
:1013A00001200EF07BF8074A0848094907F0CAFEF9
:1013B00007480BF0E9F8E7E72833002050C30000A6
:1013C000A884021048840210534400007484021060
:1013D0005244000070B506000C00150082B00029D0
:1013E00020D0174B0092019332000B00154850217A
:1013F000FFF74CFC002801D002B070BD0021013085
:101400000EF04CF83300104A10491148009507F0CF
:1014100099FE0E480BF0B8F82A00FF21200016F0C4
:101420002BFCE9E7002101200EF038F8064A0948B4
:10143000094907F087FE08480BF0A6F8DCE7C0462C
:1014400050C3000028330020488402105544000097
:1014500020850210EC84021054440000D023802226
:101460001B0692029A617047D02380221B069202CB
:101470005A617047054B10B51868002804D0002346
:10148000002200211CF05AF910BDC04670850220D0
:10149000044B10B51868002803D0012149421CF004
:1014A00061FD10BD7085022010B50F4B82B01B6826
:1014B000040098470D4B1B6898476946230C0B7036
:1014C000230A4B70FF238C7001ACCB702200FB3BD6
:1014D000074826F0E5FD074B1B689847064B1B683D
:1014E0009847E07802B010BD18440220244402203E
:1014F00000C00340204402201C44022030B5124B9F
:1015000083B01B6804000D009847104B2D061B6824
:101510009847FF2204231202224023432402210E73
:10152000DBB21B04114319432943042201910848EB
:1015300001A926F0ADFD074B1B689847064B1B68B9
:10154000984703B030BDC04618440220244402200E
:1015500000C00340204402201C44022070B5040057
:101560000D00160082B000291DD0002A1BD00F4BA1
:101570001B6898470E4B1B68984701A9230C0B70FA
:101580000322230A0B484B708C7026F081FD330038
:101590002A00FF21074826F043FD074B1B689847A8
:1015A000064B1B68984702B070BDC0461844022025
:1015B0002444022000C00340204402201C44022096
:1015C00070B504000D00160082B000291ED0002A5C
:1015D0001CD00F4B1B6898470E4B1B689847042381
:1015E00001A9220C23430A700B480322240A8B70A2
:1015F0004C7026F04DFD32002900074826F048FDCA
:10160000064B1B689847064B1B68984702B070BD95
:10161000184402202444022000C003402044022039
:101620001C44022010B582B06B4649BA1980124B97
:1016300004001B689847114B1B6898478123DB0007
:101640009C46042300226001604401A90343000A70
:101650000A70487003320A488B7026F019FD022286
:101660006946074826F014FD064B1B689847064B51
:101670001B68984702B010BD184402202444022081
:1016800000C00340204402201C44022010B582B058
:101690006B4649BA1980124B04001B689847114BDE
:1016A0001B689847104B00229C460423600160444D
:1016B00001A90343000A0A70487003320B488B707B
:1016C00026F0E6FC02226946084826F0E1FC084BB9
:1016D0001B689847074B1B68984702B010BDC0466F
:1016E00018440220244402200810000000C00340D7
:1016F000204402201C440220F0B557464546DE46F1
:101700004E46394BE0B59C464001604489B0C3B2B7
:101710000193030A0293002304AC0B27A44603930E
:10172000324B0A259B46324B67449A46314B9946C9
:10173000314B984606E0013DEDB2002D4BD0039BA6
:10174000B34248D05B461B68984753461B6898478E
:1017500000232370029B06AA6370019B2100A370E3
:10176000FF232648E3702371FA3B26F099FC4B4691
:101770001B68984743461B6898477B783A781B025A
:1017800013435EBAB6B2002BD5D05B461B689847B0
:1017900053461B68984700232370029B06AA637078
:1017A000019B2100A370FF231448E3702371FA3BCF
:1017B00026F076FC4B461B68984743461B689847C3
:1017C0007B783A781B0213435BBA013D9BB2EDB2C2
:1017D0000393002DB3D1300009B0F0BCBB46B24634
:1017E000A946A046F0BDC0460820000018440220CB
:1017F00024440220204402201C44022000C0034054
:10180000F0B557464546DE464E46394BE0B59C4658
:101810004001604489B0C3B20193030A02930023DC
:1018200004AC0B27A4460393324B0A259B46324B4C
:1018300067449A46314B9946314B984606E0013D44
:10184000EDB2002D4BD0039BB34248D05B461B68E2
:10185000984753461B68984700232370029B06AAAB
:101860006370019B2100A370FF232648E37023715E
:10187000FA3B26F015FC4B461B68984743461B680D
:1018800098477B783A781B0213435EBAB6B2002BB6
:10189000D5D05B461B68984753461B689847002382
:1018A0002370029B06AA6370019B2100A370FF2393
:1018B0001448E3702371FA3B26F0F2FB4B461B6899
:1018C000984743461B6898477B783A781B02134336
:1018D0005BBA013D9BB2EDB20393002DB3D1300052
:1018E00009B0F0BCBB46B246A946A046F0BDC04612
:1018F000082600001844022024440220204402202C
:101900001C44022000C00340F0B5DE4657464E4658
:101910004546E0B58BB002910192002901D0002A22
:1019200006D10BB0F0BCBB46B246A946A046F0BDFE
:101930008200F8207B4F561CF60040013B683518AA
:1019400003929847784808AC036883469847FF207D
:1019500000222B0AA57009AD824621002270637017
:101960002A000423E070714826F09AFB704803684F
:10197000814698476F4803688046984790218901BF
:101980008C46B4446146EB7804919B0298B23B6864
:101990000590984758460368984704990022080A1A
:1019A000A17051460423227007902A006070E170F4
:1019B0005E48210026F074FB49460B689847414673
:1019C0000B689847942080018446E9783B68664418
:1019D0000691984758460368984750460022330AB4
:1019E0002100227063702A000423A670E0704F4823
:1019F00026F056FB484603689847404603689847D8
:101A0000069EEB7832029B18059A9EB2531E334015
:101A1000D21A90B2039A01990232D20006961E029F
:101A20000392164382463A68814267D98C460599EB
:101A300063445B1A9BB2059300281AD090475B461B
:101A40001B6898470423320C3343360AAB702900D5
:101A50002A70364803226E7026F01AFB524602990D
:101A6000324826F015FB4B461B68984743461B68D7
:101A70009847059E002E1DD03B6898475B461B6823
:101A800098470023042203992B700A430B0AAA707B
:101A90002900032225486B7026F0FAFA32000299D9
:101AA0005144224826F0F4FA4B461B6898474346B7
:101AB0001B689847069A019B944663445BBA23804F
:101AC0003B6898475B461B68984700232B70079B31
:101AD000049A6B7004231A432900AA701348032246
:101AE00026F0D6FA02222100104826F0D1FA4B4601
:101AF0001B68984743461B68984712E790475B4628
:101B00001B6898470423320C3343360A29002A7095
:101B1000064803226E70AB7026F0BAFA019A029959
:101B2000BFE7C046184402202444022000C00340FE
:101B3000204402201C440220F0B5DE4657464E46A3
:101B40004546E0B58BB002910192002901D0002AF0
:101B500012D1002101200DF0A1FC8248824A834964
:101B600007F0F0FA81480AF00FFD0BB0F0BCBB465D
:101B7000B246A946A046F0BDF02183007C4F5E1C12
:101B8000F600490103933B6875189847794908ACFA
:101B90000B688B4698470023FF212370A5702B0A02
:101BA00009AD8A462A006370E1700423210072485F
:101BB00026F076FA71490B688946984770490B6898
:101BC00088469847A02189018C46B4446146EB7849
:101BD00004919B029AB23B68059298475846036865
:101BE000984704990023080AA17051462A002370DF
:101BF00007906070E170043321005F4826F050FACE
:101C000049460B68984741460B689847A4208001D5
:101C10008446E9783B6866440691984758460368CD
:101C20009847002350462370330A2A00210063702E
:101C3000A6700423E070504826F032FA4846036844
:101C400098474046036898470699EB780A029B1824
:101C5000059A99B2531E0B40D21A069191B28A4648
:101C6000039A01990332D2001E02039216433A6886
:101C7000514566D98C46059963445B1A9BB205931E
:101C80005346002B19D090475B461B689847330C8E
:101C90002B70330A032229006B703748AE7026F090
:101CA000F7F95346FF21029A334826F0B9F94B461B
:101CB0001B68984743461B689847059E002E1CD01A
:101CC0003B6898475B461B6898470023039A2B7034
:101CD000130A6B70AA7029000322274826F0D8F94E
:101CE0003300029A5244FF21234826F099F94B46CB
:101CF0001B68984743461B689847069A019B944681
:101D000063445BBA23803B6898475B461B689847EF
:101D100000232B70079B049A6B7004231A4329003D
:101D2000AA701548032226F0B3F9022221001248B6
:101D300026F0AEF94B461B68984743461B68984708
:101D400013E790475B461B689847330C2B70330AA8
:101D500003226B7029000848AE7026F099F9019BA8
:101D6000029AC0E7648502105C850210B12400006D
:101D7000184402202444022000C0034020440220D2
:101D80001C440220F0B54546DE4657464E46E0B5B7
:101D90000D0087B0002900D173E0404B40019C4604
:101DA00006003F4B66449B461B68070098473D4B27
:101DB00004AC9A461B6898470023FF21320A01961B
:101DC000A67005AE237002926270E17032002100AD
:101DD0000433354826F064F93448083703688146EF
:101DE00098473348036880469847A42189018C4668
:101DF0005946F0780B6867440390984751460B6842
:101E000098470023FF2123703B0A32006370E17082
:101E1000042321002448A77026F042F949460B68A4
:101E2000984741460B68984759460398F378020251
:101E30009B189BB2ED186DBA0B68258098475146E8
:101E40000B68984700233370029B019A7370042338
:101E50001343B37003223100134826F019F902220C
:101E60002100114826F014F94B461B689847434659
:101E70001B68984707B0F0BCBB46B246A946A046CF
:101E8000F0BD002101200DF009FB0A4A0A480B4968
:101E900007F058F909480AF077FBEBE7082800003B
:101EA000184402202444022000C0034020440220A1
:101EB0001C4402205C850210A8850210B224000098
:101EC00070B5204C2368002B28D0112012F0D4FFCD
:101ED000D024802380259B02240663626D03636106
:101EE000142012F0C9FF64206562A5611DF0BAFDDF
:101EF000642065611DF0B6FD134B144A14481A6046
:101F0000144B154A28211A60144B154A1A60154BB8
:101F1000154A1A6007F0A8F8012070BD01201BF0D7
:101F200093FD20600028D0D1002101300DF0B6FAD9
:101F30000E4A0F480F4907F005F90E480AF024FB36
:101F40000020EAE770850220184402209114001056
:101F5000148602101C440220751400102444022030
:101F60005D14001020440220691400105C850210EA
:101F7000E4850210B3240000F0B5DE4657464E4615
:101F80004546E0B585B00190002800D141E2FC4B08
:101F900003AC99461B689847FA4B1A2598461B686C
:101FA0009847F94B04222100F848039326F070F873
:101FB000F74F3B689847F74E336898474B461B6886
:101FC000984743461B689847F34B04222100EF488B
:101FD000039326F05DF83B689847336898474B4673
:101FE0001B68984743461B689847EC4B0422210026
:101FF000E648039326F04CF83B68984733689847C7
:102000004B461B68984743461B689847E44B04229D
:102010002100DE48039326F03BF83B68984733687D
:1020200098474B461B68984743461B689847DD4BCB
:1020300004222100D548039326F02AF83B689847EC
:10204000336898474B461B68984743461B68984738
:10205000D54B04222100CD48039326F019F83B68A4
:102060009847336898474B461B68984743461B6818
:102070009847CE4B04222100C448039326F008F869
:102080003B689847336898474B461B6898474346D8
:102090001B689847C64B04222100BC48039325F0D7
:1020A000F7FF3B689847336898474B461B6898474B
:1020B00043461B689847BF4B04222100B348039353
:1020C00025F0E6FF3B689847336898474B461B6806
:1020D000984743461B689847B74B04222100AB48FA
:1020E000039325F0D5FF3B689847336898474B46E4
:1020F0001B68984743461B689847B04B0422210051
:10210000A248039325F0C4FF3B689847336898477B
:102110004B461B68984743461B689847A84B0422C8
:1021200021009A48039325F0B3FF3B689847336832
:1021300098474B461B68984743461B689847A14BF6
:10214000042221009148039325F0A2FF3B689847A1
:10215000336898474B461B68984743461B68984727
:10216000994B042221008948039325F091FF3B6895
:102170009847336898474B461B68984743461B6807
:102180009847924B042221008048039325F080FF5A
:102190003B689847336898474B461B6898474346C7
:1021A0001B6898478A4B042221007848039325F046
:1021B0006FFF3B689847336898474B461B689847C2
:1021C00043461B689847834B042221006F480393C2
:1021D00025F05EFF3B689847336898470A201DF05A
:1021E00041FC7D4B3A009B46330047464E469046A5
:1021F0009946336898473B6898475B46220002A996
:1022000002936248042325F04BFF43461B6898471E
:102210004B461B689847E3786420013D9A461DF0C1
:1022200021FC002D00D1EAE0012352461342E0D008
:102230004A464346B14669481600B8461F0006F0B4
:1022400013FF4B461B68984743461B6898479023EB
:1022500004251B010322210023804C48A57025F092
:1022600017FF019B0622190048489A4625F010FFE7
:102270003B689847336898474A46136898474246F0
:1022800013689847F0231B010322210023803F4855
:10229000A57025F0FDFE53460422991D3B4801938D
:1022A00025F0F6FE3B689847336898474A4613681E
:1022B0009847424613689847A023DB0023800322F7
:1022C00021003248A57025F0E3FE019904220A316D
:1022D0002E4825F0DDFE3B689847336898474A460C
:1022E0001368984742461368984780235B00238011
:1022F000032221002548A57025F0CAFE0199042279
:102300000E31224825F0C4FE3B6898473368984751
:102310004B461B68984743461B689847304B04223E
:1023200021001A48039325F0B3FE3B6898473368B1
:1023300098474B461B68984743461B689847294B6C
:10234000042221001148039325F0A2FE3B68984720
:10235000336898474B461B68984743461B68984725
:10236000214B042221000948039325F091FE3B688C
:102370009847336898471D4806F076FE012037E0FD
:102380001844022024440220001E0C0800C0034010
:10239000204402201C440220001F0C08001E2C08B0
:1023A000001F2C08001E4C00001F4C00001E6C007B
:1023B000001F6C00001E8C00001F8C00001EAC0073
:1023C000001FAC00001ECC00001FCC00001EEC0063
:1023D000001FEC00002E04F8002E00FF988602106B
:1023E00000190407001A04D0001B0408BC86021060
:1023F00005B0F0BCBB46B246A946A046F0BD0C4AAB
:102400000C480D4906F09EFE0B480AF0CFF800205C
:10241000EEE7002101200DF041F8054A0748084980
:1024200006F090FE06480AF0AFF80020E0E7C0464C
:102430005C85021070860210B022000048860210EF
:10244000B4240000F0B5CE46474680B5040083B002
:10245000002800D16FE03E4F04253B6898473D4E71
:102460003368984790236A461B019380957101A9B0
:102470000322394825F00CFE06222100364825F0BB
:1024800007FE364B99461B689847354B98461B68A4
:1024900098473B68984733689847F0236A461B0182
:1024A0009380957101A903222B4825F0F1FD0422A8
:1024B000A11D294825F0ECFD4B461B689847434673
:1024C0001B6898473B68984733689847A0236A463B
:1024D000DB009380957101A903221F4825F0D8FDE8
:1024E000210004220A311C4825F0D2FD4B461B680E
:1024F000984743461B6898473B6898473368984716
:1025000080236A465B009380957101A903221248DB
:1025100025F0BEFD210004220E310F4825F0B8FD44
:102520004B461B68984743461B68984703B0C0BC9E
:10253000B946B046F0BD002101200CF0AFFF094ABA
:1025400009480A4906F0FEFD08480AF01DF8EDE7C3
:10255000184402202444022000C0034020440220EA
:102560001C4402205C850210DC860210B7240000A7
:1025700010B50D4B82B01B6898470C4B01AC1B6823
:1025800098470B4B2200694600930A48042325F024
:1025900087FD094B1B689847084B1B68984701202B
:1025A000E378184002B010BD1844022024440220F1
:1025B000002E00FF00C00340204402201C440220E3
:1025C000F0B5CE46474680B51C4B83B098461B6895
:1025D00098471B4F01AC3B6898471A4B04222100D7
:1025E0001948019325F054FD184E33689847184D4B
:1025F0002B6898470A201DF035FAFF231B069946E1
:1026000002E001201DF02EFA43461B6898473B6804
:1026100098474B462200694600930B48042325F057
:102620003FFD336898472B6898470323E356002BF8
:10263000E7DB03B0C0BCB946B046F0BD1844022089
:10264000244402200000048000C0034020440220F3
:102650001C440220F0B557464E464546DE46E0B5DE
:102660004A4D0E0085B001002800170006F0FCFC62
:10267000002F00DC86E0464B00240093454BBB4610
:1026800002930F239846444B0395019308E0315D74
:10269000009806F0E9FC0F2D5AD001345C450FD0AC
:1026A0004546434625402342F1D12100019806F0DA
:1026B000DBFC315D0098013406F0D6FC5C45EFD1BF
:1026C0005F46039D0F243C4233D0FB171B0FFA18C3
:1026D0001440E31A9846102342469B1A5A0091462A
:1026E00099442E4BAA4600244D46B1461E003000A8
:1026F00006F0BAFC230001349D42F8DA43464E4608
:102700005546FC1AA74211DD254B34199846682618
:10271000B944244F434621785B5CB34300D12E215A
:102720003800013406F0A0FCA145F3D1029806F070
:102730009BFC029C2800210006F096FC200006F07D
:1027400093FC05B0F0BCBB46B246A946A046F0BD1E
:10275000154806F089FC124B25009946114B682755
:102760009A460F3D4B46715D5B5CBB4300D12E2109
:102770005046013506F078FCA542F3DD029806F0DC
:1027800073FC8AE7034B02939CE7C0462087021044
:10279000308702101C190310248702102C870210A6
:1027A000F9B303103C8702103887021070B5224B32
:1027B000224C84B020701A70002900D1A13100266B
:1027C0001F4B204D1E601A681F4B29801A6003F0B2
:1027D00033FE207801F0C6F8002302212A882078F1
:1027E00001F016F92378984211D0002101200CF055
:1027F00055FE29882378154A15480091154906F099
:10280000A1FC144809F0C0FE002004B070BDF02007
:10281000042202A900010296FEF7A0FE02A903A865
:10282000039603F00BFE0C482B882278074906F02C
:102830001BFC0120E9E7C0468A1100208B11002013
:1028400078820220881100205082022040870210E6
:102850004C870210E024000080870210F0B5DE46AD
:1028600057464E4645460023E0B5A7B010931F904B
:10287000002801DC01231F931DF03AF900233F4F8C
:1028800019933F4BBA46209017931FE0022301246F
:10289000119353461B78A12B04D89F2B02D8302BC1
:1028A00000D17DE0002101200CF0F8FD354D3648C7
:1028B0002A00364906F046FC344809F065FE199BAB
:1028C0001F9A013319939A4200D1A6E31DF010F923
:1028D000209BC01A312800D99FE3179B1878FEF778
:1028E0008FFF002800D198E3002322AA538125936B
:1028F000C023021C9B00984200D91A1C179B22A9D6
:102900008C4618780A2363440093514692B225AB53
:1029100001F03CFD002800DC7FE3C022C12400263A
:1029200053460004A400050C92009D501E51184B04
:10293000002199461E51174B48461E701493164BA2
:1029400015931E7015F098F92A0051461348FFF7A9
:1029500081FE53461E514B461E5153465A785B78B2
:102960005BB2002B92DA7F231340012B01D100F0E0
:1029700053FE5C1C023311938BE7C046307C02206F
:102980008B11002040870210BC870210EE2400004B
:10299000387F0220A4850220A3850220AC87021084
:1029A000119D51462A00484615F06CF9C123514645
:1029B0009B00CD504946AC46C85852466044C8506A
:1029C0005346023412571D1901211B5D002A01DAFA
:1029D00000F03BFD119A8C1851468A5C01342500A9
:1029E000A12A01D900F02BFD9F2A02D8302A00D05D
:1029F0001D195346119A9B5C022B01D000F02FFE4B
:102A000053461B5D002B01D000F029FE13005344F8
:102A1000AA1A1900484414001C9215F033F9C12376
:102A200051469B00CD504946A446CE586A1C664488
:102A3000CE5053469C5C98189A560121002A01DA20
:102A400000F02EFD52464B19525D01339846A12AE3
:102A500001D900F00CFD9F2A03D8302A01D01A19A1
:102A600090465246525D042A01D000F008FEB64A54
:102A70001278A24201D000F002FE53441800220056
:102A8000B24921F0F3F8002801D000F01AFE4346C5
:102A9000300029005B1B1A00514448441C001D9360
:102AA00015F0F0F8C123404651469B00C8504946F6
:102AB000A446CA5801246244CA50A54B16921A5C17
:102AC0001B56002B02DA7E34144001344246534632
:102AD0009B5C44441A00A03A661C0D930F92012A95
:102AE00003D9A32B01D000F0FAFD434651461698B6
:102AF000F31A1A00414448441D001E9315F0C2F811
:102B0000C12351469B00CE504946CA580234AF18E3
:102B1000CF504A46A2234146535452465346125779
:102B2000181901211B5D002A01DA00F013FD52463D
:102B3000925D74180134A12A01D900F0C3FC9F2AC8
:102B400002D8302A00D0E41853463800A51B2A00CA
:102B50009919484415F096F8C12352469B00D45069
:102B60004A46D05851462818D0505346621C9D18EA
:102B70009B5C8A560121002A01DA00F0DAFC5246F9
:102B80000919125D4D1C1B95A12A01D900F0A6FC64
:102B90009F2A03D8302A01D01B9AD51821002F1B59
:102BA0003A005144484415F06DF8C12352469B0049
:102BB000D5504A46D05851463818D05053466A1C12
:102BC0009C189B5C8A560121002A01DA00F09FFCC8
:102BD00052464919525D01311A911391A12A01D926
:102BE00000F076FC9F2A05D8302A03D01A9A944622
:102BF000634413932900139F51447C1B22004844D3
:102C000015F040F8C12352469B00D7504A46A346D0
:102C1000D2580124934459464A46D1503B004C4A6D
:102C20004B49D25CCB56BF1B002B02DA7E341440DA
:102C30000134139B52469C46D35C64440134302BD0
:102C400001D000F030FD4E46139B5E44E21A53441F
:102C5000190030001D00129215F014F8C1235146DE
:102C60009B00CC504946CA5812998C46494662444A
:102C7000CA505246043BD3589C4201DB00F0BEFCD4
:102C8000002306930593324B23970C93314B574601
:102C90000E93314BCA461893434621935B462293C9
:102CA0000C9B01251A5D1B57002B02DA7E3515405F
:102CB000013565196B1C9B463B5D302B01D000F044
:102CC00081FC5B46C1261A1B5346B6009B59391935
:102CD0001800504490460792089314F0D3FF5B46C7
:102CE000BB51534652469B590235434493517A5740
:102CF00009937E5D01237819002A00DA5FE25A46C3
:102D00005B44BA5C01330393A12A00D9A9E19F2A4D
:102D100003D8302A01D09A190392621C0A925A46AB
:102D2000BA5C062A00D0A6E198460E9BB8441B6800
:102D30009946002B00DC45E3084B00251C0004935A
:102D40003B004F46994610E0E8230310EC230310A4
:102D5000317C0220E42303104087021090110020F0
:102D600001355834AF4200D15FE12378B342F7D147
:102D700032004146601C20F079FF0028F0D14B461C
:102D8000B9461F000D9BA02B00D157E1A32B00D10A
:102D900054E1062352460999013553544D4500DB51
:102DA0001AE3C123039A9B00FA50099B5646581C0C
:102DB000991C58236B43049C5144E25C3254002A12
:102DC00044D0A44663445A780A70325C012A36D94A
:102DD0009A784A70325C022A31D9DA788A70325C89
:102DE000032A2CD91A79CA70325C042A27D95A7955
:102DF0000A71325C052A22D99B794B71335C062B10
:102E00001DD958236B436344DA798A71325C072AEF
:102E100015D91A7ACA71325C082A10D95A7A0A72FC
:102E2000325C092A0BD99A7A4A72325C0A2A06D98C
:102E3000DA7A8A72325C0B2A01D91B7BCB72C123EE
:102E400052469B00D358099353445A78931C9C468E
:102E5000099E0B936644C12352469B00D650039BA8
:102E600001210133FC5CF818FB56002B00DAB7E1B6
:102E7000039B9C46FB5C614401318846A12B00D931
:102E800013E19F2B03D8302B01D00B1998464346F2
:102E9000039A9B1A9B466B1C00D110E10F9B012BE0
:102EA00000D8D1E15823D74A6B4394466344049237
:102EB0005A7B039B7918FB5C934200D0BAE3062B44
:102EC00006D000D908E2022B00D109E2042B0DD173
:102ED00058235D43049B28009C4610306044220028
:102EE00014F0D0FE049B9C466544AC733000039BF9
:102EF0005A46F918504414F0C5FEC12352465146B3
:102F00009B00D2585A44CA504246FA500A9A0B9B28
:102F1000B95CBA565B44002A00DAF7E0089A5244DA
:102F20005370079AD31800D508E1069A94469C443A
:102F300063460693C1239B00FC58059B0133059310
:102F4000C0239B00FB589C4200DAA9E6D146BA4652
:102F5000219B239F9846229B9B46129B634412937E
:102F6000139B53445A785B785BB2002B00DA0CE376
:102F70005B46069A4B445A70129B002B00DABDE365
:102F8000129BFA184346534459785B785BB2002B86
:102F900000DAA9E2169B4B445A70149B1B78002B55
:102FA00007D049461B980B54159B1A981B78013380
:102FB0000B541E9B9B1800D5A4E31D9AD31800D573
:102FC0009EE31C9ADA4200D59EE3C1234A469B0049
:102FD000D258119BD41A534659785B785BB2002BB8
:102FE00000DA4AE24B465C70179B4946187822ABE0
:102FF0005B8992B2009325AB01F0E8F8C1234A4601
:103000009B00D25849468048FFF724FB199B1F9A22
:10301000013319939A4200D058E4199827B0F0BCB4
:10302000BB46B246A946A046F0BD4B460125B9466F
:103030001F000D9B6D42A02B00D0A7E65B465A46B1
:10304000039C0998E31AB91850441A0098460B9348
:1030500014F018FEC12351469B00CE58FC50464444
:10306000F9E6A32A00D056E6621C0A925A46BA5CD8
:10307000062A00D158E6002101200CF00FFA634A1D
:10308000059B6348634906F05DF8624809F07CFAE5
:103090000A9ABB5CBA56002A00DAA3E2FF22089B18
:1030A00053445A70079B013B3FE7A32B00D0ECE64B
:1030B0004346039A9B1A9B466B1C00D0EEE63000F9
:1030C000B91850445A4614F0DDFDC123524651460A
:1030D0009B00D258059C5A44CA504246FA50159B50
:1030E000149A1C7002230021012013700CF0D6F9F1
:1030F0002300189A4849494806F024F80A9A0B9B7D
:10310000B95CBA565B44002A00DB07E77F24220043
:1031100008980A4002300C4200D102E7541EE10038
:10312000A41A5044E4001A000A4108390270013020
:10313000A142F8D1079AD31800D4F6E6BA46334D27
:10314000002101200CF0AAF935482A00059B3549D9
:1031500005F0F8FF334809F017FA002101200CF0C0
:103160009DF931482A00314905F0ECFF2F4809F05C
:103170000BFA002101200CF091F92D482A002D496D
:1031800005F0E0FF2B4809F0FFF9002101200CF0C9
:1031900085F929482A00294905F0D4FF274809F074
:1031A000F3F9002101200CF079F92A00244825497F
:1031B00005F0C8FF234809F0E7F9FFF780FB7F23FC
:1031C00033404678012B00D1D7E1821C0130C01872
:1031D0001178360201320E439042F9D101338EE567
:1031E0007F2121404478012900D1C4E1831C0130B2
:1031F00040181A782402013314439842F9D101315E
:1032000036E6C04690110020148C02104087021050
:103210005C890210E3240000E02100002C8A0210E7
:10322000748A0210E6240000C48A0210E824000018
:10323000048B0210EA2400008C8B0210ED240000A5
:10324000D08B0210EF240000B31C534403934D4570
:1032500000DB23E258236B43D64A0492D218517BF9
:103260001091062900D1D2E05BD8022976D004293A
:103270005BD104991E008C46126D10366644002AFC
:1032800008D00E33C91830009047C1239B00FB586B
:103290005B449846300021F0ABF95823049A6B4305
:1032A0009446C4B263449C7322003100039814F026
:1032B000E9FCC12352469B00D658A31C9B465346AB
:1032C000109A9A559B195C70C12352469B005E442C
:1032D000D6504246FA5019E6413B022B00D905E68A
:1032E00000200022002C08DD00200A190B780002C3
:1032F000013118439142F9D10200582304996B43DC
:103300008C4663441A619C735B6D002B00D1EDE524
:103310009847C12352469B00D658FB585B449846B9
:10332000E4E50B00413B022B18D9002101200CF0F1
:10333000B5F8A14A109BA148A149009505F002FFEC
:103340009F4809F021F9C12352469B00D658FB58EB
:1033500000245B44984602239B46B0E7582068430C
:10336000049A13181B6D002B0BD0010094460E31EC
:103370001030614460449847C1239B00FB585B4474
:1033800098465823049A6B43944663449C7B002CD4
:1033900038D0A21C23009346582204996A438C46D5
:1033A00062441169013B039ADB000800D840083BE6
:1033B0001070180001320830F7D1C12352469B002B
:1033C000D6587CE70D9BA02B00D1D9E0A32B00D1D0
:1033D000D6E0534609995A545B465A46039C0998CD
:1033E000E31A1D00B91850441A000B9314F04AFC5C
:1033F000C1235146AC4601259B00CE58FC50664483
:103400006D4228E5062304249B46023BC4E7049949
:103410001E008C46126D10366644002A08D00E330A
:10342000C91830009047C1239B00FB585B44984665
:103430005823049A6B43944663449C7B34E7A32A45
:1034400001D0FFF7D5FAFFF7D4FA7F2119406B7846
:10345000012900D1EBE0AA1C01356D1814781B027C
:10346000013223439542F9D10131FFF7B3FAA32A80
:1034700001D0FFF7F4FAFFF7F4FA7F2003000B40C6
:10348000084200D1B0E54946013BDB00881C210021
:103490001941083B0170190001300831F7D1A3E54B
:1034A0007F2121404478012900D1BDE0831C0130F7
:1034B00040181A782402013314439842F9D101319B
:1034C000FFF7C0FAA32A01D0FFF73DFBFFF73CFB53
:1034D000A32A01D0FFF78AFBFFF78CFBA32A01D0B8
:1034E000FFF75AFBFFF75AFB7F2003000B4008420F
:1034F00000D152E51699013BDB0049441000184108
:10350000083B8870180001310830F7D145E57F216C
:1035100019406378012900D183E0A21C01346418AA
:1035200017781B0201323B439442F9D10131FFF776
:103530004FFB7F2119406B7801296AD0AA1C013505
:103540006D1817781B0201323B439542F9D10131C6
:10355000FFF715FB7F2119404378012956D0821CC3
:103560000130401814781B02013223439042F9D1F4
:103570000131FFF7DCFA02217AE40223FFF7BFFBF7
:1035800001256D425AE5002306937F210B0013406D
:10359000114200D1F0E45A46013B0698DB004A4450
:1035A00001001941083B9170190001320831F7D12F
:1035B000E2E4C0469011002040870210A08902106A
:1035C000E1240000002101200BF068FF4F4D50481E
:1035D0002A00059B4F4905F0B5FD4E48BA4608F054
:1035E000D3FFADE57F210A0008981A400230194246
:1035F00000D157E50123541E5B4290E50123EB56B1
:103600006A78002BBFDB00237370B9E40221FFF757
:103610008EFA0221FFF7B3FA032302241193FFF776
:1036200038F90221FFF7D4FA0221FFF70BFA022141
:10363000FFF7D0F90323149A059C1370159B002102
:1036400001201C700BF02AFF2B00304A324833490E
:10365000009405F077FD314808F096FF59E6002107
:1036600001200BF01BFF5346284D1B5D2A002C4800
:103670002C4905F067FD2B4808F086FF91E50021F5
:1036800001200BF00BFF214D23002A00264827497B
:1036900005F058FD254808F077FF76E50023DCB2F9
:1036A00002339B460BE6002101200BF0F7FE174D7D
:1036B0001F482A001F4905F045FD1E4808F064FF19
:1036C0004BE5002101200BF0E9FE104D1A482A00BD
:1036D0001A4905F037FD194808F056FF55E5002155
:1036E00001200BF0DBFE094D15482A000D9B154902
:1036F00005F028FD134808F047FF3AE5034D2CE597
:10370000024D42E5014D34E5004D4AE54087021087
:1037100010890210E4240000E4890210E224000071
:1037200000880210EC24000040880210E924000008
:10373000C4880210E5240000488B0210EB2400002E
:1037400088880210E7240000024A136801331360DE
:103750007047C04678820220044B054A1B681268F5
:103760009B1A036004230B707047C04678820220C6
:10377000508202200CB4F0B5DE4657464E46454610
:10378000E0B58BB01593754B302698461700042290
:103790001E708123924642465B0053800023994667
:1037A00043464A46069038000D001A7120F020FF6B
:1037B00043460400524639005A7198712200D81DC0
:1037C00014F060FA08239C46A444634605934346DC
:1037D000A4221B19DA719E3A5A7215AA17780B3473
:1037E0009F724346181906AB9C463D213A0061443E
:1037F00014F048FA424640233F19D355D319524694
:103800005A702A7802219A706A782B98DA70AA780E
:103810001A71EA7899715A71012259722C99DA71E8
:103820009A725A734A46D97243213D009A732D9A6F
:1038300018721973DE732EAB103511370893002AF6
:1038400000D188E09B460023C1469A460393079522
:1038500020E0062B44D1AB7B10351A004346627042
:103860002370049C90462000290014F00BFA444475
:103870004B460236DB19A41B5C70039B02349C464A
:10388000A4446346039301239C462D9BE2443F19C5
:10389000534532D0042294465B46E3445A461D68A1
:1038A00008924B463022DE19DA55FF237370F93B3C
:1038B000B3702A78341D2000F270691C14F0E2F90C
:1038C0002B78E4186B7B9846A31C04934346042B87
:1038D000BFD11035280020F08BFEC3B21A00BDE71F
:1038E0002370042363702B69A01C1BBA042209A94E
:1038F0000993063414F0C6F9BAE76B46C846079D2B
:103900001B7B4246404605995355FBB2144C5A1A4C
:10391000013A023B42544370207800F023F8002320
:10392000A2220221207800F073F8A22341462078D9
:10393000BAB20093069B00F049FC207800F012F820
:1039400000200BB0F0BCBB46B246A946A046F0BC76
:1039500008BC02B018470023D3E7C0468482022087
:103960008A110020F0B5C646070000B5072843D8E5
:10397000082398464501A8440935FF351021280041
:10398000FDF7BCFD1CF0B4F8060007E01CF0B0F831
:10399000801B04282DD801201CF064F82800FDF7B6
:1039A00083FD041EF2D180208000FF214044FDF7FA
:1039B000A5FD0123BB4012490A889A430A80114998
:1039C0000A889A43104B0A807A00D45200220F4B87
:1039D000DA55C027BF00474402E001201CF042F83E
:1039E0003800FDF761FD0028F7D1013080BCB846F2
:1039F000F0BD0D204042F9E701204042F6E7C04605
:103A00008485022086850220BC840220B4840220A2
:103A1000F0B5C64600B504000E001700984682B007
:103A2000072800D9C2E0012966D08B1E022B00D9DD
:103A300087E043465B0700D5BBE04346002B02D03E
:103A4000022900D180E02000FFF78CFF0F234146C0
:103A500065019943083528003143FDF74FFD002FDC
:103A600008D1624A624917887B1C9BB28B4200D105
:103A70007FE0138039006F1C2000FF37FDF7D2FD77
:103A800001213800FDF73AFD1CF032F8060007E08E
:103A90001CF02EF8801B042850D801201BF0E2FFF8
:103AA0003800FDF701FD0028F2D101234746190037
:103AB0003B40A140A3404F4E32888A4313434E4AB5
:103AC000338013888B4313804C4B6200D05200220A
:103AD0004B4B1A55C0239B009C46654402E00120D5
:103AE0001BF0C0FF2800FDF7DFFC0028F7D060B214
:103AF00002B080BCB846F0BDF020042201A900014C
:103B0000FDF72CFD019B002B61D043465B0750D491
:103B10004346002B97D021234246134200D092E720
:103B2000002101200BF0BAFC4346364A364837499B
:103B300005F008FB354808F027FD34E00D20404231
:103B4000D6E705204042D3E79B0616D543465BB235
:103B5000002B00DA77E7002101200BF09FFC4346A1
:103B6000284A2B482B4905F0EDFA2A4808F00CFDAD
:103B700019E0294B294F13807CE74346DB0600D42C
:103B800061E743465BB2002B00DA5CE700210120CD
:103B90000BF084FC224843461A4A224905F0D2FA27
:103BA000204808F0F1FC06204042A1E701204042F5
:103BB0009EE7002101200BF071FC4346114A1A4890
:103BC0001A4905F0BFFA194808F0DEFCEBE70021BE
:103BD00001200BF063FC0B4A1548164905F0B2FAB8
:103BE000144808F0D1FC0320404281E78C110020EA
:103BF000F0FF00008485022086850220BC8402201C
:103C0000B4840220248C0210A88C0210C32400006B
:103C1000F48C0210C424000000C0FFFFEFFF00007E
:103C2000488D0210C5240000688C0210C2240000D8
:103C3000308C0210C1240000F8B50600072861D8B6
:103C4000470108373800FDF72FFC0F230340012BF5
:103C500055D17D1CFF3508212800FDF74FFC1BF0D6
:103C600047FF040007E01BF043FF001B042839D87E
:103C700001201BF0F7FE2800FDF716FC0028F2D10A
:103C800001210800B040214B1A8882431A80204B42
:103C90001B883341194228D1C0239B00FD18013BEA
:103CA000FF3BFC18082707E02000FDF7FDFB07425B
:103CB00009D10A201BF0D6FE2800FDF7F5FB0028ED
:103CC000F2D1013010E03000FFF74CFE002101205E
:103CD0000BF0E4FB0F48104A104905F033FA0F4887
:103CE00008F052FC0D204042F8BD0B4A0C480D492B
:103CF00005F028FA0B4808F059FC0020F4E70520ED
:103D00004042F1E701204042EEE7C04686850220AE
:103D100084850220FC8D0210248C0210C724000030
:103D2000B48D0210C6220000F8B50600072800D99D
:103D300072E0440108342000FDF7B6FB0F23034076
:103D4000012B63D1C0239B00E7183800FDF7ACFBC3
:103D500013285ED10134FF3402212000FDF7CEFB91
:103D60001BF0C6FE050007E01BF0C2FE401B042846
:103D700022D801201BF076FE2000FDF795FB0028DD
:103D8000F2D11BF0B5FE04003800FDF78DFB1C28B6
:103D900015D8234A800013589F463000FFF7E2FDF4
:103DA000002101200BF07AFB1E481F4A1F4905F035
:103DB000C9F91E4808F0E8FB0D204042F8BD1BF091
:103DC00097FEFA23001B5B009842E6D801201BF007
:103DD00049FED9E71C243000FFF7C4FD0021012073
:103DE0000BF05CFB2300104A1148124905F0AAF9B8
:103DF000104808F0C9FB04204042DFE71724EAE737
:103E00000120DBE71324E6E70024E4E70520404235
:103E1000D4E703204042D1E701204042CEE7C0462C
:103E2000502303106C8E0210248C0210C924000051
:103E3000248E0210C8240000F0B54E46DE465746D8
:103E40004546E0B587B0060014000491072800D964
:103E5000CAE04301083318001D000393FDF724FB5B
:103E60000F230340012B00D0C4E0002C00D1BEE0A2
:103E7000C02292002B009446634418009946FDF737
:103E800013FB0500172802D01C2800D0B5E0644BB6
:103E9000012505931B8833411D424FD1B540A846EB
:103EA000F8235B019C4603986044FDF7FDFA80020D
:103EB000071C80B2A04200D9271C1BF019FE594BE9
:103EC00082469B46BFB23000FDF716FC050048460F
:103ED000FDF7EAFA0400172801D01C2859D15B46E7
:103EE00042461B881A423DD0AF4233D83A003000D8
:103EF0000499FDF709FD039D20210135FF352800B8
:103F0000FDF7FCFA1BF0F4FD04002800FDF7CCFAE5
:103F100000280CD01BF0ECFD001B042861D8012008
:103F20001BF0A0FD2800FDF7BFFA0028F2D14146A2
:103F3000059A380013880B4313800CE080239B0004
:103F40009C46039F67443800FDF7AEFAC30615D4BC
:103F5000000736D4002007B0F0BCBB46B246A946E5
:103F6000A046F0BDAF42C1D91BF0C2FD5346C01AF6
:103F70000928EFD801201BF075FDA4E7B5401021FA
:103F80003800FDF7BBFA059AA8461388AB431380A7
:103F900086E73000FFF7E6FC02F0D2F801280DD0EA
:103FA000002101200BF07AFA1F4833001F4A2049F4
:103FB000009405F0C7F81E4808F0E6FA07204042D2
:103FC000C9E73000FFF7CEFC002101200BF066FAB4
:103FD00018483300154A184905F0B4F8164808F097
:103FE000D3FA0D204042B6E701204042B3E70E204D
:103FF0004042B0E705204042ADE702F0A1F80128B9
:10400000DCD0002101200BF049FA3300074A0648B2
:104010000A49009505F096F8084808F0B5FACDE78A
:104020008685022084850220908E0210248C021046
:10403000CC240000CC8E0210CB240000CA24000047
:10404000F0B54E46DE4657464546E0B585B006001B
:10405000140002910392072800D991E008218B46B1
:1040600043019B445846FDF71FFA0F230340012BE1
:1040700000D08BE0002C00D185E0C0239B005B4486
:1040800018009946FDF710FA0400172802D01C28E2
:1040900000D07EE01BF02CFD0127474B8046B74047
:1040A0009A460CE053461B881F4245D11BF020FD69
:1040B0004346C01A09283FD801201BF0D3FC30002A
:1040C000FDF79EFB05004846FDF7EEF904001728B2
:1040D00001D01C283CD1002DE4D0039B1C1CAB421A
:1040E00034D8F02040015844FDF7DEF98002051C69
:1040F000A3B280B2984227D85C46ADB201342A0000
:1041000030000299FF34FDF717FD40212000FDF734
:10411000F5F91BF0EDFC060007E01BF0E9FC801B45
:1041200004282AD801201BF09DFC2000FDF7BCF9D3
:104130000028F2D1280000E0002005B0F0BCBB460A
:10414000B246A946A046F0BD251CD5E72C1CC8E701
:1041500001F0F6FF01280DD0002101200BF09EF99F
:1041600016483300164A1749009404F0EBFF15482F
:1041700008F00AFA07204042DFE70D204042DCE762
:1041800001204042D9E70E204042D6E705204042B8
:10419000D3E701F0D5FF0128ECD0002101200BF07E
:1041A0007DF93300064A05480749009404F0CAFF28
:1041B000054808F0E9F9DDE784850220908E0210B9
:1041C000248C0210D1240000CF240000F0B5574603
:1041D0004E464546DE46E0B585B01D006B460600FE
:1041E00014001F8F0391072800D9A9E04301083369
:1041F00018000293FDF758F90F230340022B00D05B
:10420000A4E0002C00D1B4E02B78002B6ED0002F5E
:1042100000D198E0C02292009446029B63441800AB
:104220009B46FDF741F98046222800D091E0C0234B
:104230002900029D1B019C46280004226044FDF7D2
:10424000BFF939003000FDF721FAF8235B019C46E5
:1042500028006044FDF728F98002071C80B2A042C4
:1042600050D81BF045FC0123B3409846424B814691
:104270009A46BFB23000FDF73FFA05005846FDF7F9
:1042800013F90400222847D1534642461B881A429C
:1042900020D0AF4238D83A0030000399FDF734FB04
:1042A000029C20210134FF342000FDF727F91BF088
:1042B0001FFC050007E01BF01BFC401B04283CD83A
:1042C00001201BF0CFFB2000FDF7EEF80028F2D113
:1042D00038001AE0AF42DED91BF00AFC4B46C01A88
:1042E000092811D801201BF0BDFBC3E76B78002B18
:1042F0008DD1AB78002B8AD1EB78002B87D10C20A5
:10430000404202E0271CACE7002005B0F0BCBB46F1
:10431000B246A946A046F0BD002101200BF0BEF830
:1043200016483300164A1749009404F00BFF15484D
:1043300008F02AF907204042E7E70D204042E4E771
:1043400001204042E1E70B204042DEE705204042E9
:10435000DBE7002101200BF0A1F84346084A009357
:1043600006483300084904F0EDFE074808F00CF950
:10437000E0E70E204042C8E784850220F88E021054
:10438000248C0210D5240000D4240000F0B5574638
:104390004E464546DE46E0B587B005008946170023
:1043A0000393072800D918E1002A00D112E1440143
:1043B00008342000FDF778F8944B80469B466B004C
:1043C0009A465B4652469B5A002B4AD0072202402F
:1043D000032A0ED0042A0CD00026022A09D031006C
:1043E0002800FDF7CFFC5B46524601349E52FF3455
:1043F0000BE00134FF343E1C9F4200D91E1CB6B2B4
:10440000320049462800FDF797FB40212000FDF7C8
:1044100075F81BF06DFB070007E01BF069FBC01B84
:1044200004281BD801201BF01DFB2000FDF73CF8E1
:104430000028F2D152465B4651469B5A5A469B1B76
:104440009BB25352724A002B50D15055300007B0E6
:10445000F0BCBB46B246A946A046F0BD0D20404286
:10446000F5E72800FDF7CCF9061E00D180E0072310
:1044700042461340022B3DD15B4652469B5A0134C3
:10448000FF34002BB7D104AE082231002800FDF71D
:1044900053FB40212000FDF731F81BF029FB80463B
:1044A00008E01BF025FB4346C01A0428D6D801209B
:1044B0001BF0D8FA2000FCF7F7FF0028F1D1039A8F
:1044C0003378137073785370B3789370F378D37034
:1044D000B388109A5BBA1380F2885946504652BA94
:1044E0000A52802193B24A4A515584E70123505D14
:1044F0001843AAE7062241460A4200D16FE7032B80
:1045000038D0042B00D06AE75B4652469B5A0134F0
:10451000FF34002B00D06EE704AE022231002800E9
:10452000FDF70AFB40212000FCF7E8FF1BF0E0FA52
:10453000804608E01BF0DCFA4346C01A04288DD8F8
:1045400001201BF08FFA2000FCF7AEFF0028F1D10C
:1045500072783378023A1B029B1851465A469BB236
:1045600053522C4A93423BD88021294A515542E765
:1045700000206CE75B4652469B5A0134FF34002B07
:1045800000D038E704AE062231002800FDF7D4FA47
:1045900040212000FCF7B2FF1BF0AAFA804609E098
:1045A0001BF0A6FA4346C01A042800D956E701209A
:1045B0001BF058FA2000FCF777FF0028F0D1039A8F
:1045C0003378137073785370B3789370F378D37033
:1045D000B28882E70E20404239E70120404236E7A8
:1045E0002800FFF7BFF9002101200AF057FF5146CC
:1045F0005B465B5A084A0948094900932B0004F0BE
:10460000A1FD074807F0C0FF064820E7BC84022050
:10461000B4840220EA050000248C0210388F0210B6
:10462000D724000017FCFFFFF8B504000D001600AA
:10463000072800D993E0072900D96CE0524A8B0083
:10464000D3589F46440108342000FCF72DFF0F2368
:104650000340012B00D085E0BC239B013178E0189A
:10466000FCF74CFF0120F8BD484B40019C463178D7
:104670006044FCF743FFF5E73188454B4401E018FF
:10468000090AFCF73BFF2500982308355B013178C8
:10469000E818FCF733FFE5E73E4B40019C46042257
:1046A00031006044FCF78CFFDCE73188FCF7EEFF5B
:1046B000D8E7450108352800FCF7F6FE0F23034034
:1046C000012B4FD1BC239B01E818FCF7EDFE00281D
:1046D0004BD16E1CFF3622213000FCF70FFF8023E8
:1046E0009B009C460827654407E02800FCF7DCFE99
:1046F000074220D101201BF0B5F93000FCF7D4FEB1
:104700000028F2D1AEE7244B40019C46317860444A
:10471000FCF7F4FEA6E7002101200AF0BFFE2B0003
:104720001E4A1F481F4904F00DFD1E4807F02CFFCC
:104730000A20404297E708212800FCF7DFFE00210D
:1047400001200AF0ABFE2300144A1748174904F071
:10475000F9FC164807F018FF0D20404283E70120BE
:10476000404280E7052040427DE7002101200AF019
:1047700095FE0A4A0E480F4904F0E4FC0D4807F084
:1047800003FF022040426EE7C42303100816000016
:1047900008120000080C000008150000248C02100C
:1047A00020900210DC240000D88F0210DB240000CF
:1047B0007C8F0210DA240000F0B54E464546DE46F6
:1047C00057460123E0B586080340B6001E43022386
:1047D000082103401E4380468FB00A220F20314338
:1047E0000AF052FF002800D121E101201BF03AF924
:1047F0000A2231000F200AF047FF002800D1EFE025
:1048000001201BF02FF9BA4A10219369DB0606D468
:1048100093691942FCD1136893691942F8D03C207E
:104820001BF020F911F07AFA00241027B04EB14D98
:1048300006900791B3691F4200D0C2E00134B3690A
:104840001F42FCD133682B55B3691F4201D1802C24
:10485000F4D111F063FA069A079B801A9941002956
:1048600000D0CAE0A44B984200D9C6E001201BF05A
:10487000F9F8802CDED1A14D0F272E00173E3619F6
:1048800006E0BB43F02B06D00135B54200D1B7E0BE
:104890002B78552BF5D16B785A2BF5D1984C1822E3
:1048A0002900200013F0EEF920000023A21C17308D
:1048B000117801325B18DBB28242F9D1E27D9A4273
:1048C000E2D123788F4AE1781370A27809021204AA
:1048D0000A4321790A4311000C928B4A11606279D4
:1048E000A179120409020A43E1790A4311000D92E9
:1048F000864A1160227A617A120409020A43A17A77
:104900000A4311000A92824A1160E27A217B120462
:1049100009020A43617B0A43110008927D4A116033
:10492000A27BE17B120409020A43217C0A431100A5
:104930000992794A1160667CA27C36041202164301
:10494000E27C1643754A166002221A4006921B0743
:1049500000D579E00D9D002D00D1F9E00C9813F001
:10496000CAF8041C280013F0C6F8011C201C13F020
:104970005CF86B4B99464346DD00EC184B46A400AF
:1049800019594C4413F065F8A16813F048F8654BC9
:10499000041C9A461860089B002B00D0E4E0002716
:1049A000614B391C1F6013F099F8002800D0B2E366
:1049B00053461F60069B002B00D1DBE25B4B1F6060
:1049C0000DE111F0ABF9069A079B801A9941002975
:1049D00013D1494B984210D801201BF043F829E726
:1049E000002101300AF05AFD514A5248524904F060
:1049F000A9FB514807F0C8FD05E7172C00D93AE795
:104A000000230024494A1360474A1360454A136053
:104A10004A4B002200211868002318F08FFE200066
:104A20000FB0F0BCBB46B246A946A046F0BD00217F
:104A300001300AF033FD3E4A4148424904F082FB0E
:104A4000404807F0A1FDDEE6364B9A460023524669
:104A50001360089A002A00D1B9E00A9813F04BF8C5
:104A6000041C089813F047F8011C201C12F0DDFF0D
:104A70002B4B99464346DD00EC18A4004C4461687A
:104A800012F0E7FFE16812F0CAFF274B071C9B46B4
:104A9000186053460021381C1C6813F01FF80028CA
:104AA00006D02949381C13F021F8002800D1BAE1BA
:104AB0005B460027201C1F60391C12F0CAFF069BB2
:104AC000041C002B02D1002E00D0B6E1174D391C7A
:104AD000286013F003F8002800D080E000231B4C6E
:104AE0002B6063780993002B00D07EE001248FE7D0
:104AF000004003408774022090D003008874022095
:104B0000183C00208E110020544102205041022008
:104B100044410220404102204C41022048410220F1
:104B2000DC490220345202202C5202203052022052
:104B30007C900210C890021002340000D48402203D
:104B400088900210013400000000C842C879022099
:104B50000024E44B9A461C60089B002B00D117E20E
:104B6000E14B99464346DD000A9812F0C4FF071C4A
:104B7000089812F0C0FF011C381C12F056FF434683
:104B8000EF18BF004F44796812F063FFF96812F024
:104B900046FFD64B071C18600021201C9B4612F0D4
:104BA0009DFF002800D095E100245346211C1C6085
:104BB000381C12F093FF002800D072E75B461C609F
:104BC000069B002B00D136E1C94B1C6007E0C74AA9
:104BD0001360069A002A00D1A6E1C54A1360C54CAD
:104BE00063780993002B00D180E7267BB04500D085
:104BF0007CE70C9962698C46944462460D99E37B8C
:104C00008C4606926261A2690A99944462468C4677
:104C10000C92A261E2690899944462468B460D9217
:104C2000E261226A277C93445A46013322620137AB
:104C3000A27BDBB2FFB2E3732774934200D255E745
:104C400053109F4200DAB5E1A74B002199464A462E
:104C5000F30008939B199B00D358181C984612F038
:104C600045FF002801D1A44B9846089B00219B19C1
:104C70009B004B445B68181C9A4612F037FF0028D3
:104C800002D1FE239B059A46380012F039FF051C1D
:104C9000069812F030FF291C12F0C7FE0A900C98FB
:104CA00012F029FF291C12F0C0FE0C900D9812F092
:104CB00022FF291C12F0B9FE071C584612F01BFFF8
:104CC000291C12F0B2FE2278051C012A00D1D3E182
:104CD000089B9B199B004B449968DB6806919B4697
:104CE000022A00D192E1032A00D038E1A368002112
:104CF000181C099312F0EAFE002800D01DE10021E3
:104D0000381C12F0E3FE002800D016E10021281C18
:104D100012F0DCFE002800D00FE1291C381C12F034
:104D200084FE002112F0D2FE002800D028E109996B
:104D3000584612F077FE391C8246281C12F075FE88
:104D4000011C504612F085FE8246584612F0FAFECB
:104D500004900591099812F0F5FE029003915046D7
:104D600012F0F0FE654D664F00900191320029006F
:104D7000380004F079F900230993089B42469F19F3
:104D80004B46BF00DA51069B4F44BB6053467B60E5
:104D90005B464046FB60584912F047FE5949804641
:104DA00012F057FE58493861404612F052FE574BF8
:104DB000099ABB61CA2378613B77002A00D17B7FC7
:104DC000089A30009119890049444B770AF05EFF38
:104DD000002800D00FE1320029004D4804F044F9CA
:104DE0002422A35C0133A354227B637B0132D2B221
:104DF000934200D9F1E02378012B00D1EBE0022BA4
:104E000000D1E6E0032B00D1DEE0424A2521242335
:104E1000615CE35C40480091290004F025F900231F
:104E200023800124F4E5211C381C12F012FE069B9D
:104E3000041C002B44D1002E42D0099812F05BFED6
:104E4000071C300012F057FE011C381C12F0EDFD5B
:104E50004B464544AD0059594D4412F0FAFD69687E
:104E600012F0F7FD224D00212860061C12F028FEEA
:104E7000002826D12949301C12F038FE002820D104
:104E80002749201C12F032FE002800D13BE1211CF2
:104E9000301C12F0C4FD4000211C400812F0C5FD7A
:104EA000FC21890512F022FE002800D12BE12C60A4
:104EB0001A49201C12F01AFE002800D00EE68EE6D9
:104EC0000B4D00212C60201C12F008FE002800D1A0
:104ED00004E6EDE71349201C12F008FE002800D07C
:104EE00062E6D6E534520220DC4902202C52022030
:104EF00030520220C8790220D7A3F03F7C900210E4
:104F00009C920210007EE54900007A446F12833AB9
:104F1000589302106C900210B893021000401C4786
:104F2000CDCCCC3D0000C843002E00D155E67F4BD0
:104F300099464346DD0000247FE7099812F002FEFF
:104F40007B4D7C4F0090019133002A0038007A4954
:104F500004F0F8F82522A35C0133A35444E70021B0
:104F600001200AF09BFA724D74482A00744904F03B
:104F7000E9F8EFE7002EDED1724D3C1C2F6097E779
:104F80006B4D33002A007048704904F0DBF8E1E70C
:104F90006F4B1C60201C002112F05BFD069B041C63
:104FA000002B00D010E6002E10D0604B99464346EF
:104FB000DD0042E75E4D019243462A00654866499E
:104FC000009704F0BFF8C5E7644A1FE75D4D2C6009
:104FD0006EE7634A1AE7634A18E70023290062482C
:104FE0002273E37323746361A361E361236204F0BA
:104FF0003BF801240CE5002101200AF04FFA3300B0
:105000002A005A485A4904F09DF8A3E7676800212E
:10501000381C12F06BFD002861D000210A9812F0B4
:1050200065FD00285BD00C9B0021181C984612F0EF
:105030005DFD002853D00698391C12F0F3FC0A9944
:10504000051C404612F0F1FC011C281C12F001FD69
:105050008046381C12F076FD02900391404612F013
:1050600071FD334D0090019132002900414803F059
:10507000FBFF0023099380E60C9B0021181C9B4634
:1050800012F034FD002837D059460A9812F0CDFCB2
:10509000414612F0DEFC069012F054FD0A900B918E
:1050A0000021281C12F022FD002820D0291C381CC9
:1050B00012F0BBFC514612F0CCFC834612F042FDCC
:1050C00002000B001A4D029203930A9A0B9B2900CF
:1050D000009201932848320003F0C6FF4DE6144DBC
:1050E00033002A002548264904F02CF832E7002135
:1050F000002200238B46E5E7002300220A920B934F
:1051000000230693CCE70021301C12F0E7FC0028B6
:1051100000D064E5E2E41B49201C12F0E7FC002803
:1051200000D137E753463C1C1F6033E7DC490220BF
:105130007C9002101092021009320000E8920210D6
:105140000B340000305202205C9202100A32000040
:105150002C520220089102100632000074900210B6
:10516000649002105C900210909302101893021049
:10517000083400009091021050910210D09102105A
:10518000073200000000C843F0B5D6464F464646F9
:10519000C0B50027994D86B004AB2C78DE1D3100D8
:1051A0002000DF7109F076FE3678954B1E55072CEE
:1051B0001AD9944BA20000210120D7500AF06EF9B1
:1051C0002300914A9148924903F0BCFF904807F0B0
:1051D000DBF907232A78013213402B7006B0E0BCBC
:1051E000BA46B146A846F0BD10F098FD894BA7001D
:1051F0009A46DB59009099460191002E00D1ADE00E
:10520000854EE3009846F3181A685B68110019434D
:1052100000D0ACE0009A019B4644326073604A467D
:10522000784B6421DA517D4B186818F09BFE0128F9
:1052300000D184E0744A7A487A4903F083FF072357
:105240002A78013213402B70072CC7D1764D0021EC
:105250002C68201C12F042FC002806D07349201C48
:1052600012F02EFC002800D0B0E000246E6800216F
:10527000301C12F033FC002806D06C49301C12F0B0
:105280001FFC002800D09BE0AE680021301C12F00B
:1052900025FC002806D06549301C12F011FC0028BE
:1052A00000D087E0EE680021301C12F017FC0028C7
:1052B00005D05E49301C12F003FC002874D12E6921
:1052C0000021301C12F00AFC002806D05749301C7F
:1052D00012F0F6FB002800D084E06E690021301C3B
:1052E00012F0FCFB002805D05049301C12F0E8FBFE
:1052F000002871D1AE690021301C12F0EFFB0028AC
:1053000005D04A49301C12F0DBFB002870D1ED6952
:105310000021281C12F0E2FB00280AD04349281C77
:1053200012F0CEFB002804D0201C291C12F07AFBBE
:10533000041C01223E4B1C603E4B1A704EE72000BD
:10534000FFF73AFA002800D179E73B4A3B4B126855
:10535000DA513B4A344B1268DA5170E7394B2E4E22
:105360001A685B6800920193E300984652E7009840
:105370000199801A994101225242D31712184B41C8
:1053800002920393039B002B00D043E72E4B029A1B
:105390009A4200D93EE700232C4A11F057FC814481
:1053A00053464A46DA5135E7201C311C12F03AFBCD
:1053B000041C84E7201C311C12F034FB041C71E730
:1053C000201C311C12F02EFB041C5DE7201C002168
:1053D00012F028FB041C49E7201C311C12F022FBB0
:1053E000041C87E7201C311C12F01CFB041C74E712
:1053F000201C311C12F016FB041C88E79585022046
:1054000090490220984902207C900210F4930210E7
:1054100004340000FC4A0220583A0020D4840220C0
:105420001C94021004320000704902200000C8429F
:10543000808202209E85022034520220B849022038
:105440002C520220C8AD03107E96980040420F00F7
:1054500010B507280ED8094B8000C4580021201C25
:1054600012F03CFB002805D00549201C12F028FB57
:10547000002800D10024201C10BDC046B8490220DD
:105480000000C84310B507280ED8094B8000C45847
:105490000021201C12F022FB002805D00549201C09
:1054A00012F00EFB002800D10024201C10BDC046C5
:1054B000704902200000C84270B5072824D8134B59
:1054C00084001D590021281C12F008FB002805D07B
:1054D0000F49281C12F0F4FA002800D100250D4BCA
:1054E00000211C59201C12F0F9FA00280AD00A49A0
:1054F000201C12F0E5FA002804D0291C201C12F010
:10550000A8FA70BD0024F8E70020FAE7B8490220A5
:105510000000C843704902200000C8420300002078
:10552000072B02D8014A9B009858704798490220DF
:1055300003000020072B01D8014AD05C7047C04609
:1055400090490220014B18687047C04680820220B3
:10555000034A1378D8B2002B01D000231370704790
:105560009E850220F0B5DE464E4645465746E0B5DC
:10557000454B8BB019004548994603F075FD444BE7
:1055800000269846FE239B059B46424D01AC54E005
:105590000021206812F0AAFA002801D143462360B6
:1055A0000021606812F0A2FA002801D15B46636016
:1055B000A3683949181C9A4612F098FA002805D0B9
:1055C0005046364912F07CFA002801D10023A3602E
:1055D000E3683149181C9A4612F088FA002805D071
:1055E00050462E4912F06CFA002801D10023E360E6
:1055F0000021206912F07AFA002801D1284B23619A
:105600000021606912F072FA002801D1234B636116
:105610000021A06912F06AFA002801D1214BA36190
:105620002B00220083CA83C383CA83C30136F6B228
:1056300083CA83C32435082E1AD0210030000AF013
:105640004DFB0028A4D043462B605B466B600023D3
:10565000AB60EB60124B01362B61104BF6B26B6105
:10566000104BAB6101235B42AB832435082EE4D1A0
:1056700049460D4803F0F8FC0BB0F0BCBB46B246FF
:10568000A946A046F0BDC0467C900210509402107E
:10569000D7A3F03FDC49022000007AC400007A441E
:1056A000007EE5496F12833A8094021070B5304E47
:1056B0003048310003F0D8FC012018F0C5F92E4B1A
:1056C0001860002846D096212C48490110F0C2FBF2
:1056D000022101200FF08EFB022100200FF08AFB37
:1056E000012301220821254810F044FC244B2022EC
:1056F0001C685D680021234812F0BEFA224B082284
:10570000002122481C605D609C60DD601C615D6161
:105710009C61DD611C625D629C62DD621C635D6395
:105720009C63DD6312F0A8FA20220021184812F0D1
:10573000A3FA20220021174812F09EFA002120220D
:10574000154812F099FAFFF70DFF3100134803F0E6
:105750008BFC70BD0021013009F0A0FE3200104822
:10576000104903F0EFFC0F4806F00EFFF1E7C046CA
:105770007C900210A8940210D484022000400340C0
:10578000C8AD0310FC4A0220583A0020904902207C
:10579000B849022070490220984902200C95021055
:1057A000DC9402100234000010B5124B5A78002A23
:1057B00019D10221FF3119800021596099600E49E9
:1057C0000E4CD96000210E48197421009A845A6148
:1057D0009A61DA611A6203F047FC0A48210003F07B
:1057E00043FC012010BD0848044903F0ABFC002035
:1057F000F8E7C046C879022000080A007C90021031
:1058000068950210AC9502103095021070B5002515
:1058100082B0291C041C12F059F9002828D11D4B14
:105820005A78002A1ED18121490019801A495C60EA
:10583000D96000219A845A619A61DA611A629D6086
:105840001974201C12F07EF9144C02000B0014484D
:10585000210003F009FC1348210003F005FC01209E
:1058600002B070BD10480D4903F06CFC0020F7E752
:105870000021012009F012FE201C12F063F9074EEE
:105880000A4D0090019132002800094903F05AFCAA
:105890000020E5E7C879022000080A007C90021089
:1058A000109602105C96021030950210DC950210E2
:1058B0000A340000F0B5050083B00E1C072835D867
:1058C0000027301C391C12F001F900283AD1264C6F
:1058D0006378002B24D10422FF3222806A1C627379
:1058E0000A22E2810022A3846361A361E36123624F
:1058F00067602274A6602573301C12F023F91B4CDC
:105900001B4F009001912A002100380003F0ACFBEE
:1059100018482A00210003F0A7FB012003B0F0BDC6
:105920001548124903F00EFC0020F7E70021012082
:1059300009F0B4FD11482B000C4A114903F002FC98
:105940000020EBE70021012009F0A8FD301C12F037
:10595000F9F8064D0B4C009001912A0020000A49ED
:1059600003F0F0FB0020D9E7C87902207C900210F8
:10597000109702105C970210309502109C9602104E
:105980000C340000DC9602100D340000F0B54646E1
:10599000D6464F46C0B5804684B0072805D904B026
:1059A000E0BCBA46B146A846F0BD42462E492F4853
:1059B00003F05AFB2E4B9A464346DB001C009946E7
:1059C00053464444A400185912F0BCF8544406004D
:1059D00060680F0012F0B6F8264D32003B000090D0
:1059E0000191280003F040FBA06812F0ABF806001C
:1059F000E0680F0012F0A6F81F4D32003B00009047
:105A00000191280003F030FB206912F09BF806009A
:105A1000A0690F0012F096F802900391606912F0ED
:105A200091F8164D3B00009001913200280003F0E0
:105A30001BFB237FCA2B0CD04B4643449B00534493
:105A40005B7F0F49CA2B0CD00D4A0E4803F00CFBAC
:105A5000A5E74B4643449B0053445B7F0A49CA2B4E
:105A6000F2D1094AF1E7C0467C900210A0970210DB
:105A7000DC490220B8970210CC970210E49702107C
:105A80009C970210049802109897021070B50400B9
:105A900088B00B00144A2021684613F079FD2000DD
:105AA00069461EF02FFC041E14D068461EF0A0FDAF
:105AB0002618262130001EF081F900280FD0851B02
:105AC0007F2D0AD8094C2A003100200012F0DAF8A4
:105AD00000236355200008B070BD7F25F2E7300039
