:020000041000EA
:1000000000B5324B212058609868022188439860DF
:10001000D860186158612E4B002199600221596106
:100020000121F02299502B49196001219960352056
:1000300000F044F80222904214D00621196600F024
:1000400034F8196E01211966002018661A6600F04E
:100050002CF8196E196E196E052000F02FF8012189
:100060000842F9D1002199601B49196000215960AB
:100070001A491B48016001219960EB211966A021F2
:10008000196600F012F800219960164914480160C1
:100090000121996001BC002800D000471248134993
:1000A000086003C880F30888084703B5996A0420EC
:1000B0000142FBD001200142F8D103BD02B5186610
:1000C0001866FFF7F2FF186E186E02BD00000240BE
:1000D000000000180000070000035F00212200005C
:1000E000F4000018222000A00001001008ED00E03C
:1000F00000000000000000000000000074B24E7A12
:1001000000200420F7010010CB010010CD010010E9
:10011000C9010010C9010010C9010010C901001077
:10012000C9010010C9010010C90100101188011097
:10013000C9010010C901001045880110FF89011094
:10014000C1010010C1010010C1010010C101001067
:10015000C1010010C1010010C1010010C101001057
:10016000C1010010C1010010C1010010C101001047
:10017000C1010010C1010010C1010010C101001037
:10018000C1010010C1010010C1010010C101001027
:10019000C1010010C1010010C1010010C101001017
:1001A000C1010010C1010010C1010010C101001007
:1001B000C1010010C1010010C1010010C1010010F7
:1001C000EFF30580103800BE00BE00BE00BE00BECA
:1001D00000BE00BEF2EB8871ACAD0310D0AD0310D1
:1001E0003802001090A31AE71E481F49086006C88D
:1001F00081F3088810471D480068002801D019487D
:10020000F3E70DA40ECC002902D000F012F8F9E7B4
:100210001749184A002000E001C19142FCD116495B
:100220008847164988471649884700BEFDE701C937
:1002300001C29A42FBD37047D0AD0310D00000201A
:100240003835002038E203100000042000000420AC
:1002500038E2031000100420001004200000000009
:10026000704700000000000008ED00E0000000D032
:10027000383500202C810220595101101103001043
:1002800051510110F8B5C04606480749091A8B10AC
:10029000C90FC91810B5491003D0044B002B00D06A
:1002A000984710BD38350020383500200000000088
:1002B000054B10B5002B03D00449054800E000BFF2
:1002C000FFF7E2FF10BDC04600000000646D022091
:1002D000182C021070B584B006000C0001AB02AA05
:1002E00003A912F047FA051E04D1002C09D1200001
:1002F00004B070BD019A0299039812F007FA2C001D
:10030000F5E70248310010F0A1FFC046182C02109A
:1003100000B583B004F068F901210D48FFF7DAFF5A
:100320000C4B009300220021062012F089F9FA20DC
:10033000800011F0EFFE07F0EDF8074807F03EF9F6
:100340001AF018FBF82040010AF0F6F8FEE7C04664
:10035000400D030000C2EB0B4C2C021010B50CF04A
:100360000FFA002800D110BD00200CF0A7FBFAE71F
:1003700010B50D2010F0D0FF002201210D2010F04B
:100380009BFFD024240680239B01A3620C2010F045
:10039000C3FF002201210C2010F08EFF80235B019F
:1003A000A3620E2010F0B8FF002201210E2010F0F1
:1003B00083FF8023DB01A362FFF7D0FF10BDD023B2
:1003C0001B0658688004C00F7047D0231B0658686E
:1003D000C004C00F7047D0231B0658684004C00FEC
:1003E000704710B5FFF7BAFF10BD000070B50400EC
:1003F0000D0007280BD80CF0C3F900280CD0002200
:10040000290020000CF086FB002809D070BDA82030
:10041000C0010AF091F8F9E703480AF08DF8F5E712
:1004200002480AF089F8F1E7015400000254000084
:1004300010B5021E08D00378002B09D0013BD8B2BA
:100440001070FFF7D3FF10BD02480AF075F8FAE705
:100450000720F5E70354000010B5021E08D003780A
:10046000072B09D00133D8B21070FFF7BFFF10BDC2
:1004700002480AF061F8FAE70020F5E704540000AA
:1004800010B5072800D910BD072318400CF032FA28
:10049000F9E710B511F04EFF002905D0FA229200BD
:1004A000002312F071FC10BDFA21890012F02EFC1D
:1004B000F9E70000F0B5D6464F464646C0B584B0D1
:1004C00081460F00924698460CAB1E780D9C002585
:1004D00011F030FF0019694100290EDB02900391F1
:1004E0000096434652463900484618F052F904B087
:1004F000E0BCBA46B146A846F0BD012040420149E1
:10050000ECE7C046FFFFFF7FF0B5D6464F464646B4
:10051000C0B584B081460F00924698460CAB1E7859
:100520000D9C002511F006FF0019694100290EDB22
:10053000029003910096434652463900484618F00F
:1005400009F904B0E0BCBA46B146A846F0BD0120A6
:1005500040420149ECE7C046FFFFFF7F30B585B060
:100560002DE0C468C369826901790068019401249F
:100570000094FFF7C9FF039CE369834202D0039B09
:10058000186113E0E568636A226A217920680195A1
:1005900000240094FFF78EFFF1E7C5680179006839
:1005A00001950094FFF7B0FF039B1861039B9868C7
:1005B000002300930233002200211BF03DFA0023A8
:1005C000039301220D4B1868524203A919F0BEF99A
:1005D0000128F4D10398037D022BC2D02123C15CF2
:1005E0008269C3692024045D0029D6D0C5680179D9
:1005F000006801950094FFF75DFFD5E74473022082
:10060000F0B5D6464F464646C0B58EB080460F0080
:100610001600994616AB1B789A4618AB1D78244BEA
:100620001B68002B2ED004AC28220021200013F0E0
:1006300019FC4346049327711AF0DCFF0690179BC0
:10064000079325750A964B460B9320235246E25496
:100650000133E55403940122154B186800235242DC
:1006600003A918F0E5FF01281ED101225242012101
:1006700000201BF00BF908980EB0E0BCBA46B1465A
:10068000A846F0BD002D07D0179B01935346009359
:100690004B46FFF70FFFEFE7179B0193534600937D
:1006A0004B46FFF731FFE7E701204042E4E7C04651
:1006B00044730220F0B5C64600B58EB007000E00A8
:1006C00090461D00234B1B68002B28D004AC0490DF
:1006D00021711AF08FFF0690169B07930023089351
:1006E0000233237543460A930B95149B0C93159B79
:1006F0000D9303940122174B18680023524203A95B
:1007000018F096FF012821D1012252420121002038
:100710001BF0BCF808980EB080BCB846F0BD169B24
:100720000193012300932B00FFF7EEFE85420AD1CF
:10073000169B019300230093159B149A31003800F7
:10074000FFF7B8FEE7E701204042E4E7012040421E
:10075000E1E7C0464473022000B583B0124B1B682A
:10076000002B01D003B000BD00220421102018F09E
:10077000D9FE0D4B1860002811D0C0220B490C483F
:100780000C4B0193022300930023920019F05EFEAC
:100790000128E7D00848DA2103F0F0FFE2E7064835
:1007A000D72103F0EBFFE8E744730220D82C0210B6
:1007B0005D05001064720220882C021030B585B0EF
:1007C00008AC247800250295099D01950094FFF757
:1007D00017FF05B030BD30B585B008AC24780125D1
:1007E0000295099D01950094FFF70AFF05B030BD01
:1007F000F0B585B006000D000A9F03A90A704B7082
:1008000000240FE00D4B019300230093023303AA51
:1008100029003000FFF7D2FF02280CD001201AF087
:10082000EBFA0134022C03DC002FEBD03B00EAE7AB
:10083000002005B0F0BD0120FBE7C04650C300001A
:10084000F0B587B006000F001D0017236B441A7027
:10085000002D1BD000240FE002930123019300958B
:1008600017226A4439003000FFF724FF01280FD017
:1008700001201AF0C1FA0134022C04DC0C9B002B7D
:10088000EAD1044BE8E7002007B0F0BD0020FBE709
:100890000120F9E750C30000F0B5DE4657464E464A
:1008A0004546E0B587B080468A469946002B0CD075
:1008B000130A9B4605AB59461970D5B25D700027E7
:1008C0004B460393A946109D1EE0109B002BEFD0D2
:1008D00000202DE002302A00039913F0C9FA21E02C
:1008E0000193002300933300220051464046FFF756
:1008F00065FF029020001BF07BFF029B9E4220D0F0
:1009000001201AF079FA0137022F10DCAE1C3000FA
:100910001BF0B4FE041E12D05B4603704B464370BE
:10092000002DD7D1119B002BDAD1074BD8E700203F
:1009300007B0F0BCBB46B246A946A046F0BD0020B9
:10094000F6E70120F4E7C04650C30000F0B5CE46FC
:1009500000B586B0070089461D1E0C9E05D0110A01
:1009600005AB19705A70002412E0002EF7D0002059
:1009700016E0029301960095022305AA4946380025
:10098000FFF798FE86420FD001201AF035FA0134A5
:10099000022C04DC0D9B002BEBD1044BE9E700207B
:1009A00006B080BCB946F0BD0120F9E750C3000095
:1009B00010B5002300E00133094A12689A420CD9AD
:1009C000084A1C01A2588242F5D1064A121912792E
:1009D0008A42F0D10348201800E0002010BDC04634
:1009E000984602209C46022070B5002800DA70BDAF
:1009F00001248440D0252D06AC6105201AF0FCF9B5
:100A00006C610A201AF0F8F9F1E70000F0B5CE4663
:100A1000474680B583B006000C00170000280DD0B3
:100A20001F290BD9272909D8FFF7C2FF051E0ED0B1
:100A3000280003B0C0BCB946B046F0BD224A2348E6
:100A400000943300224906F0B9FD0025F0E7214B60
:100A50001B68072B20D81B0198461F4B994645461B
:100A60004D4410220021280013F0FCF94B46424669
:100A7000D6502C716F710023AB71EB712B73012079
:100A800018F08AFE061EA8600CD0002F12DA114A58
:100A9000136801331360CBE70B4A1048104906F086
:100AA0008DFDC5E7084A0F4823000F4906F086FD73
:100AB0003500BDE7380010F02FFC0123BB40D022E9
:100AC000120653625361E2E7E02C0210E82C021098
:100AD00010540000984602209C460220282D021047
:100AE00011540000542D02101254000030B585B08E
:100AF000041E00D17CE0037B002B77D1052020561B
:100B0000002800DB7AE00121A068494218F0BAFF12
:100B1000217920683B4D009520230A22FFF768FECB
:100B200021792068009520230B22FFF761FE2179AF
:100B30002068009500230022FFF75AFE21792068E3
:100B4000009500230122FFF753FE217920680095CC
:100B500000230C22FFF74CFE21792068009500232A
:100B60000D22FFF745FE0F236B4400221A700E2161
:100B700069440A702179206800951432FFF760FEFD
:100B8000002803D10F236B4400221A7021792068BA
:100B90001C4B00930E236B441522FFF751FE0028D7
:100BA00003D10E236B4400221A700F236B441B7871
:100BB000A3710E236B441B78E371A379DBB2217917
:100BC0002068104D00951422FFF712FEE379DBB286
:100BD0002179206800951522FFF70AFE012323736F
:100BE000A06800230022002118F022FD05B030BDCE
:100BF000054A0648064906F0E1FCF7E7FFF7F4FE70
:100C000081E7C04688130000E02C02108C2D0210F2
:100C100013540000F0B5C64600B582B004000D00C4
:100C20001700002850D0067B002E26D00F294DD863
:100C300007260E40072925D8142398460121A068CD
:100C4000494218F01FFF072D25D8002F1DD0A2798B
:100C50000123B340DBB21343A371A379DBB2217943
:100C600020681B4A00924246FFF7C2FD0600A068BA
:100C700000230022002118F0DBFC300002B080BC11
:100C8000B846F0BD15239846D8E7A3790122B240B3
:100C90009343A371E1E7002F10D0E2790123B34021
:100CA000DBB21343E371E379DBB221792068084AB0
:100CB00000924246FFF79CFD0600D8E7E379012247
:100CC000B2409343E371EEE70026D6E70026D4E76F
:100CD00088130000F0B585B0041E28D0037B002BDC
:100CE00027D00F2927D807250D4007291DD81227FF
:100CF0000121A068494218F0C5FE0F266E4400236A
:100D00003370217920680D4B009333003A00FFF7D0
:100D100097FDA06800230022002118F089FC337899
:100D20002B410120184005B0F0BD1327E0E700205B
:100D3000F9E70020F7E70020F5E7C0468813000038
:100D4000F0B5CE4600B584B004000D0003921F003C
:100D5000002845D0067B002E19D000291CD1142371
:100D600099460121A068494218F08CFE002D22D13D
:100D7000A1793B004B40039A13405940A3798B4221
:100D80000DD1A06800230022002118F051FC300092
:100D900004B080BCB946F0BD15239946E1E7A171C6
:100DA000A379DBB2217920680E4A00924A46FFF708
:100DB0001FFD0600E5E7E1793B004B40039A134035
:100DC0005940E3798B42DCD0E171E379DBB22179E0
:100DD0002068044A00924A46FFF70AFD0600D0E761
:100DE0000026D4E78813000070B5182010F094FA9C
:100DF000D024240680256D046562A561052011F0CC
:100E000089F965610A2011F085F916481722202119
:100E1000FFF7FCFD144D2860144C182221212000FE
:100E2000FFF7F4FD124B18600122524223212000EB
:100E3000FFF7ECFD0F4B18602868002801D0FFF782
:100E400055FE0B4B1868002801D0FFF74FFE094BE9
:100E50001868002801D0FFF749FE0A2101200BF095
:100E6000D1FE70BD582E002024470220602E0020A5
:100E70002047022028470220014B18687047C046CF
:100E800024470220014B18687047C04620470220C3
:100E9000014B18687047C0462847022010B503214F
:100EA000022010F0EFF90321032010F0EBF90022EB
:100EB0000121022010F000FA00220121032010F08D
:100EC000FBF90249024806F079FB10BDB42D02106F
:100ED000C02D0210F0B583B005000F0016000029E8
:100EE00019D1174809F028FB0120404226E0A4B29E
:100EF0001448154B019300943B002A005021FFF742
:100F0000CBFC002813D0052019F076FF2D19ADB2C7
:100F10003F19361BB6B2002E0FD03F222A40402385
:100F20009B1A9BB2341C9E42E1D91C1CDFE7074888
:100F300009F002FB0120404200E0002003B0F0BDB8
:100F400052440000582E002050C3000053440000BB
:100F500070B582B00C00150000290DD00D4E0E4B5F
:100F6000019300920B00020050213000FFF7EEFCCD
:100F7000002805D002B070BD084809F0DDFAF9E795
:100F8000074809F0D9FA2A00FF21200012F06AFF71
:100F9000F0E7C046582E002050C300005444000023
:100FA00055440000D0231B06802292029A617047AC
:100FB000D0231B06802292025A61704710B584B07C
:100FC0000400104B1B6898470F4B1B689847230C75
:100FD00002A90B70230A4B708C70FF23CB700B712E
:100FE0006C46FA3B6A46094821F0CAFD084B1B686B
:100FF0009847084B1B689847E37820791B021843F1
:1010000004B010BD103D02201C3D022000C0034072
:10101000183D0220143D022000B583B06B46D91D57
:1010200008700122024821F093FD03B000BDC046C4
:1010300000C0034010B582B06B46DC1D0023237056
:1010400001332200FF21034821F04AFD207802B03D
:1010500010BDC04600C0034010B5054B18680028FD
:1010600004D000230022002118F0E2FA10BDC0468F
:10107000D880022010B5044B1868002803D0012145
:10108000494218F0FFFC10BDD880022010B582B094
:1010900004000E4B1B6898470D4B1B689847230CA8
:1010A00001A90B70230A4B708C70FF23CB706C4628
:1010B000FB3B6A46074821F063FD074B1B689847D6
:1010C000064B1B689847E07802B010BD103D022027
:1010D0001C3D022000C00340183D0220143D0220A8
:1010E00030B583B004000D000D4B1B6898470D4BC5
:1010F0001B68984704232343220C01A90A70240A81
:101100004C708B70CD700422074821F021FD074BF5
:101110001B689847064B1B68984703B030BDC04614
:10112000103D02201C3D022000C00340183D02205B
:10113000143D022070B582B004000D001600002995
:101140001ED0002A1CD00F4B1B6898470E4B1B6803
:101150009847230C01A90B70230A4B708C700B4C21
:101160000322200021F0F4FC33002A00FF2120009C
:1011700021F0B6FC064B1B689847064B1B68984746
:1011800002B070BD103D02201C3D022000C0034093
:10119000183D0220143D022070B582B004000E00FC
:1011A000150000291FD0002A1DD0104B1B6898473E
:1011B0000F4B1B68984704232343220C01A90A7094
:1011C000240A4C708B700B4C0322200021F0C0FCD1
:1011D0002A003100200021F0BBFC074B1B68984718
:1011E000064B1B68984702B070BDC046103D0220F8
:1011F0001C3D022000C00340183D0220143D022087
:1012000000B583B00B000A0A01A90A704B70800078
:101210000130C00090239B019C4660440222FFF7EE
:10122000BBFF03B000BD00B583B00B000A0A01A9E3
:101230000A704B7080000130C000A0239B019C46C7
:1012400060440222FFF7A8FF03B000BD00B583B0E1
:101250000B000A0A01A90A704B7080000130C0001F
:101260008023DB009C4660440222FFF795FF03B019
:1012700000BD00B583B00B000A0A01A90A704B70CB
:1012800080000130C00080235B019C466044022244
:10129000FFF782FF03B000BDF0B5C64600B580463B
:1012A0000025002705E00135EDB2092D14D8B7421D
:1012B00011D043469C000134E40080239B019C46EE
:1012C00064442000FFF77AFE061EECD02000FFF7F2
:1012D00075FE0700E7E73E00300080BCB846F0BD71
:1012E000F0B5C64600B580460025002705E001356B
:1012F000EDB2092D14D8B74211D043469C000134F9
:10130000E40098239B019C4664442000FFF756FEAE
:10131000061EECD02000FFF751FE0700E7E73E0075
:10132000300080BCB846F0BDF8B5DE4657464E46A4
:101330004546E0B507000D001400002901D0002A41
:1013400005D1F0BCBB46B246A946A046F8BD830015
:101350009846581CC3009B46F82040015844FFF7AC
:1013600095FE8602B6B2731E9BB29A46902080010B
:101370005844FFF78BFE000283B299469420800107
:101380005844FFF783FE03004B449AB291465246FD
:101390001340F21A92B2924694420FD81802434672
:1013A0000233DB00184322002900FFF7F5FE21007D
:1013B000494489B23800FFF723FFC2E79E1BA619F4
:1013C000B6B2180243460233DB00984618432900A0
:1013D000FFF7E2FE2900514432004046FFF7DCFEF1
:1013E000E5E70000F8B5DE4657464E464546E0B50F
:1013F00007000D001400002901D0002A08D1294857
:1014000009F09AF8F0BCBB46B246A946A046F8BD22
:1014100083009846581CC3009B46F0204001584466
:10142000FFF734FE8602B6B2731E9BB29A46A02026
:1014300080015844FFF72AFE000283B29946A42097
:1014400080015844FFF722FE03004B449AB29146B4
:1014500052461340F21A92B2924694420FD81802A2
:1014600043460333DB00184322002900FFF762FEE6
:101470002100494489B23800FFF7D5FEC2E79E1B20
:10148000A619B6B2180243460333DB009846184348
:101490002900FFF74FFE2900514432004046FFF774
:1014A00049FEE5E7B0240000F8B507000C1E16D091
:1014B00086000136F600A0239B01F018FFF7E6FD39
:1014C0000502ADB2A4239B01F018FFF7DFFD2D1834
:1014D000ADB2611989B23800FFF7A5FEF8BD024828
:1014E00009F02AF8FAE7C046B124000070B51F4B96
:1014F0001B68002B2ED011200FF00EFFD0242406E5
:1015000080239B026362636114200FF005FF802536
:101510006D036562A561642019F06EFC656164204D
:1015200019F06AFC124B134A1A60134B134A1A60E3
:10153000134B144A1A60144B144A1A60144B154A80
:101540001A60154B154A1A601548282106F036F81E
:10155000012070BD012018F01FF9044B186000280D
:10156000C9D1104808F0E8FF0020F2E7D880022037
:10157000103D022075100010143D0220591000107B
:101580001C3D0220A50F0010183D0220B10F0010D5
:10159000743D022035100010783D02201910001013
:1015A000E02D0210B224000010B5041E1AD09020C5
:1015B000062221000001FFF7EFFDA11DF02004220B
:1015C0000001FFF7E9FD21000A31A0200422C0003C
:1015D000FFF7E2FD21000E31802004224000FFF7DA
:1015E000DBFD10BD014808F0A7FFFAE7B6240000B4
:1015F00070B5061E00D16FE008213C48FFF770FD72
:1016000008213B48FFF76CFD08213A48FFF768FDC9
:1016100008213948FFF764FD00213848FFF760FDD5
:1016200000213748FFF75CFD00213648FFF758FDE1
:1016300000213548FFF754FD00213448FFF750FDE5
:1016400000213348FFF74CFD00213248FFF748FDE9
:1016500000213148FFF744FD00213048FFF740FDED
:1016600000212F48FFF73CFD00212E48FFF738FDF1
:1016700000212D48FFF734FDB820F8218001FFF745
:101680002FFD0A2019F0B8FB0025B8208001FFF7D4
:10169000FDFC0400642019F0AFFB0135192D20D8A2
:1016A000E407F2D5214805F089FF3000FFF77CFF01
:1016B000C82007214001FFF713FDD020D0214001B1
:1016C000FFF70EFDD82008214001FFF709FD18485B
:1016D00005F074FF012070BD164808F02DFF0020B2
:1016E000F9E7154808F03AFF0020F4E7081E00006B
:1016F000081F0000281E0000281F0000481E0000D0
:10170000481F0000681E0000681F0000881E0000BF
:10171000881F0000A81E0000A81F0000C81E0000AF
:10172000C81F0000E81E0000E81F0000142E021071
:10173000382E0210B3240000B424000010B5B820E5
:101740008001FFF7A3FC0123184010BD10B58021D4
:101750000020FFF7C5FC0A2019F04EFB02E0012033
:1017600019F04AFB0020FFF791FC40B20028F6DB9D
:1017700010BD000030B5002818DB0F4B1B688342FA
:1017800017DD0E4B58244443E35C13700024137898
:10179000A34209D9094B582545435B191B195B78AE
:1017A0000B550134E4B2F2E7002030BD0420404282
:1017B000FBE704204042F8E77CA70210C80C002099
:1017C00010B504000023002003E00002E25C104397
:1017D00001338B42F9DB10BD30B5020000780023E5
:1017E000D356002B02DB0860012030BD7F2303406D
:1017F000013B50780860022006E00B681B02155C74
:101800002B430B60230001305C1E002BF5D1ECE76D
:1018100070B506000C001500110010C1601C3018D6
:10182000FFF7DAFF23180133AB60325DA12A07D836
:10183000A02A07D2302A05D06A689B18EB6002E024
:10184000A32AF9D1EB60002070BD000070B5013013
:101850000C4B1D5C1B56002B03DB01310A4B5A5409
:1018600070BD7F242C400231002008E0631E1B1A4B
:10187000DB0016001E414318034DEE540130A04218
:10188000F4DBEDE798750220A0780220F8B5CE468B
:10189000474680B5894615001E00354B01001800EB
:1018A00005F08CFE00240CE0295D324805F086FE30
:1018B000E3171B0FE2180F201040C01A0F2809D0A1
:1018C0000134B4421EDA2307EED12B48210005F083
:1018D00075FEE9E7294805F071FE27000F3F03E098
:1018E000274805F06BFE0137BC4207DBE95D254B5D
:1018F0005B5C68229343F3D12E21F1E7224805F087
:101900005DFEDDE7330727D0F3171B0FF2180F2416
:101910001440E31A98461024E41A002763001B19A8
:101920000133BB4204DB194805F048FE0137F5E7F7
:101930004346F41A03E0124805F040FE0134B44275
:1019400007DA295D0F4B5B5C68229343F3D12E21AC
:10195000F1E70D4805F032FE0548494605F02EFE38
:10196000094805F02BFEC0BCB946B046F8BDC046DC
:10197000582E0210682E02105C2E0210702E0210DB
:10198000742E0210F13B031018940210642E021002
:10199000F8B506000D001700214C58224243A41848
:1019A000647B9C4209D1062C27D012D8022C14D07B
:1019B000042C22D0052040422CE01A4B03221A703E
:1019C000194B069A1A70194808F0B6FD05204042D6
:1019D00020E0413CE4B2022C1DD839002800FFF77A
:1019E000EFFE0F4B582272439B1818619F735B6D7B
:1019F000002B13D0984700200CE058235E433000A2
:101A00001030074C00193A00290012F031FAA419DD
:101A1000A7730020F8BD05204042FBE70020F9E74E
:101A2000C80C00200F8102200E810220E224000059
:101A300070B506000D00002400E001340B4B1B685C
:101A4000A3420FDD0A4B58226243D35CAB42F4D170
:101A5000074BD01801302A0031001CF067FE002827
:101A6000EBD101E001246442200070BD7CA702108C
:101A7000C80C0020F0B5C64600B504000F001600E3
:101A80001D00002800DA77E03E4B1B68834200DC33
:101A900075E03D4B582242439B185B7B0B70062B35
:101AA0002FD009D8022B0BD0042B2AD0374808F0AE
:101AB00043FD0520404244E0413BDBB2022BF5D818
:101AC000314B582262439B181A6D002A09D05823C3
:101AD0006343180010302C49401808335918063158
:101AE0009047294B582262439B189B7B002B00D1C7
:101AF00004332B60244B582262439B181A69002040
:101B000035E0214B582262439B181A6D002A09D0F8
:101B100058236343180010301B49401808335918E4
:101B2000063190473B78042B0ED0174B5821614368
:101B30005A18927B2A601031C918300012F098F9B7
:101B4000002080BCB846F0BD54336343984618006B
:101B500010300D4FC0191DF0ABFA4744B873E4E7DD
:101B6000091A0139C9001300CB40335401302968E8
:101B70008142F5DC0020E4E704204042E1E7042054
:101B80004042DEE77CA70210C80C0020E1240000E0
:101B9000F0B5DE4657464E464546E0B58FB00400E8
:101BA00003917E4DC1239B00E9580AAA2800FFF744
:101BB0002FFE0A9EAF5D062F0ED10C98774A801833
:101BC0000B99FFF735FF0500A02C0BD0A32C09D0F3
:101BD000A12C5BD0002723E0714808F0ADFC012068
:101BE00040424CE00D9FBF1B6E4B9A46C1239B00A9
:101BF000994653464A4698585044684B9B46310094
:101C000059443A0012F034F95B464A469B58DB19B6
:101C10005A464946535053465B58DB195246535077
:101C20005E48C1239B00C15806AAFFF7F1FD6B1C5B
:101C300000D193E0A03C012C6CD90899574B9846F1
:101C40004144069B4246D35C079A039800902800C3
:101C5000FFF79EFE099C0699641A524EC125AD00FD
:101C6000705980194144220012F002F973591B196E
:101C7000735143465B591B1942465351E0190FB04B
:101C8000F0BCBB46B246A946A046F0BD454BC122BA
:101C9000920099585F540135434B1B68AB4217DCE7
:101CA0000D9FBF1B3F4D48193C4B9946310049449D
:101CB0003A0012F0DDF8C1239B004A46D258D219EF
:101CC0004946CA50EA58D219EA5001256D42A7E7A1
:101CD0003248C1239B009946C3580D9A921B9B180A
:101CE0004A4683504A1C2F4B984600234046835453
:101CF0000231424441442800FFF73CFD43464A4636
:101D00009B585A1C41468F5C0237DB1942464946B4
:101D1000535085E7234EC1239B009846F258023268
:101D200092190B2402AB9C46644405AB21002800A9
:101D3000FFF7A0FE4346F3582278F254059C5A1C44
:101D4000B45402341B194246B35014498B58099AB3
:101D50000698121A9B1842468B508FE7099C0699E9
:101D6000641A104B9846C125AD00585940440B4B9E
:101D700099464944220012F07BF843465B591B19EF
:101D8000424653514B465B591B194A465351074B28
:101D9000039A1A70064B02221A706FE79875022098
:101DA000E3240000A07802207CA702100E8102200C
:101DB0000F810220F0B5D6464F464646C0B584B0E6
:101DC000824688461B4CC1239B00E1586A4620008E
:101DD000FFF71EFD0099625C302A25D1029C641A2F
:101DE000154EC125AD007759B819124B9946494493
:101DF000220012F03DF84B465B591B194A465351DD
:101E000073591B19735141465046FFF7C1FE050037
:101E100000982A003900FFF719FD601904B0E0BCF2
:101E2000BA46B146A846F0BD044808F085FB01203B
:101E30004042F3E798750220A0780220E4240000D5
:101E4000F0B5CE46474680B585B00500264CC12387
:101E50009B00E1586A462000FFF7DAFC0099635CBA
:101E6000302B29D1029E761A204FC124A4003B5961
:101E70009846D8191C4B99464944320011F0F8FF96
:101E80004B461B599B194A4613513B599B193B51D1
:101E900000210024144BC12292009A58C0208000D7
:101EA0001B589A4214DA4F1C2800FFF783FF0028C2
:101EB00008DB24183900EDE70D4808F03DFB012050
:101EC00040420BE00B4808F037FB0120404205E0A0
:101ED000009822004146FFF7B9FCA01905B0C0BC2C
:101EE000B946B046F0BDC04698750220A0780220E1
:101EF000E5240000E6240000F0B5D6464F464646ED
:101F0000C0B590B04A4CC1239B00E1580CAA2000F8
:101F1000FFF77EFC0C9B9846E35C9A46A03B012BA6
:101F200003D95346A32B00D076E00E9F4346FF1AF9
:101F3000404DC124A4002B59994658193C4E4346A4
:101F400099193A0011F094FF3159C91931512B599F
:101F5000DB192B51A2234246AB5408AF3A003000A4
:101F6000FFF756FC0B9B08995B1A984628594019B5
:101F700089191A0011F07CFF3159414431512B5914
:101F800043442B5104AF3A003000FFF741FC079F58
:101F900004997F1A2859401989193A0011F068FFED
:101FA0003159C91931512B59DB192B51B8446A46A3
:101FB0003000FFF72DFC039F00997F1A2859401924
:101FC00089193A0011F054FF3359DB1933512B5959
:101FD000DB192B5147445046FFF732FF002821DB25
:101FE0003C180C9822004946FFF730FC124B1B7836
:101FF000002B07D006990F4A535402990F4B1B78B8
:10200000013353540E980C9BC01A001910B0E0BC59
:10201000BA46B146A846F0BD094808F08DFA01203D
:102020004042F3E7074808F087FA01204042EDE715
:1020300098750220A07802200F8102200E810220D4
:10204000E7240000E8240000F0B5C64600B584B0DF
:10205000244CC1239B00E1586A462000FFF7D8FBBF
:10206000009D635D042B2BD1019B1F4A1278934284
:1020700026D102981B4BC0181C491CF057FB0028A6
:102080002AD1039C641B1A4FC126B600B859C01947
:10209000144B984629004144220011F0E9FE4346C2
:1020A0009B591B1942469351BB591B19BB51FFF752
:1020B00023FF00280ADB201804B080BCB846F0BD1E
:1020C0000C4808F039FA01204042F5E70A4808F0C8
:1020D00033FA01204042EFE7084808F02DFA0120CA
:1020E0004042E9E79875022080A7021084A70210F9
:1020F000A0780220E9240000EA240000EB2400007C
:10210000F0B585B01A4CC1239B00E1586A46200007
:10211000FFF77EFB0099635C022B1DD1029B144AE2
:10212000D35C002B18D1039C641A124EC125AD005C
:10213000705980190E4FC919220011F099FE7B5970
:102140001B197B5173591B197351FFF77DFF002831
:1021500008DB201805B0F0BD074808F0EDF90120B4
:102160004042F7E7054808F0E7F901204042F1E76F
:1021700098750220A0780220EC240000ED240000D5
:10218000F0B5C64600B584B0214CC1239B000022A7
:10219000E2502049CA506A4600212000FFF738FB70
:1021A0000099635C302B27D1029D6D1A194EC12412
:1021B000A4003759B819164B984641442A0011F02B
:1021C00057FE43461B595B194246135133595B195D
:1021D0003351FFF795FF002814DB0E4BC12292000C
:1021E0009A58029BD21A00983900FFF72FFB002063
:1021F00004B080BCB846F0BD074808F09DF9012046
:102200004042F5E7054808F097F901204042EFE722
:1022100098750220A0780220EE240000EF24000030
:10222000F0B5CE46474680B585B0061E04DD18F0F1
:10223000F1FB8146002519E00126F8E7304B1878BC
:10224000304CC1239B0098460A236B441B884246AE
:10225000A25A009303AB210000F044FD4346E3582B
:1022600029492A482200FFF711FB0135AE4241DD22
:1022700018F0D0FB4B46C01A31283BD8204B1878B9
:10228000FFF72EF8002835D0002303930A226A4472
:102290001380021CC0239B00984200D91A1C92B2E2
:1022A0001B49174B18780A236B44009303AB00F0CB
:1022B000D1FD00281EDD0004040C154BC022920045
:1022C0001F009C50C121890000237B500D484350C2
:1022D00010490B7010490B70002111F0C3FD0A4921
:1022E0000E4823003A00FFF7D1FAFFF749FF01300B
:1022F000BBD0A3E7280005B0C0BCB946B046F0BDCE
:10230000C30C0020A078022018940210882E02101E
:10231000987502200F8102200E810220782E021073
:10232000024A1368013313607047C046E07B022005
:10233000014B18687047C046E07B022030B583B07F
:102340001E4B18701E4B1A70002900D1A1311D4D73
:1023500029801D4B00221A60FFF7EAFF1B4B186013
:1023600002F0ABFC154C207800F052F92A88207856
:102370000023022100F09CF92378984205D01448EC
:1023800008F0DAF8002003B030BD01AC002501955B
:10239000F020042221000001FEF7CCFE0095210070
:1023A000684602F08BFC074B1B88044A12780949E7
:1023B000094805F003F90120E5E7C046C30C0020F9
:1023C000C20C0020C00C0020E07B0220B87B022061
:1023D000E0240000982E0210A42E021070B5050013
:1023E0000C00FFF7A5FF034B1B68C01A28600423ED
:1023F000237070BDB87B02200CB4F0B5DE465746A2
:102400004E464546E0B589B003900F001600139381
:102410002B9B9B467C4C3023237002218946A17064
:1024200001398846E1700021217110001CF040FE46
:10243000050004206071A571E01D2A00310011F033
:1024400017FDEB1D0826B246AA44A422E2542A0036
:10245000093203330621A1540B3513AA1678E6542A
:10246000281932003D2304A98C466344190011F059
:10247000FFFC7619731C4022A255B21C0420E054C4
:10248000F31C3978A154321D7978E154731DB97861
:10249000A154B21DF978E154F31D4846A05402320C
:1024A0004046E05402332998A05402324846E05492
:1024B00002334046A05402322A98E05402334321AA
:1024C000A15402324046E05402330021A1543700A7
:1024D00010373022E25411362CAB07930023002230
:1024E0000292524604929A46059721E0AB7B9946A8
:1024F0004346042B52D043462370A31C98464B46B8
:102500006370290010314A46404611F0B1FC444640
:102510004C440237E41B731C3B4AD454A31CF618EA
:10252000029B9C466444A31C029301239C46E24404
:10253000DA453AD2079B1A1D07921D68324BF718ED
:1025400030229A55FF237B70F93BBB703C1D2A78E3
:10255000FA70691C200011F08BFC2B78E4186B7B5F
:102560009846042BC2D0062BC0D02370A01C042395
:10257000637029690B0E0D0AFF22120215402B43CE
:102580000A02FF252D042A401A430B061343069323
:10259000042206A911F06CFC0634BAE728001030BA
:1025A0001CF086FDC3B29946A5E7049B9A46059F99
:1025B000154C029BE355F2B25346D31ADBB2013BF2
:1025C00051466354023A6270104D287800F020F8AA
:1025D00028780023A222022100F06AF82878B2B2FB
:1025E000A2230093039B210000F07CFB287800F0DD
:1025F0000FF8002009B0F0BCBB46B246A946A04681
:10260000F0BC08BC02B01847EC7B0220C20C0020D2
:10261000F8B5070007283DD886000136F600751C7E
:10262000FF3510212800FEF75BFD18F0F3F90400D8
:102630002800FEF72BFD002808D018F0EBF9001B4E
:1026400004282AD8012018F0D7FBF1E780239B004B
:10265000F018FF21FEF744FD0123BB4010490A8812
:102660009A430A800F490A889A430A800E4B7A00DF
:102670000021D1520D4B0022DA5502E0012018F062
:10268000BBFBC0239B00F018FEF700FD0028F5D12E
:102690000130F8BD01204042FBE70D204042F8E741
:1026A000EE800220F0800220248002201C80022084
:1026B000F0B5C64600B582B004000D0016001F003C
:1026C000072800D9A5E0012945D0002900D1A3E0C1
:1026D0008B1EDBB2022B00D9A1E07B074AD4002F6E
:1026E00003D0012D4CD0022D53D02000FFF790FFD6
:1026F000A300013398460F233900994329434346E9
:10270000D800FEF7EDFC002E07D1484A1688731C4E
:102710009BB21380464A934251D031002000FEF70D
:1027200095FD4346DE00731CFF33984601211800D7
:10273000FEF7D6FC18F06EF905004046FEF7A6FC41
:10274000002840D018F066F9401B04286AD8012000
:1027500018F052FBF1E7F020042201A90001FEF776
:10276000E9FC019B002BB8D1324807F0E5FE0320BD
:1027700040424AE0304807F0DFFE0620404244E095
:1027800021233B42B1D12D4807F0D6FE062040421E
:102790003BE0BB0602D57BB2002B0ADAFB06A4D5D0
:1027A0007BB2002BA1DB264807F0C6FE0620404284
:1027B0002BE0244807F0C0FE0620404225E01B4BDA
:1027C000214A1A80A9E70121A140204803888B43B0
:1027D000038001223A40A240134303801C4A13881D
:1027E0008B4313801B4B62000021D1521A4B0022F5
:1027F0001A5502E0012018F0FFFAC0239B00F018E0
:10280000FEF744FC0028F5D060B202B080BCB846A8
:10281000F0BD01204042F8E705204042F5E70520E1
:102820004042F2E70D204042EFE7C046C40C0020D2
:10283000F0FF0000C1240000C2240000C3240000F7
:10284000C5240000C424000000C0FFFFEE80022069
:10285000F0800220248002201C800220F8B50700AE
:10286000072850D884000134E000FEF70FFC0F2346
:102870000340012B4AD1E400661CFF3608213000DA
:10288000FEF72EFC18F0C6F805003000FEF7FEFB40
:10289000002808D018F0BEF8401B042839D80120C1
:1028A00018F0AAFAF1E701221300BB40DB431BB288
:1028B0001949088803400B80184B1B883B411A427A
:1028C00011D1C0239B00E018FEF7E0FB002818D0D0
:1028D00080239B00E018FEF7D9FB000708D40A20EC
:1028E00018F08AFAEDE70E4807F038FE002012E0F3
:1028F0003800FFF78DFE0B4807F01EFE0D2040420A
:1029000009E0013007E00120404204E00520404298
:1029100001E00D204042F8BDF0800220EE80022050
:10292000C6220000C7240000F8B50500072856D8C5
:1029300084000134E000FEF7A9FB0F230340012BC4
:1029400050D1E400C0239B00E7183800FEF79EFB3F
:1029500013284AD10134FF3402212000FEF7C0FBC6
:1029600018F058F806002000FEF790FB002808D069
:1029700018F050F8801B04283AD8012018F03CFACF
:10298000F1E718F047F804003800FEF77FFB1C2839
:1029900011D801238340184A134203D1DB020AD520
:1029A000012027E02800FFF733FE144807F0C4FD9C
:1029B000042040421EE018F02DF8001BFA235B00B3
:1029C000984203D8012018F017FADDE72800FFF736
:1029D0001FFE0B4807F0B0FD0D2040420AE0012029
:1029E000404207E00520404204E00320404201E06D
:1029F0000D204042F8BDC04601008810C8240000E8
:102A0000C9240000F0B5CE46474680B583B0050026
:102A100001911400072800D9ADE087000137F800C4
:102A2000FEF734FB0F230340012B00D0A6E0002C5F
:102A300000D1A6E0FB009846C0239B004344994682
:102A40001800FEF723FB172801D01C2814D1514B86
:102A50001B882B41DB0726D58027BF004744380061
:102A6000FEF714FBC30612D400072AD4002003B0DB
:102A7000C0BCB946B046F0BD01F0C0FF012802D18C
:102A800007204042F3E7444807F056FDF8E71021DD
:102A90003800FEF725FB0123AB40DB431BB23D4A68
:102AA00011880B401380F82040014044FEF7EEFAF5
:102AB0008702BFB2BC4200D8270017F0ABFF060068
:102AC00020E02800FFF7A4FD344807F035FD0D2075
:102AD0004042CCE72800FFF79BFD01F08FFF012863
:102AE00002D107204042C2E72D4807F025FDF8E754
:102AF000A7421BD917F08EFF801B092844D801205C
:102B000018F07AF92800FEF7C7FB04004846FEF7E4
:102B1000BDFA172801D01C28DCD1224B1B882B4181
:102B2000DB07E5D5A742E3D90020A0E73A000199E9
:102B30002800FEF7F9FB44460134FF342021200031
:102B4000FEF7CEFA17F066FF06002000FEF79EFAA9
:102B5000002808D017F05EFF801B042816D801203B
:102B600018F04AF9F1E70122AA400A490B881343F9
:102B70000B8038007BE70120404278E70520404287
:102B800075E70E20404272E7002070E70D204042BA
:102B90006DE7C046F0800220CA240000CB2400006C
:102BA000CC240000EE800220F0B5CE46474680B52A
:102BB00083B004000191914607287AD88600013637
:102BC000F000FEF763FA0F230340012B74D14B464C
:102BD000002B74D0F3009846C027BF00474438004C
:102BE000FEF754FA172801D01C2803D117F012FF62
:102BF000060020E001F002FF012802D107256D4206
:102C000061E0354807F098FCF8E7344807F094FC99
:102C100020E0002D21D1324B1B88234101221500D9
:102C20001D401A424ED117F0F5FE801B09284AD8E4
:102C3000012018F0E1F82000FEF752FB05003800F3
:102C4000FEF724FA1728E4D01C28E2D001F0D6FEC3
:102C50000128DAD107256D4235E0A94500D84D4657
:102C6000F02040014044FEF711FA8602B6B2B542A8
:102C700000D82E00320001992000FEF7B3FB444635
:102C80000134FF3440212000FEF72AFA17F0C2FE7B
:102C900005002000FEF7FAF9002808D017F0BAFE68
:102CA000401B042815D8012018F0A6F8F1E73500DC
:102CB00009E001256D4206E005256D4203E00E2581
:102CC0006D4200E00025280003B0C0BCB946B04604
:102CD000F0BD0D256D42F6E7CF240000D0240000A2
:102CE000EE800220F0B5DE4657464646C0B582B0BB
:102CF0000500019116001C000AAB1B889B460728A3
:102D000000D990E087000137F800FEF7BFF90F23E4
:102D10000340022B00D089E0002E00D189E0237807
:102D2000002B09D16378002B06D1A378002B03D1A7
:102D3000E378002B00D17FE05B46002B00D17EE0E2
:102D4000FB009846C0239B0043449A461800FEF7B8
:102D50009DF9222818D104222100C02000014044FE
:102D6000FEF71AFA59462800FEF783FAF8204001C8
:102D70004044FEF78BF98702BFB2BE4200D837004D
:102D800017F048FE06001AE02F4807F0D5FB072091
:102D9000404204E02D4807F0CFFB0720404202B03C
:102DA000E0BCBB46B246A846F0BDA74219D917F011
:102DB00031FE801B092845D8012018F01DF8280095
:102DC000FEF76AFA04005046FEF760F92228E1D1C6
:102DD0001F4B1B882B41DB07E7D5A742E5D9002015
:102DE000DDE73A0001992800FEF79EFA44460134D7
:102DF000FF3420212000FEF773F917F00BFE0500C9
:102E000002E0012017F0F8FF2000FEF73FF900284C
:102E100007D017F0FFFD401B0428F2D90D204042D7
:102E2000BDE73800BBE701204042B8E7052040423B
:102E3000B5E70E204042B2E70C204042AFE70B203E
:102E40004042ACE70020AAE7D1240000D2240000D1
:102E5000EE800220F0B5D646474680B585B0050025
:102E6000009114000193072800D93BE1002A00D10A
:102E70003BE187000137F800FEF708F982469E4BD8
:102E80006A00D35A002B1CD0002607205346184056
:102E900003285CD0042800D1A1E0022800D0EBE098
:102EA000954B6A00D35A002B12D0934B6A00D65A26
:102EB000A64200D92600320000992800FEF792FAB7
:102EC000E1E02800FEF70CFA061EDED1002000E14A
:102ED000082202A92800FEF785FAFE000136FF3617
:102EE00040213000FEF7FCF817F094FD824602E026
:102EF000012017F081FF3000FEF7C8F8002808D045
:102F000017F088FD5346C01A0428F1D90D2040421D
:102F1000DFE002AB1A7801990A705A784A709A7801
:102F20008A70DA78CA701A790C990A801202597973
:102F300052180C990A809A796F496800425212021D
:102F4000DB79D2180A526D4B80225A55ADE76A4B95
:102F50006A00D35A002B0BD0674B6A00D65AA642A0
:102F600000D92600320000992800FEF73BFA8AE0DB
:102F7000062202A92800FEF735FAFE000136FF36C8
:102F800040213000FEF7ACF817F044FD824602E025
:102F9000012017F031FF3000FEF778F8002808D044
:102FA00017F038FD5346C01A0428F1D90D204042CD
:102FB0008FE002AA137801990B7053784B709378C5
:102FC0008B70D378CB7013794B49680043521B0246
:102FD00052799B180B52494B80225A55BCE7464BFD
:102FE0006A00D35A002B0BD0434B6A00D65AA64234
:102FF00000D92600320000992800FEF7F3F942E0DC
:10300000022202A92800FEF7EDF9FB000133FF338D
:10301000984640211800FEF763F817F0FBFC060005
:1030200002E0012017F0E8FE4046FEF72FF80028E6
:1030300007D017F0EFFC801B0428F2D90D20404286
:1030400047E002A803782C4A69008B521B024078A3
:103050001B189BB2023B9BB28B52294A934203D866
:10306000264B80225A55BFE72800FFF7D1FA2548A2
:1030700007F062FA24482CE031002800FEF714FA29
:103080001D4B6A00D652FC000134FF344021200061
:10309000FEF726F817F0BEFC07002000FDF7F6FF4C
:1030A000002808D017F0B6FCC01B042820D8012047
:1030B00017F0A2FEF1E7104A69008B5A9B1B9BB2E6
:1030C0008B52002B0AD00D4A535D01210B435355FF
:1030D000300005B0C0BCBA46B046F0BD074B002278
:1030E0005A55F5E701204042F3E70E204042F0E751
:1030F0000D204042EDE7C046248002201C800220C3
:10310000EA050000D424000017FCFFFF70B515008D
:10311000072800D995E0072900D98CE089004D4B9C
:103120005B589F4680000130C000B0235B019C4685
:1031300060441178FDF7D4FF012070BD800001309C
:10314000C000A8235B019C4660441178FDF7C8FFCE
:103150000120F2E780000130C40090235B01E018F9
:103160001188090AFDF7BCFF98235B01E018297854
:10317000FDF7B6FF0120E0E780000130C000C0236A
:103180001B019C46604404222900FEF705F801203B
:10319000D3E71188FEF76DF80120CEE784000134F3
:1031A000E000FDF773FF0F230340012B4CD1E40037
:1031B000BC239B01E018FDF769FF002816D1661CAF
:1031C000FF3622213000FDF78BFF3000FDF75EFF58
:1031D00000281BD080239B00E5182800FDF756FF30
:1031E000000709D4012017F007FEEEE71A4807F0A0
:1031F000A3F902204042A0E708212800FDF770FF54
:10320000164807F099F90D20404296E7013094E7FF
:1032100084000134E000FDF739FF0F230340012B48
:1032200015D1E000BC239B019C4660442978FDF742
:1032300057FF012081E70A4807F07EF90A20404243
:103240007BE70120404278E70520404275E70520F2
:10325000404272E75CA70210D7240000D824000087
:10326000D924000082B000226B46D91D06E0836994
:10327000DB06FCD403680B7001320131002AF6D062
:103280006B46D87902B070470223002203E0C15C8C
:103290008A18D2B20133162BF9DDC07D801A434261
:1032A0005841C0B27047552805D00F239843F028E5
:1032B00003D0002070470120FCE70120FAE700005E
:1032C00002781F4B1A7083781B04C27812021343D2
:1032D000027913431B4A136043791B04827912025B
:1032E0001343C2791343184A1360037A1B04427ACA
:1032F00012021343827A1343144A1360C37A1B04E5
:10330000027B12021343427B1343114A1360837BF7
:103310001B04C27B12021343027C13430D4A136049
:10332000437C1B04827C12021343C27C13430A4A6F
:103330001360427D837D12021343084A1380704755
:10334000C60C00204C3A0220483A02203C3A0220A7
:10335000383A0220443A0220403A0220DC8002201F
:10336000F8B50400072855D86E4B1B7802261E407E
:103370001B0703D46C4B1D68002D53D16B4B0022EF
:103380001A606B4B1D68002D68D16A4B00221A60D1
:10339000664B1D680021281C10F046FC002805D053
:1033A0006549281C10F048FC002802D05F4B002221
:1033B0001A60604B1D680021281C10F035FC0028A5
:1033C00005D05E49281C10F037FC002802D0594B6C
:1033D00000221A60002E03D1594B1D68002D57D1D1
:1033E000524B544A1168186810F0D7FB554B1860BF
:1033F000544B1C680021201C10F016FC002805D03E
:103400005149201C10F018FC002802D04D4B00221E
:103410001A60F8BD4B4A00231360464A1360434AC2
:103420001360F6E7494B186810F00BFC071C2800E6
:1034300010F007FC011C381C10F099FB444DE7000C
:103440003B199B00595910F0A8FB3F19BF00ED191B
:10345000A96810F082FB354B186092E73D4B186865
:1034600010F0EFFB071C280010F0EBFB011C381CD0
:1034700010F07DFB364DE3001B199B00ED186968C9
:1034800010F08BFBE96810F068FB2A4B18607FE7AF
:10349000314B186810F0D5FB061C280010F0D1FB4A
:1034A000011C301C10F063FB294DE60033199B0012
:1034B000595910F072FB3619B600AD19696810F051
:1034C0006CFB041C1F4B1860184B1868194B1968CB
:1034D00010F063FB051C0021201C10F097FB002856
:1034E0001CD11949201C10F0A7FB002816D11B493C
:1034F000281C10F0A1FB002800D179E7291C201C12
:1035000010F02BFB40004008291C10F030FBFC2180
:10351000890510F091FB002800D169E7094B1D6077
:1035200066E7C046C60C0020483A02208C4B0220B9
:10353000383A0220644B02200000C8430000C84211
:10354000403A0220884B022000401C474C3A02209F
:10355000FC4202203C3A0220443A0220CDCCCC3D31
:1035600070B50024002601E00134E4B2072C14D821
:103570000B4BA200D5580021281C10F055FB002849
:10358000F2D00849281C10F041FB0028ECD0291C7F
:10359000301C10F0E7FA061CE6E7301C70BDC04690
:1035A000704202200000C842044B0022DA731A74F1
:1035B0005A619A61DA611A627047C0461C73022030
:1035C0000300054A5078002800D17047002BFCD03A
:1035D000127B1A70F9E7C0461C73022010B507234E
:1035E00003400122024059089B08490002240C4074
:1035F00014439B001C4308212143C9B20A220F2017
:1036000009F082FB00280DD0012017F0F5FB210006
:103610000A220F2009F078FB002808D0012017F0BB
:10362000EBFB10BDD030800106F086FFF9E70248C1
:1036300006F082FFF5E7C04601340000F8B50EF051
:1036400079FE06000F00002409E00EF073FE801BD7
:10365000B941002916D112D0012017F0CDFB7F2CE3
:1036600010D81A4B9B69DB06EFD47F2CEDD8651C74
:103670001648FFF7F7FD164B18552C00F1E7154BD0
:103680009842E9D9172C1FD9002500E03500230006
:10369000183BAB4216D30E4B585D6E1C9F5DFFF777
:1036A00002FE0028F2D05A2FF0D1094969180A4DBC
:1036B0001822280010F0DCFB2800FFF7E5FD0028A9
:1036C000E4D000E00020F8BD0020FCE7004003400B
:1036D000DC6D022090D00300F0440220F0B5DE46FD
:1036E00057464E464546E0B589B0BF4B1C7B9A7B9A
:1036F0001D7C072C00D95CE15208AA4200DD60E184
:10370000BA4AE3001B199B009B5898460021181CDD
:1037100010F092FA002800D18FE0B44BE2001219A9
:1037200092009B189A6893465B6899460021181C82
:1037300010F082FA002800D182E0AC4BE2001219AE
:1037400092009B18DB689A46A74E706910F079FAD0
:10375000071C280010F07AFA051C011C381C10F018
:1037600006FA0790B06910F06CFA291C10F0FFF906
:10377000071CF06910F065FA291C10F0F8F90690A2
:10378000306A10F05EFA291C10F0F1F9051C33784C
:10379000012B59D0022B00D1CFE0033BDBB2012B30
:1037A00000D916E1904B9E680021301C10F034FACD
:1037B000002800D00FE10021069F381C10F02CFAE1
:1037C000002800D009E10021281C10F025FA00286B
:1037D00000D004E1291C381C10F0C9F9002110F0B8
:1037E0001BFA002800D0FCE0311C504610F0BAF95A
:1037F000071C0699281C10F0BAF9011C381C10F09F
:10380000CCF981467A4D7B4F504610F041FA049036
:103810000591301C10F03CFA02900391484610F0DC
:1038200037FA0090019122002900380003F0C6FE0B
:10383000012306930026002737E06F4B98466CE77C
:10384000FC239B05994678E70021381C10F0F4F919
:1038500000286CD0391C079810F089F9414610F007
:103860009CF983460021281C10F0E6F9002861D05D
:10387000291C069810F07BF9494610F08EF9824613
:103880005B4D5E4E504610F003FA0290039158468D
:1038900010F0FEF90090019122002900300003F0A1
:1038A0008DFE0023069300260127504DE3001A19D0
:1038B000920041465151AD185B46AB604B466B6080
:1038C0005346EB604C49404610F051F980464C4954
:1038D00010F063F928614B49404610F05EF96861C9
:1038E000494BAB613E4360D1069B002B5DD1297FE4
:1038F0003E4BE200121992009B181977002F56D107
:103900003A4BE200121992009B18597F3748E300A6
:103910001A199200821851771100200007F066F8FA
:1039200033493A48220003F049FE012042E00023D7
:103930009B4697E700239A46A2E72B4B5D68002140
:10394000281C10F079F900283DD00021079810F0CC
:1039500073F9002839D00021381C10F06DF90028C7
:1039600035D0291C584610F0FDF8061C0799381C64
:1039700010F0FDF8011C301C10F00FF980461C4EB1
:10398000234F281C10F084F902900391404610F058
:103990007FF90090019122003100380003F00EFE03
:1039A00000230693012600277FE7CA21A0E7CA214A
:1039B000ACE7002009B0F0BCBB46B246A946A04621
:1039C000F0BD0020F6E70020F4E70020F2E7002039
:1039D000F0E70020EEE70020ECE70020EAE7002017
:1039E000E8E70020E6E7C0461C730220FC42022004
:1039F000D02E02105C2F0210D7A3F03FDC2E021055
:103A0000007EE54900007A446F12033BA82F0210A4
:103A10001C2F021030B583B0344B5B78002B22D0C2
:103A2000324B1B7B83421ED1304BDA7B0132D2B248
:103A3000DA7358692E4909680918596198692D493E
:103A4000096809189961D8692B4909680918D96169
:103A5000186A2A49096809181962197C0131197410
:103A60009B7B9A4201D203B030BDFFF737FE00289E
:103A700017D01E4B24215A5C01325A541B4A137B27
:103A80000133DBB2527B934211D3184B1B78012BCD
:103A900017D0022B24D0042B24D0032B24D0184A77
:103AA00010E0124B25215A5C01325A54E6E70F4CC4
:103AB0002373FFF779FD227B1249134803F07EFD43
:103AC000D1E7124A094C2423E35C2521655C0D49AA
:103AD0000F48009503F072FD002323706370C2E766
:103AE0000C4AEFE70C4AEDE70C4AEBE71C730220A7
:103AF0004C3A0220483A02203C3A0220383A02204E
:103B0000F42F0210D02E02100C300210D42F02100D
:103B100034300210DC2F0210E42F0210FC2F0210B0
:103B200070B50400072809D81D4B1868642115F0EA
:103B3000A9FF012807D00025280070BD194806F00C
:103B4000FBFC0025F8E72000FFF748FD02E01648DF
:103B5000FFF788FB144B9B69DB06F8D53C2017F078
:103B60004BF9FFF76BFD051E0ED1104A00231360C1
:103B70000F4A13600F4A1360094B18680023002294
:103B8000002115F055FDD7E70B48FFF799FB200002
:103B9000FFF7E6FB094B1C702000FFF73BFFEBE74C
:103BA0003C8002200234000000400340884B022089
:103BB000644B02208C4B0220F0440220FB80022048
:103BC000072803D8024B8000C05870470020FCE74C
:103BD0001C440220F0B5DE464F4680B583B0070096
:103BE0000E00072804D903B0C0BCBB46B146F0BDE7
:103BF0000EF0A0FB04000D00002E2DD01B4BFA0090
:103C00009B181A685B68110019431FD02000290017
:103C1000801A994101225242D31712184B41002BAE
:103C200014D100920193019B002B03D1104B009AF9
:103C30009A420BD80F4EBB009B469B5999460E4AA1
:103C400000230FF089F848445B469851074BFF006A
:103C5000DB191C605D60C6E7044AFB00D218074B05
:103C60001868596810605160BDE7C04638350020BB
:103C70007E9698001C44022040420F00C832031078
:103C800070B582B0254B1C786B46D81D002303709D
:103C9000FFF796FC051E03D06B46DC791F4B1C70AA
:103CA0006B469E1D002333703100200008F07AFD22
:103CB00031781B4B19552000FFF78CFF2000FFF7D0
:103CC0007FFF184BA20098502000FFF729FF002823
:103CD0000CD0154AA300154909689950144A154992
:103CE00009689950144A154909689950002D09D15D
:103CF0000A4A1378013307210B401370072C04D0B4
:103D000002B070BD054B1C70F8E7FFF729FC0C4BA7
:103D100018600C4B01221A70F2E7C04600810220A5
:103D2000B0420220B8420220D84202208C4B02202E
:103D300070420220644B022090420220884B0220F5
:103D4000E87B02200981022010B5072810D80B4B10
:103D50008000C4580021201C0FF066FF00280AD004
:103D60000749201C0FF052FF002802D1002400E078
:103D70000024201C10BD0024FBE7C046D8420220CE
:103D80000000C84310B5072810D80B4B8000C4585A
:103D90000021201C0FF048FF00280AD00749201CF2
:103DA0000FF034FF002802D1002400E00024201C82
:103DB00010BD0024FBE7C046704202200000C8424C
:103DC00070B50400072817D8FFF7BEFF051C2000B8
:103DD000FFF7D8FF011C281C0FF0DFFE041C002198
:103DE0000FF022FF00280AD00649201C0FF00EFF1A
:103DF000002802D1002400E00024201C70BD002413
:103E0000FBE7C04600401C47072803D8024B800050
:103E1000C05870470020FCE7B8420220072802D8AB
:103E2000024B185C70470020FCE7C046B0420220FD
:103E3000014B18687047C046E87B0220044B1B7892
:103E4000D8B2002B00D17047014B00221A70FAE75C
:103E50000981022030B58BB04349444803F0AEFBE2
:103E6000002428E0424B019333E0FC239B0502939E
:103E700035E000230493059800210FF0DDFE0028B3
:103E80004AD0069800210FF0D7FE002847D00798A7
:103E900000210FF0D1FE002844D0364BE100091973
:103EA000890001AA5B1823CA23C323CA23C323CAD8
:103EB00023C30134E4B2072C50D801A9200009F033
:103EC000CFFA002831D1019800210FF0B5FE00286B
:103ED000C8D0029800210FF0AFFE0028C5D0039D86
:103EE0002549281C0FF0A8FE002805D02349281CCE
:103EF0000FF08CFE002801D100230393049D1E497E
:103F0000281C0FF099FE0028B3D01C49281C0FF084
:103F10007DFE0028AFD1ACE7194B0593B1E7174BF5
:103F20000693B4E7174B0793B7E7124AE1000B1962
:103F30009B000F4898500B199B00D318FC2080055C
:103F4000586000209860D8600D4818610B4858618F
:103F50000C489861FF2018775877AAE702490A4869
:103F600003F02CFB0BB030BDD02E021070300210CD
:103F7000D7A3F03FFC42022000007AC400007A443C
:103F8000007EE5496F12033BA030021070B5234953
:103F9000234803F013FB012015F0FEFB214B1860B2
:103FA000002815D09621204C490120000EF0B4FACB
:103FB000022101200DF066F9022100200DF062F9C6
:103FC00001230122082120000EF07CFA00231CE0CE
:103FD000164806F0B1FA20E0154A980000268650EF
:103FE000144AD900521814490C684D681460556081
:103FF000124AD654124900224250124942501249E4
:104000004250124A86500133DBB2072BE4D9FFF746
:1040100021FF02490E4803F0D1FA70BDD02E0210E4
:10402000C83002103C8002200040034003340000EE
:104030001C44022038350020C8320310B042022050
:10404000D84202207042022090420220B842022050
:10405000F430021010B5144B5B78002B1DD1124BBD
:1040600001221A705A7000225A609A6000221A7354
:1040700008215973023199731A315A5401315A5433
:10408000FFF792FA094C0A48210003F097FA094811
:10409000210003F093FA012010BD0449064803F003
:1040A000F7FA0020F8E7C0461C730220D02E021059
:1040B00050310210943102101831021070B5040012
:1040C000072829D8154B5B78002B1FD1134B0122F1
:1040D0001A705A7000225A609A601873421C5A7300
:1040E0000A229A73002224215A5401315A54FFF7AC
:1040F0005BFA0B4D0B482200290003F05FFA0A48D7
:104100002200290003F05AFA012070BD0449074833
:1041100003F0BEFA0020F8E70020F6E71C73022047
:10412000D02E0210C43102100032021018310210D9
:1041300010B5041C00210FF06FFD00282DD1184B85
:104140005B78002B23D1164B02221A70013A5A7069
:104150005C6000229A6000221A73082159730231B0
:1041600099731A315A5401315A54FFF71DFA201C21
:104170000FF08EFD02000B000A4C0B48210003F0EB
:104180001DFA0A48210003F019FA012010BD054963
:10419000074803F07DFA0020F8E70020F6E7C04664
:1041A0001C730220D02E0210343202108032021012
:1041B00018310210F0B583B004000D1C072836D862
:1041C0000021281C0FF028FD002833D11A4B5B7802
:1041D000002B26D1184B02221A70013A5A705D60EA
:1041E00000229A601C73621C5A730A229A7300227E
:1041F00024215A5401315A54FFF7D6F90F4F104E6B
:10420000281C0FF045FD009001912200390030007C
:1042100003F0D4F90B482200390003F0CFF9012054
:1042200006E00649084803F033FA002000E00020C9
:1042300003B0F0BD0020FBE71C730220D02E02105B
:10424000C03202100433021018310210F0B583B0EE
:1042500004000D1C072836D80021281C0FF0DCFCB8
:10426000002833D11A4B5B78002B26D1184B032240
:104270001A70023A5A7000225A609D601C73621CC8
:104280005A730A229A73002224215A5401315A5433
:10429000FFF78AF90F4F104E281C0FF0F9FC009021
:1042A000019122003900300003F088F90B48220008
:1042B000390003F083F9012006E00649084803F0BD
:1042C000E7F9002000E0002003B0F0BD0020FBE78C
:1042D0001C730220D02E02103C33021088330210CF
:1042E0001831021010B5041C00210FF095FC0028B5
:1042F0002DD1184B5B78002B23D1164B04221A705A
:10430000033A5A7000225A609C6000221A730821F6
:104310005973023199731A315A5401315A54FFF7C3
:1043200043F9201C0FF0B4FC02000B000A4C0B48B0
:10433000210003F043F90A48210003F03FF901206E
:1043400010BD0549074803F0A3F90020F8E7002055
:10435000F6E7C0461C730220D02E0210C4330210B0
:104360001034021018310210014B58787047C046C3
:104370001C730220F0B5D6464F4680B585B00400C8
:10438000072804D905B0C0BCBA46B146F0BD2C49D7
:104390002C48220003F012F92B4AE3001919890076
:1043A000885855186B6899460FF072FC06000F008C
:1043B00048460FF06DFC0090019132003B0023480D
:1043C00003F0FCF8A868EB6899460FF061FC060062
:1043D0000F0048460FF05CFC0090019132003B005A
:1043E0001B4803F0EBF828696B699946AB699A465C
:1043F0000FF04EFC06000F0050460FF049FC0290F3
:10440000039148460FF044FC0090019132003B00BC
:10441000104803F0D3F82B7FCA2B0DD00E490A4B5E
:10442000E200121992009B185B7FCA2B06D00A4A41
:104430000A4803F0C3F8A5E70949F0E7084AF7E797
:10444000D02E021060340210FC4202207834021098
:104450008C340210A43402105C340210C4340210F4
:10446000583402100300303BDBB2092B0BD9030098
:10447000413BDBB2052B08D90300613BDBB2052BC6
:1044800005D8573870473038FCE73738FAE701204D
:104490004042F7E7084BDA6802601A6942605A69DD
:1044A00082609A69C260DA6902611A6A42615A6A74
:1044B00082619B6AC36170470080054070B588B017
:1044C00004000B00144A2021684610F0EFFD6946F5
:1044D00020001AF077FC041E15D068461AF0E8FD9B
:1044E0002618262130001AF0C9F900280ED0851BA5
:1044F0007F2D00D97F25094C2A00310020000FF0C4
:10450000B7FC00236355200008B070BD30001AF0DE
:10451000CFFD3018EBE7C046E4340210588002208B
:10452000F8B50500060007E020232B7001360135A1
:1045300002E001362C7001353478002C13D02B2C7E
:10454000F2D0252CF5D17078FFF78CFF071EF0DB39
:10455000B078FFF787FF0028EBDB3F0107432F70A0
:1045600003360135E8E700232B70F8BD10B586B09F
:10457000041E14D01722002168460FF073FC00229D
:10458000032A10DCA11888796B469B189871887BE8
:104590009873887A9872897C99740132F0E711488F
:1045A00005F0CAFF15E0002303E0E15C6A46D15440
:1045B0000133052BF9DDA37D013B5A4253416C4683
:1045C000A3756846FCF7F0FF6846FDF711F8041E76
:1045D00002D1200006B010BD0A21012008F050FBD6
:1045E000F7E7C0460174000010B50F4B1A680F4B77
:1045F0009A4203D10C4B9B88012B09D00A4C3022E4
:10460000002120000FF02EFC084B23600123A38023
:104610000548836801338360054B9B68C360103095
:10462000FFF738FF10BDC0462C81022050414E5389
:104630000080054070B582B0214B1A68214B9A4228
:1046400003D11F4B9B88012B0BD01F4C200002F085
:10465000B5FF1E4802F0B2FF200002F0AFFF02B02B
:1046600070BD194D280002F0A9FF194802F0A6FFFD
:10467000134CA168E268174802F0A0FF164802F048
:104680009DFF21696269A369E6691448009602F0FA
:1046900095FF216A626AA36AE66A1148009602F0F1
:1046A0008DFF280002F08AFF0023E36005E0044A42
:1046B000191D8900002088500133072BF7D9CEE758
:1046C0002C81022050414E53E83402102435021050
:1046D000583502108C350210B8350210E035021042
:1046E0002036021010B50A4A13680133136016F021
:1046F00091F9FA229200002300210FF011FAFA2218
:10470000920000230EF040FB024B186010BDC04623
:104710003C47022040470220014B18687047C046C2
:104720003C47022010B5064C064BE36073462361FC
:10473000606116F049FFA061034807F083FFFEE7C0
:1047400000800540F200EFBE6036021010B5084C44
:10475000084BE3607346236116F04CFF6061002054
:1047600016F032FFA061044807F06CFFFEE7C04678
:1047700000800540F300EFBE6036021010B5054B17
:10478000054ADA6072461A615961044807F05AFF17
:10479000FEE7C04600800540F400EFBE6036021020
:1047A00070B506000025012040420AE001230340C5
:1047B0005B424008074C234058400132072AF5DD90
:1047C00001358D4203D2735D58400022F6E7C043A5
:1047D00070BDC0462083B8ED70B5104B1A68104B01
:1047E0009A4215D10D4B9B88022B13D10B4BDB88C2
:1047F0009C2B11D1094DAC680023AB609C21280093
:10480000FFF7CEFFAC60201A43425841C0B200E02F
:10481000002070BD0020FCE70020FAE75C81022048
:10482000474C524310B5044C0023A3609C21200048
:10483000FFF7B6FFA06010BD5C81022010B5002319
:1048400004E00F4A9A180021117001339B2BF8D90C
:104850000B4B0C4A1A6002229A809A32DA800022AC
:104860001A731A6334215A549A63DA634C315A54D6
:1048700001315A5403315A54FFF7D4FF10BDC046DA
:104880005C810220474C524370B50400FFF7A4FF3F
:1048900000281DD0114BD86B002802D0A0421AD896
:1048A000201A0E4AD4638025535D0F210B401C0053
:1048B0001034A400A0500133194051558123D35C1A
:1048C0000F2B02D8013381215354FFF7ABFF70BD8A
:1048D000FFF7B4FFDEE70020E3E7C0465C8102207B
:1048E00010B50400FFF778FF002803D0002C15D086
:1048F000002207E0FFF7A2FFF8E7094B9B1884337B
:1049000019700132A15C002901D0162AF5D9044B97
:104910009B18843300221A70FFF784FF10BDC04635
:104920005C81022083001B189B0009488446634475
:10493000100000290AD01004064A196848401040A7
:10494000802252019446634418607047024AF4E79B
:104950000C0005400000FFFFFFFF0000D0231B06F6
:10496000802252039A617047D0231B068022520393
:104970005A61704710B50400054B1B78834200D183
:1049800010BD0A2108F03EF9014B1C70F8E7C04643
:104990002081022010B508F009F810BD10B53220B2
:1049A00008F08CF810BD10B53221002008F0ECF8AA
:1049B0003221002008F064F93221012008F022F9A8
:1049C00010BD000010B5084A00231370074A137089
:1049D000074A1360137153710120FFF7CBFF05499C
:1049E000054802F0EBFD10BD1D8102202081022050
:1049F000307402206C36021078360210014B1878A1
:104A0000C0B270471D81022010B51A4B1B78012BD4
:104A100026D01949194802F0D1FDFFF7BBFFFFF777
:104A2000BDFFFFF7C0FF134B01221A70FFF796FF7F
:104A30000DF080FC002917D0FA22920000230EF01E
:104A4000A3F90F4B186000221A715A710D4B0132F5
:104A50001A7009490C4802F0B1FD02F039FE10BD90
:104A60000A4805F07BFDFAE7FA2189000EF04EF9BD
:104A7000E7E7C0461D8102206C360210AC360210FA
:104A80003074022020810220D03602101062000013
:104A900010B5184B1B78002B28D002F025FE164CC1
:104AA0001648210002F08AFDFFF75EFF0120FFF7A4
:104AB00061FF0A21002008F0E3F809F045FE0D4BE4
:104AC00000221A700E48210002F078FD0D4B0622DC
:104AD0001A600D4B82320D499950083ADA670C4B37
:104AE0001A68012393430B4A136010BD0A4805F06E
:104AF00035FDFAE71D8102206C360210F0360210F7
:104B0000143702108475022000000540FFFF0000EA
:104B100078000540781005401162000010B50DF0D6
:104B200009FC002919D0FA22920000230EF02CF97A
:104B300004003C4B1B78012B15D03B4B00221A6024
:104B40003A4B01321A703A4B1B78002B33D00022BB
:104B500000210620FFF7E6FE2DE0FA2189000EF085
:104B6000D5F80400E5E7304B1B68002B24D0E31A8E
:104B7000FA229200934228D22D4B1B78002B2FD083
:104B80002C4B1B68002B01D12A4B1C60294B186849
:104B9000201AFA21C9000EF0B9F8FA239B009942B5
:104BA00037D20804401A19000EF0B0F882B2002182
:104BB0000620FFF7B7FE10BD1B4B1C601B4B0122EC
:104BC0001A700120FFF7D6FED6E7174B1C60174B73
:104BD000187801225040C0B21870FFF7CBFECBE727
:104BE00004211C200CF04EFB134B06221A60134BC1
:104BF000823213499950083ADA67124B1A68012336
:104C000019009143104A1160094A1370094B1C6046
:104C1000B6E70B04C91A0D4BC818FA2189000EF02B
:104C200075F8C3E71D81022020740220C70C002004
:104C30001F810220147302208075022000000540AD
:104C4000FFFF0000780005407810054030F8CF07DE
:104C500010B50C00034904220FF00AF90423237055
:104C600010BDC0464C37021010B50C000349192284
:104C70000FF0FEF81923237010BDC0465437021000
:104C800010B50C00034918220FF0F2F81823237016
:104C900010BDC04670370210F8B506000D0009F0CF
:104CA0009DFF04001AF004FAC7B2FF22024021005F
:104CB00030000FF0DDF82F70F8BD704770B5AEB062
:104CC00004000D000B49582218A80FF0D1F80A4E25
:104CD00000231793169301331593542219A968469C
:104CE0000FF0C6F8189B320029002000FDF784FB66
:104CF0002EB070BD8CA7021084A7021030B587B00B
:104D0000041E05D005F00CFD002805D007B030BD0D
:104D1000064805F011FCF9E7684609F007F9172283
:104D2000694620000FF0A4F8F0E7C04671240000A7
:104D300030B585B00B784C788D78C978044A0291EB
:104D400001950094102110F0B1F9C0B205B030BD4A
:104D50008C370210F0B587B00B784C788D78CE7810
:104D60000F794979054A04910397029601950094B9
:104D7000122110F09BF9112007B0F0BD98370210F6
:104D800030B587B005000C006846FFF7B7FF6B46EB
:104D9000991D2800FFF7CCFF207007B030BD30B55B
:104DA00087B005000C006846FFF7A8FF0A21694498
:104DB0002800FFF7BDFF207007B030BD30B587B0C9
:104DC00005000C006846FFF799FF0E216944280092
:104DD000FFF7AEFF207007B030BD30B587B00500DB
:104DE0000C006846FFF78AFF122169442800FFF78C
:104DF0009FFF207007B030BD70B586B005000C0075
:104E00006846FFF77BFF69462800FFF7A3FF207085
:104E100006B070BD30B583B00D00140000230193BF
:104E20000138C0B207280AD9042201A928000FF0CE
:104E30001FF8002C01D00423237003B030BD6B4653
:104E4000D91C00230B7007F01DFE0028ECD06B4628
:104E500003331B780193E7E710B50A000100012036
:104E6000FFF7D8FF10BD10B50A0001000220FFF7C0
:104E7000D1FF10BD10B50A0001000320FFF7CAFFE3
:104E800010BD10B50A0001000420FFF7C3FF10BDDC
:104E900010B50A0001000520FFF7BCFF10BD10B5DA
:104EA0000A0001000620FFF7B5FF10BD10B50A008B
:104EB00001000720FFF7AEFF10BD10B50A0001008A
:104EC0000820FFF7A7FF10BD00B583B01100002335
:104ED0000193002A08D0002806DD0200042800D92A
:104EE000042201A80EF0C4FF019B002B01D0012376
:104EF000019301994B1E9941C9B20022002007F08D
:104F0000C8FD03B000BD00B583B0110000230193BC
:104F1000002A08D0002806DD0200042800D9042257
:104F200001A80EF0A5FF019B002B01D001230193E6
:104F300001994B1E9941C9B20022012007F0A9FD39
:104F400003B000BD00B583B0110000230193002A17
:104F500008D0002806DD0200042800D9042201A898
:104F60000EF086FF019B002B01D0012301930199D4
:104F70004B1E9941C9B20022022007F08AFD03B0FE
:104F800000BD00B583B0110000230193002A08D0B2
:104F9000002806DD0200042800D9042201A80EF032
:104FA00067FF019B002B01D00123019301994B1E48
:104FB0009941C9B20022032007F06BFD03B000BD88
:104FC00000B583B0110000230193002A08D0002807
:104FD00006DD0200042800D9042201A80EF048FFD3
:104FE000019B002B01D00123019301994B1E994194
:104FF000C9B20022042007F04CFD03B000BD00B58B
:1050000083B0110000230193002A08D0002806DD98
:105010000200042800D9042201A80EF029FF019BF8
:10502000002B01D00123019301994B1E9941C9B274
:105030000022052007F02DFD03B000BD00B583B0B0
:10504000110000230193002A08D0002806DD020089
:10505000042800D9042201A80EF00AFF019B002BAE
:1050600001D00123019301994B1E9941C9B200223D
:10507000062007F00EFD03B000BD00B583B011009F
:1050800000230193002A08D0002806DD020004282E
:1050900000D9042201A80EF0EBFE019B002B01D0E9
:1050A0000123019301994B1E9941C9B200220720A7
:1050B00007F0EFFC03B000BD10B582B00C00002378
:1050C0000193042201A90EF0D3FE0423237002B041
:1050D00010BD000000B583B0110000230193002A29
:1050E00008D0002806DD0200042800D9042201A807
:1050F0000EF0BEFE019B002B01D103B000BDFA20D3
:10510000400007F0CDFC0028F7D18A210248890130
:1051100002F0BEFAF1E7C046B837021010B582B00F
:105120000C0000230193042201A90EF0A1FE042328
:10513000237002B010BD000000B583B01100002341
:105140000193002A08D0002806DD0200042800D9B7
:10515000042201A80EF08CFE019B002B01D103B0AC
:1051600000BDFA20400007F0A2FC0028F7D1024859
:10517000024902F08DFAF2E7E037021081220000C6
:1051800070B58AB00E0015001C00694606F0E2FA00
:10519000002814D06A462423D35C002B0FD0019A38
:1051A0003260029A2A60039A2260049A0E990A6079
:1051B000069A0F990A60059B109A13600AE0002076
:1051C0003060286020600E9B18600F9B18600023E1
:1051D000109A13600AB070BD70B58AB005000C005B
:1051E00000230993089307930693059300230493E0
:1051F00004AB029305AB019306AB009307AB08AA7F
:1052000009A90020FFF7BCFF0998064E0EF040FDEB
:10521000009001913200102128000FF047FF20700C
:105220000AB070BD0838021070B58AB005000C00D5
:10523000002309930893079306930593002304938F
:1052400004AB029305AB019306AB009307AB08AA2E
:1052500009A90020FFF794FF0898064E0EF018FDEC
:10526000009001913200102128000FF01FFF2070E4
:105270000AB070BD1038021070B58AB005000C007D
:10528000002309930893079306930593002304933F
:1052900004AB029305AB019306AB009307AB08AADE
:1052A00009A90020FFF76CFF0798064E0EF0F0FCEE
:1052B000009001913200102128000FF0F7FE2070BD
:1052C0000AB070BD1838021070B58AB005000C0025
:1052D00000230993089307930693059300230493EF
:1052E00004AB029305AB019306AB009307AB08AA8E
:1052F00009A90020FFF744FF0698064E0EF0C8FCEF
:10530000009001913200102128000FF0CFFE207094
:105310000AB070BD1038021070B58AB005000C00DC
:10532000002309930893079306930593002304939E
:1053300004AB029305AB019306AB009307AB08AA3D
:1053400009A90020FFF71CFF0598064E0EF0A0FCEF
:10535000009001913200102128000FF0A7FE20706C
:105360000AB070BD1038021030B58BB005000C00CB
:10537000002309930893079306930593002304934E
:1053800004AB029305AB019306AB009307AB08AAED
:1053900009A90020FFF7F4FE049B044A102128000D
:1053A0000FF084FE20700BB030BDC04620380210D4
:1053B00070B58AB005000C00002309930893079389
:1053C000069305930023049304AB029305AB01936A
:1053D00006AB009307AB08AA09A90120FFF7D0FE8E
:1053E0000998064E0EF054FC0090019132001021F5
:1053F00028000FF05BFE20700AB070BD0838021064
:1054000070B58AB005000C00002309930893079338
:10541000069305930023049304AB029305AB019319
:1054200006AB009307AB08AA09A90120FFF7A8FE65
:105430000898064E0EF02CFC0090019132001021CD
:1054400028000FF033FE20700AB070BD1038021033
:1054500070B58AB005000C000023099308930793E8
:10546000069305930023049304AB029305AB0193C9
:1054700006AB009307AB08AA09A90120FFF780FE3D
:105480000798064E0EF004FC0090019132001021A6
:1054900028000FF00BFE20700AB070BD1838021003
:1054A00070B58AB005000C00002309930893079398
:1054B000069305930023049304AB029305AB019379
:1054C00006AB009307AB08AA09A90120FFF758FE15
:1054D0000698064E0EF0DCFB009001913200102180
:1054E00028000FF0E3FD20700AB070BD10380210E4
:1054F00070B58AB005000C00002309930893079348
:10550000069305930023049304AB029305AB019328
:1055100006AB009307AB08AA09A90120FFF730FEEC
:105520000598064E0EF0B4FB009001913200102158
:1055300028000FF0BBFD20700AB070BD10380210BB
:1055400030B58BB005000C00002309930893079336
:10555000069305930023049304AB029305AB0193D8
:1055600006AB009307AB08AA09A90120FFF708FEC4
:10557000049B044A102128000FF098FD20700BB006
:1055800030BDC0462038021070B58AB005000C004E
:10559000002309930893079306930593002304932C
:1055A00004AB029305AB019306AB009307AB08AACB
:1055B00009A90220FFF7E4FD0998064E0EF068FBEA
:1055C000009001913200102128000FF06FFD207033
:1055D0000AB070BD0838021070B58AB005000C0022
:1055E00000230993089307930693059300230493DC
:1055F00004AB029305AB019306AB009307AB08AA7B
:1056000009A90220FFF7BCFD0898064E0EF040FBEA
:10561000009001913200102128000FF047FD20700A
:105620000AB070BD1038021070B58AB005000C00C9
:10563000002309930893079306930593002304938B
:1056400004AB029305AB019306AB009307AB08AA2A
:1056500009A90220FFF794FD0798064E0EF018FBEB
:10566000009001913200102128000FF01FFD2070E2
:105670000AB070BD1838021070B58AB005000C0071
:10568000002309930893079306930593002304933B
:1056900004AB029305AB019306AB009307AB08AADA
:1056A00009A90220FFF76CFD0698064E0EF0F0FAED
:1056B000009001913200102128000FF0F7FC2070BB
:1056C0000AB070BD1038021070B58AB005000C0029
:1056D00000230993089307930693059300230493EB
:1056E00004AB029305AB019306AB009307AB08AA8A
:1056F00009A90220FFF744FD0598064E0EF0C8FAEE
:10570000009001913200102128000FF0CFFC207092
:105710000AB070BD1038021030B58BB005000C0017
:10572000002309930893079306930593002304939A
:1057300004AB029305AB019306AB009307AB08AA39
:1057400009A90220FFF71CFD049B044A1021280030
:105750000FF0ACFC20700BB030BDC04620380210FA
:1057600070B58AB005000C000023099308930793D5
:10577000069305930023049304AB029305AB0193B6
:1057800006AB009307AB08AA09A90320FFF7F8FCB2
:105790000998064E0EF07CFA00900191320010211B
:1057A00028000FF083FC20700AB070BD083802108A
:1057B00070B58AB005000C00002309930893079385
:1057C000069305930023049304AB029305AB019366
:1057D00006AB009307AB08AA09A90320FFF7D0FC8A
:1057E0000898064E0EF054FA0090019132001021F4
:1057F00028000FF05BFC20700AB070BD103802105A
:1058000070B58AB005000C00002309930893079334
:10581000069305930023049304AB029305AB019315
:1058200006AB009307AB08AA09A90320FFF7A8FC61
:105830000798064E0EF02CFA0090019132001021CC
:1058400028000FF033FC20700AB070BD1838021029
:1058500070B58AB005000C000023099308930793E4
:10586000069305930023049304AB029305AB0193C5
:1058700006AB009307AB08AA09A90320FFF780FC39
:105880000698064E0EF004FA0090019132001021A5
:1058900028000FF00BFC20700AB070BD1038021009
:1058A00070B58AB005000C00002309930893079394
:1058B000069305930023049304AB029305AB019375
:1058C00006AB009307AB08AA09A90320FFF758FC11
:1058D0000598064E0EF0DCF900900191320010217F
:1058E00028000FF0E3FB20700AB070BD10380210E2
:1058F00030B58BB005000C00002309930893079383
:10590000069305930023049304AB029305AB019324
:1059100006AB009307AB08AA09A90320FFF730FCE8
:10592000049B044A102128000FF0C0FB20700BB02C
:1059300030BDC0462038021070B58AB005000C009A
:105940000023099308930793069305930023049378
:1059500004AB029305AB019306AB009307AB08AA17
:1059600009A90420FFF70CFC0998064E0EF090F9E7
:10597000009001913200102128000FF097FB207059
:105980000AB070BD0838021070B58AB005000C006E
:105990000023099308930793069305930023049328
:1059A00004AB029305AB019306AB009307AB08AAC7
:1059B00009A90420FFF7E4FB0898064E0EF068F9E9
:1059C000009001913200102128000FF06FFB207031
:1059D0000AB070BD1038021070B58AB005000C0016
:1059E00000230993089307930693059300230493D8
:1059F00004AB029305AB019306AB009307AB08AA77
:105A000009A90420FFF7BCFB0798064E0EF040F9E9
:105A1000009001913200102128000FF047FB207008
:105A20000AB070BD1838021070B58AB005000C00BD
:105A30000023099308930793069305930023049387
:105A400004AB029305AB019306AB009307AB08AA26
:105A500009A90420FFF794FB0698064E0EF018F9EA
:105A6000009001913200102128000FF01FFB2070E0
:105A70000AB070BD1038021070B58AB005000C0075
:105A80000023099308930793069305930023049337
:105A900004AB029305AB019306AB009307AB08AAD6
:105AA00009A90420FFF76CFB0598064E0EF0F0F8EC
:105AB000009001913200102128000FF0F7FA2070B9
:105AC0000AB070BD1038021030B58BB005000C0064
:105AD00000230993089307930693059300230493E7
