:020000041000EA
:1000000000B5324B212058609868022188439860DF
:10001000D860186158612E4B002199600221596106
:100020000121F02299502B49196001219960352056
:1000300000F044F80222904214D00621196600F024
:1000400034F8196E01211966002018661A6600F04E
:100050002CF8196E196E196E052000F02FF8012189
:100060000842F9D1002199601B49196000215960AB
:100070001A491B48016001219960EB211966A021F2
:10008000196600F012F800219960164914480160C1
:100090000121996001BC002800D000471248134993
:1000A000086003C880F30888084703B5996A0420EC
:1000B0000142FBD001200142F8D103BD02B5186610
:1000C0001866FFF7F2FF186E186E02BD00000240BE
:1000D000000000180000070000035F00212200005C
:1000E000F4000018222000A00001001008ED00E03C
:1000F00000000000000000000000000074B24E7A12
:1001000000200420F7010010CB010010CD010010E9
:10011000C9010010C9010010C9010010C901001077
:10012000C9010010C9010010C901001021BF011050
:10013000C9010010C901001055BF0110C9C001104C
:10014000C1010010C1010010C1010010C101001067
:10015000C1010010C1010010C1010010C101001057
:10016000C1010010C1010010C1010010C101001047
:10017000C1010010C1010010C1010010C101001037
:10018000C1010010C1010010C1010010C101001027
:10019000C1010010C1010010C1010010C101001017
:1001A000C1010010C1010010C1010010C101001007
:1001B000C1010010C1010010C1010010C1010010F7
:1001C000EFF30580103800BE00BE00BE00BE00BECA
:1001D00000BE00BEF2EB88712422041048220410F5
:1001E0003802001090A31AE71E481F49086006C88D
:1001F00081F3088810471D480068002801D019487D
:10020000F3E70DA40ECC002902D000F012F8F9E7B4
:100210001749184A002000E001C19142FCD116495B
:100220008847164988471649884700BEFDE701C937
:1002300001C29A42FBD3704748220410C00000203C
:10024000083A0020905B0410000004200000042005
:10025000905B041000100420001004200000000037
:10026000704700000000000008ED00E0000000D032
:10027000083A002020860220BD8C0110D502001013
:10028000B58C0110F8B5C04606480749091A8B100D
:10029000C90FC91810B5491003D0044B002B00D06A
:1002A000984710BD083A0020083A002000000000DE
:1002B000054B10B5002B03D00449054800E000BFF2
:1002C000FFF7E2FF10BDC0460000000034740220BA
:1002D000B077021000B587B005F014FA134805ABEB
:1002E00004AA03A915F01CFC002803D110480F49EB
:1002F00014F086F8059A0499039815F035FB00224E
:100300000C4B11000093062015F09AF9FA2080009A
:1003100014F000FF08F084FA074808F0D1FA1EF044
:1003200041FDF82040010BF0BDFDFEE7400D03004C
:10033000EC77021000C2EB0BB077021010B50D2065
:1003400014F0C4F8002201210D2014F097F8D024F5
:10035000802324069B01A3620C2014F0B7F800222E
:1003600001210C2014F08AF880235B01A3620E2087
:1003700014F0ACF8002201210E2014F07FF8802345
:10038000DB01A3620EF05AF8002800D110BD002056
:100390000EF044FBFAE7C046D0231B0658688004E1
:1003A000C00F7047D0231B065868C004C00F7047A9
:1003B000D0231B0658684004C00F704710B50EF0DC
:1003C0003DF8002800D110BD00200EF027FBFAE711
:1003D00070B504000D0007280FD80EF02FF8002884
:1003E00007D00022290020000EF052FB002809D07F
:1003F00070BD06480BF056FDFAE7A820C0010BF0CF
:1004000051FDF5E702480BF04DFDF1E70154000006
:100410000254000070B50D0000281FD00378002B97
:100420000ED10724073303700EF008F8002811D00E
:100430000022290020000EF02BFB002812D070BDF6
:10044000013BDCB20470072CEED9A820C0010BF0F0
:1004500029FDF4E705480BF025FDF0E704480BF013
:1004600021FDECE703480BF01DFDE8E70154000017
:10047000035400000254000070B50D0000281FD086
:100480000478072C09D00134E4B20470072C07D992
:10049000A820C0010BF006FD0DE00023002403702E
:1004A0000DF0CCFF002807D00022290020000EF01C
:1004B000EFFA002808D070BD05480BF0F3FCFAE70E
:1004C00004480BF0EFFCF6E703480BF0EBFCF2E717
:1004D00001540000045400000254000010B5072825
:1004E00000D910BD0EF07AF8FBE7C04610B514F045
:1004F0003FFF002905D0FA220023920015F0E8FE04
:1005000010BDFA21890015F0A5FEF9E7F0B54546C2
:10051000DE4657464E460024E0B5454D8BB00122DD
:100520002868524209A909941CF0C2FE0128F6D19C
:10053000099B00271A68DE6890461A7991469A69E5
:100540009246DA6993461A7D022A37D020229A5CB5
:10055000059221229B5C002B1CD014F009FF80190E
:100560007941002902DA012032494042059B02907C
:100570000391009352465B46494640461BF08EFC71
:10058000099B1861002298680021022300941FF043
:100590008FFFC4E714F0ECFE80197941002902DADC
:1005A000012024494042059B02900391009352464A
:1005B0005B46494640461BF04DFCE1E714F0D8FE8F
:1005C00080197941002902DA01201A4940420123A9
:1005D000029003915246009349465B4640461BF009
:1005E00039FC099BDA698242CBD11A6890461A79A4
:1005F00091461A6A92465A6ADB689346069300232C
:10060000079314F0B5FE069A079B801859410029FC
:1006100002DA012007494042029003915B465246AC
:100620004946404600941BF039FC099BA9E7C046A7
:10063000387A0220FFFFFF7F10B5134C82B0236889
:10064000002B01D002B010BD0022042110201CF0AC
:10065000E3FA2060002811D00C4BC0220193022342
:100660000B4900930B48002392001EF09DF80128CF
:10067000E8D0DA21084805F00DF9E3E7D72106486C
:1006800005F008F9E8E7C046387A022058790220D8
:10069000747802100D05001020780210F0B54F4656
:1006A0004646D646C0B590B0984618AB1F78274B43
:1006B00006009A461B680D009146002B2DD006AC13
:1006C0002422002107A816F001FE069625711FF0CE
:1006D000FDFC4A460C924246199B0D92202209933A
:1006E0000123A7540132A354237553460890223A9C
:1006F000186805A9002305941CF048FB012821D1A6
:1007000001220121002052421FF002FE0A9810B07F
:10071000E0BCBA46B146A846F0BD14F029FE00235D
:10072000199A12184B41002B02DA0122084B52424F
:1007300002920393290043464A46300000971BF07B
:10074000ADFBE4E701204042E1E7C046387A0220F1
:10075000FFFFFF7FF0B54F464646D646C0B592B084
:10076000884606A94B701A9B070089461E1E0A7010
:1007700000D12C4E2C4BB24603251E0008AC33682A
:10078000002B31D02422002109A816F09FFD4346FA
:10079000276023711FF09AFC4A465346A261022249
:1007A000E3600023A060E2613068033A07A9237583
:1007B000238407941CF0EAFA012808D101220121C0
:1007C000002052421FF0A4FD2069022827D00120FA
:1007D000013D1EF07DFC002DD1D1002012B0E0BC07
:1007E000BA46B146A846F0BD14F0C2FD5346049384
:1007F00000230593049A059B80185941002902DAC9
:1008000001200A49404200230290039100934A4686
:100810004146380002331BF01DFB0228D7D10120CE
:10082000DCE7C04650C30000387A0220FFFFFF7F9C
:10083000F0B55746DE464E464546E0B595B00F004A
:1008400002A99B468C46172363449A461A705B465E
:100850000600002B38D01E9B002B6DD09846394BDC
:10086000B946032537001E000AAC3368002B33D08D
:100870004B46276023711FF029FC4346E3600023A9
:10088000236102335A46237553462262A361012233
:100890000123A060E361636230680023524209A92A
:1008A00009941CF073FA012808D1012201210020CB
:1008B00052421FF02DFD206901283BD00120013D4F
:1008C0001EF006FC002DD0D1002015B0F0BCBB46B8
:1008D000B246A946A046F0BD4346049300230593C3
:1008E00014F046FD049A059B80185941002925DB28
:1008F00001230290039152464946380000931BF0B1
:10090000A9FA0128DAD114F033FD049A059B801866
:100910005941002902DA01200B494042002302908C
:10092000039100935A464946380001331BF0B6FA4A
:100930000128C3D10120C8E7044B8FE701200249F9
:100940004042D5E7387A0220FFFFFF7F50C3000006
:10095000F0B5DE4657464E464546E0B599B005909F
:100960000891002B00D1C9E0160AD7B2239A002AB9
:1009700000D17B4A22999346002950D103239846FF
:10098000784BB9469A464346B0461E000EAD02204B
:1009900020F0D6FB041E3AD0434603704B4643700A
:1009A00053461B68002B00D18DE0242200210FA8A4
:1009B00016F08CFC059B2B60089B2B711FF086FBAF
:1009C0005B46EB60002302222B752B845346A86004
:1009D000EA611868033A00230DA9AC610D951CF07B
:1009E000D5F9012800D0B2E00122012100205242B5
:1009F0001FF08EFC2F69200020F08CFC022F00D10C
:100A0000A3E00120013E1EF063FB002EBFD10020B9
:100A100019B0F0BCBB46B246A946A046F0BD0231B3
:100A20008A4603218B464F49584689465146BB4664
:100A3000B246984607000E000EAD0992300020F035
:100A40007FFB041EE3D0534603705B464146437070
:100A5000229A023016F040FC4B461B68002B59D0FE
:100A6000242200210FA816F031FC059B2B60089B67
:100A70002B711FF02BFB099B0122EB6000232B75D0
:100A80002B844B46A860524218680DA90023AC6124
:100A9000EE610D951CF07AF901285CD1012201214B
:100AA000002052421FF034FC2B690693200020F0F6
:100AB00031FC069B9E4248D00120013F1EF008FBFE
:100AC000002FBBD1A3E714F053FC5B460693002331
:100AD0000793069A079B80185941002902DA0120E2
:100AE000214940420023029003910093220008997B
:100AF000059802331BF0AEF907007CE7229B002B20
:100B000000D084E7239B160AD7B2002B00D1144BE8
:100B10009B4633E714F02CFC099B0A9300230B93AC
:100B20000A9A0B9B80185941002902DA01200E49CC
:100B30004042002302900391009322003300089961
:100B400005981BF087F90690B0E7012060E72000C8
:100B500020F0E0FB55E701235B420693A6E7C04681
:100B600050C30000387A0220FFFFFF7FF0B55746E0
:100B70004E464546DE46E0B5884606001F0093B067
:100B8000002B00D17EE006AB52BA9B461A801D9B1B
:100B9000002B00D170E099463E4BBA460325370042
:100BA0001E0008AC3368002B34D043462760237105
:100BB0001FF08CFA4B46E36000235A462361023350
:100BC0002375E3615346A261012223621C9BA0604E
:100BD000636230680023524207A907941CF0D6F8DC
:100BE000012854D101220121002052421FF090FB24
:100BF00020691C9B83423DD00120013D1EF068FA14
:100C0000002DCFD1002013B0F0BCBB46B246A946A0
:100C1000A046F0BD4B4604930023059314F0A8FBB7
:100C2000049A059B80185941002927DB0123029073
:100C3000039100935A464146380001331BF00AF9EC
:100C4000022824D114F094FB049A059B8018594182
:100C5000002902DA0120104940420023029003914A
:100C6000009352461C9B414638001BF017F91C9B11
:100C70008342C1D10120C6E7084B8CE70120064919
:100C80004042D3E71C9B002B00D17CE7BAE7012050
:100C90004042AEE7387A0220FFFFFF7F50C30000DA
:100CA0000523F0B5C356040085B0002B0BDB0125EE
:100CB000D0269D4036060520B5611EF009FA0A20AF
:100CC00075611EF005FA0121354D4942A0681CF0FE
:100CD00071FC217920230A2220680095FFF73AFD54
:100CE000217920230B2220680095FFF733FD21791D
:100CF0000023002220680095FFF72CFD21790023B6
:100D0000012220680095FFF725FD217900230C22A0
:100D100020680095FFF71EFD0E26217900230D2285
:100D200020680F270095FFF715FD00236E446F44E0
:100D300033703B7021792068330014220095FFF74F
:100D400077FD002800D13070154B217920681522DD
:100D500000933B00FFF76CFD00281ED03B783278F3
:100D60000F4DA271E371A379217920681422DBB2BF
:100D70000095FFF7EFFCE379217920681522DBB2BB
:100D80000095FFF7E7FC01230022237300210023D5
:100D9000A0681BF0FBFF05B0F0BD00233870DEE754
:100DA00088130000F0B54F464646D646C0B505004C
:100DB0000F00904682B0002862D00B00203B072B2A
:100DC0005ED8534B534C1E689946A246002E2AD03B
:100DD000226890425ED0012E22D02269954261D0D5
:100DE000022E1DD0226A954261D0032E18D0226BAC
:100DF000954262D0042E13D0226C954263D0052E0A
:100E00000ED0226D954264D0062E09D0226E9542F6
:100E100065D0072E04D0226F954266D0082E6AD086
:100E20003601A3199A4610220021504616F04EFAB8
:100E30004346A551A419637100230120A3712771B2
:100E4000E37123731CF028F9A060002859D04346B1
:100E5000002B09DB404613F039FB42460123934047
:100E6000D0221206536253614B464A461B68013337
:100E70001360504602B0E0BCBA46B146A846F0BD89
:100E80002B00254A25482649009707F019FD002325
:100E90009A46EEE722798A429DD10023A2461B01A1
:100EA0009A44E6E7227DBA429AD10123F6E724224A
:100EB000A25CBA4299D10223F0E73422A25CBA4282
:100EC00098D10323EAE74422A25CBA4297D10423D3
:100ED000E4E75422A25CBA4296D10523DEE76422FD
:100EE000A25CBA4295D10623D8E77422A25C0723FC
:100EF000BA4293D1D2E7084A0A480B4907F0E0FC0E
:100F0000C5E73B00044A0948094907F0D9FCBEE798
:100F1000844D0220884D02207C78021084780210D3
:100F200010540000C478021011540000F078021030
:100F30001254000070B5040082B0002859D001217D
:100F40002D4E494280681CF035FB217920230A226E
:100F500020680096FFF7FEFB2179050020230B2275
:100F600020680096FFF7F6FB217900230022054058
:100F700020680096FFF7EEFBEDB2217900230122F5
:100F8000054020680096FFF7E5FB217900230C223D
:100F9000054020680096FFF7DDFB217900230D2234
:100FA000054020680096FFF7D5FBA379217914222C
:100FB0000540DBB220680096FFF7CCFBE37921798E
:100FC00015220540DBB220680096FFF7C3FB002323
:100FD000054000220021A0681BF0D8FE002D02D0A1
:100FE000280002B070BD2379044A0548054907F07E
:100FF000D5FC0025F4E7C046881300007C78021079
:10100000287902101052000070B50400160082B05A
:10101000002828D0057B002D22D00F2923D80723B4
:1010200001250B409D408068EDB207291DD90121A3
:1010300049421CF0BFFA002E2BD0E3792B43E37119
:10104000E379184A21792068DBB200921522FFF774
:1010500081FB0500002300220021A0681BF096FE02
:10106000280002B070BD0025FAE7012149421CF0BA
:10107000A1FA002E11D0A3792B43A371A379094AB9
:1010800021792068DBB200921422FFF763FB050090
:10109000E0E7E379AB43E371D2E7A379AB43A37114
:1010A000ECE7C04688130000F0B5040085B00028C6
:1010B00027D0037B002B24D00F2922D807252E0010
:1010C0008D42AD410E4001210F27494280681CF03E
:1010D00071FA00236F443B706D420B4B123521793E
:1010E0002A00206800933B00FFF7A2FB00230022A8
:1010F0000021A0681BF04AFE3B78012033411840D4
:1011000000E0002005B0F0BD88130000F0B5040039
:1011100017001D0083B0002849D0067B002E13D095
:101120008068002913D101391CF044FA2B00A27900
:1011300053403B405A40A379934226D100230022DA
:101140000021A0681BF022FE300003B0F0BD012199
:1011500049421CF02FFA2B00E27953403B405A40A1
:10116000E3799342EAD0E271E379124A2179206867
:10117000DBB200921522FFF7EDFA002306000022F1
:101180000021A0681BF002FEDEE7A271A379094AE4
:1011900021792068DBB200921422FFF7DBFA0023EA
:1011A000060000220021A0681BF0F0FDCCE700261D
:1011B000CAE7C0468813000070B5D02480252406F5
:1011C0006D04182013F082F965620520A56113F003
:1011D000A1FF65610A2013F09DFF17222021194805
:1011E000FFF7E0FD184C194E182221213060200035
:1011F000FFF7D8FD0122164D23212860524220001E
:10120000FFF7D0FD134C20603068002804D0037B2A
:10121000002B01D1FFF744FD2868002804D0037B90
:10122000002B01D1FFF73CFD2068002804D0037B90
:10123000002B01D1FFF734FD0A2101200DF0C0FC85
:1012400070BDC0462833002030330020104E0220ED
:101250000C4E0220144E0220014B18687047C04605
:10126000104E0220014B18687047C0460C4E0220F9
:10127000014B18687047C046144E022010B5032178
:10128000022013F0E1F80321032013F0DDF800221F
:101290000121022013F0F2F800220121032013F0B3
:1012A000EDF80249024807F00BFB10BD5C79021013
:1012B00068790210F0B557464E464546DE46E0B521
:1012C00005000F00160083B0002937D0002A2DD06A
:1012D0001C4B9B463F239A46402399461A4B9846FF
:1012E00009E0361B05206519B6B21DF0F1FEADB25E
:1012F0003F19002E1AD053464A462B40D31A1C1CC5
:101300009BB2B34200D9341C4346A4B201932A00D5
:101310003B00502158460094FFF71AFB0028E0D10B
:101320000A480AF0BFFD0120404200E0002003B05F
:10133000F0BCBB46B246A946A046F0BD04480AF040
:10134000B1FDF0E72833002050C3000053440000F3
:101350005244000070B50C00150082B0002916D070
:101360000D4B0E4E019300920B00020050213000F5
:10137000FFF7FCFB002801D002B070BD08480AF05E
:1013800091FD2A00FF21200015F0A0FFF4E7054899
:101390000AF088FDF0E7C04650C300002833002063
:1013A0005544000054440000D02380221B069202C2
:1013B0009A617047D02380221B0692025A617047BF
:1013C000054B10B51868002804D000230022002126
:1013D0001BF0DCFC10BDC046D0850220044B10B5CC
:1013E0001868002803D0012149421CF0E3F810BD21
:1013F000D085022010B50F4B82B01B6804009847BF
:101400000D4B1B6898476946230C0B70230A4B70E1
:10141000FF238C7001ACCB702200FB3B074826F009
:1014200073F9074B1B689847064B1B689847E07891
:1014300002B010BD184402202444022000C0034022
:10144000204402201C44022030B5124B83B01B689C
:1014500004000D009847104B2D061B689847FF228B
:1014600004231202224023432402210EDBB21B0478
:1014700011431943294304220191084801A926F088
:101480003BF9074B1B689847064B1B68984703B00E
:1014900030BDC046184402202444022000C003404E
:1014A000204402201C44022070B504000D001600E8
:1014B00082B000291DD0002A1BD00F4B1B68984713
:1014C0000E4B1B68984701A9230C0B700322230ABB
:1014D0000B484B708C7026F00FF933002A00FF2167
:1014E000074826F0D9F8074B1B689847064B1B683E
:1014F000984702B070BDC046184402202444022020
:1015000000C00340204402201C44022070B50400A7
:101510000D00160082B000291ED0002A1CD00F4BEF
:101520001B6898470E4B1B689847042301A9220C9F
:1015300023430A700B480322240A8B704C7026F058
:10154000DBF832002900074826F0D6F8064B1B6866
:101550009847064B1B68984702B070BD184402209C
:101560002444022000C00340204402201C440220E6
:1015700010B582B06B4649BA1980124B04001B6843
:101580009847114B1B6898478123DB009C46042336
:1015900000226001604401A90343000A0A704870F8
:1015A00003320A488B7026F0A7F8022269460748E2
:1015B00026F0A2F8064B1B689847064B1B68984715
:1015C00002B010BD184402202444022000C0034091
:1015D000204402201C44022010B582B06B4649BA58
:1015E0001980124B04001B689847114B1B689847E1
:1015F000104B00229C4604236001604401A9034370
:10160000000A0A70487003320B488B7026F074F899
:1016100002226946084826F06FF8084B1B68984775
:10162000074B1B68984702B010BDC0461844022003
:10163000244402200810000000C00340204402207F
:101640001C440220F0B557464546DE464E46394B0F
:10165000E0B59C464001604489B0C3B20193030ADF
:101660000293002304AC0B27A4460393324B0A25B4
:101670009B46324B67449A46314B9946314B9846CC
:1016800006E0013DEDB2002D4BD0039BB34248D0A4
:101690005B461B68984753461B6898470023237096
:1016A000029B06AA6370019B2100A370FF232648BA
:1016B000E3702371FA3B26F027F84B461B689847E6
:1016C00043461B6898477B783A781B0213435EBAFF
:1016D000B6B2002BD5D05B461B68984753461B68B3
:1016E000984700232370029B06AA6370019B210088
:1016F000A370FF231448E3702371FA3B26F004F82B
:101700004B461B68984743461B6898477B783A7856
:101710001B0213435BBA013D9BB2EDB20393002D54
:10172000B3D1300009B0F0BCBB46B246A946A046D2
:10173000F0BDC046082000001844022024440220C6
:10174000204402201C44022000C00340F0B557464C
:101750004546DE464E46394BE0B59C464001604466
:1017600089B0C3B20193030A0293002304AC0B2790
:10177000A4460393324B0A259B46324B67449A4654
:10178000314B9946314B984606E0013DEDB2002DB4
:101790004BD0039BB34248D05B461B6898475346E7
:1017A0001B68984700232370029B06AA6370019B65
:1017B0002100A370FF232648E3702371FA3B25F034
:1017C000A3FF4B461B68984743461B6898477B78A6
:1017D0003A781B0213435EBAB6B2002BD5D05B46F3
:1017E0001B68984753461B68984700232370029B49
:1017F00006AA6370019B2100A370FF231448E370C5
:101800002371FA3B25F080FF4B461B6898474346FF
:101810001B6898477B783A781B0213435BBA013DFB
:101820009BB2EDB20393002DB3D1300009B0F0BCF0
:10183000BB46B246A946A046F0BDC04608260000F9
:101840001844022024440220204402201C44022088
:1018500000C00340F0B5DE4657464E464546E0B56B
:101860008BB002910192002901D0002A06D10BB061
:10187000F0BCBB46B246A946A046F0BD8200F820A7
:101880007B4F561CF60040013B6835180392984781
:10189000784808AC036883469847FF2000222B0A4B
:1018A000A57009AD82462100227063702A000423CE
:1018B000E070714825F028FF70480368814698471A
:1018C0006F48036880469847902189018C46B4444C
:1018D0006146EB7804919B0298B23B68059098476B
:1018E00058460368984704990022080AA170514697
:1018F0000423227007902A006070E1705E48210086
:1019000025F002FF49460B68984741460B68984707
:10191000942080018446E9783B68664406919847A4
:1019200058460368984750460022330A2100227027
:1019300063702A000423A670E0704F4825F0E4FE8F
:10194000484603689847404603689847069EEB78E8
:1019500032029B18059A9EB2531E3340D21A90B29F
:10196000039A01990232D20006961E020392164390
:1019700082463A68814267D98C46059963445B1A6E
:101980009BB2059300281AD090475B461B68984786
:101990000423320C3343360AAB7029002A703648D0
:1019A00003226E7025F0A8FE52460299324825F0B7
:1019B000A3FE4B461B68984743461B689847059E05
:1019C000002E1DD03B6898475B461B689847002354
:1019D000042203992B700A430B0AAA7029000322E0
:1019E00025486B7025F088FE320002995144224848
:1019F00025F082FE4B461B68984743461B68984774
:101A0000069A019B944663445BBA23803B689847DF
:101A10005B461B68984700232B70079B049A6B70EA
:101A200004231A432900AA701348032225F064FEF8
:101A300002222100104825F05FFE4B461B689847A4
:101A400043461B68984712E790475B461B689847D8
:101A50000423320C3343360A29002A700648032235
:101A60006E70AB7025F048FE019A0299BFE7C04640
:101A7000184402202444022000C0034020440220D5
:101A80001C440220F0B5DE4657464E464546E0B5BA
:101A90008BB002910192002901D0002A09D180481F
:101AA0000AF000FA0BB0F0BCBB46B246A946A0460D
:101AB000F0BDF02183007B4F5E1CF60049010393CB
:101AC0003B6875189847784908AC0B688B4698476F
:101AD0000023FF212370A5702B0A09AD8A462A0036
:101AE0006370E17004232100704825F00DFE7049F9
:101AF0000B68894698476F490B6888469847A0212C
:101B000089018C46B4446146EB7804919B029AB2F9
:101B10003B68059298475846036898470499002304
:101B2000080AA17051462A00237007906070E17086
:101B3000043321005D4825F0E7FD49460B689847CE
:101B400041460B689847A42080018446E9783B68A9
:101B500066440691984758460368984700235046C4
:101B60002370330A2A0021006370A6700423E070FA
:101B70004E4825F0C9FD484603689847404603682B
:101B800098470699EB780A029B18059A99B2531E5A
:101B90000B40D21A069191B28A46039A01990332F8
:101BA000D2001E02039216433A68514566D98C460C
:101BB000059963445B1A9BB205935346002B19D0D9
:101BC00090475B461B689847330C2B70330A0322FF
:101BD00029006B703548AE7025F08EFD5346FF210D
:101BE000029A324825F058FD4B461B6898474346F9
:101BF0001B689847059E002E1CD03B6898475B46A3
:101C00001B6898470023039A2B70130A6B70AA7005
:101C100029000322254825F06FFD3300029A524423
:101C2000FF21224825F038FD4B461B689847434664
:101C30001B689847069A019B944663445BBA2380CD
:101C40003B6898475B461B68984700232B70079BAF
:101C5000049A6B7004231A432900AA7013480322C4
:101C600025F04AFD02222100104825F045FD4B4693
:101C70001B68984743461B68984713E790475B46A5
:101C80001B689847330C2B70330A03226B702900B2
:101C90000648AE7025F030FD019B029AC0E7C046B1
:101CA000B0240000184402202444022000C0034055
:101CB000204402201C440220F0B54546DE4657462B
:101CC0004E46E0B50D0087B0002900D173E03C4BD3
:101CD00040019C4606003B4B66449B461B68070040
:101CE0009847394B04AC9A461B6898470023FF215C
:101CF000320A0196A67005AE237002926270E170FE
:101D0000320021000433314825F0FEFC304808370A
:101D10000368814698472F48036880469847A42166
:101D200089018C465946F0780B68674403909847C0
:101D300051460B6898470023FF2123703B0A32006D
:101D40006370E170042321002048A77025F0DCFCBB
:101D500049460B68984741460B689847594603988F
:101D6000F37802029B189BB2ED186DBA0B682580C0
:101D7000984751460B68984700233370029B019A9D
:101D8000737004231343B370032231000F4825F00E
:101D9000B3FC022221000D4825F0AEFC4B461B6827
:101DA000984743461B68984707B0F0BCBB46B2460D
:101DB000A946A046F0BD08480AF074F8F4E7C0460A
:101DC00008280000184402202444022000C00340D8
:101DD000204402201C440220B124000070B51C4C99
:101DE0002368002B28D0112012F070FBD024802310
:101DF00080259B02240663626D036361142012F048
:101E000065FB64206562A5611DF062F9642065616F
:101E10001DF05EF90F4B104A10481A60104B114A22
:101E200028211A60104B114A1A60114B114A1A608E
:101E300006F046FD012070BD01201BF02DF9206049
:101E40000028D0D10C480AF02DF80020F3E7C04656
:101E5000D085022018440220DD130010887902107A
:101E60001C440220C113001024440220A9130010B6
:101E700020440220B5130010B2240000F0B5DE4665
:101E800057464E464546E0B585B00190002800D142
:101E900036E2F94B03AC99461B689847F74B1A2575
:101EA00098461B689847F64B04222100F548039397
:101EB00025F022FCF44F3B689847F44E336898476E
:101EC0004B461B68984743461B689847F04B0422D3
:101ED0002100EC48039325F00FFC3B6898473368DA
:101EE00098474B461B68984743461B689847E94B01
:101EF00004222100E348039325F0FEFB3B6898474A
:101F0000336898474B461B68984743461B68984779
:101F1000E14B04222100DB48039325F0EDFB3B68F5
:101F20009847336898474B461B68984743461B6859
:101F30009847DA4B04222100D248039325F0DCFBBA
:101F40003B689847336898474B461B689847434619
:101F50001B689847D24B04222100CA48039325F0FE
:101F6000CBFB3B689847336898474B461B689847BC
:101F700043461B689847CB4B04222100C14803937A
:101F800025F0BAFB3B689847336898474B461B6877
:101F9000984743461B689847C34B04222100B94821
:101FA000039325F0A9FB3B689847336898474B4655
:101FB0001B68984743461B689847BC4B0422210086
:101FC000B048039325F098FB3B68984733689847DF
:101FD0004B461B68984743461B689847B44B0422FE
:101FE0002100A848039325F087FB3B689847336896
:101FF00098474B461B68984743461B689847AD4B2C
:10200000042221009F48039325F076FB3B68984704
:10201000336898474B461B68984743461B68984768
:10202000A54B042221009748039325F065FB3B68EC
:102030009847336898474B461B68984743461B6848
:1020400098479E4B042221008E48039325F054FBB1
:102050003B689847336898474B461B689847434608
:102060001B689847964B042221008648039325F06D
:1020700043FB3B689847336898474B461B68984733
:1020800043461B6898478F4B042221007D480393E9
:1020900025F032FB3B689847336898474B461B68EE
:1020A000984743461B689847874B04222100754890
:1020B000039325F021FB3B689847336898474B46CC
:1020C0001B68984743461B689847804B04222100B1
:1020D0006C48039325F010FB3B689847336898479A
:1020E0000A201CF0F5FF7A4B9B463B004F46994671
:1020F0003B68984743461B6898475B46220002A905
:1021000002936048042325F0FFFA4B461B6898476A
:1021100033689847E3786420013D9A461CF0D8FF65
:10212000002D00D1E7E0012352461342E0D04B4698
:10213000B94668481F0006F0C3FB4B461B6898472A
:1021400043461B689847902304251B010322210066
:1021500023804C48A57025F0CFFA019B0622190078
:1021600048489A4625F0C8FA3B689847336898472C
:102170004A4613689847424613689847F0231B0164
:102180000322210023803F48A57025F0B5FA53466D
:102190000422991D3B48019325F0AEFA3B6898470D
:1021A000336898474A4613689847424613689847E9
:1021B000A023DB002380032221003248A57025F0F4
:1021C0009BFA019904220A312E4825F095FA3B68C2
:1021D0009847336898474A461368984742461368B9
:1021E000984780235B002380032221002548A570A7
:1021F00025F082FA019904220E31224825F07CFA5A
:102200003B689847336898474B461B689847434656
:102210001B689847304B042221001A48039325F08D
:102220006BFA3B689847336898474B461B6898475A
:1022300043461B689847294B042221001148039309
:1022400025F05AFA3B689847336898474B461B6815
:10225000984743461B689847214B042221000948B0
:10226000039325F049FA3B689847336898471D481F
:1022700006F026FB012037E0184402202444022007
:10228000001E0C0800C00340204402201C44022011
:10229000001F0C08001E2C08001F2C08001E4C00FC
:1022A000001F4C00001E6C00001F6C00001E8C0004
:1022B000001F8C00001EAC00001FAC00001ECC00F4
:1022C000001FCC00001EEC00001FEC00002E04F8E4
:1022D000002E00FFBC79021000190407001A04D078
:1022E000001B0408E079021005B0F0BCBB46B24602
:1022F000A946A046F0BD054809F0E6FD0020F3E739
:10230000034809F0CFFD0020EEE7C046B4240000EA
:10231000B3240000F0B5CE46474680B5040083B034
:10232000002800D16FE03A4F04253B689847394EAA
:102330003368984790236A461B019380957101A9E1
:102340000322354825F0D8F906222100324825F02D
:10235000D3F9324B99461B689847314B98461B6816
:1023600098473B68984733689847F0236A461B01B3
:102370009380957101A90322274825F0BDF9042215
:10238000A11D254825F0B8F94B461B6898474346E0
:102390001B6898473B68984733689847A0236A466C
:1023A000DB009380957101A903221B4825F0A4F955
:1023B000210004220A31184825F09EF94B461B687B
:1023C000984743461B6898473B6898473368984747
:1023D00080236A465B009380957101A903220E4811
:1023E00025F08AF9210004220E310B4825F084F9EA
:1023F0004B461B68984743461B68984703B0C0BCD0
:10240000B946B046F0BD074809F04CFDF6E7C046B6
:10241000184402202444022000C00340204402202B
:102420001C440220B624000010B50D4B82B01B687E
:1024300098470C4B01AC1B6898470B4B2200694630
:1024400000930A48042325F05FF9094B1B6898475D
:10245000084B1B6898470120E378184002B010BD74
:102460001844022024440220002E00FF00C0034034
:10247000204402201C440220F0B5CE46474680B5D9
:102480001C4B83B098461B6898471B4F01AC3B68B8
:1024900098471A4B042221001948019325F02CF982
:1024A000184E33689847184D2B6898470A201CF03F
:1024B0000FFEFF231B06994602E001201CF008FED8
:1024C00043461B6898473B6898474B46220069463D
:1024D00000930B48042325F017F9336898472B68BD
:1024E00098470323E356002BE7DB03B0C0BCB94693
:1024F000B046F0BD184402202444022000000480AD
:1025000000C00340204402201C440220F0B557467E
:102510004E464546DE46E0B54A4D0E0085B0010008
:102520002800170006F0CCF9002F00DC86E0464BAF
:1025300000240093454BBB4602930F239846444B1F
:102540000395019308E0315D009806F0B9F90F2D6D
:102550005AD001345C450FD04546434625402342BE
:10256000F1D12100019806F0ABF9315D00980134FA
:1025700006F0A6F95C45EFD15F46039D0F243C426F
:1025800033D0FB171B0FFA181440E31A9846102398
:1025900042469B1A5A00914699442E4BAA46002463
:1025A0004D46B1461E00300006F08AF92300013482
:1025B0009D42F8DA43464E465546FC1AA74211DDC5
:1025C000254B341998466826B944244F4346217850
:1025D0005B5CB34300D12E213800013406F070F962
:1025E000A145F3D1029806F06BF9029C2800210066
:1025F00006F066F9200006F063F905B0F0BCBB46B2
:10260000B246A946A046F0BD154806F059F9124B4E
:1026100025009946114B68279A460F3D4B46715D40
:102620005B5CBB4300D12E215046013506F048F9D2
:10263000A542F3DD029806F043F98AE7034B0293C3
:102640009CE7C046007A0210107A0210B4DF021034
:10265000047A02100C7A021069B003101C7A02107E
:10266000187A021070B51C4B1C4C82B020701A7086
:10267000002900D1A1310026194B1A4D1E601A689D
:10268000194B29801A6003F037FC207800F0D4FF42
:10269000002302212A88207801F024F82378984228
:1026A00005D0124809F0FEFB002002B070BDF020FA
:1026B0000422694600010096FEF7F6FE694601A86D
:1026C000019603F01BFC0A482B882278094906F082
:1026D000F7F80120E9E7C0468A1100208B1100209D
:1026E000D882022088110020B0820220E02400005D
:1026F0002C7A0210207A0210F0B5DE4657464E467C
:1027000045460023E0B5A5B00F931D90002801DCDD
:1027100001231D931CF022FD0023394F1793394BE1
:10272000BB461E90169314E00223012410935B46CF
:102730001B78A12B03D89F2B01D8302B6ED03248A9
:1027400009F0B0FB179B1D9A013317939A4200D1F1
:10275000A2E31CF003FD1E9BC01A312800D99BE3A5
:10276000169B1878FEF7F2FF002800D194E30023AF
:1027700020AA53812393C023021C9B00984200D9B6
:102780001A1C169B20A98C4618780A2363440093D0
:10279000594692B223AB01F087FB002800DC7BE3B3
:1027A000C022C12400265B460004A400050C920050
:1027B0009D501E51154B002199461E51144B484601
:1027C0001E701393134B14931E7014F07FFD2A0098
:1027D00059461148FFF79AFE5B461E514B461E5163
:1027E0005B465A785B785BB2002B9DDA7F231340FF
:1027F000012B01D100F0D9FD5C1C0233109396E748
:10280000787C02208B110020EE240000807F0220C3
:102810000486022003860220587A0210109D594631
:102820002A00484614F058FDC12359469B00CD505C
:102830004946AC46C8585A466044C8505B460234C4
:1028400012571D1901211B5D002A01DA00F0D6FC88
:10285000109A5C469446A25C614401310C00A12AA6
:1028600001D900F0B5FC9F2A02D8302A00D05C18AC
:102870005B46109A9B5C022B01D000F0A2FD5B46E8
:102880005B5C002B01D000F09CFD13005B44A21A9E
:102890001900484416001A9214F01EFDC12359462F
:1028A0009B00CC504946B446CD58621C6544CD507F
:1028B0005B46995C9E189A56002A01DA00F0C9FC22
:1028C0000A0001210B195946095D01339846A129D7
:1028D00001D900F0A5FC9F2903D8302901D099180F
:1028E00088465946095D042901D000F066FDB649C5
:1028F0000978914201D000F060FD5B441800B349B3
:1029000020F0EAFC002801D000F071FD43462100D0
:1029100028001B1B1A00594448441C001B9314F048
:10292000DBFCC123404659469B00C8504946A4469B
:10293000CA5801246244CA50A54B15921A5C1B5612
:10294000002B02DA7E341440013442465B469B5C25
:1029500044441A00A03A661C0C930E92012A03D933
:10296000A32B01D000F047FD434659461598F31AB2
:102970001A00414448441D001C9314F0ADFCC123CF
:1029800059469B00CE504946CA580234AF18CF5022
:102990004A46A223414653545A465B4612571819D9
:1029A00001211B5D002A01DA00F0ACFC5A46925D61
:1029B00074180134A12A01D900F05DFC9F2A02D8C5
:1029C000302A00D0E4185B463800A51B2A0099196C
:1029D000484414F081FCC1235A469B00D4504A4617
:1029E000D05859462818D0505B46621C9D189B5CF5
:1029F0008A560121002A01DA00F073FC5A460919AF
:102A0000125D4D1C1995A12A01D900F040FC9F2AA6
:102A100003D8302A01D0199AD51821002F1B3A006B
:102A20005944484414F058FCC1235A469B00D550E1
:102A30004A46D05859463818D0505B466A1C9C18F4
:102A40009B5C8A560121002A01DA00F039FC5A46C3
:102A50004919525D013118911291A12A01D900F052
:102A600010FC9F2A05D8302A03D0189A9446634454
:102A700012932900129F59447C1B2200484414F0F1
:102A80002BFCC1235A469B00D7504A46A246D25837
:102A90000124924451464A46D1503B004C4A4C498D
:102AA000D25CCB56BF1B002B02DA7E3414400134BB
:102AB000129B5A469C46D35C64440134302B01D0AF
:102AC00000F091FC4E46129B5644E21A5B441900FA
:102AD00030001D00119214F0FFFBC12359469B00EA
:102AE000CC504946CA5811998C4649466244CA504E
:102AF0005A46043BD3589C4201DB00F042FC0023C1
:102B000004930393324B21970B93324B5F460D9303
:102B1000314B099343461F935346CA4620930B9B60
:102B200001251A5D1B57002B02DA7E351540013551
:102B300065196B1C9B463B5D302B01D000F010FCEF
:102B40005B46C1261A1B5346B6009B59391918001B
:102B5000504490460592069314F0BEFB5B46BB5171
:102B6000534652469B590235434493517A57079333
:102B70007E5D01237819002A00DAEBE15A465B44B6
:102B8000BA5C01330293A12A00D9AAE19F2A03D893
:102B9000302A01D0F2180292621C08925A46BA5C9E
:102BA000062A00D0A7E198460D9BB8441B689946B9
:102BB000002B00DCCFE2084B00251C000A933B00F1
:102BC0004F4699460FE0C04614E9021018E902107A
:102BD000797C022010E90210901100200135583450
:102BE000BD4200D160E123789E42F7D132004146D8
:102BF000601C20F071FB0028F0D14B46B9461F0045
:102C00000C9BA02B00D158E1A32B00D155E106234A
:102C100052460799013553544D4500DBA5E2C123C7
:102C2000029A9B00FA50079B5646581C991C582341
:102C30006B430A9C5144E25C3254002A44D0A446BF
:102C400063445A780A70325C012A36D99A784A70FD
:102C5000325C022A31D9DA788A70325C032A2CD9A4
:102C60001A79CA70325C042A27D95A790A71325CFF
:102C7000052A22D99B794B71335C062B1DD9582329
:102C80006B436344DA798A71325C072A15D91A7A60
:102C9000CA71325C082A10D95A7A0A72325C092A3F
:102CA0000BD99A7A4A72325C0A2A06D9DA7A8A727F
:102CB000325C0B2A01D91B7BCB72C12352469B008D
:102CC000D358079353445A78931C9C46079A0A9307
:102CD00062449046C123414652469B00D150029B1C
:102CE00001210133FC5CF818FB56002B00DA6CE183
:102CF000029B9C46FB5C614401318B46A12B00D9B1
:102D000009E19F2B03D8302B01D00B199B465B4662
:102D1000029A9E1A6B1C00D106E10E9B012B00D873
:102D200064E15823099A6B43944663445A7B029B9F
:102D30007918FB5C934200D047E3062B06D000D9FC
:102D40009DE1022B00D19EE1042B0DD158235D4360
:102D5000099B28009C4610306044220014F0BCFA05
:102D6000099B9C466544AC734046029B3200F918AF
:102D7000504414F0B1FAC123524651469B00D25838
:102D80009219CA505A46FA500A9B9C46089B6644C0
:102D9000FA5CFB56002B00DAEDE0069B53445E70B4
:102DA000059B9E1900D5FEE0049B9C46B4446346F7
:102DB0000493C1239B00FC58039B01330393C0235E
:102DC0009B00FB589C4200DAA9E6BB461F9BD146FC
:102DD0009846209B219F9A46119B63441193129B16
:102DE0005B445A785B785BB2002B00DAA4E253466E
:102DF000049A4B445A70119B002B00DAD7E0119BC8
:102E0000FA1843465B4459785B785BB2002B00DAD2
:102E100043E2159B4B445A70139B1B78002B07D041
:102E2000494619980B54149B18981B7801330B547E
:102E30001C9B9B1800D5BDE01B9AD31800D5BCE0A5
:102E40001A9ADA4200D5BBE0C1234A469B00D25809
:102E5000109BD41A5B4659785B785BB2002B00DA82
:102E6000E4E14B465C70169B4946187820AB5B89C1
:102E700092B2009323AB00F05BFFC1234A469B0054
:102E8000D2584946D548FFF741FB179B1D9A01339D
:102E900017939A4200D05CE4179825B0F0BCBB466B
:102EA000B246A946A046F0BD4B460125B9461F00D3
:102EB0000C9B6D42A02B00D0A6E65B465A46029CB6
:102EC0000798E31A1E00B91850441A000A9314F028
:102ED00003FAC1235146B0469B00C858FC508044B9
:102EE000F8E6A32A00D055E6621C08925A46BA5C5E
:102EF000062A00D157E6BA4808F0D4FF089BFA5CCE
:102F0000FB56002B00DA30E2FF22069B53445A7036
:102F1000059E013E48E7A32B00D0F6E65B46029AE9
:102F20009E1A6B1C00D0F8E64046B9185044320097
:102F300014F0D2F9C123524651469B00D25892193F
:102F4000CA505A46FA50149B039A1A700223139AD5
:102F5000137019E77F2333404678012B00D1E4E159
:102F6000821C0130C0181178360201320E439042A3
:102F7000F9D1013302E67F200300069913400231A4
:102F8000104200D10CE7581EC200C01A5144C000C4
:102F900033001341083A0B7001318242F8D1059B8E
:102FA0009E1900D400E7BB468E4808F07BFF8E4890
:102FB00008F078FF8D4808F075FF8D4808F072FF23
:102FC0008C4808F06FFFFFF7BDFB7F21214044785C
:102FD000012900D1A7E1831C013040181A7824028E
:102FE000013314439842F9D1013181E6434602335B
:102FF000534402934D4500DBF1E158236B43099A9A
:10300000D218517B0F91062900D1C9E05DD8022961
:103010006DD004295DD1099819008046126D1031D8
:103020008844002A08D00E33C11840469047C12377
:10303000B3469B00FB589B44404620F00FFE5823AC
:10304000099A6B439446C4B263449C732200414680
:10305000029814F041F9C12352469B00D358A61C94
:103060009846424653460F999019995443445C70D0
:10307000C12352469B00D0505A46FA5084E6413B49
:10308000022B00D970E600200022002C08DD002071
:103090000A190B780002013118439142F9D102005C
:1030A000582309996B438C4663441A619C735B6D8A
:1030B000002B00D158E69847C12352469B00D258B6
:1030C000FB5890469B46B3444EE60B00413B022B17
:1030D0000DD9494808F0E6FEC1235246B3469B008D
:1030E000D258FB589046002402269B44B9E758204A
:1030F0006843099A13181B6D002B0BD001009446EE
:103100000E311030614460449847C123B3469B00A0
:10311000FB589B445823099A6B43944663449C7B19
:10312000002C38D023001100A61C58228C466A437C
:1031300062441169013B029ADB000800D840083B59
:103140001070180001320830F7D1C12352469B009D
:10315000D358984685E70C9BA02B00D1E7E0A32B22
:1031600000D1E4E0534607995A545B465A46029C04
:103170000798E31A1D00B91850441A000A9314F076
:10318000ABF8C1235146A84601259B00C858FC5006
:1031900080446D429EE50424062604231100C4E702
:1031A000099819008046126D10318844002A08D011
:1031B0000E33C11840469047C123B3469B00FB58CD
:1031C0009B445823099A6B43944663449C7B3DE798
:1031D000A32A01D0FFF74BFBFFF74AFB687A0210E6
:1031E000E3240000E6240000E8240000EA240000B4
:1031F000ED240000EF240000E12400007F211940AD
:103200006B78012900D1CDE0AA1C01356D18147826
:103210001B02013223439542F9D10131FFF718FB1C
:10322000A32901D0FFF75BFBFFF75BFB7F200300C7
:103230000B40084200D116E64946013BDB00881CE2
:1032400021001941083B0170190001300831F7D104
:1032500009E67F2211407278012900D19FE0B31C5A
:103260000136761818781202013302439E42F9D1D2
:103270000131FFF727FBA32A01D0FFF7A3FBFFF7DC
:10328000A2FBA32A01D0FFF7F0FBFFF7F2FBA32A72
:1032900001D0FFF7C0FBFFF7C0FB7F2003000B400E
:1032A000084200D1B8E51599013BDB004944100004
:1032B0001841083B8870180001310830F7D1ABE5A0
:1032C0007F2119406378012966D0A21C013464185B
:1032D00017781B0201323B439442F9D10131FFF7C9
:1032E000B6FB7F2119406B78012952D0AA1C013509
:1032F0006D1817781B0201323B439542F9D1013119
:10330000FFF77CFB7F2119404378012952D0821CB2
:103310000130401814781B02013223439042F9D146
:103320000131FFF743FB0221E2E4022326E40125F9
:103330006D42C2E5002304937F210B00134011422C
:1033400000D158E55246013B0498DB004A44010095
:103350001941083B9170190001320831F7D14AE553
:103360002748BB4608F09EFD1EE67F200300069915
:1033700013400231104200D1CAE50126581E7642A0
:1033800002E60123EB566A78002BD3DB002373702F
:1033900035E50221FFF732FB0221FFF758FB02213E
:1033A000FFF790FA0221FFF753FA03230224109348
:1033B000FFF7BDF90221FFF7F9FA124808F072FD94
:1033C000FBE5114808F06EFDFAE50323139A0F4858
:1033D0001370149B039A1A7008F064FD6CE60026C3
:1033E000F4B202363DE60A4808F05CFDDFE5094824
:1033F00008F058FDE1E5084808F054FDDAE5C0465C
:10340000E4240000E9240000EC240000E224000091
:10341000E5240000EB240000E7240000024A1368C2
:10342000013313607047C046D8820220044B054A1E
:103430001B6812689B1A036004230B707047C04618
:10344000D8820220B08202200CB4F0B5DE46574686
:103450004E464546E0B58BB01593754B30269846E1
:10346000170004221E708123924642465B0053805F
:103470000023994643464A46069038000D001A71CB
:1034800020F0ECFB43460400524639005A71987113
:103490002200D81D13F020FF08239C46A444634655
:1034A00005934346A4221B19DA719E3A5A7215AA53
:1034B00017780B349F724346181906AB9C463D2182
:1034C0003A00614413F008FF424640233F19D355A8
:1034D000D31952465A702A7802219A706A782B982A
:1034E000DA70AA781A71EA7899715A7101225972C0
:1034F0002C99DA719A725A734A46D97243213D0067
:103500009A732D9A18721973DE732EAB103511371A
:103510000893002A00D188E09B460023C1469A46C2
:103520000393079520E0062B44D1AB7B10351A009E
:10353000434662702370049C90462000290013F0DB
:10354000CBFE44444B460236DB19A41B5C70039B44
:1035500002349C46A4446346039301239C462D9B5E
:10356000E2443F19534532D0042294465B46E3447B
:103570005A461D6808924B463022DE19DA55FF2361
:103580007370F93BB3702A78341D2000F270691C07
:1035900013F0A2FE2B78E4186B7B9846A31C0493CF
:1035A0004346042BBFD11035280020F057FBC3B28F
:1035B0001A00BDE72370042363702B69A01C1BBA9B
:1035C000042209A90993063413F086FEBAE76B4674
:1035D000C846079D1B7B4246404605995355FBB2A2
:1035E000144C5A1A013A023B42544370207800F0BE
:1035F00023F80023A2220221207800F073F8A223EE
:1036000041462078BAB20093069B00F091FB2078E7
:1036100000F012F800200BB0F0BCBB46B246A94641
:10362000A046F0BC08BC02B018470023D3E7C04650
:10363000E48202208A110020F0B5C646070000B5DA
:10364000072843D8082398464501A8440935FF3583
:1036500010212800FDF7F8FE1BF080FD060007E0B2
:103660001BF07CFD801B04282DD801201BF030FDB1
:103670002800FDF7BFFE041EF2D180208000FF214C
:103680004044FDF7E1FE0123BB4012490A889A43FA
:103690000A8011490A889A43104B0A807A00D45252
:1036A00000220F4BDA55C027BF00474402E001203B
:1036B0001BF00EFD3800FDF79DFE0028F7D101300C
:1036C00080BCB846F0BD0D204042F9E701204042E1
:1036D000F6E7C046E4850220E68502201C8502202C
:1036E00014850220F0B5C64600B504000E00170090
:1036F000984682B0072800D9A4E0012966D08B1E25
:10370000022B00D97DE043465B0700D59DE0434690
:10371000002B02D0022900D176E02000FFF78CFFB9
:103720000F23414665019943083528003143FDF7D1
:103730008BFE002F08D14A4A4A4917887B1C9BB24E
:103740008B4200D16BE0138039006F1C2000FF37E3
:10375000FDF70EFF01213800FDF776FE1BF0FEFCA1
:10376000060007E01BF0FAFC801B042846D8012065
:103770001BF0AEFC3800FDF73DFE0028F2D101231E
:10378000474619003B40A140A340374E32888A4348
:103790001343364A338013888B431380344B6200C3
:1037A000D0520022334B1A55C0239B009C466544DF
:1037B00002E001201BF08CFC2800FDF71BFE002816
:1037C000F7D060B202B080BCB846F0BDF020042251
:1037D00001A90001FDF768FE019B002B39D043468B
:1037E0005B0732D44346002B97D021234246134235
:1037F00000D092E7204808F055FB20E00D20404221
:10380000E0E705204042DDE79B060CD543465BB26E
:10381000002B00DA81E7194808F044FB0FE0184B51
:10382000184F138090E74346DB0600D475E7434604
:103830005BB2002B00DA70E7134808F033FB062078
:103840004042BFE701204042BCE7104808F02AFB95
:10385000F5E70F4808F026FB03204042B2E7C046D8
:103860008C110020F0FF0000E4850220E685022094
:103870001C85022014850220C3240000C4240000FB
:1038800000C0FFFFEFFF0000C5240000C2240000BD
:10389000C1240000F8B50600072853D847010837AF
:1038A0003800FDF7A7FD0F230340012B47D17D1CF6
:1038B000FF3508212800FDF7C7FD1BF04FFC040071
:1038C00007E01BF04BFC001B042830D801201BF044
:1038D000FFFB2800FDF78EFD0028F2D10121080032
:1038E000B0401A4B1A8882431A80194B1B88334107
:1038F00019421FD1C0239B00FD18013BFF3BFC1860
:10390000082707E02000FDF775FD074209D10A20CE
:103910001BF0DEFB2800FDF76DFD0028F2D1013021
:1039200007E03000FFF788FE0A4808F0BBFA0D20D8
:103930004042F8BD084808F0C7FA0020F9E7052022
:103940004042F6E701204042F3E7C046E685022008
:10395000E4850220C7240000C6220000F0B5C64658
:10396000060000B507285FD8440108342000FDF7A1
:1039700041FD0F230340012B50D1C0239B00E718CA
:103980003800FDF737FD13284BD10134FF340221F5
:103990002000FDF759FD1BF0E1FB050007E01BF0DF
:1039A000DDFB401B042821D801201BF091FB2000E7
:1039B000FDF720FD0028F2D11BF0D0FB0125804649
:1039C0001B4C3800FDF716FD1C281BD82B0083402C
:1039D00023420ED1142815D1012080BCB846F0BD79
:1039E0003000FFF729FE134808F05CFA0D20404232
:1039F000F3E73000FFF720FE0F4808F053FA0420E9
:103A00004042EAE71BF0AAFB4346C01AFA235B00D8
:103A10009842E5D801201BF05BFBD2E7052040422D
:103A2000DBE703204042D8E701204042D5E7C0460B
:103A300001008810C9240000C8240000F0B54546E4
:103A4000DE4657464E46E0B583B0050014000091AF
:103A5000072800D9A9E00822924643019A4450461B
:103A6000FDF7C8FC0F230340012B00D0A3E0002C7E
:103A700000D19DE0C0239B00534418009846FDF7F9
:103A8000B9FC172802D01C2800D097E04F4B012723
:103A900001931B882B411F4249D1AF40F8204001C0
:103AA0005044FDF7A7FC8002061C80B2A04200D95A
:103AB000261C1BF053FB464B81469B46B6B22800A2
:103AC000FDF7C0FD04004046FDF794FC172801D027
:103AD0001C2854D15B461B881F423AD0A64230D8DE
:103AE00028005546013532000099FF35FDF7B2FE3A
:103AF00020212800FDF7A8FC1BF030FB0400280063
:103B0000FDF778FC00280CD01BF028FB001B0428D4
:103B100048D801201BF0DCFA2800FDF76BFC0028D8
:103B2000F2D1019A300013883B4313800AE08026CB
:103B3000B60056443000FDF75DFCC30615D40007FF
:103B40002AD4002003B0F0BCBB46B246A946A0462A
:103B5000F0BDA642C4D91BF001FB4B46C01A092890
:103B6000EFD801201BF0B4FAA9E7AF4010213000D4
:103B7000FDF76AFC019A1388BB4313808EE7280087
:103B8000FFF75AFD02F048F8012802D0114808F06A
:103B900089F907204042D5E72800FFF74DFD0E4880
:103BA00008F080F90D204042CCE701204042C9E7EF
:103BB0000E204042C6E705204042C3E702F02CF841
:103BC0000128E6D0054808F06DF9E2E7E685022015
:103BD000E4850220CC240000CB240000CA2400008D
:103BE000F0B5DE46454657464E46E0B583B0050083
:103BF00093460191072800D983E0082292464301A9
:103C00009A445046FDF7F6FB0F230340012B00D0EA
:103C10007DE05B46002B00D176E0C0239B0053443F
:103C200018009846FDF7E6FB172802D01C2800D0A4
:103C300070E01BF093FA01263A4B0700AE4099461C
:103C40000BE04B461B881E4242D11BF087FAC01B7B
:103C500009283DD801201BF03BFA2800FDF776FD2E
:103C600004004046FDF7C6FB172801D01C283BD1B5
:103C7000002CE6D05F46A34534D8F02040015044E4
:103C8000FDF7B8FB8002061CBBB280B2984227D871
:103C90005446B6B20134320028000199FF34FDF7D2
:103CA000F1FE40212000FDF7CFFB1BF057FA050085
:103CB00007E01BF053FA401B04281FD801201BF01B
:103CC00007FA2000FDF796FB0028F2D1300000E053
:103CD000002003B0F0BCBB46B246A946A046F0BDEA
:103CE0003E1CD5E7271CC8E701F096FF012802D04B
:103CF0000D4808F0D7F807204042EAE70D2040427F
:103D0000E7E701204042E4E70E204042E1E70520DA
:103D10004042DEE701F080FF0128ECD0034808F0C4
:103D2000C1F8E8E7E4850220D0240000CF24000099
:103D3000F0B557464E464546DE46E0B583B01F0017
:103D40006B461B8E0600140098460191072800D987
:103D500094E0450108352800FDF74CFB0F23034094
:103D6000022B00D090E0002C00D194E03B78002B97
:103D700065D04346002B00D183E0C0239B009B46C7
:103D8000AB445846FDF736FB222800D07FE0C02325
:103D90001B01E81804223900FDF7B8FB414630004A
:103DA000FDF71AFCF8235B01E818FDF723FB8002FE
:103DB000071C80B2A0424ED81BF0D0F90123B340BB
:103DC0009846364B81469A46BFB23000FDF73AFC22
:103DD00004005846FDF70EFB222846D153464246C2
:103DE0001B881A421FD0A74237D801353A0030004D
:103DF0000199FF35FDF72EFD20212800FDF724FB5A
:103E00001BF0ACF9040007E01BF0A8F9001B042824
:103E100031D801201BF05CF92800FDF7EBFA0028EF
:103E2000F2D138001AE0A742DFD91BF097F94B46D0
:103E3000C01A092811D801201BF04AF9C5E77B7880
:103E4000002B96D1BB78002B93D1FB78002B90D11F
:103E50000C20404202E0271CAEE7002003B0F0BC7B
:103E6000BB46B246A946A046F0BD0D4808F01AF878
:103E700007204042F2E70D204042EFE70120404298
:103E8000ECE70B204042E9E705204042E6E7054821
:103E900008F008F8ECE70E204042DFE7E485022056
:103EA000D2240000D1240000F0B557464E464546C6
:103EB000DE46E0B585B00500894617000193072866
:103EC00000D918E1002A00D112E144010834200091
:103ED000FDF790FA8D4B80469A466B009B46534601
:103EE0005A469B5A002B4AD007220240032A0ED082
:103EF000042A0CD00026022A09D031002800FDF740
:103F0000DBFE53465A4601349E52FF340BE0013427
:103F1000FF343E1C9F4200D91E1CB6B232004946F7
:103F20002800FDF7AFFD40212000FDF78DFA1BF0C2
:103F300015F9070007E01BF011F9C01B04281BD876
:103F400001201BF0C5F82000FDF754FA0028F2D13B
:103F50005A46534659469B5A52469B1B9BB2535254
:103F60006B4A002B50D15055300005B0F0BCBB4619
:103F7000B246A946A046F0BD0D204042F5E7280014
:103F8000FDF7E4FB061E00D180E007234246134004
:103F9000022B3DD153465A469B5A0134FF34002B25
:103FA000B7D102AE082231002800FDF76BFD402199
:103FB0002000FDF749FA1BF0D1F8804608E01BF01D
:103FC000CDF84346C01A0428D6D801201BF080F84B
:103FD0002000FDF70FFA0028F1D1019A3378137011
:103FE00073785370B3789370F378D370B3880E9A64
:103FF0005BBA1380F2885146584652BA0A52802161
:1040000093B2434A515584E70123505D1843AAE710
:10401000062241460A4200D16FE7032B38D0042B19
:1040200000D06AE753465A469B5A0134FF34002BAE
:1040300000D06EE702AE022231002800FDF722FD1B
:1040400040212000FDF700FA1BF088F8804608E0C8
:104050001BF084F84346C01A04288DD801201BF0B9
:1040600037F82000FDF7C6F90028F1D172783378CF
:10407000023A1B029B18594652469BB25352254A9C
:1040800093423BD88021224A515542E700206CE7F9
:1040900053465A469B5A0134FF34002B00D038E770
:1040A00002AE062231002800FDF7ECFC4021200082
:1040B000FDF7CAF91BF052F8804609E01BF04EF8F4
:1040C0004346C01A042800D956E701201BF000F827
:1040D0002000FDF78FF90028F0D1019A3378137092
:1040E00073785370B3789370F378D370B28882E7A3
:1040F0000E20404239E70120404236E72800FFF712
:104100009BFA054807F0CEFE04482EE71C850220E6
:1041100014850220EA050000D424000017FCFFFFEC
:1041200070B51500072800D980E0072900D96DE097
:10413000444B89005B589F46440108342000FDF73A
:1041400059F90F230340012B00D072E0BC239B01DF
:104150002978E018FDF778F9012070BD3A4B40014D
:104160009C4611786044FDF76FF9F5E7374B1188ED
:104170009C4640010400090A6044FDF765F9982354
:1041800008345B012978E018FDF75EF9E4E7304B6D
:1041900040019C46042229006044FDF7B7F9DBE7A3
:1041A0001188FDF719FAD7E7440108342000FDF71C
:1041B00021F90F230340012B3BD1BC239B01E018C5
:1041C000FDF718F9002837D1651CFF35222128009A
:1041D000FDF73AF980239B009C460826644407E0DB
:1041E0002000FDF707F9064216D101201AF070FFF2
:1041F0002800FDF7FFF80028F2D1ADE7154B40018C
:104200009C4611786044FDF71FF9A5E7124807F0B6
:1042100049FE0A204042A0E708212000FDF714F9DA
:104220000E4807F03FFE0D20404296E70120404235
:1042300093E70520404290E7094807F033FE02204B
:1042400040428AE7F0E80210081600000812000059
:10425000080C000008150000D9240000D824000034
:10426000D7240000F0B55746DE464E4645460123AA
:10427000E0B587080340BF001F4302230821034025
:104280008FB01F4308900A220F2039430AF008FE1E
:10429000002800D116E101201AF01AFF0A22390085
:1042A0000F200AF0FDFD002800D1EDE001201AF0FA
:1042B0000FFFD04A10219369DB0606D49369194297
:1042C000FCD1136893691942F8D03C201AF000FF22
:1042D00011F04EF800261025C64FC74C06900791E6
:1042E000BB691D4200D0C0E00136BB691D42FCD154
:1042F0003B68A355BB691D4201D1802EF4D111F05A
:1043000037F8069A079B801A9941002900D0BFE030
:10431000BA4B984200D9BBE001201AF0D9FE802E9A
:10432000DED1B74D2F00173FBF190F2606E0B3436C
:10433000F02B06D00135BD4200D1ACE02B78552BD7
:10434000F5D16B785A2BF5D1AE4C182229002000FC
:1043500012F0C2FF20000023A21C17301178013296
:104360005B18DBB28242F9D1E27D9A42E2D1237836
:10437000A54AE1781370A278090212040A43217950
:10438000667B0A4311000C92A04A11606279A17900
:10439000120409020A43E1790A4311000D929C4A72
:1043A0001160227A617A120409020A43A17A0A434F
:1043B00011000A92974A1160E27A217B12040902E5
:1043C0000A431643944AE17B1660A27B0902120459
:1043D0000A43217C0A4311000992904A1160677CCC
:1043E000A27C3F0412021743E27C17438C4A1760F9
:1043F00002221A4006921B0769D40D9D002D00D1A0
:10440000B8E00C9812F0A1FE041C280012F09DFEEA
:10441000011C201C12F033FE824B9946089BDD00E4
:10442000EC184B46A40019594C4412F03CFEA1680C
:1044300012F01FFE7C4B041C9A461860002E00D020
:10444000A3E00022794B111C1A60904612F070FE16
:10445000002800D04FE3534642461A60069B002BCB
:1044600000D161E3724B1A60F4E010F081FF069A0C
:10447000079B801A994100290AD1604B984207D8BE
:1044800001201AF025FE2BE76A4807F00BFD10E724
:10449000172E00D945E700230024654A1360634ABC
:1044A0001360614A1360644B0022002118680023E6
:1044B00018F06CFC20000FB0F0BCBB46B246A94619
:1044C000A046F0BDD020800107F0ECFCF1E6564B91
:1044D0009A46002352461360002E00D1B2E00A989B
:1044E00012F033FE041C300012F02FFE011C201CC1
:1044F00012F0C5FD4B4B9946089BDD00EC18A4005B
:104500004C44616812F0CFFDE16812F0B2FD474BF8
:1045100080469B4618605346002140461C6812F0B6
:1045200007FE002806D04046444912F009FE002844
:1045300000D1B2E100239A465B465246201C1A6025
:10454000514612F0B0FD069B041C002B02D1002F37
:1045500000D0ACE1364D5146286012F0E9FD00284C
:1045600078D10023364C2B6063780993002B76D1E9
:10457000012498E700242C4B9A461C60002E00D1A1
:1045800098E2284B9946089BDD000A9812F0DDFD61
:104590008046300012F0D9FD011C404612F06FFD3C
:1045A000089BEB189B004B449846596812F07BFD22
:1045B0004346D96812F05DFD1C4B8046186000210F
:1045C000201C9B4612F0B4FD002800D0BEE1002460
:1045D000534640461C60211C12F0AAFD0028A2D1BF
:1045E0005B461C60069B002B00D15EE1104B1C60FB
:1045F00030E0C04600400340AB74022090D003007E
:10460000AC740220183C00208E110020544102207E
:104610005041022044410220404102204C410220EE
:1046200048410220DC490220585202205052022008
:104630005452022001340000348502200000C84298
:10464000107A0220CA4A1360069A002A00D185E136
:10465000C84A1360C84C63780993002B88D0257B27
:10466000089BAB4284D10C9962698C4694446246A3
:104670000D99E37B8C4606926261A269B34694442D
:1046800062460C92A2610A9A267C9446226AE769E5
:1046900093445A46013322620136A27BDBB267445F
:1046A000F6B2E373E7612674934200D260E75210DA
:1046B000964200DA2AE2B14B002199464A46EB00C5
:1046C00008935B199B00D358181C984612F038FDCC
:1046D000002801D1AA4B9846089B00215B199B003A
:1046E0004B445B68181C9A4612F02AFD002802D140
:1046F000FC239B059A46300012F02CFD061C069800
:1047000012F023FD311C12F0BAFC0A900C9812F042
:104710001CFD311C12F0B3FC0C90380012F015FD9A
:10472000311C12F0ACFC071C584612F00EFD311C77
:1047300012F0A5FC2278061C012A00D187E1089B13
:104740005B199B004B449968DB6806919B46022AE3
:1047500000D12DE1033A012A00D9D7E1A368002155
:10476000181C9A4612F0DCFC002800D0CEE1002193
:10477000381C12F0D5FC002800D0C7E10021301C05
:1047800012F0CEFC002800D0C0E1311C381C12F021
:1047900076FC002112F0C4FC002800D0B6E153469C
:1047A0005846191C099312F067FC391C8246301CCC
:1047B00012F065FC011C504612F075FC824658460A
:1047C00012F0EAFC04900591099812F0E5FC0290C1
:1047D0000391504612F0E0FC6A4E6B4F009001913D
:1047E0002A003100380004F06BF800230993089B7D
:1047F00042465F194B46BF00DA51069B4F44BB60EF
:1048000053467B605B464046FB605D4912F037FCD7
:104810005E49804612F047FC5D493861404612F01F
:1048200042FC5C4B099ABB61CA2378613B77002A42
:1048300000D17B7F089A28005119890049444B77A1
:1048400007F098FD2A003100534804F039F824227B
:10485000A35C0133A354257B6A1C637BD2B29342D1
:1048600000D9E6E02378012B00D1E0E0022B00D153
:10487000DBE0042B00D1D6E0032B00D1D1E0474A86
:1048800025212423615CE35C45480091310004F05C
:1048900017F800232380012405E6211C404612F06E
:1048A00002FC069B041C002B46D1002F44D0099823
:1048B00012F04BFC8046380012F047FC011C4046C9
:1048C00012F0DDFB089B9C464B466544AD005959F0
:1048D0004D4412F0E8FB696812F0E5FB254D00211C
:1048E0002860071C12F016FC002826D12D49381C20
:1048F00012F026FC002820D12B49201C12F020FCAD
:10490000002800D108E1211C381C12F0B2FB400045
:10491000211C400812F0B3FBFC21890512F010FCA9
:10492000002800D1F8E02C601E49201C12F008FC81
:10493000002800D015E68DE60E4D00212C60201CCD
:1049400012F0F6FB002800D10BE6EDE71749201C1A
:1049500012F0F6FB002800D039E6DCE5002F00D18C
:1049600076E6064B9946089BDD0000249FE7C0468B
:104970005052022054520220107A0220DC490220B8
:10498000D7A3F03FB07A02103C7B0210007EE549CD
:1049900000007A446F12033B887B0210987A021061
:1049A000DC7B021000401C47CDCCCC3D0000C8434E
:1049B00067680021381C12F0C3FB002800D1A5E075
:1049C00000210A9812F0BCFB002800D19EE00C9B4D
:1049D0000021181C984612F0B3FB002800D195E086
:1049E0000698391C12F048FB0A99061C404612F042
:1049F00046FB011C301C12F056FB8046381C12F09E
:104A0000CBFB02900391404612F0C6FB4A4E009049
:104A100001912A003100494803F052FF0023099315
:104A2000E5E6474A2CE7474A2AE7474A28E7474A44
:104A300026E70023310046482273E3732374636141
:104A4000A361E361236203F03BFF01242BE50C9B90
:104A50000021181C9B4612F073FB002841D05946D8
:104A60000A9812F00CFB414612F01DFB069012F062
:104A700093FB0A900B910021301C12F061FB00287F
:104A80002AD0311C381C12F0FAFA514612F00BFBF6
:104A9000834612F081FB02000B00274E0292039323
:104AA0000A9A0B9B3100009201932A482A0003F0D6
:104AB00007FF9CE6284B1C60201C002112F0F3FA33
:104AC000069B041C002B00D090E5002F10D0234B38
:104AD0009946089BDD00EAE60021002200238B4670
:104AE000DBE7002300220A920B9300230693C2E720
:104AF0001B4D2C6018E71B49201C12F021FB0028DD
:104B0000DAD05346424644461A60D5E72522A35CD4
:104B1000094E0133A3549FE60021381C12F008FB14
:104B2000002800D096E51CE5002F00D01DE70C4DB5
:104B300044462A60F8E6C046B07A0210FC7A0210B9
:104B4000A07A0210887A0210807A0210787A021015
:104B5000B47B0210BC7A021050520220DC490220C1
:104B6000545202200000C843F0B54546DE46574681
:104B70004E46E0B5A94B87B05D78002D00D0D1E05E
:104B8000A74E04AB3478DF1D39002000DD7109F039
:104B900065FC3F78A34B1F55072C00D9B0E010F0FF
:104BA000E7FBA14B00909A46A30098465346424625
:104BB0009B5801919946002F00D1CEE09B4FE30016
:104BC0009B46FB181A685B681100194300D0DDE0B2
:104BD000009A019B5F4449463A607B604246944B91
:104BE0009950944B6421186818F0E4FC012800D116
:104BF000BCE02300002D03D107233278013213409B
:104C00003370072C00D086E08B4D00212C68201CCF
:104C100012F08EFA002806D08849201C12F07AFA89
:104C2000002800D0E2E000246E680021301C12F061
:104C30007FFA002806D08149301C12F06BFA002858
:104C400000D0CDE0AE680021301C12F071FA0028CF
:104C500006D07A49301C12F05DFA002800D0B9E085
:104C6000EE680021301C12F063FA002806D0734968
:104C7000301C12F04FFA002800D0A5E02E69002168
:104C8000301C12F055FA002806D06C49301C12F086
:104C900041FA002800D0B5E06E690021301C12F006
:104CA00047FA002806D06549301C12F033FA002874
:104CB00000D0A1E0AE690021301C12F039FA0028C2
:104CC00006D05E49301C12F025FA002800D09FE083
:104CD000ED690021281C12F02BFA00280AD0574950
:104CE000281C12F017FA002804D0201C291C12F0EE
:104CF000C3F9041C0122524B1C60524B1A700AE08B
:104D00004B4B5148A400E55007F0CCF8072332780C
:104D100001321340337007B0F0BCBB46B246A9461F
:104D2000A046F0BD1C7B04ABDF1D00233C4E3900C8
:104D300020003B709846347009F090FB3F78394B67
:104D40001F55072C00D82AE74146394BA2003E48A0
:104D5000D15007F0A7F83470DDE73C4B334F1A68A9
:104D60005B6800920193E3009B4631E72000FFF768
:104D700079FA002800D13CE74146354A354B1268A4
:104D80005A50354A2C4B12685A5032E70098019914
:104D9000801A994101225242D31712184B410292B4
:104DA0000393039B002B00D012E72C4B029A9A42EC
:104DB00000D90DE700232A4A11F072FA81445346C4
:104DC00042464946995003E7201C311C12F054F921
:104DD000041C53E7201C311C12F04EF9041C3FE761
:104DE000201C311C12F048F9041C2BE7201C002168
:104DF00012F042F9041C17E7201C311C12F03CF998
:104E0000041C57E7201C311C12F036F9041C43E740
:104E1000201C311C12F030F9041C59E7107A0220D2
:104E2000F585022090490220FC4A0220583A0020D1
:104E30009849022034850220704902200000C842AF
:104E4000E0820220FE8502200234000038AA03100E
:104E500058520220B8490220505202207E969800F3
:104E600040420F0010B507280ED8094B8000C458E7
:104E70000021201C12F05CF9002805D00549201CF7
:104E800012F048F9002800D10024201C10BDC046B3
:104E9000B84902200000C84310B507280ED8094BB6
:104EA0008000C4580021201C12F042F9002805D0CF
:104EB0000549201C12F02EF9002800D10024201CE6
:104EC00010BDC046704902200000C84270B50728D6
:104ED00024D8134B84001D590021281C12F028F9F6
:104EE000002805D00F49281C12F014F9002800D121
:104EF00000250D4B00211C59201C12F019F9002827
:104F00000AD00A49201C12F005F9002804D0291CF7
:104F1000201C12F0C8F870BD0024F8E70020FAE762
:104F2000B84902200000C843704902200000C8426E
:104F300003000020072B02D8014A9B0098587047B5
:104F40009849022003000020072B01D8014AD05CB9
:104F50007047C04690490220014B18687047C04610
:104F6000E0820220034A1378D8B2002B01D000233C
:104F700013707047FE850220F0B5DE464E4645466A
:104F80005746E0B5454B8BB019004548994603F0AC
:104F900097FC444B00269846FC239B059B46424DBC
:104FA00001AC54E00021206812F0CAF8002801D1B9
:104FB000434623600021606812F0C2F8002801D146
:104FC0005B466360A3683949181C9A4612F0B8F82A
:104FD000002805D05046364912F09CF8002801D12F
:104FE0000023A360E3683149181C9A4612F0A8F820
:104FF000002805D050462E4912F08CF8002801D127
:105000000023E3600021206912F09AF8002801D102
:10501000284B23610021606912F092F8002801D129
:10502000234B63610021A06912F08AF8002801D1A6
:10503000214BA3612B00220083CA83C383CA83C38D
:105040000136F6B283CA83C32435082E1AD0210054
:1050500030000AF02FFA0028A4D043462B605B46AC
:105060006B600023AB60EB60124B01362B61104B81
:10507000F6B26B61104BAB6101235B42AB8324350D
:10508000082EE4D149460D4803F01AFC0BB0F0BCE1
:10509000BB46B246A946A046F0BDC046B07A021053
:1050A000187C0210D7A3F03FDC49022000007AC42C
:1050B00000007A44007EE5496F12033B487C0210F1
:1050C00070B52B4E2B48310003F0FAFB012017F08E
:1050D000E3FF294B1860002846D096212748490154
:1050E00010F0E2F9022101200FF0AEF902210020B8
:1050F0000FF0AAF9012301220821204810F064FAD8
:105100001F4B20221C685D6800211E4812F0DEF84B
:105110001D4B082200211D481C605D609C60DD6005
:105120001C615D619C61DD611C625D629C62DD628F
:105130001C635D639C63DD6312F0C8F820220021CC
:10514000134812F0C3F820220021124812F0BEF8D2
:1051500000212022104812F0B9F8FFF70DFF3100AE
:105160000E4803F0ADFB70BD0D4806F09BFEFAE75C
:10517000B07A0210707C0210348502200040034097
:1051800038AA0310FC4A0220583A00209049022015
:10519000B849022070490220984902209C7C0210E4
:1051A0000334000010B5124B5A78002A19D102219D
:1051B000FF3119800021596099600E490E4CD96069
:1051C00000210E48197421009A845A619A61DA61AB
:1051D0001A6203F075FB0A48210003F071FB0120FD
:1051E00010BD0848044903F0D9FB0020F8E7C04689
:1051F000107A022000080A00B07A0210F87C02102F
:105200003C7D0210C07C021070B50400072826D82F
:10521000144B5A78002A1ED10221FF311980002137
:1052200059609960411C59730A21D98100210E4DA2
:1052300018739A8419745A619A61DA611A622900A2
:1052400022000A4803F03CFB09482200290003F031
:1052500037FB012070BD0449064803F09FFB002086
:10526000F8E7C046107A0220B07A02106C7D021076
:10527000A87D0210C07C021070B50025291C041CFA
:1052800011F04EFF002825D1134B5A78002A1DD16A
:1052900081214900198011495C60D96000219A84FC
:1052A0005A619A61DA611A629D601974201C11F0CA
:1052B00073FF0B4C02000B000A48210003F000FBB7
:1052C0000948210003F0FCFA012070BD0449074899
:1052D00003F064FB0020F8E7107A022000080A00BF
:1052E000B07A0210DC7D0210287E0210C07C021011
:1052F000F0B5040083B00D1C072832D80026281C06
:10530000311C11F00DFF00282BD1174B5A78002AC1
:1053100023D1812149001980611C59730A21D98147
:1053200000219E609A845A619A61DA611A625D6016
:105330001C731974281C11F02FFF0C4F0C4E009099
:10534000019122003900300003F0BAFA0948220026
:10535000390003F0B5FA012004E00449064803F0DF
:105360001DFB002003B0F0BD107A0220B07A0210BD
:10537000687E0210AC7E0210C07C0210F0B5040002
:1053800083B00D1C072832D80026281C311C11F0D0
:10539000C7FE00282BD1174B5A78002A23D10421AD
:1053A000FF311980611C59730A21D98100215E6087
:1053B0009A845A619A61DA611A629D601C73197449
:1053C000281C11F0E9FE0C4F0C4E009001912200B8
:1053D0003900300003F074FA09482200390003F064
:1053E0006FFA012004E00449064803F0D7FA0020D0
:1053F00003B0F0BD107A0220B07A0210E47E0210F1
:10540000307F0210C07C021070B50025291C041CDE
:1054100011F086FE002825D1134B5A78002A1DD1A1
:1054200082214900198011499C60D96000219A8429
:105430005A619A61DA611A625D601974201C11F078
:10544000ABFE0B4C02000B000A48210003F038FAB7
:105450000948210003F034FA012070BD04490748CF
:1054600003F09CFA0020F8E7107A022000080A00F6
:10547000B07A02106C7F0210B87F0210C07C02105C
:10548000014B58787047C046107A0220F0B5464666
:10549000D6464F46C0B5804684B0072805D904B02B
:1054A000E0BCBA46B146A846F0BD42462E492F4858
:1054B00003F006FA2E4B9A464346DB001C00994641
:1054C00053464444A400185911F066FE54440600A3
:1054D00060680F0011F060FE264D32003B00009026
:1054E0000191280003F0ECF9A06811F055FE0600C8
:1054F000E0680F0011F050FE1F4D32003B0000909D
:105500000191280003F0DCF9206911F045FE060046
:10551000A0690F0011F040FE02900391606911F044
:105520003BFE164D3B00009001913200280003F035
:10553000C7F9237FCA2B0CD04B4643449B005344EE
:105540005B7F0F49CA2B0CD00D4A0E4803F0B8F907
:10555000A5E74B4643449B0053445B7F0A49CA2B53
:10556000F2D1094AF1E7C046B07A02100880021071
:10557000DC49022020800210348002104C8002108E
:10558000048002106C8002100080021070B50400CC
:1055900088B00B00144A2021684613F023FB20003A
:1055A00069461EF0E5F9041E14D068461EF056FB4D
:1055B0002618262130001DF037FF00280FD0851B4C
:1055C0007F2D0AD8094C2A003100200011F084FEFA
:1055D00000236355200008B070BD7F25F2E730003E
:1055E0001EF03CFB3018EAE78C8002105085022048
:1055F000F0B50378002B0CD00200110001322B2BE8
:105600002DD0252B08D001300B700378002BF4D15E
:10561000100000230370F0BD44782500303DEEB249
:10562000092E1FD92500413D052D24D92500613DB6
:10563000052DE8D8573C85782E00303EF7B2092F6B
:1056400017D92E00413E052E17D92E00613E052E9A
:10565000D9D8573D24012C43E3B20330D4E70130BD
:105660000B3BD1E72C0085782E00303EF7B2092F96
:10567000E7D83500EEE7373CDDE7373DEAE7C046DF
:1056800030B5040087B0002835D06D46811D042256
:10569000A81D11F021FE21000E2004220E316844C5
:1056A00011F01AFE21000A2004220A31684411F088
:1056B00013FE2100122004221231684411F00CFE66
:1056C00006222100684611F007FEA37D6846013BD3
:1056D0005A425341AB75FCF71DFE6846FCF7CEFB02
:1056E000041E01D1002403E00A21012009F0B8FAC8
:1056F000200007B030BD024806F0D4FB0024F7E7D5
:105700000174000070B5154C154B22689A4202D105
:10571000A388012B1FD0134D2A222800002111F04D
:10572000D5FD0F4B063D2B600123AB80A3600E4BD4
:105730009A68E260DA6822611A6962615A69A26154
:105740009A69E261DA6922621A6A62625A6AA2623C
:105750009B6AE36270BDA3680133E7E720860220FD
:1057600050414E53268602200080054070B5204CE3
:10577000204B226882B09A4202D1A388012B0BD021
:105780001D4C200003F09CF81C4803F099F8200001
:1057900003F096F802B070BD174D280003F090F8A2
:1057A000174803F08DF8E268A168164803F088F8FE
:1057B000154803F085F8E669A36962692169134811
:1057C000009603F07DF8E66AA36A626A216A1048CF
:1057D000009603F075F8280003F072F8200000230B
:1057E000202200211030E36011F070FDD2E7C046A6
:1057F0002086022050414E5390800210CC8002102F
:105800000081021034810210608102108881021030
:10581000C8810210044A10B513680133136019F0EF
:105820009DFC024B186010BD284E02202C4E022019
:10583000014B18687047C046284E022010B5064B31
:10584000064CE3607346236160611AF021FCA0619D
:10585000034808F00FFDFEE7F200EFBE00800540B0
:105860000882021010B5084B084CE36073462361B0
:105870001AF02CFC606100201AF00AFCA0610448B8
:1058800008F0F8FCFEE7C046F300EFBE00800540DC
:1058900008820210054B064A10B5DA6072460548C8
:1058A0001A61596108F0E6FCFEE7C0460080054039
:1058B000F400EFBE0882021070B5214D00212C00CB
:1058C0002800942211F002FD1E4B083C23601E4B61
:1058D0000120636001231D4994355B422278013425
:1058E0005A405308024052420A4053405A0803406B
:1058F0005B420B405A405308024052420A40534018
:105900005A0803405B420B405A405308024052423F
:105910000A4053405A0803405B420B405A40530828
:10592000024052420A4053405A0803405B420B4037
:105930005340AC42D2D1DB43054A936070BDC046B0
:1059400058860220474C524302009C002083B8ED49
:1059500050860220F8B54F4C4F4B226805009A4202
:1059600002D1A388022B54D0FFF7A6FFE16B0029D8
:1059700002D0A9424BD8691AE56380250F22635DE6
:105980001340180001331A40625581221030800004
:105990002150A35C0F2B01D80133A3540023250011
:1059A0000126200001213D4AA3609C357642037800
:1059B000013073405E080B405B42134073405E0849
:1059C0000B405B4213405E4073080E407642164027
:1059D00073405E080B405B4213405E4073080E400C
:1059E0007642164073405E080B405B4213405E40B7
:1059F00073080E407642164073405E080B405B42CF
:105A000013405E40A842D2D1F643A660F8BD002103
:105A1000B2E7E3889C2BA7D1A36827009C4600230C
:105A2000260001201D49A3609C37013B32780136D6
:105A30005A405308024052420A4053405A08034019
:105A40005B420B405A405308024052420A405340C6
:105A50005A0803405B420B405A40530802405242EE
:105A60000A4053405A0803405B420B405A405308D7
:105A7000024052420A4053405A0803405B420B40E6
:105A80005340B742D2D16246DB43A2609C4500D16D
:105A90006CE769E750860220474C52432083B8EDFB
:105AA000F8B54B4C4B4B226805009A4202D1A388B3
:105AB000022B4CD0FFF700FF002D47D02A7800239F
:105AC000002A08D0444901E0172B04D0CA540133FE
:105AD000EA5C002AF8D100222500012620000121DD
